:100000000C945B000C9478000C9478000C947800AD
:100010000C9478000C9478000C9478000C94780080
:100020000C9478000C947D140C9478000C94780057
:100030000C9478000C947B0C0C9478000C94780051
:100040000C9478000C9478000C9478000C94780050
:100050000C9478000C9478000C9478000C94780040
:100060000C9478000C9478009E09A409A709AA09A9
:10007000AD09B009B309B609B909BC09BF09C2097C
:1000800020506F6C6F6C750033F720526F626F7485
:100090000057616C6C00466F6C6C6F776572003E48
:1000A0006733323E3E633332004C31362063646541
:1000B00067726567340011241FBECFEFD4E0DEBF46
:1000C000CDBF12E0A0E0B1E0EAE8FFE202C0059097
:1000D0000D92AA35B107D9F712E0AAE5B2E001C046
:1000E0001D92AF38B107E1F70E94A0010C94C3172D
:1000F0000C940000ECE7F0E08081806280833D9802
:10010000459808958EEC9FEF62E370E00E94F11134
:10011000089582E390E06EEC7FEF0E94F111089564
:1001200086EA9FEF6EEC7FEF0E94F11108958EEC4E
:100130009FEF66EA7FEF0E94F1110895AF92BF92A0
:10014000CF92DF92EF92FF920F931F93B82EA62EBD
:1001500069017A01012B11F00E94C30E8B2D6A2DCB
:100160000E94930EC701B6010E948E0F1F910F913E
:10017000FF90EF90DF90CF90BF90AF9008950F93D6
:100180001F93CF93DF93182F062FEA01232B11F033
:100190000E94C30E812F602F0E94930ECE010E94F9
:1001A000AF0FDF91CF911F910F91089585E00E94CD
:1001B000B106089587E00E94B106089586E00E9486
:1001C000B1060895EF92FF920F931F93CF93DF93A1
:1001D000EC010E94C30EEE24FF2487010EC080E0D4
:1001E00060E00E94930EC801B7010E948E0F88EE56
:1001F00093E00E94C8140E94C30E0894E11CF11CF5
:10020000011D111DCE15DF0554F7DF91CF911F9110
:100210000F91FF90EF900895DF93CF93CDB7DEB7A6
:1002200064970FB6F894DEBF0FBECDBF88ED9FEF89
:1002300068E270E00E94F11182EB97E00E94C8141E
:1002400080E090E060E070E00E94F111CE01019644
:1002500064960FB6F894DEBF0FBECDBFCF91DF918D
:100260000895EF92FF920F931F937C0166277727E3
:10027000681B790B0E94F1110027F7FC0095102FE5
:10028000C801B7010E94EC039B01AC0167E676EE62
:1002900089E996E40E9440030E944A04DC01CB01F4
:1002A0000E94C81480E090E060E070E00E94F111CC
:1002B0001F910F91FF90EF900895EF92FF920F938F
:1002C0001F937C01882799278E199F09B7010E94E7
:1002D000F1110027F7FC0095102FC801B7010E940B
:1002E000EC039B01AC0167E676EE89E996E40E9497
:1002F00040030E944A04DC01CB010E94C81480E044
:1003000090E060E070E00E94F1111F910F91FF906A
:10031000EF9008950F931F938C0180E091E00E946D
:10032000780C80E060E00E94930EC8010E94AF0F3D
:1003300080E10E94F6118823D9F31F910F9108954F
:10034000AF92BF92CF92DF92EF92FF920F931F93E3
:10035000CF93DF930E947A008AE091E00E948A01A5
:1003600087E00E94B1066C0100E010E032E3A32EAA
:10037000B12C87E00E94B106EC01801B910B880F25
:10038000991F63E070E00E94C2159B01CE018C1999
:100390009D0964E170E00E94C215260F371F8FEFA0
:1003A0002E3C380714F42EEC3FEF7901233331054E
:1003B0001CF082E3E82EF12C0E942E152AEF30E08B
:1003C00040E050E00E94D515611571058105910549
:1003D000D1F49E01442737FD4095542F80E090E0F2
:1003E00060E070E001E010E00E949E009701442769
:1003F00037FD4095542F80E090E061E070E000E030
:1004000010E00E949E00B5016E197F09C701C296D7
:100410000E94F1118E01ADCF0E942E1524E630E02E
:1004200040E050E00E94D5156115710581059105E8
:1004300091F40E94C30E80E060E00E94930E83E17D
:1004400091E00E94AF0F80E061E00E94930E89E18D
:1004500091E00E94AF0F82E390E06EEC7FEF0E948C
:10046000F11108950E942E1524E630E040E050E09E
:100470000E94D515611571058105910591F40E94C1
:10048000C30E80E060E00E94930E82E291E00E9441
:10049000AF0F80E061E00E94930E8AE291E00E943B
:1004A000AF0F8EEC9FEF66EA7FEF0E94F111089587
:1004B0003D98459880E890E00E949F0F80E061E0C1
:1004C0000E94930E88E890E00E949F0F8FE990E0D1
:1004D0000E94680C88EE93E00E94C8140E94C30E2C
:1004E00081E990E00E949F0F80E061E00E94930EFE
:1004F00086E990E00E949F0F88EE93E018C00E946A
:10050000C30E0E943E08A0E0B0E0BC01CD010E94F5
:100510008E0F8DE291E00E94AF0F80E061E00E94BB
:10052000930E80E391E00E94AF0F84E690E00E947A
:10053000C81480E10E94F611882309F380E10E942B
:10054000FA130E94C30E88E391E00E94AF0F89EA7C
:1005500090E00E94680C0E946A088823E1F70895E1
:100560008F929F92AF92BF92CF92DF92EF92FF92C3
:100570000F931F93CF93DF930E94580200E010E087
:1005800024E1822E912C98ECA92EB12C01C08E0171
:100590000E942E1528E93AE340E050E00E94D5156C
:1005A000615B76438040904018F00E943202F0CFA9
:1005B00086E00E94B106893C91051CF00E940C0265
:1005C000E7CF87E00E94B106EC01801B910B889D6C
:1005D0008001899D100D989D100D1124CE01845627
:1005E000904063E070E00E94C215060F171F88EC70
:1005F000E82EF12CE00EF11E6501C01AD10AC701E8
:10060000B6010E94F1110E942E1524E630E040E070
:1006100050E00E94D515611571058105910509F01D
:10062000B6CF0E94C30E80E060E00E94930EBE0130
:10063000882777FD8095982F0E948E0F85E060E0D7
:100640000E94930EB801882777FD8095982F0E940D
:100650008E0F80E061E00E94930EB701882777FD3E
:100660008095982F0E948E0F84E061E00E94930E87
:10067000B601882777FD8095982F0E948E0F87CF2F
:10068000A8E1B0E0E6E4F3E00C941A1669837A83FB
:100690008B839C832D833E834F835887B9E0EB2E59
:1006A000F12CEC0EFD1ECE010196B7010E94C20591
:1006B0008E010F5E1F4FCE010596B8010E94C20544
:1006C0002985223008F47EC03989323010F4B8010F
:1006D0007CC08A859A8989278A87243011F0223044
:1006E00031F4231709F06EC06CE471E06EC0343051
:1006F00039F41D861E861F86188A1C861B8604C038
:10070000323021F484E08987B7015FC02B853C85B6
:100710008B899C89281B390B3C872B87ED84FE84B1
:100720000F851889AD88BE88CF88D88CEA14FB0461
:100730000C051D0540F4EE0CFF1C001F111F21507D
:1007400030403C872B8720E030E040E050E080E004
:1007500090E0A0E0B0E460E070E0EA14FB040C0577
:100760001D0540F0282B392B4A2B5B2BEA18FB0880
:100770000C091D09B695A79597958795EE0CFF1C5A
:10078000001F111F6F5F7F4F6F31710531F7DA0165
:10079000C9018F779070A070B07080349105A10569
:1007A000B10561F427FD0AC0E114F104010511054A
:1007B00029F0205C3F4F4F4F5F4F20782D873E87B9
:1007C0004F87588BBE01675F7F4FCB010E94ED04BE
:1007D0006896EAE00C943616A8E0B0E0E2EFF3E0A9
:1007E0000C941B169B01AC0183E08983DA01C901DB
:1007F0008827B7FD83959927AA27BB27B82E2115EF
:1008000031054105510519F482E089833AC08823F6
:10081000A9F0203080E0380780E0480780E85807DA
:1008200029F460E070E080E09FEC30C0EE24FF240B
:100830008701E21AF30A040B150B02C079018A0141
:100840008EE1C82ED12CDC82CB82ED82FE820F831A
:100850001887C801B7010E949E040197181619064F
:1008600084F4082E04C0EE0CFF1C001F111F0A9414
:10087000D2F7ED82FE820F831887C81AD90ADC826C
:10088000CB82BA82CE0101960E94ED042896E9E05F
:100890000C943716ACE0B0E0E0E5F4E00C942216DE
:1008A00069837A838B839C83CE010196BE016B5F43
:1008B0007F4F0E94C2058D81823061F1823050F1FC
:1008C000843021F48E81882351F12EC02F81388508
:1008D00037FD20C06E812F3131051CF06623F9F001
:1008E00023C08EE190E0821B930B29853A854B85CE
:1008F0005C8504C056954795379527958A95D2F71C
:100900006623B1F050954095309521953F4F4F4F5C
:100910005F4F0EC020E030E040E050E009C02FEF14
:100920003FEF4FEF5FE704C020E030E040E050E8E9
:10093000B901CA012C96E2E00C943E16EF92FF92A8
:100940000F931F937B018C0180E0E81680E0F8068E
:1009500081E0080780E0180788F48FEFE816F104BB
:100960000105110531F028F088E090E0A0E0B0E04A
:1009700017C080E090E0A0E0B0E012C080E0E81690
:1009800080E0F80680E0080781E0180728F088E199
:1009900090E0A0E0B0E004C080E190E0A0E0B0E032
:1009A00020E230E040E050E0281B390B4A0B5B0BA3
:1009B00004C016950795F794E7948A95D2F7F70146
:1009C000EC5AFE4F8081281B310941095109C901A8
:1009D0001F910F91FF90EF900895DF92EF92FF9299
:1009E0000F931F93FC01E480F58006811781D1806D
:1009F0008081823048F480E090E0A0E1B0E0E82A15
:100A0000F92A0A2B1B2BA5C0843009F49FC0823021
:100A100021F4EE24FF24870105C0E114F10401054F
:100A2000110519F4E0E0F0E096C0628173819FEF58
:100A3000623879070CF05BC022E83FEF261B370BCA
:100A40002A3131052CF020E030E040E050E02AC0AF
:100A5000B801A701022E04C0769567955795479572
:100A60000A94D2F781E090E0A0E0B0E004C0880FE3
:100A7000991FAA1FBB1F2A95D2F70197A109B10997
:100A80008E219F21A023B1230097A105B10521F05C
:100A900081E090E0A0E0B0E09A01AB01282B392B77
:100AA0004A2B5B2BDA01C9018F779070A070B07070
:100AB00080349105A105B10539F427FF09C0205CF8
:100AC0003F4F4F4F5F4F04C0215C3F4F4F4F5F4F31
:100AD000E0E0F0E02030A0E03A07A0E04A07A0E420
:100AE0005A0710F0E1E0F0E079018A0127C0603890
:100AF000710564F5FB01E158FF4FD801C7018F77FD
:100B00009070A070B07080349105A105B10539F4E2
:100B1000E7FE0DC080E490E0A0E0B0E004C08FE309
:100B200090E0A0E0B0E0E80EF91E0A1F1B1F17FFBF
:100B300005C016950795F794E794319687E01695CA
:100B40000795F794E7948A95D1F705C0EE24FF2422
:100B50008701EFEFF0E06E2F679566276795902F7E
:100B60009F77D794DD24D7948E2F8695492F462BD7
:100B7000582F5D29B701CA011F910F91FF90EF9087
:100B8000DF900895FC01DB01408151812281622FB9
:100B90006F7770E0221F2227221F9381892F880FF1
:100BA000822B282F30E0991F9927991F11969C932B
:100BB000119721153105A9F54115510561057105FB
:100BC00011F482E037C082E89FEF13969C938E93D6
:100BD00012979A01AB0167E0220F331F441F551F84
:100BE0006A95D1F783E08C930DC0220F331F441F09
:100BF000551F12968D919C911397019713969C9374
:100C00008E931297203080E0380780E0480780E418
:100C1000580758F314962D933D934D935C93179773
:100C200008952F3F310579F441155105610571058E
:100C300019F484E08C93089564FF03C081E08C93E1
:100C400012C01C9210C02F57304013963C932E9325
:100C5000129783E08C9387E0440F551F661F771F20
:100C60008A95D1F7706414964D935D936D937C9340
:100C700017970895982F803278F487E880937A0048
:100C800080917C0080648076892B80937C008091A9
:100C90007A00806480937A00089580917C0085FFBB
:100CA00005C080917900282F30E004C020917800A1
:100CB00030917900C901089590933F0180933E01DE
:100CC00008950895089580917C0085FF05C0809166
:100CD0007900282F30E004C020917800309179000D
:100CE000C9010895282F8032B0F487E880937A00F4
:100CF00080917C00982F9064662311F0806C02C074
:100D0000892F8F77807E822B80937C0080917A0060
:100D1000806480937A000895982F803278F487E871
:100D200080937A0080917C0080648076892B809308
:100D30007C0080917A00806480937A0080917A00B0
:100D400086FDFCCF80917C0085FF05C080917900F5
:100D5000282F30E004C02091780030917900C9013B
:100D600008950E948C060895EF92FF920F931F93AF
:100D7000982F803278F487E880937A0080917C0005
:100D800080648076892B80937C0080917A008064D7
:100D900080937A0080917A0086FDFCCFFB01EE24DF
:100DA000FF24870180917A00806480937A0080918B
:100DB0007A0086FDFCCF80917C0085FF04C0809185
:100DC000790090E004C08091780090917900A0E0D3
:100DD000B0E0E80EF91E0A1F1B1F319719F7CB016F
:100DE000969587956034710538F48E0D9F1D70E0DF
:100DF0000E94AE159B010DC0A0E0B0E0E80EF91E08
:100E00000A1F1B1F9B0140E050E0C801B7010E9470
:100E1000D515C9011F910F91FF90EF90089587E0BC
:100E200064E170E00E94B40608950E94B40608953B
:100E300090933F0180933E0108951F9310917C0091
:100E400080917C008F7D80937C008EE164E170E076
:100E50000E94B4068EE164E170E00E94B4069C0139
:100E600015FD04C080917C008F7D03C080917C00C3
:100E7000806280937C00B9017695679580E090E070
:100E80006C54744D8E4E9F4F40E050E00E94D5153B
:100E9000C9011F9108950E941D070895A0E0B0E0C8
:100EA00020913E0130913F0140E050E0BC01CD0176
:100EB0000E9483159B01AC0180917C0085FF0BC0D3
:100EC000B901CA0161587F4F8F4F9F4F2FEF30E01C
:100ED00040E050E00AC0B901CA0161507E4F8F4F17
:100EE0009F4F2FEF33E040E050E00E94D515C9013D
:100EF00008950E94B4060E944E0708950E94790743
:100F0000089580917C0085FF06C08091790090E073
:100F10000E944E07089580917800909179000E9478
:100F20004E070895982F803278F487E880937A00EE
:100F300080917C0080648076892B80937C008091F6
:100F40007A00806480937A0080917A0086FDFCCFDD
:100F50000E94810708950E94920708950E948107C8
:100F6000089587E064E170E00E94B4060E944E0795
:100F700008950E944E0708951F9310917C00809160
:100F80007C008F7D80937C0086E064E170E00E94AD
:100F900079079C0115FD04C080917C008F7D03C002
:100FA00080917C00806280937C00C901880F991F2A
:100FB000820F931F880F991F880F991F8A5792409D
:100FC0006DE070E00E94C215CB011F9108950E9450
:100FD000BC0708951F9310917C0080917C008F7D49
:100FE00080937C0086E064E170E00E9479079C01B8
:100FF00015FD04C080917C008F7D03C080917C0032
:10100000806280937C0084E190E0AC01249FC00169
:10101000259F900D349F900D11248E529F4167E2C1
:1010200070E00E94C215CB011F9108950E94EA074B
:1010300008951F9310917C0080917C008F7D809398
:101040007C0086E06AE070E00E947907AC0115FD43
:1010500004C080917C008F7D03C080917C00806201
:1010600080937C009A01220F331F240F351F2F5FBE
:101070003F4F36952795C9011F9108950E94190881
:1010800008951F9310917C0080917C008F7D809348
:101090007C0086E06AE070E00E947907AC0115FDF3
:1010A00004C080917C008F7D03C080917C008062B1
:1010B00080937C009A01220F331F240F351FC90132
:1010C0001F9108950E94410808950E9441080895C3
:1010D0000895089580914B01882339F020E0809194
:1010E000780290917902892B09F021E0822F0895EE
:1010F00010926F00E1E8F0E08081887F816080835A
:1011000080E197E2909389008093880010928B0091
:1011100010928A0081E080934B0110927902109224
:101120007802089510926F0083E28093800081E13D
:10113000809381001092820080E197E29093890071
:101140008093880010928B0010928A00229A7894E3
:101150000895A0E0B0E0EFEAF8E00C941A16FC0164
:101160005B01C42E809177028823C9F481E08093CB
:10117000770210926F0083E28093800081E1809378
:1011800081001092820080E197E290938900809321
:10119000880010928B0010928A00229A7894109204
:1011A0004B01F7FD03C0DD24D39403C0FF772AE091
:1011B000D22E80918100082F10E0087F107088ECFB
:1011C000D89EC00111248E179F07C0F4EF0187E25B
:1011D000E131F80710F0C0E1D7E2BE0176956795DE
:1011E00080E090E06058794687469F4F9E0140E03E
:1011F00050E00E94D5157901016024C088E2D89E94
:10120000802D1124C82FD0E0CE17DF0708F4EF019E
:10121000BE01769567959E0140E050E08AE0D816C1
:1012200039F480E090E0605E734481449F4F06C0D3
:1012300080E090E060537D4E8C4E9F4F0E94D5150C
:10124000790102608AE0D81639F4CE0105966AE089
:1012500070E00E94AE15EB0183E0C83ED80711F4A0
:10126000B5010FC0BE0180E090E0950140E050E084
:101270000E94831528EE33E040E050E00E94F7150D
:10128000B90110926F0000938100F0928900E09202
:101290008800E0918800F0918900AC2DA03108F021
:1012A000AFE080E190E08A1B910902C0F695E795D6
:1012B0008A95E2F7F0938B00E0938A0070935F02C7
:1012C00060935E0286B38FEF86BB81E080936F00F0
:1012D000CDB7DEB7EAE00C9436160E94A90808954F
:1012E000CF93DF93EB018F3F11F0442329F488EE75
:1012F00093E0BE0140E067C0813110F420E005C0FA
:10130000282F2051203608F02FE5822F6CE00E9414
:10131000A215382F682F70E084EF9FEF689FF001CF
:10132000699FF00D789FF00D1124E20FF11DEC3054
:10133000F10538F4EC5CFF4F0C9449168CE991E010
:1013400023C080E090E020C085EB91E01DC08FECD1
:1013500091E01AC08AEE91E017C087E092E014C0D5
:1013600086E292E011C087E492E00EC089E692E046
:101370000BC08EE892E008C085EB92E005C08EEDD0
:1013800092E002C08AE093E0373071F002C0880F2B
:10139000991F6A95E2F7323020F005966AE070E016
:1013A0000BC0805090480BC036E0880F991F3A95CB
:1013B000E1F7029665E070E00E94AE15CB01403186
:1013C00008F04FE0BE010E94A908DF91CF91089577
:1013D0000E947009089580914B01882339F020E024
:1013E0008091780290917902892B09F021E0822F77
:1013F000089510926F00E1E8F0E08081887F8160BD
:10140000808380E197E29093890080938800109216
:101410008B0010928A0081E080934B011092790238
:1014200010927802089530915C02E0917802F09178
:101430007902332311F0249101C02081822F81543D
:101440008A3108F4205E203259F48091780290911C
:10145000790201969093790280937802019729F797
:10146000822F0895CF93DF930E94130A282FC0E0A4
:10147000D0E01DC0CE0153E0880F991F5A95E1F7C7
:10148000CC0FDD1FC80FD91F822F992787FD90959C
:10149000C80FD91FE0978091780290917902019648
:1014A00090937902809378020E94130A282F822F4A
:1014B00080538A30F8F2CE01DF91CF910895A0E0F9
:1014C000B0E0E5E6FAE00C94181680904001B09088
:1014D0005A02BB2021F060915B02662399F4A09030
:1014E0005B020091450110914601E0904101F090AE
:1014F0004201C0914301D0914401C0904701D09076
:10150000480108C18FEF70E040E00E94700910921E
:101510005B02CBC194E0892EBB2404EF11E084E090
:10152000E82EF12CC0EDD7E0B4E09B2EAFE0CA2E40
:10153000D12C0E94130A282F809178029091790271
:1015400001969093790280937802263609F498C028
:101550002736CCF42236A1F1233674F42E3361F110
:101560002F3334F42132B1F22C3309F00BC126C0F1
:10157000213609F007C121C1243609F451C02536AE
:101580000CF066C035C02F3609F4C1C0203754F4C2
:101590002C3609F4A5C02D3609F4A6C0273609F06B
:1015A000F1C086C0243709F4D1C0263709F4E6C05B
:1015B000223709F0E7C0B0C08394BBCF8A94B9CF7B
:1015C000A0925B02B0925A0210934601009345012B
:1015D000F0924201E0924101D0934401C093430153
:1015E00090924001D0924801C09247012BE0FCC08C
:1015F000A0925B02B0925A021093460100934501FB
:10160000F0924201E0924101D0934401C093430122
:1016100090924001D0924801C092470120E0E4C07E
:10162000A0925B02B0925A021093460100934501CA
:10163000F0924201E0924101D0934401C0934301F2
:1016400090924001D0924801C092470122E0CCC064
:10165000A0925B02B0925A0210934601009345019A
:10166000F0924201E0924101D0934401C0934301C2
:1016700090924001D0924801C092470124E0B4C04A
:10168000A0925B02B0925A0210934601009345016A
:10169000F0924201E0924101D0934401C093430192
:1016A00090924001D0924801C092470125E09CC031
:1016B000A0925B02B0925A0210934601009345013A
:1016C000F0924201E0924101D0934401C093430162
:1016D00090924001D0924801C092470127E084C017
:1016E0000E94320A7C0144C00E94130A8C3611F415
:1016F000BB2403C0AA24BB24B394809178029091A8
:1017000079020196909379028093780212CF0E9419
:10171000320A882E982C0DCFA0925B02B0925A020A
:101720001093460100934501F0924201E09241017D
:10173000D0934401C093430190924001D09248015C
:10174000C092470120E0FF24F3944FC00E94320A68
:10175000BC0180EC9DE50E94AE15CB01EB01F3E0EE
:10176000CC0FDD1FFA95E1F7880F991FC80FD91F1D
:10177000CE01B7010E94AE158B01DBCE0E94320A6A
:101780006C01D7CEA0925B02B0925A021093460130
:1017900000934501F0924201E0924101D09344014F
:1017A000C093430190924001D0924801C0924701FA
:1017B000109279021092780278C0A0925B02B092E7
:1017C0005A021093460100934501F0924201E092C3
:1017D0004101D0934401C093430190924001D092C3
:1017E0004801C092470129E0FF248CE0889EC00197
:1017F0001124E22EE80E0AC08091780290917902BD
:1018000001969093790280937802E3940E94130AE0
:101810008B3291F3833281F30CC0809178029091E6
:10182000790201969093790280937802EA940E945B
:10183000130A8D3291F3C0914501D0914601815335
:10184000883058F400914301109144010E94320AFB
:10185000BC01C8010E94AE15EB018E010BC0809146
:1018600078029091790201969093790280937802A0
:10187000C00FD11F169507950E94130A8E3279F377
:1018800080915A02882339F0CE01969587958093EE
:101890005B02C81BD109FF2011F0EE24EA948E2DC3
:1018A000BE01409147010E947009CDB7DEB7ECE060
:1018B0000C94341610926F00909379028093780202
:1018C00081E080935C0210925B020E945F0A08959F
:1018D0000E945A0C089510926F00909379028093A1
:1018E000780210925C0210925B020E945F0A0895D7
:1018F0000E946B0C08951F920F920FB60F92112445
:101900002F933F934F935F936F937F938F939F9307
:10191000AF93BF93EF93FF9380915E0290915F022C
:10192000019790935F0280935E02019611F51092E9
:101930006F00789480918100887F8160809381001E
:1019400080E197E2909389008093880010928B0049
:1019500010928A0081E080934B01809178029091EF
:101960007902892B31F080915D02882311F40E9465
:101970005F0AFF91EF91BF91AF919F918F917F91FE
:101980006F915F914F913F912F910F900FBE0F90EC
:101990001F90189510926F0080914B01882341F0A1
:1019A0008091780290917902892B11F00E945F0A50
:1019B00081E080936F0020E080917802909179021D
:1019C000892B09F021E0822F089580935D028823FE
:1019D00011F40E94CA0C08950E94E50C08950E941B
:1019E000CA0C08950895089580E090E00895EF925C
:1019F000FF920F931F936AB157985A98289AE090D4
:101A00006402F0906502009166021091670220E086
:101A100030E041E050E0CA016F9364E06A95F1F76D
:101A20006F910197C9F75C9ACA016F9364E06A9558
:101A3000F1F76F910197C9F789B15C98FA016F933B
:101A400064E06A95F1F76F913197C9F75C9AFA01F2
:101A50006F9364E06A95F1F76F913197C9F75C98DD
:101A600087FF0BC02C5F3F4FC901A0E0B0E08E158F
:101A70009F05A007B10708F4CECF6AB91F910F9157
:101A8000FF90EF90089565B190E0AC014170507007
:101A9000440F551F9C012670307053E0220F331FF6
:101AA0005A95E1F7422B6D7C462B45B92BB18870D6
:101AB000907034E0880F991F3A95E1F72F77282B23
:101AC0002BB95C9A81E090E0FC016F9364E06A9529
:101AD000F1F76F913197C9F75C986F9364E06A955D
:101AE000F1F76F910197C9F7089580916002909185
:101AF0006102009711F00E94FC168091490190E06C
:101B0000019720914A0130E0AC01429FC001439F00
:101B1000900D529F900D11240E944F1690936102D8
:101B200080936002009729F160E070E208C0E091C4
:101B30006002F0916102E40FF51F70836F5F462F22
:101B400050E08091490190E0019720914A0130E0F6
:101B5000FC01E29FC001E39F900DF29F900D1124C4
:101B60004817590724F388EB9FE064EF7CE00E945C
:101B70005417089580934A01609349010E94750D9E
:101B8000089580934A01609349010E94750D08955C
:101B90000E94750D089580E197E2A0E0B0E0809387
:101BA000640290936502A0936602B0936702529A12
:101BB000209A549A8EE190E00E94E81483E00E94FB
:101BC000FE1086E090E00E94E81483E00E94FE1080
:101BD00082E090E00E94E81483E00E94FE1082E020
:101BE00090E00E94E81482E00E94FE1082E090E003
:101BF0000E94E81488E20E94480E88E00E94480E85
:101C000081E00E94480E86E00E94480E8CE00E940F
:101C1000480E089580916802882329F481E080931A
:101C200068020E94CB0D0895BF92CF92DF92EF928F
:101C3000FF920F931F93082F162FF42E0E940A0E67
:101C40000E94F70CB4B0C5B0DAB0EBB028981123FD
:101C500011F05A9A01C05A9884B1826384B9579A94
:101C600081E0F81629F0802F82958F700E94430D35
:101C7000802F8F700E94430DDAB8EBB8B4B8C5B8A6
:101C80001F910F91FF90EF90DF90CF90BF9008953C
:101C900060E042E00E94140E08950F931F93082FF6
:101CA000162F08C0002311F480E101C084E10E94D6
:101CB000480E11501123B1F71F910F9108950E9402
:101CC0004D0E08958CE00E94480E08950E94620E09
:101CD0000895813011F48FE001C08EE00E94480E1B
:101CE00008950E94690E0895A4E0B0E0EAE7FEE0DE
:101CF0000C942016182F062F80E8898380EC8A83A5
:101D000084E98B8384ED8C83FE01E60FF11D8181D4
:101D1000810F0E94480E1093630200936202249682
:101D2000E4E00C943C160E94740E089581E00E9439
:101D3000480E8091600290916102892B19F160E058
:101D400070E208C0E0916002F0916102E40FF51FBB
:101D500070836F5F462F50E08091490190E00197BA
:101D600020914A0130E0FC01E29FC001E39F900D09
:101D7000F29F900D11244817590724F31092630223
:101D80001092620208950E94960E089561E042E06A
:101D90000E94140E08950F931F93CF93DF9300E0DA
:101DA00010E8C82FD0E0812F90E08C239D23892B51
:101DB00011F081E301C080E30E94C60E0F5F08307E
:101DC00011F01695F0CFDF91CF911F910F910895EB
:101DD0000E94CB0E08958A3010F4805D01C0895CAA
:101DE0000E94C60E08951F93182F82958F700E942F
:101DF000EB0E812F8F700E94EB0E1F9108951F93A1
:101E0000182F892F0E94F30E812F0E94F30E1F912D
:101E100008950E94FF0E08950E94F30E08956F9298
:101E20007F928F929F92AF92BF92CF92DF92FF925A
:101E30000F93DF93CF93CDB7DEB72A970FB6F89401
:101E4000DEBF0FBECDBF5B016C010AE03E0108940E
:101E5000611C711CFA2CC601B5012AE030E040E09B
:101E600050E00E94D515C901DA015C016D010150F5
:101E70004301800E911C80E3F80EC601B5012AE0F3
:101E800030E040E050E00E948315F61AF401F08241
:101E9000A114B104C104D104E9F608C0F601E00FB1
:101EA000F11D80810E94C60E0F5F04C06E01089470
:101EB000C11CD11C0A3090F32A960FB6F894DEBFED
:101EC0000FBECDBFCF91DF910F91FF90DF90CF90EC
:101ED000BF90AF909F908F907F906F9008950E94D9
:101EE0000F0F0895EF92FF920F931F937B018C01C8
:101EF00097FF0BC010950095F094E094E11CF11C45
:101F0000011D111D8DE20E94C60EC801B7010E947D
:101F10000F0F1F910F91FF90EF9008950E94720F85
:101F20000895CF93DF93EC0103C00E94C60E219663
:101F3000FE0184918823C9F7DF91CF9108950E9413
:101F4000910F0895CF93DF93EC0103C021960E9477
:101F5000C60E88818823D1F7DF91CF9108950E9422
:101F6000A20F08950E94C60E08950E94C60E0895FD
:101F7000A0E0B0E0EEEBFFE00C941C16E82E8091A0
:101F8000600290916102892B09F405C12AE0E216F2
:101F900009F446C038E0E316C9F480916302815029
:101FA000809363028F3F51F480916202815080934D
:101FB000620280914A0181508093630280916202A3
:101FC0008F3F09F0E2C010926202DDC08E2D0E94A8
:101FD000C60E209162022223C9F030E02150304029
:101FE00080914A0190E0AC01249FC001259F900D93
:101FF000349F900D112420916302E0916002F091D2
:102000006102E80FF91FE20FF11DE0828091630287
:102010008F5F8093630290914A01891709F0BBC0DA
:1020200040916202242F30E08091490190E00197B5
:102030002817390709F0A4C0C0E0D0E044C080E010
:102040006C2F0E94740EFF246E010894C11CD11CD9
:1020500035C00F2D10E090E09C01C29FC001C39FCE
:10206000900DD29F900D1124E0916002F0916102D9
:10207000E00FF11FE80FF91F80810E94C60EE0916A
:102080006002F091610280914A0190E0C89FD00106
:10209000C99FB00DD89FB00D1124E00FF11FAE0FF6
:1020A000BF1FAC01C49EC001C59E900DD49E900D73
:1020B0001124E80FF91F80818C93F39480914A01D9
:1020C000F81638F2E60160914901862F90E00297F8
:1020D000C817D9070CF4B3CF623008F440C062507F
:1020E00080E00E94740EFF24E0E2DE2E34C00F2D4B
:1020F00010E08091490190E0029730E0AC01429FEE
:10210000C001439F900D529F900D1124E0916002F9
:10211000F0916102E00FF11FE80FF91F80810E942A
:10212000C60E2091490130E02250304080914A0192
:1021300090E0AC01249FC001259F900D349F900D2D
:102140001124E0916002F0916102E00FF11FE80FAD
:10215000F91FD082F39420914A01F21640F2609167
:102160004901615080E00E94740E00E004C080E2EA
:102170000E94C60E0F5F80914A010817C0F303C08A
:102180004F5F4093620210926302809163026091FC
:1021900062020E94740E2E2D332727FD3095C9014F
:1021A000CDB7DEB7E8E00C943816EF92FF920F93AC
:1021B0001F93CF93DF937C01062F10E0F3E0000F15
:1021C000111FFA95E1F7C0E0D0E09E01200F822FA9
:1021D00080640E94480EF701EC0FFD1FE4918E2FE2
:1021E0000E94C60E2196C830D10579F7CDB7DEB76B
:1021F000E6E00C943A160E94D510089560E041E0A4
:102200000E94140E08950F931F93CF93DF93082F0E
:10221000162FEA010BC0002311F488E101C08CE104
:102220000E94480ECE010E94E8141150112399F724
:10223000DF91CF911F910F9108950E94031108958E
:10224000282F883068F481E090E002C0880F991F41
:102250002A95E2F7282FAAE2B0E0EBE2F0E029C0ED
:102260008E3080F430E02850304081E090E002C0B1
:10227000880F991F2A95E2F7282FA4E2B0E0E5E243
:10228000F0E017C0853130F020E0A0E0B0E0E0E001
:10229000F0E00FC030E02E50304081E090E002C00E
:1022A000880F991F2A95E2F7282FA7E2B0E0E8E20D
:1022B000F0E06F3F19F48081822709C0662319F08E
:1022C0008081822B04C09081822F80958923808316
:1022D0008C91822B8C93089508950895E0EBF0E0A3
:1022E00083EF8083808184BDE1EBF0E082E0808336
:1022F000808185BDE4EBF0E010828081E3EBF0E0CB
:102300008083808188BD88B587BD86E060E00E94BB
:10231000201185E060E00E9420118BE060E00E94C7
:10232000201183E060E00E942011089580916902ED
:10233000882329F481E0809369020E946E11089538
:10234000CF93DF93EC010E949611D7FD02C020E0ED
:1023500004C0D095C195DF4F21E0CE01CF3FD1051C
:1023600019F014F08FEF90E0222319F018BC87BD0C
:1023700002C088BD17BCDF91CF9108950E94A011C3
:102380000895CF93DF93EC010E949611D7FD02C010
:1023900020E004C0D095C195DF4F21E0CE01CF3FB2
:1023A000D10519F014F08FEF90E0222329F010925C
:1023B000B4008093B30004C08093B4001092B300C3
:1023C000DF91CF9108950E94C11108950F931F933B
:1023D0008B010E94A011C8010E94C1111F910F9191
:1023E00008950E94E611089508950895282F809178
:1023F0006A02882391F481E080936A0284B18D7C23
:1024000084B985B1826385B985E090E06F9364E01B
:102410006A95F1F76F910197C9F783B1809582238F
:10242000089580916A02882391F481E080936A0282
:1024300084B18D7C84B985B1826385B985E090E0F3
:102440006F9364E06A95F1F76F910197C9F708956A
:1024500084B18D7C84B985B1826385B985E090E0D3
:102460006F9364E06A95F1F76F910197C9F708954A
:10247000282F80916A02882391F481E080936A0278
:1024800084B18D7C84B985B1826385B985E090E0A3
:102490006F9364E06A95F1F76F910197C9F783B183
:1024A0008095822308950F931F93082F13B10E94E4
:1024B0001915AB01BC0180916A02882391F481E077
:1024C00080936A0284B18D7C84B985B1826385B9B9
:1024D00085E090E06F9364E06A95F1F76F91019762
:1024E000C9F780917002813011F1813038F082306B
:1024F00009F443C0833009F089C065C0202F30E063
:10250000812F90E08095909528233923232B09F47F
:102510007DC01095102310936B0240936C02509372
:102520006D0260936E0270936F0281E06DC08091C6
:102530006C0290916D02A0916E02B0916F02481BE7
:10254000590B6A0B7B0B4F3051056105710508F47F
:102550005DC040916B02812F90E080959095242F73
:1025600030E082239323892B59F182E0809370021B
:102570001095142310936B0249C0E0916B02AE2FAB
:10258000B0E0212F30E0CD0182239323892B79F015
:1025900083E080937002E123E0936B0240936C022E
:1025A00050936D0260936E0270936F022FC0802F64
:1025B00090E02095309582239323A817B90731F135
:1025C0001092700223C080916C0290916D02A091D4
:1025D0006E02B0916F02481B590B6A0B7B0B4F3098
:1025E00051056105710590F040916B02842F90E0D8
:1025F000212F30E082239323892B29F0109270023F
:10260000842F812304C082E08093700280E01F91B8
:102610000F9108950E94531208950F931F93082F4E
:1026200013B110950E941915AB01BC0180916A028B
:10263000882391F481E080936A0284B18D7C84B90F
:1026400085B1826385B985E090E06F9364E06A9517
:10265000F1F76F910197C9F780917602813011F1FE
:10266000813038F0823009F443C0833009F089C0EA
:1026700065C0202F30E0812F90E080959095282331
:102680003923232B09F47DC0109510231093710278
:1026900040937202509373026093740270937502B8
:1026A00081E06DC08091720290917302A0917402DA
:1026B000B0917502481B590B6A0B7B0B4F305105CB
:1026C0006105710508F45DC040917102812F90E0B1
:1026D00080959095242F30E082239323892B59F104
:1026E00082E080937602109514231093710249C002
:1026F000A0917102212F30E0EA2FF0E0C9018E2372
:102700009F23892B79F083E0809376021A2310931C
:10271000710240937202509373026093740270933B
:1027200075022FC0802F90E020953095822393234F
:10273000E817F90731F11092760223C080917202F6
:1027400090917302A0917402B0917502481B590BCD
:102750006A0B7B0B4F3051056105710590F040917C
:102760007102812F90E0242F30E082239323892B64
:1027700029F010927602812F842304C082E0809396
:10278000760280E01F910F9108950E940D13089525
:102790001F93CF93DF93182F80916A02882391F4BF
:1027A00081E080936A0284B18D7C84B985B18263B3
:1027B00085B985E090E06F9364E06A95F1F76F91D9
:1027C0000197C9F7C12FD0E083B190E08C239D23FE
:1027D000892BD1F38AE090E00E94E81483B190E065
:1027E0008C239D23892B81F383B18123DF91CF91AA
:1027F0001F9108950E94C81308951F93CF93DF93EC
:10280000182F80916A02882391F481E080936A02F4
:1028100084B18D7C84B985B1826385B985E090E00F
:102820006F9364E06A95F1F76F910197C9F7C12F33
:10283000D0E083B190E0809590958C239D23892BE7
:10284000C1F38AE090E00E94E81483B190E08095A3
:1028500090958C239D23892B61F383B180958123EF
:10286000DF91CF911F9108951F930E94FD13182FA0
:102870000E94C813812F1F9108950E943414089557
:102880000E94FD130895A2E0B0E0E9E4F4E10C94A5
:1028900022162091850230918602CE0101962115E3
:1028A000310519F48F58924002C0821B930B9A8312
:1028B000898389819A812296E2E00C943E160895DC
:1028C0000895A2E0B0E0E7E6F4E10C94221620912E
:1028D000850230918602CE0101962115310519F449
:1028E0008F58924002C0821B930B9A8389838981FF
:1028F0009A812296E2E00C943E162F928F939F933A
:102900002FB680917B0290917C02019680937B028E
:1029100090937C0290E080917D02891F80937D02DC
:10292000909183029C5F90938302809182028051F8
:102930009742C0F0909383028093820280917E023E
:1029400090917F02019680937E0290937F0290E0A7
:1029500080918002891F8093800280918102891F6B
:10296000809381022FBE9F918F912F9018956F5F5A
:102970007F4F8F4F9F4F660F771F881F991F25E04E
:1029800030E040E050E00E94D515CA01B901089539
:1029900028EE33E009C0F9016F9364E06A95F1F71E
:1029A0006F913197C9F701970097A9F708956F5F65
:1029B0007F4F8F4F9F4F660F771F881F991F25E00E
:1029C00030E040E050E00E94D515CA01B9010895F9
:1029D00028EE33E009C0F9016F9364E06A95F1F7DE
:1029E0006F913197C9F701970097A9F70895A0E76C
:1029F000B0E08C918E7F8C93E0EBF0E0808183607F
:102A00008083E1EBF0E08081807F80838081826041
:102A10008083B89A8C9181608C937894089580918A
:102A20008402882329F481E0809384020E94F714B1
:102A300008950E940F15E0E7F0E080818E7F80838B
:102A400020917E0230917F0240918002509181025C
:102A5000808181608083B901CA0108950E9419159F
:102A600008950E940F15809170008E7F80937000F2
:102A70006091B20080917A0290917B02A0917C02D9
:102A8000B0917D02B89905C0262F30E040E050E0BB
:102A900011C08091B20020917A0230917B02409166
:102AA0007C0250917D0220503F4F4F4F5F4F90E08E
:102AB000A0E0B0E0282B392B4A2B5B2B80917000D3
:102AC000816080937000B901CA0108950E94311598
:102AD00008950E940F15E0E7F0E080818E7F8083EB
:102AE00010927E0210927F02109280021092810258
:102AF0001092830210928202808181608083089507
:102B00000E9469150895629FD001739FF001829F12
:102B1000E00DF11D649FE00DF11D929FF00D839F6C
:102B2000F00D749FF00D659FF00D9927729FB00D09
:102B3000E11DF91F639FB00DE11DF91FBD01CF011C
:102B400011240895991B79E004C0991F961708F085
:102B5000961B881F7A95C9F780950895AA1BBB1B01
:102B600051E107C0AA1FBB1FA617B70710F0A61B8D
:102B7000B70B881F991F5A95A9F780959095BC01AE
:102B8000CD01089597FB092E07260AD077FD04D0C2
:102B9000E5DF06D000201AF4709561957F4F089507
:102BA000F6F7909581959F4F0895A1E21A2EAA1BE2
:102BB000BB1BFD010DC0AA1FBB1FEE1FFF1FA217ED
:102BC000B307E407F50720F0A21BB30BE40BF50BEA
:102BD000661F771F881F991F1A9469F76095709573
:102BE000809590959B01AC01BD01CF01089597FBA5
:102BF000092E05260ED057FD04D0D7DF0AD0001CC1
:102C000038F450954095309521953F4F4F4F5F4F89
:102C10000895F6F790958095709561957F4F8F4F49
:102C20009F4F08952F923F924F925F926F927F92A3
:102C30008F929F92AF92BF92CF92DF92EF92FF92CC
:102C40000F931F93CF93DF93CDB7DEB7CA1BDB0B78
:102C50000FB6F894DEBF0FBECDBF09942A8839881D
:102C600048885F846E847D848C849B84AA84B98424
:102C7000C884DF80EE80FD800C811B81AA81B98130
:102C8000CE0FD11D0FB6F894DEBF0FBECDBFED0144
:102C90000895EE0FFF1F0590F491E02D0994CF9356
:102CA000DF93BC018230910510F462E070E0A091E6
:102CB0008702B0918802ED01E0E0F0E040E050E0F2
:102CC00021C0888199818617970769F48A819B8141
:102CD000309719F09383828304C090938802809385
:102CE0008702FE0134C06817790738F44115510591
:102CF00019F08417950708F4AC01FE018A819B81C5
:102D00009C01E9012097E9F641155105A9F1CA0195
:102D1000861B970B049708F4BA01E0E0F0E02AC0A4
:102D20008D919C91119784179507F9F46417750795
:102D300081F412968D919C911397309719F093839B
:102D4000828304C09093880280938702FD013296AB
:102D50004FC0CA01861B970BFD01E80FF91F619355
:102D6000719302978D939C9343C0FD01828193815F
:102D70009C01D9011097A1F680918502909186025D
:102D8000892B41F4809156029091570290938602CC
:102D90008093850240915802509159024115510586
:102DA00041F44DB75EB78091540290915502481B93
:102DB000590B209185023091860224173507B0F413
:102DC000CA01821B930B8617970780F0AB014E5FF9
:102DD0005F4F8417950750F0420F531F50938602A0
:102DE00040938502F9016193719302C0E0E0F0E045
:102DF000CF01DF91CF910895CF93DF93009709F42E
:102E000050C0EC0122971B821A82A0918702B091D8
:102E10008802109709F140E050E0AC17BD0708F1B7
:102E2000BB83AA83FE0121913191E20FF31FAE17FC
:102E3000BF0779F48D919C911197280F391F2E5F50
:102E40003F4F3983288312968D919C9113979B83D2
:102E50008A834115510571F4D0938802C09387028B
:102E600020C012968D919C911397AD01009711F09F
:102E7000DC01D3CFFA01D383C28321913191E20FD8
:102E8000F31FCE17DF0769F488819981280F391F56
:102E90002E5F3F4FFA01318320838A819B81938388
:102EA0008283DF91CF9108950F931F93CF93DF9388
:102EB0008C01EB01009731F46115710519F420E0E4
:102EC00030E038C081E090E06EE070E00E94A01732
:102ED000FC019C01009771F180E88383209771F0D9
:102EE000D387C28781E883838091890290918A0287
:102EF000892B21F4F0938A02E093890201151105D0
:102F0000C9F01187008783818260838380918B025F
:102F100090918C02892B71F4F0938C02E0938B02D8
:102F200080918D0290918E02892B21F4F0938E0274
:102F3000E0938D02C901DF91CF911F910F91089508
:102F40000F931F93CF93DF93689F8001699F100DAC
:102F5000789F100D1124C8010E944F16EC010097B4
:102F600029F060E070E0A8010E94BC17CE01DF915B
:102F7000CF911F910F910895DC0101C06D934150D5
:0A2F80005040E0F70895F894FFCFE9
:102F8A004C3136206365673E63004D617A652032B5
:102F9A002E300046726F6E74004F62737461636CF8
:102FAA0065004261636B696E67005570006D56007B
:102FBA005072657373204200476F210064008813C2
:102FCA00040400D007F4010F000208010000000009
:102FDA0000000000000102020303030304040404C6
:102FEA00040404040505050505050505050505058B
:102FFA00050505050606060606060606060606066B
:10300A000606060606060606060606060606060656
:10301A00060606060707070707070707070707073A
:10302A000707070707070707070707070707070726
:10303A000707070707070707070707070707070716
:10304A000707070707070707070707070707070706
:10305A0007070707080808080808080808080808EA
:10306A0008080808080808080808080808080808D6
:10307A0008080808080808080808080808080808C6
:10308A0008080808080808080808080808080808B6
:10309A0008080808080808080808080808080808A6
:1030AA000808080808080808080808080808080896
:1030BA000808080808080808080808080808080886
:1030CA000808080808080808080808080808080876
:0A30DA000808080820008F0200001B
:00000001FF
