:100000000C9452000C946F000C946F000C946F00D1
:100010000C946F000C946F000C946F000C946F00A4
:100020000C946F000C947C180C946F000C946F006F
:100030000C946F000C94F9100C946F000C946F00EA
:100040000C946F000C946F000C946F000C946F0074
:100050000C946F000C946F000C946F000C946F0064
:100060000C946F000C946F00190E1F0E220E250EBB
:10007000280E2B0E2E0E310E340E370E3A0E3D0E7C
:10008000763132204C3136206F34206366613E6316
:1000900072613E633400763132204C3136206F3449
:1000A0002066000011241FBECFEFD4E0DEBFCDBF1D
:1000B00012E0A0E0B1E0ECE6F7E302C005900D929B
:1000C000A837B107D9F712E0A8E7B2E001C01D9246
:1000D000AD3AB107E1F70E94E4020C94B41B0C9412
:1000E0000000ECE7F0E08081806280833D984598D5
:1000F00008950F931F93CF93DF93182F062FEA01D4
:10010000232B11F00E944113812F602F0E941113A5
:10011000CE010E942D14DF91CF911F910F91089570
:10012000AF92BF92CF92DF92EF92FF920F931F9305
:10013000B82EA62E69017A01012B11F00E944113FD
:100140008B2D6A2D0E941113C701B6010E940C1459
:100150001F910F91FF90EF90DF90CF90BF90AF90E5
:100160000895AF92BF92CF92DF92EF92FF920F93DA
:100170001F93CF93DF93EC0158016901CA01DB01A2
:100180007C018D010E94411380E060E00E94111308
:10019000CE010E942D1480E091E00E942D1480E099
:1001A00061E00E941113C801B701A60195010E94E8
:1001B00062070E94CC080E940C1483E091E00E9428
:1001C0002D1481E00E94EF1282E30E94A41688237E
:1001D000D9F782E30E94581881FF0BC088E091E0B4
:1001E0000E94F610C801B701A60195010E940A06F7
:1001F00027C084FF19C00E94E4120E9441138DE0C1
:1002000091E00E94F61084E690E00E94B618B701D3
:10021000C801DF91CF911F910F91FF90EF90DF9078
:10022000CF90BF90AF90089585FF0CC082E191E020
:100230000E94F610C801B701A60195010E943B0675
:100240007B018C01C801B70120E030E04AEF56EC99
:100250000E943E088823BCF4C601B5010E94CC0868
:100260009B01AC0180E09DE7B9010E94B319805069
:100270009D47AA2797FDA095BA2FBC01CD010E94EA
:100280006E087B018C01C801B70120E030E04AEF25
:1002900056E40E940E0818160CF074CFC601B50182
:1002A0000E94CC08AB01BC0100E01DE780E09DE7A7
:1002B000BA010E94B319081B190B222717FD2095BC
:1002C000322FC901B8010E946E087B018C015ACF00
:1002D000AF92BF92CF92DF92EF92FF920F931F9354
:1002E000CF93DF93EC010E944113EE24FF2487019A
:1002F0005E01CC24B7FCC094DC2C17C080E060E029
:100300000E941113C801B7016A0D7B1D8C1D9D1D34
:100310000E940C1488EE93E00E94B6180E944113CC
:100320000894E108F10801091109CE018E0D9F1D05
:10033000181619061CF3DF91CF911F910F91FF90B2
:10034000EF90DF90CF90BF90AF900895CF92DF9263
:10035000EF92FF920F931F93CF93DF937C018A015B
:10036000EB01C12C8DE7D82E0E94411380E060E0A4
:100370000E941113C7010E942D1480E091E00E9499
:100380002D1480E061E00E941113BE01882777FDE3
:100390008095982F0E940C1481E00E94EF1282E356
:1003A0000E94A4168823D9F782E30E94581881FF7F
:1003B00007C088E091E00E94F610C01BD10B20C05E
:1003C00084FF16C00E94E4120E9441138DE091E068
:1003D0000E94F61084E690E00E94B618CE01DF91EC
:1003E000CF911F910F91FF90EF90DF90CF900895E4
:1003F00085FF06C082E191E00E94F610C00FD11F78
:1004000083E8C030D8074CF480E09DE7B8010E9433
:10041000B319EC01C050DD47A7CF8DE7C130D80735
:100420000CF4A2CF80E09DE7B8010E94B319E60169
:10043000C81BD90B99CF8EEC9FEF62E370E00E944E
:100440006F16089582E390E06EEC7FEF0E946F16C6
:10045000089586EA9FEF6EEC7FEF0E946F16089575
:100460008EEC9FEF66EA7FEF0E946F160895AF92C1
:10047000BF92CF92DF92EF92FF920F931F935C0196
:100480007B0166277727681B790B0E946F16002770
:10049000F7FC0095102FC801B7010E946E0828E4F0
:1004A00031EE4AE553E40E9468067B018C01CC24BE
:1004B000B7FCC094DC2CC601B5010E946E089B01FC
:1004C000AC01C801B7010E9462070E94CC08DC01A0
:1004D000CB010E94B61880E090E060E070E00E94DE
:1004E0006F161F910F91FF90EF90DF90CF90BF900C
:1004F000AF900895AF92BF92CF92DF92EF92FF92AA
:100500000F931F935C017B01882799278A199B0908
:10051000B5010E946F160027F7FC0095102FC80147
:10052000B7010E946E0828E431EE4AE553E40E94C8
:1005300068067B018C01CC24B7FCC094DC2CC6017E
:10054000B5010E946E089B01AC01C801B7010E9471
:1005500062070E94CC08DC01CB010E94B61880E043
:1005600090E060E070E00E946F161F910F91FF9085
:10057000EF90DF90CF90BF90AF9008950F931F93AF
:100580009C018B01B9010E946F16C8010E94B61828
:1005900080E090E060E070E00E946F161F910F9184
:1005A000089580E090E060E070E00E946F1608958A
:1005B00085E00E946E0B089586E00E946E0B089500
:1005C00087E00E946E0B08952F923F924F925F92A8
:1005D0006F927F928F929F92AF92BF92CF92DF9253
:1005E000EF92FF920F931F93DF93CF93CDB7DEB7B8
:1005F00062970FB6F894DEBF0FBECDBF0E947100A8
:1006000086E990E00E94E6100E940E0D8823E1F733
:1006100087E191E060E570E045E050E00E94A601CE
:100620003C0180E291E043E353E363E37FE30AE0CC
:1006300017ED23E23CE30E94B1006D877E878F8730
:10064000988B89E291E040E050E060E070E00AE0E1
:1006500017ED23E23CE30E94B10069877A878B871C
:100660009C8782E391E04DEC5CEC6CE47FE30AE074
:1006700017ED23E23CE30E94B1006D837E838F83FC
:1006800098878BE391E062E370E045E050E00E94E0
:10069000A6019C838B830E94411380E060E00E944E
:1006A000111384E491E00E942D1480E061E00E9427
:1006B00011138BE491E00E942D1482E30E945818DC
:1006C000282F30E095E0369527959A95E1F720950B
:1006D0003095217030703A8B298B0E9426180E9429
:1006E000411380E060E00E94111383E591E00E94D5
:1006F0002D1480E10E94A4168823D9F388EE93E09C
:100700000E94B61889899A89892B11F086E001C068
:1007100085E00E946E0B9A8389838824992444245F
:1007200055242224332426183708E989FA89EF2B27
:1007300011F086E001C085E00E946E0B5C0187E04D
:100740000E946E0B6C010E941F192CE231E040E008
:1007500050E00E94C6196115710581059105C1F42B
:100760000E94411380E060E00E941113B6018827C7
:1007700077FD8095982F0E940C1485E060E00E9420
:100780001113B501882777FD8095982F0E940C14CE
:10079000B50129813A81621B730B860E971E88274B
:1007A00077FD8095982F0E946E089B01AC016D85A6
:1007B0007E858F8598890E9468067B018C01B40133
:1007C000882777FD8095982F0E946E089B01AC01C9
:1007D00069857A858B859C850E9468069B01AC01A2
:1007E000C801B7010E943B067B018C01B501641969
:1007F0007509882777FD8095982F0E946E089B01C8
:10080000AC016D817E818F8198850E9468069B0175
:10081000AC01C801B7010E943B060E94CC089B01B5
:100820002C593F4F89899A89892B39F0C901E4E60F
:10083000F0E0E61BF70BBF0105C084E690E0861BE5
:10084000970BB9010E946F1615C029893A89232B8D
:1008500029F4C101322D292FB30104C0B101C30114
:10086000362D292F832F922F0E946F1687E00E942A
:100870006E0B6C0125018B819C818C159D050CF004
:1008800054CFE3CF0E946E0B0895EF92FF920F9327
:100890001F93DF93CF93CDB7DEB7E2970FB6F894EF
:1008A000DEBF0FBECDBF8E010F5F1F4F23E3E22ED1
:1008B000F12CEC0EFD1E88ED9FEF68E270E00E94C7
:1008C0006F1682E590E00E94B61880E090E060E04C
:1008D00070E00E946F1687E00E946E0BF801819312
:1008E00091938F01EE15FF0531F7CE010196E29647
:1008F0000FB6F894DEBF0FBECDBFCF91DF911F9131
:100900000F91FF90EF9008950F931F938C0188EC47
:1009100090E062E370E04EE00E94E80D8BE490E02E
:100920000E94B6188CE291E062E370E04EE00E9413
:10093000E80D88EC90E062E370E04EE00E94E80D84
:100940008BE490E00E94B6188CE291E062E370E0E4
:100950004EE00E94E80D80E060E00E941113C801A3
:100960000E942D1480E10E94A4168823D9F384EFFD
:1009700091E00E94B6181F910F910895A0E0B0E099
:10098000E4ECF4E00C94031ADC012B01FA019C91D5
:10099000923008F439C1EB018881823008F433C108
:1009A000943069F4843009F02FC111969C9111970D
:1009B0008981981709F428C1A9E6B1E025C18430DE
:1009C00009F421C18230A9F4923009F01DC19A01C5
:1009D000AD0188E0EA010990AE01E90109929E01AA
:1009E0008150C1F7E201898111969C91892381830D
:1009F00008C1923009F407C112962D903C901397CC
:100A0000EB018A819B811496AD90BD90CD90DC90D6
:100A10001797EC80FD800E811F819101281B390BF7
:100A2000B90137FF04C066277727621B730B60325A
:100A300071050CF061C0121613066CF53701480100
:100A4000062E04C096948794779467940A94D2F7FC
:100A500021E030E040E050E004C0220F331F441F8B
:100A6000551F6A95D2F721503040404050402E210A
:100A70003F2140235123211531054105510521F026
:100A800021E030E040E050E079018A01E628F728D3
:100A9000082919293CC0232BD1F1260E371E350118
:100AA0004601062E04C096948794779467940A941E
:100AB000D2F721E030E040E050E004C0220F331FC5
:100AC000441F551F6A95D2F7215030404040504096
:100AD0002A213B214C215D2121153105410551057C
:100AE00021F021E030E040E050E059016A01A62801
:100AF000B728C828D9280BC0821593052CF01C01F3
:100B0000AA24BB24650103C0EE24FF2487011196AB
:100B10009C91D20111968C91981709F445C09923A4
:100B200039F0A80197012A193B094C095D0906C053
:100B3000A60195012E193F09400B510B57FD08C026
:100B400011823382228224833583468357831DC0DA
:100B500081E081833382228288279927DC01821BEE
:100B6000930BA40BB50B84839583A683B7830DC029
:100B7000220F331F441F551F248335834683578319
:100B80008281938101979383828324813581468179
:100B90005781DA01C9010197A109B1098F5F9F4F00
:100BA000AF4FBF4328F30BC0918333822282EA0CFC
:100BB000FB1C0C1D1D1DE482F5820683178383E058
:100BC0008083248135814681578157FF1AC0C9012E
:100BD000AA2797FDA095BA2F81709070A070B07071
:100BE0005695479537952795822B932BA42BB52B9C
:100BF00084839583A683B7838281938101969383AF
:100C00008283DF0101C0D201CD01CDB7DEB7E2E1C1
:100C10000C941F1AA0E2B0E0E0E1F6E00C940F1A89
:100C200069837A838B839C832D833E834F8358878C
:100C3000E9E0EE2EF12CEC0EFD1ECE010196B7017F
:100C40000E94440A8E010F5E1F4FCE010596B80127
:100C50000E94440A8A8991E089278A8BC701B801DA
:100C6000AE01475E5F4F0E94BE040E946F09A096CE
:100C7000E6E00C942B1AA0E2B0E0E1E4F6E00C947C
:100C80000F1A69837A838B839C832D833E834F83E2
:100C90005887F9E0EF2EF12CEC0EFD1ECE010196E7
:100CA000B7010E94440A8E010F5E1F4FCE010596C8
:100CB000B8010E94440AC701B801AE01475E5F4F08
:100CC0000E94BE040E946F09A096E6E00C942B1AC5
:100CD000A0E2B0E0EEE6F6E00C94031A69837A83B2
:100CE0008B839C832D833E834F835887CE0101964F
:100CF000BE01675F7F4F0E94440ACE010596BE0188
:100D00006F5E7F4F0E94440A9985923088F08989EE
:100D10008230C8F0943019F4823051F404C0843029
:100D200029F4923081F489E691E0C6C0923049F40A
:100D300020E09A858A89981321E02A87CE010996B6
:100D4000BBC0823049F420E09A858A89981321E05B
:100D50002A8BCE014196B0C02D843E844F845888A2
:100D60006D887E888F88988CEE24FF248701AA24C2
:100D7000BB24650140E050E060E070E0E0E0F0E0BE
:100D8000C10181709070892BE9F0E60CF71C081DF9
:100D9000191D9A01AB012A0D3B1D4C1D5D1D80E004
:100DA00090E0A0E0B0E0E614F7040805190520F48F
:100DB00081E090E0A0E0B0E0BA01A901480F591F1E
:100DC0006A1F7B1FAA0CBB1CCC1CDD1C97FE08C035
:100DD00081E090E0A0E0B0E0A82AB92ACA2ADB2A84
:100DE0003196E032F10549F0660C771C881C991C9D
:100DF0005694479437942794C3CFFA85EA892B8970
:100E00003C898B859C85280F391F2E5F3F4F17C06B
:100E1000CA0181709070892B61F016950795F7943F
:100E2000E79480E090E0A0E0B0E8E82AF92A0A2BF5
:100E30001B2B76956795579547952F5F3F4F77FD0D
:100E4000E7CF0CC0440F551F661F771F17FD416089
:100E5000EE0CFF1C001F111F21503040403090E06D
:100E6000590790E0690790E4790760F32B8F3C8F76
:100E7000DB01CA018F779070A070B070803491054B
:100E8000A105B10561F447FD0AC0E114F1040105B3
:100E9000110529F0405C5F4F6F4F7F4F40781A8EED
:100EA000FE1711F081E08A8F4D8F5E8F6F8F78A3D0
:100EB00083E0898FCE0149960E946F09A096E2E1F6
:100EC0000C941F1AA8E1B0E0E8E6F7E00C940B1AC6
:100ED00069837A838B839C832D833E834F835887DA
:100EE000B9E0EB2EF12CEC0EFD1ECE010196B70100
:100EF0000E94440A8E010F5E1F4FCE010596B80175
:100F00000E94440A2985223008F47EC03989323093
:100F100010F4B8017CC08A859A8989278A87243091
:100F200011F0223031F4231709F06EC069E671E048
:100F30006EC0343039F41D861E861F86188A1C86C2
:100F40001B8604C0323021F484E08987B7015FC07A
:100F50002B853C858B899C89281B390B3C872B87EB
:100F6000ED84FE840F851889AD88BE88CF88D88C23
:100F7000EA14FB040C051D0540F4EE0CFF1C001FD9
:100F8000111F215030403C872B8720E030E040E0AB
:100F900050E080E090E0A0E0B0E460E070E0EA14AF
:100FA000FB040C051D0540F0282B392B4A2B5B2B2D
:100FB000EA18FB080C091D09B695A7959795879522
:100FC000EE0CFF1C001F111F6F5F7F4F6F3171050B
:100FD00031F7DA01C9018F779070A070B07080345A
:100FE0009105A105B10561F427FD0AC0E114F104E2
:100FF0000105110529F0205C3F4F4F4F5F4F2078CE
:101000002D873E874F87588BBE01675F7F4FCB018F
:101010000E946F096896EAE00C94271AA8E1B0E0F4
:10102000E4E1F8E00C940F1A69837A838B839C8344
:101030002D833E834F83588789E0E82EF12CEC0EF8
:10104000FD1ECE010196B7010E94440A8E010F5E7B
:101050001F4FCE010596B8010E94440A898582304F
:1010600040F08989823028F0C701B8010E94BC0A8B
:1010700001C08FEF6896E6E00C942B1AA8E1B0E06F
:10108000E4E4F8E00C940F1A69837A838B839C83E1
:101090002D833E834F83588789E0E82EF12CEC0E98
:1010A000FD1ECE010196B7010E94440A8E010F5E1B
:1010B0001F4FCE010596B8010E94440A89858230EF
:1010C00040F08989823028F0C701B8010E94BC0A2B
:1010D00001C081E06896E6E00C942B1AA8E0B0E02D
:1010E000E4E7F8E00C940C1A9B01AC0183E08983DF
:1010F000DA01C9018827B7FD83959927AA27BB275D
:10110000B82E211531054105510519F482E0898376
:101110003AC08823A9F0203080E0380780E04807F3
:1011200080E8580729F460E070E080E09FEC30C070
:10113000EE24FF248701E21AF30A040B150B02C008
:1011400079018A018EE1C82ED12CDC82CB82ED821E
:10115000FE820F831887C801B7010E9420090197FA
:101160001816190684F4082E04C0EE0CFF1C001F8C
:10117000111F0A94D2F7ED82FE820F831887C81AD6
:10118000D90ADC82CB82BA82CE0101960E946F0915
:101190002896E9E00C94281AACE0B0E0E2EDF8E023
:1011A0000C94131A69837A838B839C83CE010196F6
:1011B000BE016B5F7F4F0E94440A8D81823061F1D6
:1011C000823050F1843021F48E81882351F12EC079
:1011D0002F81388537FD20C06E812F3131051CF0FD
:1011E0006623F9F023C08EE190E0821B930B2985E2
:1011F0003A854B855C8504C056954795379527956C
:101200008A95D2F76623B1F0509540953095219597
:101210003F4F4F4F5F4F0EC020E030E040E050E0C6
:1012200009C02FEF3FEF4FEF5FE704C020E030E051
:1012300040E050E8B901CA012C96E2E00C942F1A64
:10124000EF92FF920F931F937B018C0180E0E816D1
:1012500080E0F80681E0080780E0180788F48FEF47
:10126000E816F1040105110531F028F088E090E05E
:10127000A0E0B0E017C080E090E0A0E0B0E012C0D5
:1012800080E0E81680E0F80680E0080781E01807B3
:1012900028F088E190E0A0E0B0E004C080E190E0B8
:1012A000A0E0B0E020E230E040E050E0281B390B45
:1012B0004A0B5B0B04C016950795F794E7948A9543
:1012C000D2F7F701EF58FE4F8081281B3109410901
:1012D0005109C9011F910F91FF90EF900895DF927E
:1012E000EF92FF920F931F93FC01E480F58006813B
:1012F0001781D1808081823048F480E090E0A0E1C5
:10130000B0E0E82AF92A0A2B1B2BA5C0843009F487
:101310009FC0823021F4EE24FF24870105C0E11430
:10132000F1040105110519F4E0E0F0E096C06281D6
:1013300073819FEF623879070CF05BC022E83FEFC2
:10134000261B370B2A3131052CF020E030E040E03D
:1013500050E02AC0B801A701022E04C07695679517
:10136000579547950A94D2F781E090E0A0E0B0E06D
:1013700004C0880F991FAA1FBB1F2A95D2F7019797
:10138000A109B1098E219F21A023B1230097A105B6
:10139000B10521F081E090E0A0E0B0E09A01AB015E
:1013A000282B392B4A2B5B2BDA01C9018F779070E0
:1013B000A070B07080349105A105B10539F427FF04
:1013C00009C0205C3F4F4F4F5F4F04C0215C3F4F2F
:1013D0004F4F5F4FE0E0F0E02030A0E03A07A0E0A0
:1013E0004A07A0E45A0710F0E1E0F0E079018A0131
:1013F00027C06038710564F5FB01E158FF4FD80143
:10140000C7018F779070A070B07080349105A105EE
:10141000B10539F4E7FE0DC080E490E0A0E0B0E053
:1014200004C08FE390E0A0E0B0E0E80EF91E0A1FD0
:101430001B1F17FF05C016950795F794E794319683
:1014400087E016950795F794E7948A95D1F705C03C
:10145000EE24FF248701EFEFF0E06E2F67956627FB
:101460006795902F9F77D794DD24D7948E2F8695FC
:10147000492F462B582F5D29B701CA011F910F91A3
:10148000FF90EF90DF900895FC01DB0140815181D6
:101490002281622F6F7770E0221F2227221F938103
:1014A000892F880F822B282F30E0991F9927991FA9
:1014B00011969C93119721153105A9F541155105F8
:1014C0006105710511F482E037C082E89FEF139641
:1014D0009C938E9312979A01AB0167E0220F331F02
:1014E000441F551F6A95D1F783E08C930DC0220FDE
:1014F000331F441F551F12968D919C91139701978E
:1015000013969C938E931297203080E0380780E0EA
:10151000480780E4580758F314962D933D934D9354
:101520005C93179708952F3F310579F441155105C4
:101530006105710519F484E08C93089564FF03C07C
:1015400081E08C9312C01C9210C02F57304013962C
:101550003C932E93129783E08C9387E0440F551FA2
:10156000661F771F8A95D1F7706414964D935D932B
:101570006D937C93179708951F93DC01FB019C9159
:10158000923008F447C08081823008F443C0943020
:1015900051F411961C91843099F58181682F70E087
:1015A000611B71093FC0843021F0923031F48230E8
:1015B000B9F18181882389F12DC011961C91119771
:1015C0008230F1F081811817D9F412962D913C9157
:1015D0001397828193818217930794F02817390714
:1015E000BCF014968D919D910D90BC91A02D2481FD
:1015F000358146815781281739074A075B0718F458
:10160000112341F00AC082179307A407B50740F4DD
:10161000112319F061E070E005C06FEF7FEF02C0A9
:1016200060E070E0CB011F91089580917C0085FF00
:1016300005C080917900282F30E004C02091780007
:1016400030917900C901089590935C0180935B010A
:1016500008950895089580917C0085FF05C08091CC
:101660007900282F30E004C0209178003091790073
:10167000C9010895282F8032B0F487E880937A005A
:1016800080917C00982F9064662311F0806C02C0DA
:10169000892F8F77807E822B80937C0080917A00C7
:1016A000806480937A00089560E00E943A0B089568
:1016B00060E00E943A0B80917A0086FDFCCF809119
:1016C0007C0085FF05C080917900282F30E004C0A0
:1016D0002091780030917900C90108950E94580B3B
:1016E0000895EF92FF920F931F93CF93DF93EB0137
:1016F00060E00E943A0B80917A0086FDFCCF9E014B
:10170000EE24FF24870180917A00806480937A0020
:1017100080917A0086FDFCCF80917C0085FF04C01B
:101720008091790090E004C08091780090917900D8
:10173000A0E0B0E0E80EF91E0A1F1B1F2150304048
:1017400011F7CE0196958795C034D10540F48E0DE2
:101750009F1D6C2F70E00E949F199B010DC0A0E09F
:10176000B0E0E80EF91E0A1F1B1F9E0140E050E08A
:10177000C801B7010E94C619C901CDB7DEB7E6E0BE
:101780000C942B1A87E064E170E00E94710B0895BD
:101790000E94710B089590935C0180935B01089502
:1017A0001F9310917C0080917C008F7D80937C0042
:1017B0008EE164E170E00E94710B8EE164E170E003
:1017C0000E94710B9C0115FD04C080917C008F7DEF
:1017D00003C080917C00806280937C00B901769583
:1017E000679580E090E06C54744D8E4E9F4F40E0C2
:1017F00050E00E94C619C9011F9108950E94D00BA4
:101800000895A0E0B0E020915B0130915C0140E0E0
:1018100050E0BC01CD010E9474199B01AC01809184
:101820007C0085FF0BC0B901CA0161587F4F8F4F03
:101830009F4F2FEF30E040E050E00AC0B901CA01ED
:1018400061507E4F8F4F9F4F2FEF33E040E050E0CD
:101850000E94C619C90108950E94710B0E94010CD3
:1018600008950E942C0C089580917C0085FF06C08D
:101870008091790090E00E94010C08958091780099
:10188000909179000E94010C089560E00E943A0B4B
:1018900080917A0086FDFCCF0E94340C08950E944E
:1018A000450C08950E94340C089587E064E170E0CF
:1018B0000E94710B0E94010C08950E94010C089572
:1018C0001F9310917C0080917C008F7D80937C0021
:1018D00086E064E170E00E942C0C9C0115FD04C0C0
:1018E00080917C008F7D03C080917C00806280931A
:1018F0007C00C901880F991F820F931F880F991FC1
:10190000880F991F8A5792406DE070E00E94B319CA
:10191000CB011F9108950E94600C08951F931091B0
:101920007C0080917C008F7D80937C0086E064E168
:1019300070E00E942C0C9C0115FD04C080917C007D
:101940008F7D03C080917C00806280937C0084E165
:1019500090E0AC01249FC001259F900D349F900D15
:1019600011248E529F4167E270E00E94B319CB01AF
:101970001F9108950E948E0C08951F9310917C0072
:1019800080917C008F7D80937C0086E06AE070E02F
:101990000E942C0CAC0115FD04C080917C008F7D51
:1019A00003C080917C00806280937C009A01220FAA
:1019B000331F240F351F2F5F3F4F36952795C901E1
:1019C0001F9108950E94BD0C08951F9310917C00F3
:1019D00080917C008F7D80937C0086E06AE070E0DF
:1019E0000E942C0CAC0115FD04C080917C008F7D01
:1019F00003C080917C00806280937C009A01220F5A
:101A0000331F240F351FC9011F9108950E94E50C53
:101A100008950E94E50C0895089508958091680145
:101A2000882339F020E08091960290919702892BCB
:101A300009F021E0822F089510926F0083E28093D5
:101A4000800081E1809381001092820080E197E222
:101A5000909389008093880010928B0010928A00E6
:101A6000229A78940895A0E0B0E0E9E3FDE00C94B8
:101A70000B1A8C015B01C42E80919502882329F4F6
:101A800081E0809395020E941C0D1092680117FD61
:101A900003C0DD24D39403C01F772AE0D22E8091A7
:101AA0008100E82EFF2488EFE822FF2488ECD89EEE
:101AB000C001112480179107C8F4E80197E20131B1
:101AC000190710F0C0E1D7E2BE017695679580E076
:101AD00090E06058794687469F4F9E0140E050E075
:101AE0000E94C619890181E090E025C088E2D89E55
:101AF000802D1124C82FD0E0C017D10708F4E801C9
:101B0000BE01769567959E0140E050E09AE0D916B7
:101B100039F480E090E0605E734481449F4F06C0DA
:101B200080E090E060537D4E8C4E9F4F0E94C6191E
:101B3000890182E090E0E82AF92A9AE0D91639F47E
:101B4000CE0105966AE070E00E949F19EB0183E0E8
:101B5000C83ED80711F4B5010FC0BE0180E090E087
:101B6000950140E050E00E94741928EE33E040E017
:101B700050E00E94E819B90110926F00E0928100D4
:101B80001093890000938800E0918800F09189000B
:101B9000AC2DA03108F0AFE080E190E08A1B910904
:101BA00002C0F695E7958A95E2F7F0938B00E093F3
:101BB0008A0070937D0260937C0286B38FEF86BBB0
:101BC00081E080936F00CDB7DEB7EAE00C94271A6E
:101BD0000E94330D0895CF93DF93EB018F3F11F0F7
:101BE000442329F488EE93E0BE0140E067C08131D0
:101BF00010F420E005C0282F2051203608F02FE5F2
:101C0000822F6CE00E949319382F682F70E084EFC8
:101C10009FEF689FF001699FF00D789FF00D1124F0
:101C2000E20FF11DEC30F10538F4EC5CFF4F0C9441
:101C30003A1A8CE991E023C080E090E020C085EB67
:101C400091E01DC08FEC91E01AC08AEE91E017C0C0
:101C500087E092E014C086E292E011C087E492E04F
:101C60000EC089E692E00BC08EE892E008C085EBDA
:101C700092E005C08EED92E002C08AE093E037303A
:101C800071F002C0880F991F6A95E2F7323020F098
:101C900005966AE070E00BC0805090480BC036E0BB
:101CA000880F991F3A95E1F7029665E070E00E946F
:101CB0009F19CB01403108F04FE0BE010E94330D67
:101CC000DF91CF9108950E94EB0D089580916801F6
:101CD000882339F020E08091960290919702892B19
:101CE00009F021E0822F089510926F00E1E8F0E002
:101CF0008081887F8160808380E197E29093890072
:101D00008093880010928B0010928A0081E080936B
:101D10006801109297021092960208950E94740E24
:101D2000089530917A02E0919602F0919702332360
:101D300011F0249101C02081822F81548A3108F44E
:101D4000205E203259F4809196029091970201967C
:101D50009093970280939602019729F7822F089516
:101D6000CF93DF930E94910E282FC0E0D0E01DC0DA
:101D7000CE0153E0880F991F5A95E1F7CC0FDD1F74
:101D8000C80FD91F822F992787FD9095C80FD91F9B
:101D9000E097809196029091970201969093970216
:101DA000809396020E94910E282F822F80538A30B2
:101DB000F8F2CE01DF91CF910895A0E0B0E0E3EE1C
:101DC000FEE00C94091A80905D01B0907802BB206F
:101DD00021F060917902662399F4A0907902009134
:101DE000620110916301E0905E01F0905F01C0918B
:101DF0006001D0916101C0906401D090650108C17B
:101E00008FEF70E040E00E94EB0D10927902CBC1A1
:101E100094E0892EBB2404EF11E084E0E82EF12C3D
:101E2000C0EDD7E0B4E09B2EAFE0CA2ED12C0E94CB
:101E3000910E282F8091960290919702019690938F
:101E4000970280939602263609F498C02736CCF480
:101E50002236A1F1233674F42E3361F12F3334F49A
:101E60002132B1F22C3309F00BC126C0213609F022
:101E700007C121C1243609F451C025360CF066C0D3
:101E800035C02F3609F4C1C0203754F42C3609F47C
:101E9000A5C02D3609F4A6C0273609F0F1C086C0CA
:101EA000243709F4D1C0263709F4E6C0223709F0F7
:101EB000E7C0B0C08394BBCF8A94B9CFA092790217
:101EC000B09278021093630100936201F0925F0177
:101ED000E0925E01D0936101C093600190925D0138
:101EE000D0926501C09264012BE0FCC0A0927902FF
:101EF000B09278021093630100936201F0925F0147
:101F0000E0925E01D0936101C093600190925D0107
:101F1000D0926501C092640120E0E4C0A0927902F1
:101F2000B09278021093630100936201F0925F0116
:101F3000E0925E01D0936101C093600190925D01D7
:101F4000D0926501C092640122E0CCC0A0927902D7
:101F5000B09278021093630100936201F0925F01E6
:101F6000E0925E01D0936101C093600190925D01A7
:101F7000D0926501C092640124E0B4C0A0927902BD
:101F8000B09278021093630100936201F0925F01B6
:101F9000E0925E01D0936101C093600190925D0177
:101FA000D0926501C092640125E09CC0A0927902A4
:101FB000B09278021093630100936201F0925F0186
:101FC000E0925E01D0936101C093600190925D0147
:101FD000D0926501C092640127E084C00E94B00ED7
:101FE0007C0144C00E94910E8C3611F4BB2403C0C6
:101FF000AA24BB24B39480919602909197020196F3
:10200000909397028093960212CF0E94B00E882E72
:10201000982C0DCFA0927902B092780210936301B0
:1020200000936201F0925F01E0925E01D093610142
:10203000C093600190925D01D0926501C0926401ED
:1020400020E0FF24F3944FC00E94B00EBC0180EC4E
:102050009DE50E949F19CB01EB01F3E0CC0FDD1F42
:10206000FA95E1F7880F991FC80FD91FCE01B70164
:102070000E949F198B01DBCE0E94B00E6C01D7CE5F
:10208000A0927902B09278021093630100936201EA
:10209000F0925F01E0925E01D0936101C093600114
:1020A00090925D01D0926501C092640110929702F6
:1020B0001092960278C0A0927902B09278021093A2
:1020C000630100936201F0925F01E0925E01D093A0
:1020D0006101C093600190925D01D0926501C09250
:1020E000640129E0FF248CE0889EC0011124E22EC7
:1020F000E80E0AC080919602909197020196909303
:10210000970280939602E3940E94910E8B3291F392
:10211000833281F30CC080919602909197020196D0
:102120009093970280939602EA940E94910E8D32CA
:1021300091F3C0916201D09163018153883058F4CA
:1021400000916001109161010E94B00EBC01C801B4
:102150000E949F19EB018E010BC080919602909115
:10216000970201969093970280939602C00FD11F19
:10217000169507950E94910E8E3279F38091780220
:10218000882339F0CE019695879580937902C81BF4
:10219000D109FF2011F0EE24EA948E2DBE0140916A
:1021A00064010E94EB0DCDB7DEB7ECE00C94251A6C
:1021B00010926F00909397028093960281E0809333
:1021C0007A02109279020E94DD0E08950E94D810C2
:1021D000089510926F009093970280939602109248
:1021E0007A02109279020E94DD0E08950E94E91091
:1021F00008951F920F920FB60F9211242F933F93C1
:102200004F935F936F937F938F939F93AF93BF93FE
:10221000EF93FF9380917C0290917D0201979093C0
:102220007D0280937C02019611F510926F007894E4
:1022300080918100887F81608093810080E197E2B6
:10224000909389008093880010928B0010928A00EE
:1022500081E0809368018091960290919702892B8A
:1022600031F080917B02882311F40E94DD0EFF91F2
:10227000EF91BF91AF919F918F917F916F915F91FE
:102280004F913F912F910F900FBE0F901F90189577
:1022900010926F0080916801882341F0809196022E
:1022A00090919702892B11F00E94DD0E81E08093BE
:1022B0006F0020E08091960290919702892B09F09F
:1022C00021E0822F089580937B02882311F40E94DD
:1022D000481108950E94631108950E9448110895BD
:1022E0000895089580E090E00895EF92FF920F9393
:1022F0001F936AB157985A98289AE0908202F090FA
:102300008302009184021091850220E030E041E0D8
:1023100050E0CA016F9364E06A95F1F76F910197FD
:10232000C9F75C9ACA016F9364E06A95F1F76F91FF
:102330000197C9F789B15C98FA016F9364E06A95D7
:10234000F1F76F913197C9F75C9AFA016F9364E0E6
:102350006A95F1F76F913197C9F75C9887FF0BC0C9
:102360002C5F3F4FC901A0E0B0E08E159F05A0078C
:10237000B10708F4CECF6AB91F910F91FF90EF908B
:10238000089565B190E0AC0141705070440F551F45
:102390009C012670307053E0220F331F5A95E1F7ED
:1023A000422B6D7C462B45B92BB18870907034E080
:1023B000880F991F3A95E1F72F77282B2BB95C9A54
:1023C00081E090E0FC016F9364E06A95F1F76F9112
:1023D0003197C9F75C986F9364E06A95F1F76F9154
:1023E0000197C9F7089580917E0290917F0200972E
:1023F00011F00E94ED1A8091660190E00197209102
:10240000670130E0AC01429FC001439F900D529F95
:10241000900D11240E94401A90937F0280937E02B7
:10242000009729F160E070E208C0E0917E02F0912F
:102430007F02E40FF51F70836F5F462F50E080919D
:10244000660190E001972091670130E0FC01E29F76
:10245000C001E39F900DF29F900D1124481759077A
:1024600024F386E394E162E771E10E94451B08953D
:1024700080936701609366010E94F3110895809331
:102480006701609366010E94F31108950E94F311A1
:10249000089580E197E2A0E0B0E0809382029093FB
:1024A0008302A0938402B0938502529A209A549A90
:1024B0008EE190E00E94D91883E00E947C1586E0AE
:1024C00090E00E94D91883E00E947C1582E090E0A1
:1024D0000E94D91883E00E947C1582E090E00E945F
:1024E000D91882E00E947C1582E090E00E94D91801
:1024F00088E20E94C61288E00E94C61281E00E9413
:10250000C61286E00E94C6128CE00E94C612089590
:1025100080918602882329F481E0809386020E94BC
:1025200049120895BF92CF92DF92EF92FF920F93DC
:102530001F93082F162FF42E0E9488120E947511E7
:10254000B4B0C5B0DAB0EBB02898112311F05A9AA4
:1025500001C05A9884B1826384B9579A81E0F81611
:1025600029F0802F82958F700E94C111802F8F706B
:102570000E94C111DAB8EBB8B4B8C5B81F910F9179
:10258000FF90EF90DF90CF90BF90089560E042E021
:102590000E94921208950F931F93082F162F08C0C0
:1025A000002311F480E101C084E10E94C6121150A1
:1025B0001123B1F71F910F9108950E94CB12089536
:1025C0008CE00E94C61208950E94E01208958130A6
:1025D00011F48FE001C08EE00E94C61208950E949F
:1025E000E7120895A4E0B0E0E8EFF2E10C94111ACC
:1025F000182F062F80E8898380EC8A8384E98B83F7
:1026000084ED8C83FE01E60FF11D8181810F0E9414
:10261000C61210938102009380022496E4E00C9489
:102620002D1A0E94F212089581E00E94C612809134
:102630007E0290917F02892B19F160E070E208C060
:10264000E0917E02F0917F02E40FF51F70836F5FCF
:10265000462F50E08091660190E00197209167013C
:1026600030E0FC01E29FC001E39F900DF29F900DCE
:1026700011244817590724F3109281021092800206
:1026800008950E941413089561E042E00E9492129E
:1026900008950F931F93CF93DF9300E010E8C82FA6
:1026A000D0E0812F90E08C239D23892B11F081E3D2
:1026B00001C080E30E9444130F5F083011F01695AB
:1026C000F0CFDF91CF911F910F9108950E94491390
:1026D00008958A3010F4805D01C0895C0E94441323
:1026E00008951F93182F82958F700E946913812F70
:1026F0008F700E9469131F9108951F93182F892FBF
:102700000E947113812F0E9471131F9108950E94DE
:102710007D1308950E94711308956F927F928F9296
:102720009F92AF92BF92CF92DF92FF920F93DF936F
:10273000CF93CDB7DEB72A970FB6F894DEBF0FBEA2
:10274000CDBF5B016C010AE03E010894611C711C65
:10275000FA2CC601B5012AE030E040E050E00E94CA
:10276000C619C901DA015C016D0101504301800EF7
:10277000911C80E3F80EC601B5012AE030E040E08C
:1027800050E00E947419F61AF401F082A114B10409
:10279000C104D104E9F608C0F601E00FF11D808103
:1027A0000E9444130F5F04C06E010894C11CD11C29
:1027B0000A3090F32A960FB6F894DEBF0FBECDBF55
:1027C000CF91DF910F91FF90DF90CF90BF90AF90AE
:1027D0009F908F907F906F9008950E948D13089521
:1027E000EF92FF920F931F937B018C0197FF0BC019
:1027F00010950095F094E094E11CF11C011D111D51
:102800008DE20E944413C801B7010E948D131F91ED
:102810000F91FF90EF9008950E94F0130895CF93C9
:10282000DF93EC0103C00E9444132196FE018491C2
:102830008823C9F7DF91CF9108950E940F1408955E
:10284000CF93DF93EC0103C021960E94441388814B
:102850008823D1F7DF91CF9108950E942014089525
:102860000E94441308950E9444130895A0E0B0E02C
:10287000ECE3F4E10C940D1AE82E80917E02909125
:102880007F02892B09F405C12AE0E21609F446C04B
:1028900038E0E316C9F4809181028150809381026F
:1028A0008F3F51F48091800281508093800280910B
:1028B0006701815080938102809180028F3F09F0EF
:1028C000E2C010928002DDC08E2D0E944413209140
:1028D00080022223C9F030E021503040809167010E
:1028E00090E0AC01249FC001259F900D349F900D76
:1028F000112420918102E0917E02F0917F02E80F85
:10290000F91FE20FF11DE082809181028F5F8093B9
:10291000810290916701891709F0BBC04091800244
:10292000242F30E08091660190E001972817390745
:1029300009F0A4C0C0E0D0E044C080E06C2F0E9449
:10294000F212FF246E010894C11CD11C35C00F2D5A
:1029500010E090E09C01C29FC001C39F900DD29FE8
:10296000900D1124E0917E02F0917F02E00FF11FA3
:10297000E80FF91F80810E944413E0917E02F091DC
:102980007F028091670190E0C89FD001C99FB00D80
:10299000D89FB00D1124E00FF11FAE0FBF1FAC0187
:1029A000C49EC001C59E900DD49E900D1124E80FC9
:1029B000F91F80818C93F39480916701F81638F2A7
:1029C000E60160916601862F90E00297C817D9074B
:1029D0000CF4B3CF623008F440C0625080E00E9433
:1029E000F212FF24E0E2DE2E34C00F2D10E08091C1
:1029F000660190E0029730E0AC01429FC001439F26
:102A0000900D529F900D1124E0917E02F0917F0273
:102A1000E00FF11FE80FF91F80810E9444132091FD
:102A2000660130E0225030408091670190E0AC01B7
:102A3000249FC001259F900D349F900D1124E0919B
:102A40007E02F0917F02E00FF11FE80FF91FD082A4
:102A5000F39420916701F21640F260916601615093
:102A600080E00E94F21200E004C080E20E94441361
:102A70000F5F809167010817C0F303C04F5F409359
:102A800080021092810280918102609180020E94F6
:102A9000F2122E2D332727FD3095C901CDB7DEB7B1
:102AA000E8E00C94291AEF92FF920F931F93CF93B3
:102AB000DF937C01062F10E0F3E0000F111FFA9561
:102AC000E1F7C0E0D0E09E01200F822F80640E94D9
:102AD000C612F701EC0FFD1FE4918E2F0E944413E4
:102AE0002196C830D10579F7CDB7DEB7E6E00C9472
:102AF0002B1A0E945315089560E041E00E94921243
:102B000008950F931F93CF93DF93082F162FEA0199
:102B10000BC0002311F488E101C08CE10E94C612B1
:102B2000CE010E94D9181150112399F7DF91CF914E
:102B30001F910F9108950E9481150895282F8830C4
:102B400068F481E090E002C0880F991F2A95E2F7AF
:102B5000282FAAE2B0E0EBE2F0E029C08E3080F44A
:102B600030E02850304081E090E002C0880F991F8B
:102B70002A95E2F7282FA4E2B0E0E5E2F0E017C0E2
:102B8000853130F020E0A0E0B0E0E0E0F0E00FC000
:102B900030E02E50304081E090E002C0880F991F55
:102BA0002A95E2F7282FA7E2B0E0E8E2F0E06F3FD5
:102BB00019F48081822709C0662319F08081822B55
:102BC00004C09081822F8095892380838C91822BF1
:102BD0008C93089508950895E0EBF0E083EF8083EF
:102BE000808184BDE1EBF0E082E08083808185BD5F
:102BF000E4EBF0E010828081E3EBF0E08083808101
:102C000088BD88B587BD86E060E00E949E1585E09E
:102C100060E00E949E158BE060E00E949E1583E0BC
:102C200060E00E949E15089580918702882329F410
:102C300081E0809387020E94EC150895CF93DF9383
:102C4000EC010E941416D7FD02C020E004C0D0950C
:102C5000C195DF4F21E0CE01CF3FD10519F014F02F
:102C60008FEF90E0222319F018BC87BD02C088BD09
:102C700017BCDF91CF9108950E941E160895CF933F
:102C8000DF93EC010E941416D7FD02C020E004C0BF
:102C9000D095C195DF4F21E0CE01CF3FD10519F08E
:102CA00014F08FEF90E0222329F01092B40080936B
:102CB000B30004C08093B4001092B300DF91CF91B1
:102CC00008950E943F1608950F931F938B010E9451
:102CD0001E16C8010E943F161F910F9108950E9471
:102CE000641608950895089580918802882391F4C8
:102CF00081E08093880284B18D7C84B985B1826340
:102D000085B985E090E06F9364E06A95F1F76F9183
:102D10000197C9F7089584B18D7C84B985B1826328
:102D200085B985E090E06F9364E06A95F1F76F9163
:102D30000197C9F708951F93182F0E94741683B145
:102D4000809581231F9108950E949B160895CF922C
:102D5000DF92EF92FF920F931F93C82ED3B00E9481
:102D60000A197B018C010E94741680918E028130B9
:102D700011F1813038F0823009F444C0833009F019
:102D80008BC066C02C2D30E08D2D90E08095909505
:102D900028233923232B09F47FC0D094DC20D09240
:102DA0008902E0928A02F0928B0200938C021093C7
:102DB0008D0281E06FC080918A0290918B02A09178
:102DC0008C02B0918D02E81AF90A0A0B1B0B8FE0F6
:102DD000E816F1040105110508F45EC0409189026E
:102DE0008D2D90E080959095242F30E082239323C1
:102DF000892B59F182E080938E02D094D422D09214
:102E000089024AC040918902642F70E02D2D30E084
:102E1000CB0182239323892B79F083E080938E0268
:102E20004D2140938902E0928A02F0928B02009336
:102E30008C0210938D0230C08C2D90E0209530953F
:102E4000822393236817790739F110928E0224C0E8
:102E500080918A0290918B02A0918C02B0918D0298
:102E6000E81AF90A0A0B1B0B8FE0E816F1040105BA
:102E7000110590F040918902842F90E02D2D30E0D3
:102E800082239323892B29F010928E02842F8D2187
:102E900004C082E080938E0280E01F910F91FF902A
:102EA000EF90DF90CF9008950E94A7160895CF92DB
:102EB000DF92EF92FF920F931F93C82ED3B0D0945E
:102EC0000E940A197B018C010E9474168091940261
:102ED000813011F1813038F0823009F444C0833000
:102EE00009F08BC066C02C2D30E08D2D90E08095D0
:102EF000909528233923232B09F47FC0D094DC201C
:102F0000D0928F02E0929002F0929102009392028E
:102F10001093930281E06FC0809190029091910292
:102F2000A0919202B0919302E81AF90A0A0B1B0BC6
:102F30008FE0E816F1040105110508F45EC0409128
:102F40008F028D2D90E080959095242F30E0822384
:102F50009323892B59F182E080939402D094D42258
:102F6000D0928F024AC060918F022D2D30E0462F03
:102F700050E0C90184239523892B79F083E0809365
:102F80009402D622D0928F02E0929002F0929102A7
:102F9000009392021093930230C08C2D90E0209504
:102FA0003095822393234817590739F110929402E0
:102FB00024C08091900290919102A0919202B091D0
:102FC0009302E81AF90A0A0B1B0B8FE0E816F104CA
:102FD0000105110590F040918F028D2D90E0242F76
:102FE00030E082239323892B29F0109294028D2DB7
:102FF000842304C082E08093940280E01F910F91AB
:10300000FF90EF90DF90CF9008950E94571708959A
:103010001F93CF93DF93182F0E947416C12FD0E017
:1030200083B190E08C239D23892BD1F38AE090E03B
:103030000E94D91883B190E08C239D23892B81F3C2
:1030400083B18123DF91CF911F9108950E940818C9
:1030500008951F93CF93DF93182F0E947416C12FEA
:10306000D0E083B190E0809590958C239D23892BAF
:10307000C1F38AE090E00E94D91883B190E0809576
:1030800090958C239D23892B61F383B180958123B7
:10309000DF91CF911F9108951F930E942918182F37
:1030A0000E940818812F1F9108950E944C180895BE
:1030B0000E942918089508950895A2E0B0E0E3E67B
:1030C000F8E10C94131A2091A3023091A402CE01CE
:1030D00001962115310519F48D5A924002C0821BC8
:1030E000930B9A83898389819A812296E2E00C94DA
:1030F0002F1A0E945D1808952F928F939F932FB6D9
:103100008091990290919A020196809399029093EE
:103110009A0290E080919B02891F80939B0290917C
:10312000A1029C5F9093A1028091A00280519742DE
:10313000C0F09093A1028093A00280919C02909194
:103140009D02019680939C0290939D0290E0809155
:103150009E02891F80939E0280919F02891F809307
:103160009F022FBE9F918F912F90189528EE33E0EC
:1031700009C0F9016F9364E06A95F1F76F91319797
:10318000C9F701970097A9F708956F5F7F4F8F4F99
:103190009F4F660F771F881F991F25E030E040E0A2
:1031A00050E00E94C619CA01B90108950E94C518CD
:1031B000089528EE33E009C0F9016F9364E06A9541
:1031C000F1F76F913197C9F701970097A9F7089523
:1031D000A0E7B0E08C918E7F8C93E0EBF0E08081F3
:1031E00083608083E1EBF0E08081807F8083808159
:1031F00082608083B89A8C9181608C9378940895D2
:103200008091A202882329F481E08093A2020E9487
:10321000E81808950E940019E0E7F0E080818E7FB1
:10322000808320919C0230919D0240919E0250919A
:103230009F02808181608083B901CA0108950E9444
:103240000A1908950E940019809170008E7F809362
:1032500070006091B2008091980290919902A091C3
:103260009A02B0919B02B89905C0262F30E040E049
:1032700050E011C08091B2002091980230919902E3
:1032800040919A0250919B0220503F4F4F4F5F4F09
:1032900090E0A0E0B0E0282B392B4A2B5B2B8091EB
:1032A0007000816080937000B901CA0108950E9486
:1032B000221908950E940019E0E7F0E080818E7FD6
:1032C000808310929C0210929D0210929E02109296
:1032D0009F021092A1021092A002808181608083DF
:1032E00008950E945A190895629FD001739FF001BA
:1032F000829FE00DF11D649FE00DF11D929FF00D86
:10330000839FF00D749FF00D659FF00D9927729FBC
:10331000B00DE11DF91F639FB00DE11DF91FBD0147
:10332000CF0111240895991B79E004C0991F9617C5
:1033300008F0961B881F7A95C9F780950895AA1BF7
:10334000BB1B51E107C0AA1FBB1FA617B70710F090
:10335000A61BB70B881F991F5A95A9F780959095C2
:10336000BC01CD01089597FB092E07260AD077FDF1
:1033700004D0E5DF06D000201AF4709561957F4FE8
:103380000895F6F7909581959F4F0895A1E21A2E22
:10339000AA1BBB1BFD010DC0AA1FBB1FEE1FFF1FF9
:1033A000A217B307E407F50720F0A21BB30BE40B49
:1033B000F50B661F771F881F991F1A9469F7609590
:1033C0007095809590959B01AC01BD01CF0108954A
:1033D00097FB092E05260ED057FD04D0D7DF0AD063
:1033E000001C38F450954095309521953F4F4F4F34
:1033F0005F4F0895F6F790958095709561957F4F92
:103400008F4F9F4F08952F923F924F925F926F92EE
:103410007F928F929F92AF92BF92CF92DF92EF9264
:10342000FF920F931F93CF93DF93CDB7DEB7CA1BE5
:10343000DB0B0FB6F894DEBF0FBECDBF09942A8810
:10344000398848885F846E847D848C849B84AA84B8
:10345000B984C884DF80EE80FD800C811B81AA8145
:10346000B981CE0FD11D0FB6F894DEBF0FBECDBF10
:10347000ED010895EE0FFF1F0590F491E02D0994E2
:10348000CF93DF93BC018230910510F462E070E0CD
:10349000A091A502B091A602ED01E0E0F0E040E0CD
:1034A00050E021C0888199818617970769F48A8145
:1034B0009B81309719F09383828304C09093A60276
:1034C0008093A502FE0134C06817790738F44115CE
:1034D000510519F08417950708F4AC01FE018A81A3
:1034E0009B819C01E9012097E9F641155105A9F15D
:1034F000CA01861B970B049708F4BA01E0E0F0E0DC
:103500002AC08D919C91119784179507F9F464173F
:10351000750781F412968D919C911397309719F04D
:103520009383828304C09093A6028093A502FD0139
:1035300032964FC0CA01861B970BFD01E80FF91F99
:103540006193719302978D939C9343C0FD01828197
:1035500093819C01D9011097A1F68091A3029091CB
:10356000A402892B41F4809173029091740290938C
:10357000A4028093A30240917502509176024115F6
:10358000510541F44DB75EB780917102909172027E
:10359000481B590B2091A3023091A4022417350730
:1035A000B0F4CA01821B930B8617970780F0AB011A
:1035B0004E5F5F4F8417950750F0420F531F509393
:1035C000A4024093A302F9016193719302C0E0E069
:1035D000F0E0CF01DF91CF910895CF93DF93009773
:1035E00009F450C0EC0122971B821A82A091A50217
:1035F000B091A602109709F140E050E0AC17BD076A
:1036000008F1BB83AA83FE0121913191E20FF31FE0
:10361000AE17BF0779F48D919C911197280F391F30
:103620002E5F3F4F3983288312968D919C9113977B
:103630009B838A834115510571F4D093A602C093F0
:10364000A50220C012968D919C911397AD01009711
:1036500011F0DC01D3CFFA01D383C28321913191E0
:10366000E20FF31FCE17DF0769F488819981280FD5
:10367000391F2E5F3F4FFA01318320838A819B815E
:1036800093838283DF91CF9108950F931F93CF93FC
:10369000DF938C01EB01009731F46115710519F48A
:1036A00020E030E038C081E090E06EE070E00E9401
:1036B000911BFC019C01009771F180E883832097A6
:1036C00071F0D387C28781E883838091A7029091AC
:1036D000A802892B21F4F093A802E093A702011518
:1036E0001105C9F0118700878381826083838091EF
:1036F000A9029091AA02892B71F4F093AA02E09397
:10370000A9028091AB029091AC02892B21F4F09335
:10371000AC02E093AB02C901DF91CF911F910F91F1
:1037200008950F931F93CF93DF93689F8001699F44
:10373000100D789F100D1124C8010E94401AEC0151
:10374000009729F060E070E0A8010E94AD1BCE0157
:10375000DF91CF911F910F910895DC0101C06D930E
:0C37600041505040E0F70895F894FFCF6E
:10376C003D3F002F3130300021633332002165336F
:10377C003200216733320054726E205370643D0066
:10378C004B703D3F20202020004B693D3F202020E6
:10379C0020004B643D3F202020200046726F6E7449
:1037AC003D3F2000413D6C65667400433D72696786
:1037BC00687400507265737320420088130404000F
:1037CC00D007F4010F000208010000000000000007
:1037DC0000000102020303030304040404040404B0
:1037EC00040505050505050505050505050505057E
:1037FC00050606060606060606060606060606065E
:10380C00060606060606060606060606060606064C
:10381C00060707070707070707070707070707072D
:10382C00070707070707070707070707070707071C
:10383C00070707070707070707070707070707070C
:10384C0007070707070707070707070707070707FC
:10385C0007080808080808080808080808080808DD
:10386C0008080808080808080808080808080808CC
:10387C0008080808080808080808080808080808BC
:10388C0008080808080808080808080808080808AC
:10389C00080808080808080808080808080808089C
:1038AC00080808080808080808080808080808088C
:1038BC00080808080808080808080808080808087C
:1038CC00080808080808080808080808080808086C
:0838DC00082000AD020000000D
:00000001FF
