:100000000C9465000C948D000C948D000C948D0064
:100010000C948D000C948D000C948D000C948D002C
:100020000C948D000C945F0D0C948D000C948D003D
:100030000C948D000C94DC050C948D000C948D00B8
:100040000C948D000C948D000C948D000C948D00FC
:100050000C948D000C948D000C948D000C948D00EC
:100060000C948D000C948D00FC0202030503080320
:100070000B030E031103140317031A031D032003BC
:100080006C696E652076322E3000202020202020E2
:100090002020003E6733323E3E633332004C31361F
:1000A00020636465677265673400763132204C31B5
:1000B00036206F34206600000000000000001F1F83
:1000C0001F1F1F1F1F007F0E800E11241FBECFEFAA
:1000D000D4E0DEBFCDBF11E0A0E0B1E0EAE3F0E3A1
:1000E00002C005900D92AA32B107D9F711E0AAE239
:1000F000B1E001C01D92A73AB107E1F710E0C8ECEA
:10010000D0E004C02297FE010E949816C63CD10799
:10011000C9F70E947A010C9410180C9400000F93F8
:100120001F93CF93DF938C01C0E0D0E0F801EC0F78
:10013000FD1F8081918165E670E00E94FB15FB0147
:10014000E85FFE4F80810E9416092296CA30D105D1
:1001500069F7DF91CF911F910F9108950F931F932E
:1001600007EB10E0C80160E00E945C0AC80101963C
:1001700061E00E945C0AC801029662E00E945C0A8B
:10018000C801039663E00E945C0AC801049664E01B
:100190000E945C0AC801059665E00E945C0AC801DD
:1001A000069666E00E945C0A0E9424081F910F9147
:1001B0000895CF92DF92EF92FF920F931F93DF93F8
:1001C000CF93CDB7DEB72A970FB6F894DEBF0FBE38
:1001D000CDBF80ED97E00E940E0F0E94AE008AEA2C
:1001E00090E00E94C90588EE93E00E94990D0E945C
:1001F000240880E890E00E94000980E061E00E940D
:10020000F4078AE890E00E94000988EE93E00CC0B1
:100210000E94240880E061E00E94F40780E091E001
:100220000E94100984E690E00E94990D80E10E94EE
:10023000870B882369F380E10E94090D88EE93E023
:100240000E94990D0CEE1FEF0832110528F088E28C
:1002500090E068ED7FEF04C088ED9FEF68E270E00A
:100260000E94520B81E00E94AE0E84E190E00E9459
:10027000990D0F5F1F4F0C33110531F780E090E0AF
:1002800060E070E00E94520B6E010894C11CD11C0A
:1002900018C0C60161E00E94930E7C010E942408F0
:1002A00000E010E0C801B7010E94EF0880E061E0C3
:1002B0000E94F407C6010E948F0084E690E00E942D
:1002C000990D80E10E94870B882319F380E10E9439
:1002D000090D0E9424082A960FB6F894DEBF0FBEBF
:1002E000CDBFCF91DF911F910F91FF90EF90DF90E5
:1002F000CF9008954F925F926F927F928F929F92CC
:10030000AF92BF92CF92DF92EF92FF920F931F9323
:10031000DF93CF93CDB7DEB72A970FB6F894DEBF41
:100320000FBECDBF0E94D90088249924CC24DD249F
:1003300076012E010894411C511C6CE3662E712C31
:10034000C20161E00E94930E50E3A52E58EFB52E36
:10035000A80EB91EC501AA2797FDA095BA2FC80EF1
:10036000D91EEA1EFB1EC701B60120E137E240E0BC
:1003700050E00E94441689019A01C50164E170E0D1
:100380000E940F16FB01E00FF11F95012819390992
:10039000C901880F991F820F931F62E070E00E94CD
:1003A0000F16E60FF71FED33F10574F48FEFE43C01
:1003B000F8071CF4E4ECFFEF02C0F7FF07C0CF0121
:1003C000CC966CE370E007C0ECE3F0E0B3016E1B89
:1003D0007F0B8CE390E00E94520B4501B1CF089552
:1003E000089580911D01882339F020E08091480113
:1003F00090914901892B09F021E0822F08951092F4
:100400006F0083E28093800081E1809381001092ED
:10041000820080E197E29093890080938800109297
:100420008B0010928A00229A78940895A0E0B0E0A0
:10043000ECE1F2E00C9467168C015B01C42E809114
:100440004701882329F481E0809347010E94FF013E
:1004500010921D0117FD03C0DD24D39403C01F7744
:100460002AE0D22E80918100E82EFF2488EFE82236
:10047000FF2488ECD89EC001112480179107C8F48E
:10048000E80197E20131190710F0C0E1D7E2BE019F
:100490007695679580E090E06058794687469F4F53
:1004A0009E0140E050E00E942216890181E090E028
:1004B00025C088E2D89E802D1124C82FD0E0C01717
:1004C000D10708F4E801BE01769567959E0140E0EA
:1004D00050E09AE0D91639F480E090E0605E734411
:1004E00081449F4F06C080E090E060537D4E8C4E6B
:1004F0009F4F0E942216890182E090E0E82AF92AA3
:100500009AE0D91639F4CE0105966AE070E00E94AF
:10051000FB15EB0183E0C83ED80711F4B5010FC00D
:10052000BE0180E090E0950140E050E00E94D015CF
:1005300028EE33E040E050E00E944416B9011092EA
:100540006F00E09281001093890000938800E09191
:100550008800F0918900AC2DA03108F0AFE080E177
:1005600090E08A1B910902C0F695E7958A95E2F71B
:10057000F0938B00E0938A0070932F0160932E011B
:1005800086B38FEF86BB81E080936F00CDB7DEB777
:10059000EAE00C9483160E9416020895CF93DF932D
:1005A000EB018F3F11F0442329F488EE93E0BE0164
:1005B00040E067C0813110F420E005C0282F2051B1
:1005C000203608F02FE5822F6CE00E94EF15382FBF
:1005D000682F70E084EF9FEF689FF001699FF00D36
:1005E000789FF00D1124E20FF11DEC30F10538F485
:1005F000EC5CFF4F0C9496168CE991E023C080E0F0
:1006000090E020C085EB91E01DC08FEC91E01AC016
:100610008AEE91E017C087E092E014C086E292E093
:1006200011C087E492E00EC089E692E00BC08EE82C
:1006300092E008C085EB92E005C08EED92E002C02A
:100640008AE093E0373071F002C0880F991F6A95F5
:10065000E2F7323020F005966AE070E00BC080507F
:1006600090480BC036E0880F991F3A95E1F7029643
:1006700065E070E00E94FB15CB01403108F04FE0CF
:10068000BE010E941602DF91CF9108950E94CE0212
:10069000089580911D01882339F020E08091480160
:1006A00090914901892B09F021E0822F0895109241
:1006B0006F00E1E8F0E08081887F8160808380E1E5
:1006C00097E2909389008093880010928B0010929B
:1006D0008A0081E080931D01109249011092480127
:1006E00008950E945703089530912C01E09148012C
:1006F000F0914901332311F0249101C02081822F10
:1007000081548A3108F4205E203259F480914801E6
:100710009091490101969093490180934801019776
:1007200029F7822F0895CF93DF930E947403282F17
:10073000C0E0D0E01DC0CE0153E0880F991F5A954C
:10074000E1F7CC0FDD1FC80FD91F822F992787FD36
:100750009095C80FD91FE097809148019091490169
:10076000019690934901809348010E947403282FB9
:10077000822F80538A30F8F2CE01DF91CF91089515
:10078000A0E0B0E0E6ECF3E00C9465168090120176
:10079000B0902A01BB2021F060912B01662399F4CF
:1007A000A0902B010091170110911801E090130106
:1007B000F0901401C0911501D0911601C09019015B
:1007C000D0901A0108C18FEF70E040E00E94CE0285
:1007D00010922B01CBC194E0892EBB2404EF11E0D1
:1007E00084E0E82EF12CC0EDD7E0B4E09B2EAFE022
:1007F000CA2ED12C0E947403282F80914801909119
:10080000490101969093490180934801263609F4E5
:1008100098C02736CCF42236A1F1233674F42E3357
:1008200061F12F3334F42132B1F22C3309F00BC1D2
:1008300026C0213609F007C121C1243609F451C070
:1008400025360CF066C035C02F3609F4C1C02037FC
:1008500054F42C3609F4A5C02D3609F4A6C0273669
:1008600009F0F1C086C0243709F4D1C0263709F455
:10087000E6C0223709F0E7C0B0C08394BBCF8A94AA
:10088000B9CFA0922B01B0922A01109318010093C6
:100890001701F0921401E0921301D0931601C09356
:1008A000150190921201D0921A01C09219012BE009
:1008B000FCC0A0922B01B0922A0110931801009362
:1008C0001701F0921401E0921301D0931601C09326
:1008D000150190921201D0921A01C092190120E0E4
:1008E000E4C0A0922B01B0922A011093180100934A
:1008F0001701F0921401E0921301D0931601C093F6
:10090000150190921201D0921A01C092190122E0B1
:10091000CCC0A0922B01B0922A0110931801009331
:100920001701F0921401E0921301D0931601C093C5
:10093000150190921201D0921A01C092190124E07F
:10094000B4C0A0922B01B0922A0110931801009319
:100950001701F0921401E0921301D0931601C09395
:10096000150190921201D0921A01C092190125E04E
:100970009CC0A0922B01B0922A0110931801009301
:100980001701F0921401E0921301D0931601C09365
:10099000150190921201D0921A01C092190127E01C
:1009A00084C00E9493037C0144C00E9474038C366F
:1009B00011F4BB2403C0AA24BB24B3948091480142
:1009C000909149010196909349018093480112CF7B
:1009D0000E949303882E982C0DCFA0922B01B092E9
:1009E0002A011093180100931701F0921401E0926C
:1009F0001301D0931601C093150190921201D09269
:100A00001A01C092190120E0FF24F3944FC00E9404
:100A10009303BC0180EC9DE50E94FB15CB01EB012B
:100A2000F3E0CC0FDD1FFA95E1F7880F991FC80F8F
:100A3000D91FCE01B7010E94FB158B01DBCE0E94AE
:100A400093036C01D7CEA0922B01B0922A01109390
:100A5000180100931701F0921401E0921301D09352
:100A60001601C093150190921201D0921A01C09202
:100A70001901109249011092480178C0A0922B01EF
:100A8000B0922A011093180100931701F0921401FB
:100A9000E0921301D0931601C093150190921201B8
:100AA000D0921A01C092190129E0FF248CE0889E9F
:100AB000C0011124E22EE80E0AC0809148019091F5
:100AC000490101969093490180934801E3940E9463
:100AD00074038B3291F3833281F30CC0809148010F
:100AE0009091490101969093490180934801EA94BD
:100AF0000E9474038D3291F3C0911701D0911801B7
:100B00008153883058F400911501109116010E940C
:100B10009303BC01C8010E94FB15EB018E010BC0C1
:100B200080914801909149010196909349018093E9
:100B30004801C00FD11F169507950E9474038E328D
:100B400079F380912A01882339F0CE019695879513
:100B500080932B01C81BD109FF2011F0EE24EA94E9
:100B60008E2DBE01409119010E94CE02CDB7DEB795
:100B7000ECE00C94811610926F00909349018093E1
:100B8000480181E080932C0110922B010E94C00348
:100B900008950E94BB05089510926F00909349013B
:100BA0008093480110922C0110922B010E94C003E7
:100BB00008950E94CC0508951F920F920FB60F92D0
:100BC00011242F933F934F935F936F937F938F9352
:100BD0009F93AF93BF93EF93FF9380912E019091DA
:100BE0002F01019790932F0180932E01019611F50B
:100BF00010926F00789480918100887F816080934B
:100C0000810080E197E290938900809388001092A0
:100C10008B0010928A0081E080931D018091480131
:100C200090914901892B31F080912D01882311F495
:100C30000E94C003FF91EF91BF91AF919F918F915F
:100C40007F916F915F914F913F912F910F900FBEC8
:100C50000F901F90189510926F0080911D018823AE
:100C600041F08091480190914901892B11F00E9437
:100C7000C00381E080936F0020E080914801909153
:100C80004901892B09F021E0822F089580932D01DD
:100C9000882311F40E942B0608950E9446060895A9
:100CA0000E942B0608950895089580E090E008952D
:100CB000EF92FF920F931F936AB157985A98289A10
:100CC000E0903401F0903501009136011091370128
:100CD00020E030E041E050E0CA016F9364E06A95A3
:100CE000F1F76F910197C9F75C9ACA016F9364E0BD
:100CF0006A95F1F76F910197C9F789B15C98FA018C
:100D00006F9364E06A95F1F76F913197C9F75C9A38
:100D1000FA016F9364E06A95F1F76F913197C9F723
:100D20005C9887FF0BC02C5F3F4FC901A0E0B0E08B
:100D30008E159F05A007B10708F4CECF6AB91F91A1
:100D40000F91FF90EF90089565B190E0AC01417074
:100D50005070440F551F9C012670307053E0220FD5
:100D6000331F5A95E1F7422B6D7C462B45B92BB1C9
:100D70008870907034E0880F991F3A95E1F72F77CB
:100D8000282B2BB95C9A81E090E0FC016F9364E022
:100D90006A95F1F76F913197C9F75C986F9364E0AA
:100DA0006A95F1F76F910197C9F708958091300125
:100DB00090913101009711F00E94491780911B0119
:100DC00090E0019720911C0130E0AC01429FC001EE
:100DD000439F900D529F900D11240E949C1690935A
:100DE000310180933001009729F160E070E208C082
:100DF000E0913001F0913101E40FF51F70836F5FD6
:100E0000462F50E080911B0190E0019720911C013A
:100E100030E0FC01E29FC001E39F900DF29F900D36
:100E200011244817590724F389E199E065E576E034
:100E30000E94A117089580931C0160931B010E94DA
:100E4000D606089580931C0160931B010E94D6066C
:100E500008950E94D606089580E197E2A0E0B0E0F0
:100E60008093340190933501A0933601B0933701FC
:100E7000529A209A549A8EE190E00E94BC0D83E031
:100E80000E945F0A86E090E00E94BC0D83E00E9411
:100E90005F0A82E090E00E94BC0D83E00E945F0A3E
:100EA00082E090E00E94BC0D82E00E945F0A82E036
:100EB00090E00E94BC0D88E20E94A90788E00E9491
:100EC000A90781E00E94A90786E00E94A9078CE09B
:100ED0000E94A907089580913801882329F481E0B0
:100EE000809338010E942C070895BF92CF92DF9221
:100EF000EF92FF920F931F93082F162FF42E0E944C
:100F00006B070E945806B4B0C5B0DAB0EBB02898B1
:100F1000112311F05A9A01C05A9884B1826384B99E
:100F2000579A81E0F81629F0802F82958F700E94E1
:100F3000A406802F8F700E94A406DAB8EBB8B4B86C
:100F4000C5B81F910F91FF90EF90DF90CF90BF90A9
:100F5000089560E042E00E94750708950F931F9383
:100F6000082F162F08C0002311F480E101C084E18E
:100F70000E94A90711501123B1F71F910F910895F5
:100F80000E94AE0708958CE00E94A90708950E9470
:100F9000C3070895813011F48FE001C08EE00E94F4
:100FA000A90708950E94CA070895A4E0B0E0EBEDF8
:100FB000F7E00C946D16182F062F80E8898380ECDB
:100FC0008A8384E98B8384ED8C83FE01E60FF11D17
:100FD0008181810F0E94A907109333010093320190
:100FE0002496E4E00C9489160E94D507089581E0C8
:100FF0000E94A9078091300190913101892B19F14C
:1010000060E070E208C0E0913001F0913101E40F3E
:10101000F51F70836F5F462F50E080911B0190E0B9
:10102000019720911C0130E0FC01E29FC001E39F89
:10103000900DF29F900D11244817590724F3109238
:1010400033011092320108950E94F707089561E07C
:1010500042E00E94750708950F931F93CF93DF938B
:1010600000E010E8C82FD0E0812F90E08C239D2372
:10107000892B11F081E301C080E30E9427080F5FF4
:10108000083011F01695F0CFDF91CF911F910F919D
:1010900008950E942C0808958A3010F4805D01C0E4
:1010A000895C0E94270808951F93182F82958F70DE
:1010B0000E944C08812F8F700E944C081F91089548
:1010C0001F93182F892F0E945408812F0E945408C3
:1010D0001F9108950E94600808950E945408089581
:1010E0006F927F928F929F92AF92BF92CF92DF9238
:1010F000FF920F93DF93CF93CDB7DEB72A970FB64A
:10110000F894DEBF0FBECDBF5B016C010AE03E016B
:101110000894611C711CFA2CC601B5012AE030E06C
:1011200040E050E00E942216C901DA015C016D0125
:1011300001504301800E911C80E3F80EC601B501F9
:101140002AE030E040E050E00E94D015F61AF401A9
:10115000F082A114B104C104D104E9F608C0F6017B
:10116000E00FF11D80810E9427080F5F04C06E010F
:101170000894C11CD11C0A3090F32A960FB6F8943B
:10118000DEBF0FBECDBFCF91DF910F91FF90DF90FB
:10119000CF90BF90AF909F908F907F906F90089569
:1011A0000E9470080895EF92FF920F931F937B01A6
:1011B0008C0197FF0BC010950095F094E094E11C12
:1011C000F11C011D111D8DE20E942708C801B70105
:1011D0000E9470081F910F91FF90EF9008950E9458
:1011E000D3080895CF93DF93EC0103C00E94270832
:1011F0002196FE0184918823C9F7DF91CF9108954C
:101200000E94F2080895CF93DF93EC0103C021966A
:101210000E94270888818823D1F7DF91CF91089514
:101220000E94030908950E94270808950E94270834
:101230000895A0E0B0E0EFE1F9E00C946916E82E23
:101240008091300190913101892B09F405C12AE088
:10125000E21609F446C038E0E316C9F48091330180
:101260008150809333018F3F51F48091320181503E
:101270008093320180911C018150809333018091D1
:1012800032018F3F09F0E2C010923201DDC08E2D95
:101290000E942708209132012223C9F030E021501A
:1012A000304080911C0190E0AC01249FC001259F3B
:1012B000900D349F900D112420913301E091300165
:1012C000F0913101E80FF91FE20FF11DE0828091EA
:1012D00033018F5F8093330190911C01891709F0CE
:1012E000BBC040913201242F30E080911B0190E07F
:1012F00001972817390709F0A4C0C0E0D0E044C026
:1013000080E06C2F0E94D507FF246E010894C11C59
:10131000D11C35C00F2D10E090E09C01C29FC00190
:10132000C39F900DD29F900D1124E0913001F09158
:101330003101E00FF11FE80FF91F80810E9427089B
:10134000E0913001F091310180911C0190E0C89F43
:10135000D001C99FB00DD89FB00D1124E00FF11F2F
:10136000AE0FBF1FAC01C49EC001C59E900DD49EA0
:10137000900D1124E80FF91F80818C93F3948091D4
:101380001C01F81638F2E60160911B01862F90E0EF
:101390000297C817D9070CF4B3CF623008F440C0E5
:1013A000625080E00E94D507FF24E0E2DE2E34C0C8
:1013B0000F2D10E080911B0190E0029730E0AC010E
:1013C000429FC001439F900D529F900D1124E091C8
:1013D0003001F0913101E00FF11FE80FF91F80811A
:1013E0000E94270820911B0130E02250304080915C
:1013F0001C0190E0AC01249FC001259F900D349FFB
:10140000900D1124E0913001F0913101E00FF11FB6
:10141000E80FF91FD082F39420911C01F21640F2DC
:1014200060911B01615080E00E94D50700E004C07C
:1014300080E20E9427080F5F80911C010817C0F30B
:1014400003C04F5F4093320110923301809133010A
:10145000609132010E94D5072E2D332727FD30954C
:10146000C901CDB7DEB7E8E00C948516EF92FF9284
:101470000F931F93CF93DF937C01062F10E0F3E0CF
:10148000000F111FFA95E1F7C0E0D0E09E01200F98
:10149000822F80640E94A907F701EC0FFD1FE491E1
:1014A0008E2F0E9427082196C830D10579F7CDB735
:1014B000DEB7E6E00C9487160E94360A089560E0D5
:1014C00041E00E94750708950F931F93CF93DF9318
:1014D000082F162FEA010BC0002311F488E101C088
:1014E0008CE10E94A907CE010E94BC0D115011236E
:1014F00099F7DF91CF911F910F9108950E94640A8F
:101500000895282F883068F481E090E002C0880FA9
:10151000991F2A95E2F7282FAAE2B0E0EBE2F0E06B
:1015200029C08E3080F430E02850304081E090E0D7
:1015300002C0880F991F2A95E2F7282FA4E2B0E095
:10154000E5E2F0E017C0853130F020E0A0E0B0E047
:10155000E0E0F0E00FC030E02E50304081E090E05D
:1015600002C0880F991F2A95E2F7282FA7E2B0E062
:10157000E8E2F0E06F3F19F48081822709C066231A
:1015800019F08081822B04C09081822F809589235D
:1015900080838C91822B8C93089508950895E0EBBD
:1015A000F0E083EF8083808184BDE1EBF0E082E0B6
:1015B0008083808185BDE4EBF0E010828081E3EBE5
:1015C000F0E08083808188BD88B587BD86E060E0DB
:1015D0000E94810A85E060E00E94810A8BE060E061
:1015E0000E94810A83E060E00E94810A0895809150
:1015F0003901882329F481E0809339010E94CF0AC0
:101600000895CF93DF93EC010E94F70AD7FD02C043
:1016100020E004C0D095C195DF4F21E0CE01CF3F3F
:10162000D10519F014F08FEF90E0222319F018BCC7
:1016300087BD02C088BD17BCDF91CF9108950E947D
:10164000010B0895CF93DF93EC010E94F70AD7FDB9
:1016500002C020E004C0D095C195DF4F21E0CE014B
:10166000CF3FD10519F014F08FEF90E0222329F03D
:101670001092B4008093B30004C08093B400109221
:10168000B300DF91CF9108950E94220B08950F932C
:101690001F938B010E94010BC8010E94220B1F9116
:1016A0000F9108950E94470B089508950895809121
:1016B0003A01882391F481E080933A0184B18D7CD2
:1016C00084B985B1826385B985E090E06F9364E069
:1016D0006A95F1F76F910197C9F7089584B18D7CF0
:1016E00084B985B1826385B985E090E06F9364E049
:1016F0006A95F1F76F910197C9F708951F93182F15
:101700000E94570B83B1809581231F9108950E94F9
:101710007E0B0895CF92DF92EF92FF920F931F936B
:10172000C82ED3B00E94ED0D7B018C010E94570B97
:1017300080914001813011F1813038F0823009F41C
:1017400044C0833009F08BC066C02C2D30E08D2D55
:1017500090E08095909528233923232B09F47FC0AE
:10176000D094DC20D0923B01E0923C01F0923D010C
:1017700000933E0110933F0181E06FC080913C01D6
:1017800090913D01A0913E01B0913F01E81AF90A04
:101790000A0B1B0B8FE0E816F1040105110508F494
:1017A0005EC040913B018D2D90E080959095242F57
:1017B00030E082239323892B59F182E0809340010A
:1017C000D094D422D0923B014AC040913B01642F77
:1017D00070E02D2D30E0CB0182239323892B79F00B
:1017E00083E0809340014D2140933B01E0923C0116
:1017F000F0923D0100933E0110933F0130C08C2DCB
:1018000090E020953095822393236817790739F16A
:101810001092400124C080913C0190913D01A09123
:101820003E01B0913F01E81AF90A0A0B1B0B8FE049
:10183000E816F1040105110590F040913B01842F59
:1018400090E02D2D30E082239323892B29F01092F4
:101850004001842F8D2104C082E08093400180E00C
:101860001F910F91FF90EF90DF90CF9008950E940D
:101870008A0B0895CF92DF92EF92FF920F931F93FE
:10188000C82ED3B0D0940E94ED0D7B018C010E9434
:10189000570B80914601813011F1813038F0823050
:1018A00009F444C0833009F08BC066C02C2D30E0B1
:1018B0008D2D90E08095909528233923232B09F4D2
:1018C0007FC0D094DC20D0924101E0924201F0929E
:1018D0004301009344011093450181E06FC0809162
:1018E000420190914301A0914401B0914501E81A51
:1018F000F90A0A0B1B0B8FE0E816F104010511052C
:1019000008F45EC0409141018D2D90E08095909546
:10191000242F30E082239323892B59F182E0809396
:101920004601D094D422D09241014AC06091410135
:101930002D2D30E0462F50E0C90184239523892BBB
:1019400079F083E080934601D622D0924101E09263
:101950004201F0924301009344011093450130C0CD
:101960008C2D90E0209530958223932348175907BA
:1019700039F11092460124C08091420190914301B7
:10198000A0914401B0914501E81AF90A0A0B1B0B1A
:101990008FE0E816F1040105110590F04091410136
:1019A0008D2D90E0242F30E082239323892B29F082
:1019B000109246018D2D842304C082E0809346015D
:1019C00080E01F910F91FF90EF90DF90CF900895EE
:1019D0000E943A0C08951F93CF93DF93182F0E9413
:1019E000570BC12FD0E083B190E08C239D23892B2E
:1019F000D1F38AE090E00E94BC0D83B190E08C238B
:101A00009D23892B81F383B18123DF91CF911F9196
:101A100008950E94EB0C08951F93CF93DF93182F26
:101A20000E94570BC12FD0E083B190E08095909534
:101A30008C239D23892BC1F38AE090E00E94BC0D8A
:101A400083B190E0809590958C239D23892B61F341
:101A500083B180958123DF91CF911F9108951F93CA
:101A60000E940C0D182F0E94EB0C812F1F910895DE
:101A70000E942F0D08950E940C0D08950895089559
:101A8000A2E0B0E0E6E4FDE00C946F1620919D0129
:101A900030919E01CE0101962115310519F4875A26
:101AA000914002C0821B930B9A83898389819A811A
:101AB0002296E2E00C948B160E94400D08952F921E
:101AC0008F939F932FB680914B0190914C0101967B
:101AD00080934B0190934C0190E080914D01891FC0
:101AE00080934D01909153019C5F9093530180919D
:101AF000520180519742C0F090935301809352015C
:101B000080914E0190914F01019680934E019093E8
:101B10004F0190E080915001891F80935001809186
:101B20005101891F809351012FBE9F918F912F905A
:101B3000189528EE33E009C0F9016F9364E06A95C7
:101B4000F1F76F913197C9F701970097A9F70895B9
:101B50006F5F7F4F8F4F9F4F660F771F881F991FB3
:101B600025E030E040E050E00E942216CA01B901B1
:101B700008950E94A80D089528EE33E009C0F901E8
:101B80006F9364E06A95F1F76F913197C9F7019708
:101B90000097A9F70895A0E7B0E08C918E7F8C9311
:101BA000E0EBF0E0808183608083E1EBF0E0808116
:101BB000807F8083808182608083B89A8C918160ED
:101BC0008C937894089580915401882329F481E0BE
:101BD000809354010E94CB0D08950E94E30DE0E72D
:101BE000F0E080818E7F808320914E0130914F0103
:101BF0004091500150915101808181608083B901F1
:101C0000CA0108950E94ED0D08950E94E30D809190
:101C100070008E7F809370006091B20080914A01C5
:101C200090914B01A0914C01B0914D01B89905C024
:101C3000262F30E040E050E011C08091B2002091AA
:101C40004A0130914B0140914C0150914D0120507F
:101C50003F4F4F4F5F4F90E0A0E0B0E0282B392B73
:101C60004A2B5B2B80917000816080937000B901DA
:101C7000CA0108950E94050E08950E94E30DE0E751
:101C8000F0E080818E7F808310924E0110924F0190
:101C90001092500110925101109253011092520172
:101CA00080818160808308950E943D0E0895809117
:101CB00055019091560108958091570190915801D6
:101CC00008958091590190915A01089580915B0186
:101CD00090915C010895809155019091560108956D
:101CE00080915701909158010895809159019091E8
:101CF0005A01089580915B0190915C0108950895C7
:101D000085E591E00E944014089585E591E00E94E8
:101D1000671308959C01462F85E591E0B90121E004
:101D20000E94671308959C01462F85E591E0B90153
:101D300020E00E946713089585E591E00E94AA12B1
:101D400008959C01462F85E591E0B9010E94AA12F1
:101D5000089585E591E00E9460150895682F85E556
:101D600091E00E946015089585E591E00E94CE0FF4
:101D7000089585E591E00E94CE0F089585E591E0F4
:101D80000E94ED0F089585E591E00E94ED0F089502
:101D90009C01462F85E591E0B9010E943A12089511
:101DA0009C01462F85E591E0B9010E943A12089501
:101DB0000F93DF93CF9300D000D00F92CDB7DEB753
:101DC0009C01962FDE011196EEE1F1E085E0019095
:101DD0000D928150E1F7BE016F5F7F4F992329F08B
:101DE00085E591E045E00FEF04C085E591E045E031
:101DF00003E10E94551085E591E00E94CE0F0E94FC
:101E00003D0E0F900F900F900F900F90CF91DF919C
:101E10000F91089561E00E94D80E089560E00E943D
:101E2000D80E089585E591E00E9404100895FC0104
:101E300011821082138212821582148216826830F7
:101E4000A0F489E290E0918380838BE290E0938319
:101E500082838AE290E09583848381E090E002C0EF
:101E6000880F991F6A95E2F719C06E30C8F483E2B3
:101E700090E09183808385E290E09383828384E283
:101E800090E095838483262F30E02850304081E015
:101E900090E002C0880F991F2A95E2F78683089583
:101EA0006531C0F486E290E09183808388E290E01F
:101EB0009383828387E290E095838483262F30E0AA
:101EC0002E50304081E090E002C0880F991F2A9583
:101ED000E2F786830895A0919B01B0919C011C9626
:101EE000ED91FC911D97309779F0808119969C9126
:101EF0001997892B80831A96ED91FC911B9780810D
:101F000019969C91892B80830895E0919B01F09113
:101F10009C01808191810895E0919B01F0919C0149
:101F2000828193810895E0919B01F0919C018481CD
:101F300095810895E0919B01F0919C0186819781A4
:101F40000895A7E0B0E0E7EAFFE00C946D168C017D
:101F5000FC01118210821382128215821482178270
:101F60001682613118F080E1808702C0FC01608731
:101F7000F801208BCE010196642F0E94170F8F81EC
:101F8000F80181878B819C81938782878D819E81D7
:101F9000958784872796E4E00C948916DC011C96CB
:101FA000ED91FC911D97309781F0808119969C915D
:101FB0001997892B80831A96ED91FC911B9790813C
:101FC00019968C91809589238083089580919B0137
:101FD00090919C010E94CE0F0895DC011C96ED911A
:101FE000FC911D97309779F0808119969C911997F3
:101FF000892B80831A96ED91FC911B97808119960D
:102000009C91892B80830895DC0120E040C0ED91F4
:10201000FC911197309761F0822F90E0880F991F03
:10202000E80FF91F1E968D919C911F9791838083D5
:102030001496ED91FC911597309761F0822F90E006
:10204000880F991FE80FF91F1E968D919C911F977D
:10205000918380831296ED91FC911397309741F014
:10206000822F90E0880F991FE80FF91F11821082CC
:102070001696ED91FC911797309741F0822F90E0E2
:10208000880F991FE80FF91F118210822F5F189691
:102090008C911897281708F4BACF089580919B0166
:1020A00090919C010E9404100895A7E0B0E0EBE538
:1020B000F0E10C945F166C012B01642F7901402F25
:1020C00020E00E94A10FC6018F5B9F4FFC01108290
:1020D000D601AE5BBF4F1C9296012D5B3F4FF901BD
:1020E0001082F601F786E686EE241E010894211C74
:1020F000311C39014D015C0128C00E2D10E0F201A8
:10210000E00FF11FC10160810E94170F2F81F601BE
:10211000E00FF11F218B89819A81000F111F0C0D97
:102120001D1DF80192A381A38332910511F4F501DD
:1021300008C08632910511F4F40103C0899721F497
:10214000F3018081822B8083E394F6018085E81679
:10215000A0F22796E2E10C947B160F930E94551093
:102160000F9108950F930E9455100F910895A0E0CC
:10217000B0E0EDEBF0E10C946516EC015B01CF5B98
:10218000DF4F4991A9918880C354D04090E009C0A5
:10219000E92FF0E0EE0FFF1FEA0DFB1D1182108208
:1021A0009F5F88859817A0F384B1CF5BDF4F39918B
:1021B000832B84B987B12991822B87B98AB1988101
:1021C000C354D040892B8AB985B1832B85B988B196
:1021D000822B88B98BB1892B8BB9EAE0F0E06F9341
:1021E00064E06A95F1F76F913197C9F784B1309542
:1021F000832384B987B12095822387B98AB19095CA
:1022000089238AB985B1382335B988B1282328B9FB
:102210008BB198239BB99090B000C090B100809191
:10222000B00083608093B00082E08093B100D090D2
:10223000B20060E070E03AC05091B2005D19650FE5
:10224000711DE3B0E41609F04FC0F6B0FA1609F0BC
:102250004BC089B1881509F047C025C0A42FB0E054
:102260009D01220F331F8501020F131FF80180818A
:102270009181892BA1F42C0F3D1FF90181A192A11D
:10228000FC01208130E0AC0FBD1F51968C9190E095
:1022900028233923232B19F4F801718360834F5FBE
:1022A00088854817D8F2D50E4E2DAF2D8E859F8587
:1022B0006817790708F29092B000C092B10020E050
:1022C0000FC0E22FF0E0EE0FFF1FEA0DFB1D808133
:1022D0009181892B21F48E859F85918380832F5F47
:1022E0008885281770F305C0E3B0F6B089B040E0E8
:1022F000D7CFCDB7DEB7ECE00C948116EF92FF920A
:102300000F931F93CF93DF93EC017B01122F642F68
:10231000402F21E00E94A10F19A31AA230E041E052
:1023200050E013C0E32FF0E0D701AE0FBF1FEC0F5A
:10233000FD1F8C91818BCA010C9002C0880F991FE0
:102340000A94E2F7282B2AA33F5F88852AA1381731
:1023500048F32F732AA38FEF93E09F878E87CDB723
:10236000DEB7E6E00C9487160F930E947E110F9162
:1023700008950F930E947E110F910895A0E0B0E0A0
:10238000E4ECF1E10C946916EC018B01D0907C0037
:10239000E0907A00C7B0F8B080917A0086FDFCCF5B
:1023A00090E009C0E92FF0E0EE0FFF1FE00FF11FF2
:1023B000118210829F5F88859817A0F397B18AA138
:1023C0008095982397B998B1892388B987E8809335
:1023D0007A0050E025C0FE01E40FF11D8189806480
:1023E00080937C0080917A00806480937A00809151
:1023F0007A0086FDFCCFE42FF0E0EE0FFF1FE00F28
:10240000F11F209178003091790080819181820FB5
:10241000931F918380834F5F88854817E0F25F5F49
:1024200089A1581710F040E017C040E0F5CFE42F25
:10243000F0E0EE0FFF1FE00FF11F69A1862F90E083
:102440009595879520813181820F931F70E00E94BE
:10245000FB15718360834F5F8885481740F3D092E6
:102460007C00E0927A00F8B8C7B8CDB7DEB7E8E0F4
:102470000C948516A0E2B0E0E0E4F2E10C94691659
:102480008C017B01D42E842F81508230B0F4D8018E
:102490001C96ED91FC911D97309779F080811996EB
:1024A0009C911997892B80831A96ED91FC911B972B
:1024B000808119969C91892B8083F80180898823DB
:1024C00089F4C801B7010E94B710C8010E94CE0F5D
:1024D000F2E0DF16D9F5C801BE016F5F7F4F0E94A1
:1024E000B71010C0C801B7010E94BE11C8010E94F8
:1024F000CE0F82E0D81651F5C801BE016F5F7F4F45
:102500000E94BE1140E0BE016F5F7F4F1AC0E42FF2
:10251000F0E0EE0FFF1F6701CE0EDF1EE60FF71F84
:10252000D8011E962D913C911F9780819181281B87
:10253000390BF60180819181820F931F91838083F3
:102540004F5FD80118968C91481708F3A096E8E0E1
:102550000C948516A0E0B0E0E0EBF2E10C94661676
:10256000EC01162F072F942E22E0421711F044237E
:1025700051F48C819D81892B09F4A4C08E819F81A7
:10258000892B09F49FC0892D8150823050F48881B5
:102590009981892B09F496C08A819B81892B09F442
:1025A00091C0CE01612F702F492D0E943A12812FC8
:1025B000902F9C015901CC24DD2400E010E07CC068
:1025C00081E0981669F4EA81FB81E00FF11F208118
:1025D0003181E881F981E00FF11F408151813DC0D7
:1025E000AC81BD81992059F4EE81FF81E00FF11F8C
:1025F00020813181A00FB11F4D915C912EC0A00FA1
:10260000B11F8D919C91E881F981E00FF11F20812C
:102610003181EE85FF858217930710F4AF0105C065
:10262000A9014E0F5F1F481B590BEE81FF81E00F80
:10263000F11F60817181EA81FB81E00FF11F8081D0
:102640009181EE85FF856817790710F49F0105C019
:102650009C012E0F3F1F261B370B7901E41AF50A48
:1026600001F1F5016081718180E090E09A0140E024
:1026700050E0621B730B840B950B28EE33E040E0B7
:1026800050E00E94D015970140E050E00E944416AF
:10269000C901F3E0293E3F0714F088EE93E097FF6D
:1026A00002C080E090E0F501819391935F0108946E
:1026B000C11CD11C0E5F1F4F888590E0C816D9063B
:1026C0000CF47ECFCDB7DEB7EBE00C948216A4E01D
:1026D000B0E0EDE6F3E10C945F168C01F62EE72EE8
:1026E0002A830E94AA12D8011896BC91B9832F2D73
:1026F0003E2DC9018C0155244424662477244301CE
:102700001C821B82AA24BB246501B8EE2B2EB3E0E9
:102710003B2E32C0F801E080F180FA81FF2321F0E6
:1027200091012E193F09790139ECE316F10414F0F7
:102730004424439483E3E816F1049CF0B70188270E
:1027400077FD8095982FA60195010E94D015660E01
:10275000771E881E991EAB81BC81AE0DBF1DBC8348
:10276000AB83539488EE93E0A0E0B0E0A80EB91ECE
:10277000CA1EDB1E0E5F1F4F9981591658F2442066
:1027800021F5692F70E084EF91E0DC016A9FC001C0
:102790006B9F900D7A9F900D1124845F9140209142
:1027A000990130919A01281739071CF440E050E054
:1027B0001AC088EE93E0689FA001699F500D789F32
:1027C000500D1124485E53400EC0EB81FC819F01E7
:1027D00040E050E0C401B3010E942216A9013093E9
:1027E0009A0120939901CA012496E2E10C947B1688
:1027F0009C01462F80919B0190919C01B90121E0A1
:102800000E94671308959C01462F80919B0190912F
:102810009C01B90120E00E94671308959C01462F96
:1028200080919B0190919C01B9010E94AA12089588
:102830009C01462F80919B0190919C01B9010E94BF
:102840003A120895CF93DF93EC018A819B81009720
:1028500011F00E9449178E819F81009711F00E940C
:10286000491788819981009711F00E9449178C813E
:102870009D81009711F00E944917DF91CF91089533
:10288000CF93DF93EC018A819B81009711F00E9426
:1028900049178E819F81009711F00E944917888106
:1028A0009981009711F00E9449178C819D810097B2
:1028B00011F00E944917DF91CF910895A3E6B0E08F
:1028C000E4E6F4E10C945F167C015B016A01A296D8
:1028D0002FAFA297DA018D919C91892B11F5F70109
:1028E000808590E0880F991F0E949C16D6018D93D9
:1028F0009C93009709F4DFC020E030E00CC0C901D0
:10290000880F991FD601ED91FC91E80FF91F1182F4
:1029100010822F5F3F4FF701808590E0281739071D
:1029200074F3D5018D919C91892B89F000E010E022
:102930003E010894611C711C41E4242E312C2C0EA4
:102940003D1E31E2432E512C4C0E5D1E28C0F70176
:10295000808590E0880F991F0E949C16D5018D9369
:102960009C93009709F4A7C020E030E011C0C90192
:10297000880F991FD501ED91FC91E80FF91FD70140
:102980001E968D919C911F97918380832F5F3F4F5F
:10299000F701808590E0281739074CF3C7CFC701AE
:1029A000B301A2964FADA2970E943A12D701189692
:1029B0008C91882E9924A101F301A4965FAE4EAEAE
:1029C000A49760E070E034C00115110559F0A49699
:1029D000AEADBFADA4972D913C9180819181281718
:1029E000390758F480819181A496AEADBFADA4970C
:1029F0008D939C930115110541F0DA012D913C91C5
:102A0000808191818217930728F480819181DA0176
:102A10008D939C936F5F7F4F4E5F5F4F3296A4966E
:102A20008EAD9FADA4970296A4969FAF8EAFA4974C
:102A3000681579054CF20F5F1F4F0A30110509F038
:102A4000AECF40E050E020E030E08E010F5B1F4F42
:102A5000BE016F5D7F4F28C0F801E20FF31F808039
:102A60009180F601A081B181A20FB31F8D919C913D
:102A700011978815990510F48D929C92FB01E20F35
:102A8000F31F80809180F501A081B181A20FB31F57
:102A90008D919C9111978816990610F48D929C92B5
:102AA0004F5F5F4F2E5F3F4FD70118968C9190E09C
:102AB000481759078CF2CD59DF4FE2E10C947B1691
:102AC0001F93CF93DF93EC01162F862F8150823016
:102AD00040F4AE014E5F5F4FCE01BE0121E00E9487
:102AE0005E14123011F0112349F4AE014A5F5F4FBA
:102AF000CE012496BE0120E00E945E14DF91CF91AA
:102B00001F910895682F80919B0190919C010E94D4
:102B100060150895A0E0B0E0E0E9F5E10C946A16D4
:102B20008C01F62EE42ED22E83E290E00E949C16B9
:102B3000EC01009711F480E00BC0B8014F2D2E2D51
:102B40000D2D0E947E11D0939C01C0939B0181E0CA
:102B5000CDB7DEB7E7E00C948616A0E0B0E0E3EB7B
:102B6000F5E10C9469168C01D62E7A01C22E84E40C
:102B700090E00E949C16EC01009711F480E00BC0DD
:102B8000B8014D2D97010C2D0E945510D0939C013A
:102B9000C0939B0181E0CDB7DEB7E8E00C948516C9
:102BA000629FD001739FF001829FE00DF11D649F31
:102BB000E00DF11D929FF00D839FF00D749FF00DBD
:102BC000659FF00D9927729FB00DE11DF91F639F5E
:102BD000B00DE11DF91FBD01CF0111240895991B0E
:102BE00079E004C0991F961708F0961B881F7A9504
:102BF000C9F780950895AA1BBB1B51E107C0AA1F06
:102C0000BB1FA617B70710F0A61BB70B881F991F8D
:102C10005A95A9F780959095BC01CD01089597FB31
:102C2000092E07260AD077FD04D0E5DF06D0002064
:102C30001AF4709561957F4F0895F6F790958195F8
:102C40009F4F0895A1E21A2EAA1BBB1BFD010DC0C8
:102C5000AA1FBB1FEE1FFF1FA217B307E407F5074C
:102C600020F0A21BB30BE40BF50B661F771F881F28
:102C7000991F1A9469F760957095809590959B01BE
:102C8000AC01BD01CF01089597FB092E05260ED09A
:102C900057FD04D0D7DF0AD0001C38F4509540957A
:102CA000309521953F4F4F4F5F4F0895F6F7909520
:102CB0008095709561957F4F8F4F9F4F08952F920C
:102CC0003F924F925F926F927F928F929F92AF92BC
:102CD000BF92CF92DF92EF92FF920F931F93CF9309
:102CE000DF93CDB7DEB7CA1BDB0B0FB6F894DEBFA0
:102CF0000FBECDBF09942A88398848885F846E84C6
:102D00007D848C849B84AA84B984C884DF80EE800F
:102D1000FD800C811B81AA81B981CE0FD11D0FB618
:102D2000F894DEBF0FBECDBFED010895EE0FFF1F7B
:102D30000590F491E02D0994CF93DF93BC0182308C
:102D4000910510F462E070E0A0919F01B091A001A4
:102D5000ED01E0E0F0E040E050E021C088819981A1
:102D60008617970769F48A819B81309719F09383BE
:102D7000828304C09093A00180939F01FE0134C020
:102D80006817790738F44115510519F0841795072C
:102D900008F4AC01FE018A819B819C01E901209726
:102DA000E9F641155105A9F1CA01861B970B049755
:102DB00008F4BA01E0E0F0E02AC08D919C911197EF
:102DC00084179507F9F46417750781F412968D91AD
:102DD0009C911397309719F09383828304C090934A
:102DE000A00180939F01FD0132964FC0CA01861B4E
:102DF000970BFD01E80FF91F6193719302978D9373
:102E00009C9343C0FD01828193819C01D90110975D
:102E1000A1F680919D0190919E01892B41F48091B2
:102E200025019091260190939E0180939D014091F0
:102E30002701509128014115510541F44DB75EB766
:102E40008091230190912401481B590B20919D01F1
:102E500030919E0124173507B0F4CA01821B930BF1
:102E60008617970780F0AB014E5F5F4F8417950779
:102E700050F0420F531F50939E0140939D01F90162
:102E80006193719302C0E0E0F0E0CF01DF91CF9158
:102E90000895CF93DF93009709F450C0EC01229777
:102EA0001B821A82A0919F01B091A001109709F195
:102EB00040E050E0AC17BD0708F1BB83AA83FE01D8
:102EC00021913191E20FF31FAE17BF0779F48D9175
:102ED0009C911197280F391F2E5F3F4F398328830C
:102EE00012968D919C9113979B838A83411551056E
:102EF00071F4D093A001C0939F0120C012968D91D0
:102F00009C911397AD01009711F0DC01D3CFFA012A
:102F1000D383C28321913191E20FF31FCE17DF07D4
:102F200069F488819981280F391F2E5F3F4FFA017C
:102F3000318320838A819B8193838283DF91CF9128
:102F400008950F931F93CF93DF938C01EB010097AC
:102F500031F46115710519F420E030E038C081E0EA
:102F600090E06EE070E00E94ED17FC019C0100977C
:102F700071F180E88383209771F0D387C28781E85D
:102F800083838091A1019091A201892B21F4F09378
:102F9000A201E093A10101151105C9F01187008775
:102FA0008381826083838091A3019091A401892B06
:102FB00071F4F093A401E093A3018091A501909195
:102FC000A601892B21F4F093A601E093A501C90184
:102FD000DF91CF911F910F9108950F931F93CF937E
:102FE000DF93689F8001699F100D789F100D112459
:102FF000C8010E949C16EC01009729F060E070E087
:10300000A8010E940918CE01DF91CF911F910F9165
:103010000895DC0101C06D9341505040E0F70895E0
:1030200010E0C8ECD0E004C0FE010E949816229681
:0A303000CA3CD107C9F7F894FFCF9E
:10303A0050726573732042002000000102030405E8
:10304A0006FF040400D007F4010F000208010E0F66
:0A305A001011122000A70100000071
:00000001FF
