:100000000C946D000C948C000C948C000C948C005F
:100010000C948C000C948C000C948C000C948C0030
:100020000C948C000C94290F0C948C000C948C0074
:100030000C948C000C94A6070C948C000C948C00EF
:100040000C948C000C948C000C948C000C948C0000
:100050000C948C000C948C000C948C000C948C00F0
:100060000C948C000C948C000C948C000C948C00E0
:100070000C948C000C948C000C948C000C948C00D0
:100080000C948C000C948C000C948C00C604CC0452
:10009000CF04D204D504D804DB04DE04E104E40474
:1000A000E704EA0420506F6C6F6C750033F7205240
:1000B0006F626F740057616C6C00466F6C6C6F7789
:1000C0006572003E6733323E3E633332004C313658
:1000D0002063646567726567340011241FBECFEF2B
:1000E000D0E1DEBFCDBF11E0A0E0B1E0E6ECF4E28C
:1000F00000E00BBF02C007900D92A034B107D9F702
:1001000011E0A0E4B1E001C01D92A537B107E1F70D
:100110000E9432010C9461120C9400000E94CC0FDA
:1001200024E630E040E050E00E9473106115710554
:100130008105910591F40E94EE0980E060E00E9443
:10014000BE0980E091E00E94DA0A80E061E00E944E
:10015000BE0986E091E00E94DA0A82E390E06EEC4C
:100160007FEF0E941C0D08950E94CC0F24E630E022
:1001700040E050E00E947310611571058105910502
:1001800091F40E94EE0980E060E00E94BE098FE0D9
:1001900091E00E94DA0A80E061E00E94BE0987E1F6
:1001A00091E00E94DA0A8EEC9FEF66EA7FEF0E94F0
:1001B0001C0D0895A598AD9884EA90E00E94CA0AA3
:1001C00080E061E00E94BE098CEA90E00E94CA0AC9
:1001D00083EC90E00E94930788EE93E00E94630F07
:1001E0000E94EE0985EB90E00E94CA0A80E061E07F
:1001F0000E94BE098AEB90E00E94CA0A88EE93E052
:1002000018C00E94EE090E948F03A0E0B0E0BC017C
:10021000CD010E94B90A8AE191E00E94DA0A80E0E9
:1002200061E00E94BE098DE191E00E94DA0A84E655
:1002300090E00E94630F80E10E94510D882309F332
:1002400080E10E94D30E0E94EE0985E291E00E94B7
:10025000DA0A8DEC90E00E9493070E94BB0388238A
:10026000E1F708958F929F92AF92BF92CF92DF9263
:10027000EF92FF920F931F93CF93DF930E94DA00C8
:1002800000E010E024E1822E912C98ECA92EB12CF4
:1002900001C08E010E94CC0F28E93AE340E050E013
:1002A0000E947310615B76438040904018F00E947A
:1002B000B400F0CF85E00E941B02893C91051CF040
:1002C0000E948E00E7CF87E00E941B02EC01801B9A
:1002D000910B889D8001899D100D989D100D112412
:1002E000CE018456904063E070E00E946010060FDB
:1002F000171F88ECE82EF12CE00EF11E6501C01AE4
:10030000D10AC701B6010E941C0D0E94CC0F24E641
:1003100030E040E050E00E947310611571058105E6
:10032000910509F0B6CF0E94EE0980E060E00E94DE
:10033000BE09BE01882777FD8095982F0E94B90AD3
:1003400085E060E00E94BE09B801882777FD8095AE
:10035000982F0E94B90A80E061E00E94BE09B701AF
:10036000882777FD8095982F0E94B90A84E061E084
:100370000E94BE09B601882777FD8095982F0E94BC
:10038000B90A87CF80917C0085FF05C080917900F4
:10039000282F30E004C02091780030917900C90105
:1003A000089590932C0180932B010895089508954A
:1003B00080917C0085FF05C080917900282F30E076
:1003C00004C02091780030917900C9010895282F48
:1003D0008032B0F487E880937A0080917C00982F77
:1003E0009064662311F0806C02C0892F8F77807E25
:1003F000822B80937C0080917A00806480937A00C5
:10040000089560E00E94E701089560E00E94E7011E
:1004100080917A0086FDFCCF80917C0085FF05C02D
:1004200080917900282F30E004C02091780030912D
:100430007900C90108950E9405020895EF92FF9284
:100440000F931F93CF93DF93EB0160E00E94E701CE
:1004500080917A0086FDFCCF9E01EE24FF24870167
:1004600080917A00806480937A0080917A0086FD82
:10047000FCCF80917C0085FF04C08091790090E0E2
:1004800004C08091780090917900A0E0B0E0E80E7F
:10049000F91E0A1F1B1F2150304011F7CE019695FF
:1004A0008795C034D10540F48E0D9F1D6C2F70E0F0
:1004B0000E944C109B010DC0A0E0B0E0E80EF91EB8
:1004C0000A1F1B1F9E0140E050E0C801B7010E94B7
:1004D0007310C901CDB7DEB7E6E00C94D81087E001
:1004E00064E170E00E941E0208950E941E020895B9
:1004F00090932C0180932B0108951F9310917C0001
:1005000080917C008F7D80937C008EE164E170E0BF
:100510000E941E028EE164E170E00E941E029C01B6
:1005200015FD04C080917C008F7D03C080917C000C
:10053000806280937C00B9017695679580E090E0B9
:100540006C54744D8E4E9F4F40E050E00E947310EB
:10055000C9011F9108950E947D020895A0E0B0E0B6
:1005600020912B0130912C0140E050E0BC01CD01E5
:100570000E9421109B01AC0180917C0085FF0BC083
:10058000B901CA0161587F4F8F4F9F4F2FEF30E065
:1005900040E050E00AC0B901CA0161507E4F8F4F60
:1005A0009F4F2FEF33E040E050E00E947310C901ED
:1005B00008950E941E020E94AE0208950E94D90270
:1005C000089580917C0085FF06C08091790090E0BD
:1005D0000E94AE02089580917800909179000E9467
:1005E000AE02089560E00E94E70180917A0086FDE6
:1005F000FCCF0E94E10208950E94F20208950E9439
:10060000E102089587E064E170E00E941E020E940A
:10061000AE0208950E94AE0208951F9310917C00CF
:1006200080917C008F7D80937C0086E064E170E0A7
:100630000E94D9029C0115FD04C080917C008F7D31
:1006400003C080917C00806280937C00C901880F88
:10065000991F820F931F880F991F880F991F8A5720
:1006600092406DE070E00E946010CB011F910895F0
:100670000E940D0308951F9310917C0080917C00CF
:100680008F7D80937C0086E064E170E00E94D90257
:100690009C0115FD04C080917C008F7D03C080917A
:1006A0007C00806280937C0084E190E0AC01249F18
:1006B000C001259F900D349F900D11248E529F41B3
:1006C00067E270E00E946010CB011F9108950E94C4
:1006D0003B0308951F9310917C0080917C008F7DD7
:1006E00080937C0086E06AE070E00E94D902AC0151
:1006F00015FD04C080917C008F7D03C080917C003B
:10070000806280937C009A01220F331F240F351FD3
:100710002F5F3F4F36952795C9011F9108950E947D
:100720006A0308951F9310917C0080917C008F7D57
:1007300080937C0086E06AE070E00E94D902AC0100
:1007400015FD04C080917C008F7D03C080917C00EA
:10075000806280937C009A01220F331F240F351F83
:10076000C9011F9108950E94920308950E94920367
:1007700008950895089580913801882339F020E084
:1007800080915E0190915F01892B09F021E0822F19
:10079000089510926F0083E28093800081E180933E
:1007A00081001092820080E197E29093890080930B
:1007B000880010928B0010928A00229A78940895F3
:1007C000A0E0B0E0E6EEF3E00C94B8108C015B0121
:1007D000C42E80915D01882329F481E080935D011E
:1007E0000E94C9031092380117FD03C0DD24D39481
:1007F00003C01F772AE0D22E80918100E82EFF24CB
:1008000088EFE822FF2488ECD89EC00111248017CD
:100810009107C8F4E80197E20131190710F0C0E12F
:10082000D7E2BE017695679580E090E06058794602
:1008300087469F4F9E0140E050E00E94731089015F
:1008400081E090E025C088E2D89E802D1124C82F39
:10085000D0E0C017D10708F4E801BE01769567958E
:100860009E0140E050E09AE0D91639F480E090E033
:10087000605E734481449F4F06C080E090E0605307
:100880007D4E8C4E9F4F0E947310890182E090E054
:10089000E82AF92A9AE0D91639F4CE0105966AE0D9
:1008A00070E00E944C10EB0183E0C83ED80711F4C1
:1008B000B5010FC0BE0180E090E0950140E050E03E
:1008C0000E94211028EE33E040E050E00E94951095
:1008D000B90110926F00E09281001093890000939B
:1008E0008800E0918800F0918900AC2DA03108F0DB
:1008F000AFE080E190E08A1B910902C0F695E79590
:100900008A95E2F7F0938B00E0938A00709345019B
:100910006093440186B38FEF86BB81E080936F00C4
:10092000CDB7DEB7EAE00C94D4100E94E00308953E
:10093000CF93DF93EB018F3F11F0442329F488EE2E
:1009400093E0BE0140E067C0813110F420E005C0B3
:10095000282F2051203608F02FE5822F6CE00E94CE
:100960004010382F682F70E084EF9FEF689FF001F0
:10097000699FF00D789FF00D1124E20FF11DEC300E
:10098000F10538F4EA5BFF4F0C94E7108CE991E035
:1009900023C080E090E020C085EB91E01DC08FEC8B
:1009A00091E01AC08AEE91E017C087E092E014C08F
:1009B00086E292E011C087E492E00EC089E692E000
:1009C0000BC08EE892E008C085EB92E005C08EED8A
:1009D00092E002C08AE093E0373071F002C0880FE5
:1009E000991F6A95E2F7323020F005966AE070E0D0
:1009F0000BC0805090480BC036E0880F991F3A9585
:100A0000E1F7029665E070E00E944C10CB014031A6
:100A100008F04FE0BE010E94E003DF91CF910895FE
:100A20000E949804089580913801882339F020E0CD
:100A300080915E0190915F01892B09F021E0822F66
:100A4000089510926F00E1E8F0E08081887F816076
:100A5000808380E197E290938900809388001092D0
:100A60008B0010928A0081E08093380110925F0120
:100A700010925E0108950E9421050895309142016F
:100A8000E0915E01F0915F01332311F0249101C0E8
:100A90002081822F81548A3108F4205E203259F45B
:100AA00080915E0190915F01019690935F01809328
:100AB0005E01019729F7822F0895CF93DF930E945B
:100AC0003E05282FC0E0D0E01DC0CE0153E0880FC6
:100AD000991F5A95E1F7CC0FDD1FC80FD91F822F40
:100AE000992787FD9095C80FD91FE09780915E01E7
:100AF00090915F01019690935F0180935E010E9447
:100B00003E05282F822F80538A30F8F2CE01DF91E4
:100B1000CF910895A0E0B0E0E0E9F5E00C94B610C4
:100B200080902D01B0904001BB2021F060914101E7
:100B3000662399F4A0904101009132011091330194
:100B4000E0902E01F0902F01C0913001D091310141
:100B5000C0903401D090350108C18FEF70E040E0C3
:100B60000E94980410924101CBC194E0892EBB24CD
:100B700004EF11E084E0E82EF12CC0EDD7E0B4E002
:100B80009B2EAFE0CA2ED12C0E943E05282F8091CB
:100B90005E0190915F01019690935F0180935E01E9
:100BA000263609F498C02736CCF42236A1F1233634
:100BB00074F42E3361F12F3334F42132B1F22C333B
:100BC00009F00BC126C0213609F007C121C1243626
:100BD00009F451C025360CF066C035C02F3609F433
:100BE000C1C0203754F42C3609F4A5C02D3609F4C1
:100BF000A6C0273609F0F1C086C0243709F4D1C059
:100C0000263709F4E6C0223709F0E7C0B0C0839464
:100C1000BBCF8A94B9CFA0924101B092400110930A
:100C2000330100933201F0922F01E0922E01D09314
:100C30003101C093300190922D01D0923501C092C4
:100C400034012BE0FCC0A0924101B092400110930E
:100C5000330100933201F0922F01E0922E01D093E4
:100C60003101C093300190922D01D0923501C09294
:100C7000340120E0E4C0A0924101B0924001109301
:100C8000330100933201F0922F01E0922E01D093B4
:100C90003101C093300190922D01D0923501C09264
:100CA000340122E0CCC0A0924101B09240011093E7
:100CB000330100933201F0922F01E0922E01D09384
:100CC0003101C093300190922D01D0923501C09234
:100CD000340124E0B4C0A0924101B09240011093CD
:100CE000330100933201F0922F01E0922E01D09354
:100CF0003101C093300190922D01D0923501C09204
:100D0000340125E09CC0A0924101B09240011093B3
:100D1000330100933201F0922F01E0922E01D09323
:100D20003101C093300190922D01D0923501C092D3
:100D3000340127E084C00E945D057C0144C00E940C
:100D40003E058C3611F4BB2403C0AA24BB24B39403
:100D500080915E0190915F01019690935F01809375
:100D60005E0112CF0E945D05882E982C0DCFA092B7
:100D70004101B09240011093330100933201F0928F
:100D80002F01E0922E01D0933101C0933001909257
:100D90002D01D0923501C092340120E0FF24F3945C
:100DA0004FC00E945D05BC0180EC9DE50E944C1087
:100DB000CB01EB01F3E0CC0FDD1FFA95E1F7880FD3
:100DC000991FC80FD91FCE01B7010E944C108B018B
:100DD000DBCE0E945D056C01D7CEA0924101B0929E
:100DE00040011093330100933201F0922F01E09201
:100DF0002E01D0933101C093300190922D01D092F9
:100E00003501C092340110925F0110925E0178C0EA
:100E1000A0924101B092400110933301009332013E
:100E2000F0922F01E0922E01D0933101C093300156
:100E300090922D01D0923501C092340129E0FF2417
:100E40008CE0889EC0011124E22EE80E0AC0809139
:100E50005E0190915F01019690935F0180935E0126
:100E6000E3940E943E058B3291F3833281F30CC0F0
:100E700080915E0190915F01019690935F01809354
:100E80005E01EA940E943E058D3291F3C0913201D9
:100E9000D09133018153883058F400913001109182
:100EA00031010E945D05BC01C8010E944C10EB019C
:100EB0008E010BC080915E0190915F01019690932D
:100EC0005F0180935E01C00FD11F169507950E94A8
:100ED0003E058E3279F380914001882339F0CE01AE
:100EE0009695879580934101C81BD109FF2011F089
:100EF000EE24EA948E2DBE01409134010E949804A4
:100F0000CDB7DEB7ECE00C94D21010926F00909346
:100F10005F0180935E0181E0809342011092410164
:100F20000E948A0508950E948507089510926F0017
:100F300090935F0180935E011092420110924101F3
:100F40000E948A0508950E94960708951F920F92A5
:100F50000FB60F9211242F933F934F935F936F938C
:100F60007F938F939F93AF93BF93EF93FF93809162
:100F7000440190914501019790934501809344016C
:100F8000019611F510926F00789480918100887F0E
:100F900081608093810080E197E290938900809343
:100FA000880010928B0010928A0081E080933801B3
:100FB00080915E0190915F01892B31F08091430116
:100FC000882311F40E948A05FF91EF91BF91AF91A0
:100FD0009F918F917F916F915F914F913F912F9151
:100FE0000F900FBE0F901F90189510926F00809178
:100FF0003801882341F080915E0190915F01892B37
:1010000011F00E948A0581E080936F0020E08091BA
:101010005E0190915F01892B09F021E0822F0895F4
:1010200080934301882311F40E94F50708950E94DC
:10103000100808950E94F50708950895089580E026
:1010400090E00895EF92FF920F931F936AB1579823
:101050005A98289AE0904A01F0904B0100914C0177
:1010600010914D0120E030E041E050E0CA016F9363
:1010700064E06A95F1F76F910197C9F75C9ACA012C
:101080006F9364E06A95F1F76F910197C9F789B1A1
:101090005C98FA016F9364E06A95F1F76F9131976C
:1010A000C9F75C9AFA016F9364E06A95F1F76F9162
:1010B0003197C9F75C9887FF0BC02C5F3F4FC90180
:1010C000A0E0B0E08E159F05A007B10708F4CECFD1
:1010D0006AB91F910F91FF90EF90089565B190E06C
:1010E000AC0141705070440F551F9C012670307048
:1010F00053E0220F331F5A95E1F7422B6D7C462BAC
:1011000045B92BB18870907034E0880F991F3A95DB
:10111000E1F72F77282B2BB95C9A81E090E0FC0156
:101120006F9364E06A95F1F76F913197C9F75C9816
:101130006F9364E06A95F1F76F910197C9F708958D
:101140008091460190914701009711F00E949A11F9
:101150008091360190E001972091370130E0AC0199
:10116000429FC001439F900D529F900D11240E94F9
:10117000ED109093470180934601009729F160E0BC
:1011800070E208C0E0914601F0914701E40FF51FBD
:1011900070836F5F462F50E08091360190E0019799
:1011A0002091370130E0FC01E29FC001E39F900DE8
:1011B000F29F900D11244817590724F383EE9AE00B
:1011C0006FE178E00E94F2110895809337016093F7
:1011D00036010E94A008089580933701609336017C
:1011E0000E94A00808950E94A008089580E197E257
:1011F000A0E0B0E080934A0190934B01A0934C0192
:10120000B0934D01529A209A549A8EE190E00E9438
:10121000860F83E00E94290C86E090E00E94860FF2
:1012200083E00E94290C82E090E00E94860F83E018
:101230000E94290C82E090E00E94860F82E00E94CA
:10124000290C82E090E00E94860F88E20E947309D8
:1012500088E00E94730981E00E94730986E00E9481
:1012600073098CE00E947309089580914E018823D0
:1012700029F481E080934E010E94F6080895BF9200
:10128000CF92DF92EF92FF920F931F93082F162FAA
:10129000F42E0E9435090E942208B4B0C5B0DAB01D
:1012A000EBB02898112311F05A9A01C05A9884B1D2
:1012B000826384B9579A81E0F81629F0802F8295CD
:1012C0008F700E946E08802F8F700E946E08DAB8AF
:1012D000EBB8B4B8C5B81F910F91FF90EF90DF90B5
:1012E000CF90BF90089560E042E00E943F090895CA
:1012F0000F931F93082F162F08C0002311F480E1CD
:1013000001C084E10E94730911501123B1F71F91AC
:101310000F9108950E94780908958CE00E94730946
:1013200008950E948D090895813011F48FE001C065
:101330008EE00E94730908950E9494090895A4E024
:10134000B0E0E5EAF9E00C94BE10182F062F80E813
:10135000898380EC8A8384E98B8384ED8C83FE010E
:10136000E60FF11D8181810F0E94730910934901DD
:10137000009348012496E4E00C94DA100E949F093F
:10138000089581E00E947309809146019091470180
:10139000892B19F160E070E208C0E0914601F091FC
:1013A0004701E40FF51F70836F5F462F50E0809177
:1013B000360190E001972091370130E0FC01E29F77
:1013C000C001E39F900DF29F900D1124481759071B
:1013D00024F3109249011092480108950E94C10916
:1013E000089561E042E00E943F0908950F931F9322
:1013F000CF93DF9300E010E8C82FD0E0812F90E07A
:101400008C239D23892B11F081E301C080E30E948E
:10141000F1090F5F083011F01695F0CFDF91CF91F1
:101420001F910F9108950E94F60908958A3010F4D3
:10143000805D01C0895C0E94F10908951F93182FF7
:1014400082958F700E94160A812F8F700E94160A53
:101450001F9108951F93182F892F0E941E0A812F14
:101460000E941E0A1F9108950E942A0A08950E9450
:101470001E0A08956F927F928F929F92AF92BF92B1
:10148000CF92DF92FF920F93DF93CF93CDB7DEB76A
:101490002A970FB6F894DEBF0FBECDBF5B016C017B
:1014A0000AE03E010894611C711CFA2CC601B501CA
:1014B0002AE030E040E050E00E947310C901DA01F8
:1014C0005C016D0101504301800E911C80E3F80E18
:1014D000C601B5012AE030E040E050E00E94211052
:1014E000F61AF401F082A114B104C104D104E9F6A2
:1014F00008C0F601E00FF11D80810E94F1090F5F25
:1015000004C06E010894C11CD11C0A3090F32A96C5
:101510000FB6F894DEBF0FBECDBFCF91DF910F9114
:10152000FF90DF90CF90BF90AF909F908F907F9073
:101530006F9008950E943A0A0895EF92FF920F93D8
:101540001F937B018C0197FF0BC010950095F094C1
:10155000E094E11CF11C011D111D8DE20E94F109B6
:10156000C801B7010E943A0A1F910F91FF90EF90B6
:1015700008950E949D0A0895CF93DF93EC0103C064
:101580000E94F1092196FE0184918823C9F7DF9119
:10159000CF9108950E94BC0A0895CF93DF93EC0188
:1015A00003C021960E94F10988818823D1F7DF9139
:1015B000CF9108950E94CD0A08950E94F1090895DF
:1015C0000E94F1090895A0E0B0E0E9EEFAE00C9481
:1015D000BA10E82E8091460190914701892B09F4B9
:1015E00005C12AE0E21609F446C038E0E316C9F462
:1015F000809149018150809349018F3F51F480913E
:101600004801815080934801809137018150809337
:101610004901809148018F3F09F0E2C010924801D2
:10162000DDC08E2D0E94F109209148012223C9F0CE
:1016300030E0215030408091370190E0AC01249F90
:10164000C001259F900D349F900D112420914901D8
:10165000E0914601F0914701E80FF91FE20FF11DFB
:10166000E082809149018F5F809349019091370119
:10167000891709F0BBC040914801242F30E08091C8
:10168000360190E001972817390709F0A4C0C0E09F
:10169000D0E044C080E06C2F0E949F09FF246E01BF
:1016A0000894C11CD11C35C00F2D10E090E09C01A6
:1016B000C29FC001C39F900DD29F900D1124E09155
:1016C0004601F0914701E00FF11FE80FF91F8081FB
:1016D0000E94F109E0914601F091470180913701A4
:1016E00090E0C89FD001C99FB00DD89FB00D1124C4
:1016F000E00FF11FAE0FBF1FAC01C49EC001C59E1D
:10170000900DD49E900D1124E80FF91F80818C93C9
:10171000F39480913701F81638F2E60160913601B2
:10172000862F90E00297C817D9070CF4B3CF623028
:1017300008F440C0625080E00E949F09FF24E0E26C
:10174000DE2E34C00F2D10E08091360190E002971C
:1017500030E0AC01429FC001439F900D529F900D1D
:101760001124E0914601F0914701E00FF11FE80FCD
:10177000F91F80810E94F1092091360130E022504A
:1017800030408091370190E0AC01249FC001259F3B
:10179000900D349F900D1124E0914601F091470186
:1017A000E00FF11FE80FF91FD082F3942091370169
:1017B000F21640F260913601615080E00E949F096C
:1017C00000E004C080E20E94F1090F5F80913701C0
:1017D0000817C0F303C04F5F4093480110924901BE
:1017E00080914901609148010E949F092E2D332765
:1017F00027FD3095C901CDB7DEB7E8E00C94D610CF
:10180000EF92FF920F931F93CF93DF937C01062FEC
:1018100010E0F3E0000F111FFA95E1F7C0E0D0E00F
:101820009E01200F822F80640E947309F701EC0F44
:10183000FD1FE4918E2F0E94F1092196C830D10539
:1018400079F7CDB7DEB7E6E00C94D8100E94000C13
:10185000089560E041E00E943F0908950F931F93AF
:10186000CF93DF93082F162FEA010BC0002311F44A
:1018700088E101C08CE10E947309CE010E94860FAD
:101880001150112399F7DF91CF911F910F91089576
:101890000E942E0C0895282F883068F481E090E093
:1018A00002C0880F991F2A95E2F7282FAAE2B0E01C
:1018B000EBE2F0E029C08E3080F430E02850304078
:1018C00081E090E002C0880F991F2A95E2F7282F47
:1018D000A4E2B0E0E5E2F0E017C0853130F020E0AE
:1018E000A0E0B0E0E0E0F0E00FC030E02E5030408B
:1018F00081E090E002C0880F991F2A95E2F7282F17
:10190000A7E2B0E0E8E2F0E06F3F19F480818227BF
:1019100009C0662319F08081822B04C09081822F38
:101920008095892380838C91822B8C9308950895D0
:101930000895E0EBF0E083EF8083808184BDE1EBEC
:10194000F0E082E08083808185BDE4EBF0E01082EE
:101950008081E3EBF0E08083808188BD88B587BD1E
:1019600086E060E00E944B0C85E060E00E944B0C3A
:101970008BE060E00E944B0C83E060E00E944B0C27
:10198000089580914F01882329F481E080934F01CD
:101990000E94990C0895CF93DF93EC010E94C10C33
:1019A000D7FD02C020E004C0D095C195DF4F21E0F3
:1019B000CE01CF3FD10519F014F08FEF90E0222334
:1019C00019F018BC87BD02C088BD17BCDF91CF914C
:1019D00008950E94CB0C0895CF93DF93EC010E94F1
:1019E000C10CD7FD02C020E004C0D095C195DF4FE7
:1019F00021E0CE01CF3FD10519F014F08FEF90E038
:101A0000222329F01092B4008093B30004C0809385
:101A1000B4001092B300DF91CF9108950E94EC0CB6
:101A200008950F931F938B010E94CB0CC8010E9455
:101A3000EC0C1F910F9108950E94110D08950895C7
:101A4000089580915001882391F481E080935001A2
:101A500084B18D7C84B985B1826385B985E090E0DD
:101A60006F9364E06A95F1F76F910197C9F7089554
:101A700084B18D7C84B985B1826385B985E090E0BD
:101A80006F9364E06A95F1F76F910197C9F7089534
:101A90001F93182F0E94210D83B1809581231F91E0
:101AA00008950E94480D0895CF92DF92EF92FF9221
:101AB0000F931F93C82ED3B00E94B70F7B018C01E8
:101AC0000E94210D80915601813011F1813038F052
:101AD000823009F444C0833009F08BC066C02C2DDD
:101AE00030E08D2D90E08095909528233923232B8D
:101AF00009F47FC0D094DC20D0925101E0925201D1
:101B0000F0925301009354011093550181E06FC08E
:101B10008091520190915301A0915401B0915501CF
:101B2000E81AF90A0A0B1B0B8FE0E816F10401050D
:101B3000110508F45EC0409151018D2D90E0809513
:101B40009095242F30E082239323892B59F182E052
:101B500080935601D094D422D09251014AC0409132
:101B60005101642F70E02D2D30E0CB0182239323AF
:101B7000892B79F083E0809356014D2140935101E8
:101B8000E0925201F09253010093540110935501D9
:101B900030C08C2D90E020953095822393236817D8
:101BA000790739F11092560124C080915201909129
:101BB0005301A0915401B0915501E81AF90A0A0B9A
:101BC0001B0B8FE0E816F1040105110590F0409120
:101BD0005101842F90E02D2D30E082239323892B17
:101BE00029F010925601842F8D2104C082E0809349
:101BF000560180E01F910F91FF90EF90DF90CF9002
:101C000008950E94540D0895CF92DF92EF92FF92B3
:101C10000F931F93C82ED3B0D0940E94B70F7B01AF
:101C20008C010E94210D80915C01813011F1813085
:101C300038F0823009F444C0833009F08BC066C0AC
:101C40002C2D30E08D2D90E0809590952823392320
:101C5000232B09F47FC0D094DC20D0925701E0926E
:101C60005801F092590100935A0110935B0181E0F1
:101C70006FC08091580190915901A0915A01B09183
:101C80005B01E81AF90A0A0B1B0B8FE0E816F10456
:101C90000105110508F45EC0409157018D2D90E0BB
:101CA00080959095242F30E082239323892B59F13E
:101CB00082E080935C01D094D422D09257014AC034
:101CC000609157012D2D30E0462F50E0C90184234B
:101CD0009523892B79F083E080935C01D622D09202
:101CE0005701E0925801F092590100935A01109364
:101CF0005B0130C08C2D90E020953095822393239A
:101D00004817590739F110925C0124C0809158019D
:101D100090915901A0915A01B0915B01E81AF90A1A
:101D20000A0B1B0B8FE0E816F1040105110590F07A
:101D3000409157018D2D90E0242F30E08223932392
:101D4000892B29F010925C018D2D842304C082E040
:101D500080935C0180E01F910F91FF90EF90DF90E6
:101D6000CF9008950E94040E08951F93CF93DF93A0
:101D7000182F0E94210DC12FD0E083B190E08C2359
:101D80009D23892BD1F38AE090E00E94860F83B1D6
:101D900090E08C239D23892B81F383B18123DF91F4
:101DA000CF911F9108950E94B50E08951F93CF9370
:101DB000DF93182F0E94210DC12FD0E083B190E056
:101DC000809590958C239D23892BC1F38AE090E028
:101DD0000E94860F83B190E0809590958C239D237F
:101DE000892B61F383B180958123DF91CF911F917E
:101DF00008951F930E94D60E182F0E94B50E812FB2
:101E00001F9108950E94F90E08950E94D60E08951C
:101E100008950895A2E0B0E0E0E1FFE00C94C01066
:101E200020916B0130916C01CE0101962115310595
:101E300019F48557914002C0821B930B9A838983C2
:101E400089819A812296E2E00C94DC100E940A0FAC
:101E500008952F928F939F932FB680916101909157
:101E600062010196809361019093620190E08091FC
:101E70006301891F80936301909169019C5F909336
:101E800069018091680180519742C0F09093690187
:101E9000809368018091640190916501019680931F
:101EA00064019093650190E080916601891F8093A1
:101EB000660180916701891F809367012FBE9F9102
:101EC0008F912F90189528EE33E009C0F9016F9398
:101ED00064E06A95F1F76F913197C9F70197009720
:101EE000A9F708956F5F7F4F8F4F9F4F660F771F42
:101EF000881F991F25E030E040E050E00E947310F9
:101F0000CA01B90108950E94720F089528EE33E0C6
:101F100009C0F9016F9364E06A95F1F76F91319709
:101F2000C9F701970097A9F70895A0E7B0E08C9151
:101F30008E7F8C93E0EBF0E0808183608083E1EB27
:101F4000F0E08081807F8083808182608083B89A86
:101F50008C9181608C937894089580916A01882394
:101F600029F481E080936A010E94950F08950E94F0
:101F7000AD0FE0E7F0E080818E7F808320916401E7
:101F800030916501409166015091670180818160C7
:101F90008083B901CA0108950E94B70F08950E9475
:101FA000AD0F809170008E7F809370006091B200C1
:101FB0008091600190916101A0916201B0916301F3
:101FC000B89905C0262F30E040E050E011C0809164
:101FD000B200209160013091610140916201509105
:101FE000630120503F4F4F4F5F4F90E0A0E0B0E0C3
:101FF000282B392B4A2B5B2B8091700081608093BA
:102000007000B901CA0108950E94CF0F08950E947F
:10201000AD0FE0E7F0E080818E7F80831092640155
:102020001092650110926601109267011092690189
:102030001092680180818160808308950E9407105A
:102040000895629FD001739FF001829FE00DF11D02
:10205000649FE00DF11D929FF00D839FF00D749F22
:10206000F00D659FF00D9927729FB00DE11DF91FCE
:10207000639FB00DE11DF91FBD01CF01112408952B
:10208000991B79E004C0991F961708F0961B881FCA
:102090007A95C9F780950895AA1BBB1B51E107C02B
:1020A000AA1FBB1FA617B70710F0A61BB70B881FE8
:1020B000991F5A95A9F780959095BC01CD01089577
:1020C00097FB092E07260AD077FD04D0E5DF06D05E
:1020D00000201AF4709561957F4F0895F6F790955A
:1020E00081959F4F0895A1E21A2EAA1BBB1BFD01EB
:1020F0000DC0AA1FBB1FEE1FFF1FA217B307E407E7
:10210000F50720F0A21BB30BE40BF50B661F771F3E
:10211000881F991F1A9469F760957095809590951E
:102120009B01AC01BD01CF01089597FB092E052647
:102130000ED057FD04D0D7DF0AD0001C38F45095DC
:102140004095309521953F4F4F4F5F4F0895F6F7DB
:1021500090958095709561957F4F8F4F9F4F089513
:102160002F923F924F925F926F927F928F929F92A7
:10217000AF92BF92CF92DF92EF92FF920F931F9395
:10218000CF93DF93CDB7DEB7CA1BDB0B0FB6F89446
:10219000DEBF0FBECDBF09942A88398848885F8486
:1021A0006E847D848C849B84AA84B984C884DF80F7
:1021B000EE80FD800C811B81AA81B981CE0FD11DDB
:1021C0000FB6F894DEBF0FBECDBFED010895EE0F40
:1021D000FF1F0590F491E02D0994CF93DF93BC018C
:1021E0008230910510F462E070E0A0916D01B09131
:1021F0006E01ED01E0E0F0E040E050E021C08881B8
:1022000099818617970769F48A819B81309719F025
:102210009383828304C090936E0180936D01FE01CD
:1022200034C06817790738F44115510519F084173F
:10223000950708F4AC01FE018A819B819C01E901AC
:102240002097E9F641155105A9F1CA01861B970BA4
:10225000049708F4BA01E0E0F0E02AC08D919C9167
:10226000119784179507F9F46417750781F412968E
:102270008D919C911397309719F09383828304C0BA
:1022800090936E0180936D01FD0132964FC0CA019B
:10229000861B970BFD01E80FF91F6193719302975D
:1022A0008D939C9343C0FD01828193819C01D90150
:1022B0001097A1F680916B0190916C01892B41F4EC
:1022C00080913B0190913C0190936C0180936B0154
:1022D00040913D0150913E014115510541F44DB7EA
:1022E0005EB78091390190913A01481B590B2091BA
:1022F0006B0130916C0124173507B0F4CA01821BC1
:10230000930B8617970780F0AB014E5F5F4F8417E2
:10231000950750F0420F531F50936C0140936B018F
:10232000F9016193719302C0E0E0F0E0CF01DF9129
:10233000CF910895CF93DF93009709F450C0EC013B
:1023400022971B821A82A0916D01B0916E011097A5
:1023500009F140E050E0AC17BD0708F1BB83AA8348
:10236000FE0121913191E20FF31FAE17BF0779F4FF
:102370008D919C911197280F391F2E5F3F4F398304
:10238000288312968D919C9113979B838A83411584
:10239000510571F4D0936E01C0936D0120C0129667
:1023A0008D919C911397AD01009711F0DC01D3CF73
:1023B000FA01D383C28321913191E20FF31FCE172B
:1023C000DF0769F488819981280F391F2E5F3F4FFD
:1023D000FA01318320838A819B8193838283DF91F9
:1023E000CF9108950F931F93CF93DF938C01EB014F
:1023F000009731F46115710519F420E030E038C020
:1024000081E090E06EE070E00E943E12FC019C01D1
:10241000009771F180E88383209771F0D387C2879A
:1024200081E8838380916F0190917001892B21F461
:10243000F0937001E0936F0101151105C9F0118748
:102440000087838182608383809171019091720102
:10245000892B71F4F0937201E09371018091730103
:1024600090917401892B21F4F0937401E09373012E
:10247000C901DF91CF911F910F9108950F931F9381
:10248000CF93DF93689F8001699F100D789F100D97
:102490001124C8010E94ED10EC01009729F060E0C2
:1024A00070E0A8010E945A12CE01DF91CF911F91D6
:1024B0000F910895DC0101C06D9341505040E0F749
:0624C0000895F894FFCF1F
:1024C60046726F6E74004F62737461636C6500428E
:1024D60061636B696E67005570006D5600507265DA
:1024E6007373204200476F210064008813040400C0
:1024F600D007F4010F00020801200075010000005A
:00000001FF
