:100000000C9466000C9483000C9483000C94830081
:100010000C9483000C9483000C9483000C94830054
:100020000C9483000C940A160C9483000C948300A7
:100030000C9483000C94870E0C9483000C94830022
:100040000C9483000C9483000C9483000C94830024
:100050000C9483000C9483000C9483000C94830014
:100060000C9483000C948300A70BAD0BB00BB30B67
:10007000B60BB90BBC0BBF0BC20BC50BC80BCB0B24
:10008000763132204C3136206F34206366613E6316
:1000900072613E633400763132204C3136206F3449
:1000A000206600763132204C3136206F34206338A0
:1000B0002E65386623386167382E653863383C61B1
:1000C0003C66233C66233C66233C670011241FBE2C
:1000D000CFEFD4E0DEBFCDBF12E0A0E0B1E0E8E8B2
:1000E000F2E302C005900D92AA35B107D9F712E0EC
:1000F000AAE5B2E001C01D92AF38B107E1F70E9456
:1001000038010C9442190C940000AF92BF92CF9228
:10011000DF92EF92FF920F931F93CF93DF93EC0147
:1001200058016901CA01DB017C018D010E94CF10D9
:1001300080E060E00E949F10CE010E94BB1180E031
:1001400091E00E94BB1180E061E00E949F10C80115
:10015000B701A60195010E94F0040E945A060E9470
:100160009A1181E00E947D1082E30E94321488235C
:10017000D9F782E30E94E61581FF0BC083E091E08E
:100180000E94840EC801B701A60195010E94980340
:1001900027C084FF19C00E9472100E94CF1088E00F
:1001A00091E00E94840E84E690E00E944416B7011C
:1001B000C801DF91CF911F910F91FF90EF90DF90D9
:1001C000CF90BF90AF90089585FF0CC08DE091E077
:1001D0000E94840EC801B701A60195010E94C903BF
:1001E0007B018C01C801B70120E030E04AEF56ECFA
:1001F0000E94CC058823BCF4C601B5010E945A06B2
:100200009B01AC0180E09DE7B9010E94411780503D
:100210009D47AA2797FDA095BA2FBC01CD010E944A
:10022000FC057B018C01C801B70120E030E04AEFFA
:1002300056E40E949C0518160CF078CFC601B50153
:100240000E945A06AB01BC0100E01DE780E09DE77B
:10025000BA010E944117081B190B222717FD209590
:10026000322FC901B8010E94FC057B018C015ECFD1
:100270002F923F924F925F926F927F928F929F92B6
:10028000AF92BF92CF92DF92EF92FF920F931F93A4
:10029000DF93CF93CDB7DEB72E970FB6F894DEBFBE
:1002A0000FBECDBF80917C00806280937C003D9822
:1002B000459886E990E00E94740E82E191E040E06A
:1002C00050E06AEF72E400E010E020E83FE30E94B3
:1002D00085000E945A063B018BE191E043E353E322
:1002E00063E37FE30AE017ED23E23CE30E9485002D
:1002F00069877A878B879C8784E291E040E050E0B1
:1003000060E070E00AE017ED23E23CE30E94850024
:100310006D837E838F8398878DE291E046E656E673
:1003200066E67FE30AE017ED23E23CE30E948500E6
:1003300069837A838B839C830E94CF1080E060E086
:100340000E949F1086E391E00E94BB1180E10E9411
:1003500032148823D9F388EE93E00E94441686E095
:100360000E94FC086C0188249924442455242224EA
:1003700033242618370886E00E94FC088D879E8764
:1003800087E00E94FC085C010E94AD162CE231E07F
:1003900040E050E00E9454176115710581059105F8
:1003A000D1F40E94CF1080E060E00E949F10B50160
:1003B000882777FD8095982F0E949A1185E060E04C
:1003C0000E949F102D853E85B901882777FD809575
:1003D000982F0E949A116D857E856C197D09860E75
:1003E000971E882777FD8095982F0E94FC059B011A
:1003F000AC0169857A858B859C850E94F6037B011B
:100400008C01B401882777FD8095982F0E94FC0508
:100410009B01AC016D817E818F8198850E94F603DE
:100420009B01AC01C801B7010E94C9037B018C018B
:100430006D857E8564197509882777FD8095982FCD
:100440000E94FC059B01AC0169817A818B819C81B2
:100450000E94F6039B01AC01C801B7010E94C903C9
:100460000E945A06DC01CB01B301681B790B860D93
:10047000971D0E94FD1308C0C301B1010E94FD1326
:1004800087E00E94FC085C014D845E8438E3A3167B
:10049000B1040CF470CFF0CFA0E0B0E0E2E5F2E000
:1004A0000C949117DC012B01FA019C91923008F415
:1004B00039C1EB018881823008F433C1943069F48A
:1004C000843009F02FC111969C911197898198175A
:1004D00009F428C1ACE4B1E025C1843009F421C19C
:1004E0008230A9F4923009F01DC19A01AD0188E073
:1004F000EA010990AE01E90109929E018150C1F71C
:10050000E201898111969C918923818308C19230EF
:1005100009F407C112962D903C901397EB018A8144
:100520009B811496AD90BD90CD90DC901797EC8098
:10053000FD800E811F819101281B390BB90137FF06
:1005400004C066277727621B730B603271050CF0BD
:1005500061C0121613066CF537014801062E04C05F
:1005600096948794779467940A94D2F721E030E0C8
:1005700040E050E004C0220F331F441F551F6A950E
:10058000D2F721503040404050402E213F2140239F
:100590005123211531054105510521F021E030E0BD
:1005A00040E050E079018A01E628F7280829192956
:1005B0003CC0232BD1F1260E371E35014601062EF5
:1005C00004C096948794779467940A94D2F721E0B4
:1005D00030E040E050E004C0220F331F441F551F9D
:1005E0006A95D2F721503040404050402A213B21AB
:1005F0004C215D21211531054105510521F021E0F6
:1006000030E040E050E059016A01A628B728C82828
:10061000D9280BC0821593052CF01C01AA24BB24F9
:10062000650103C0EE24FF24870111969C91D2013D
:1006300011968C91981709F445C0992339F0A801B7
:1006400097012A193B094C095D0906C0A6019501CD
:100650002E193F09400B510B57FD08C01182338200
:10066000228224833583468357831DC081E08183A2
:100670003382228288279927DC01821B930BA40BEB
:10068000B50B84839583A683B7830DC0220F331FD8
:10069000441F551F2483358346835783828193816A
:1006A0000197938382832481358146815781DA01C2
:1006B000C9010197A109B1098F5F9F4FAF4FBF4398
:1006C00028F30BC0918333822282EA0CFB1C0C1DA1
:1006D0001D1DE482F5820683178383E080832481D5
:1006E00035814681578157FF1AC0C901AA2797FD56
:1006F000A095BA2F81709070A070B07056954795F4
:1007000037952795822B932BA42BB52B8483958328
:10071000A683B78382819381019693838283DF01CD
:1007200001C0D201CD01CDB7DEB7E2E10C94AD1727
:10073000A0E2B0E0EEE9F3E00C949D1769837A83C0
:100740008B839C832D833E834F835887E9E0EE2E75
:10075000F12CEC0EFD1ECE010196B7010E94D207CE
:100760008E010F5E1F4FCE010596B8010E94D20781
:100770008A8991E089278A8BC701B801AE01475E5B
:100780005F4F0E944C020E94FD06A096E6E00C948A
:10079000B917A0E2B0E0EFECF3E00C949D17698389
:1007A0007A838B839C832D833E834F835887F9E024
:1007B000EF2EF12CEC0EFD1ECE010196B7010E942A
:1007C000D2078E010F5E1F4FCE010596B8010E9421
:1007D000D207C701B801AE01475E5F4F0E944C02CD
:1007E0000E94FD06A096E6E00C94B917A0E2B0E0E6
:1007F000ECEFF3E00C94911769837A838B839C83ED
:100800002D833E834F835887CE010196BE01675FDB
:100810007F4F0E94D207CE010596BE016F5E7F4FCB
:100820000E94D2079985923088F089898230C8F079
:10083000943019F4823051F404C0843029F4923099
:1008400081F48CE491E0C6C0923049F420E09A85AE
:100850008A89981321E02A87CE010996BBC082308D
:1008600049F420E09A858A89981321E02A8BCE01E9
:100870004196B0C02D843E844F8458886D887E8810
:100880008F88988CEE24FF248701AA24BB2465015D
:1008900040E050E060E070E0E0E0F0E0C101817035
:1008A0009070892BE9F0E60CF71C081D191D9A01C0
:1008B000AB012A0D3B1D4C1D5D1D80E090E0A0E0CA
:1008C000B0E0E614F7040805190520F481E090E093
:1008D000A0E0B0E0BA01A901480F591F6A1F7B1FB1
:1008E000AA0CBB1CCC1CDD1C97FE08C081E090E06C
:1008F000A0E0B0E0A82AB92ACA2ADB2A3196E03261
:10090000F10549F0660C771C881C991C5694479495
:1009100037942794C3CFFA85EA892B893C898B8544
:100920009C85280F391F2E5F3F4F17C0CA01817069
:100930009070892B61F016950795F794E79480E005
:1009400090E0A0E0B0E8E82AF92A0A2B1B2B769564
:100950006795579547952F5F3F4F77FDE7CF0CC0C1
:10096000440F551F661F771F17FD4160EE0CFF1CDB
:10097000001F111F21503040403090E0590790E097
:10098000690790E4790760F32B8F3C8FDB01CA0184
:100990008F779070A070B07080349105A105B1057B
:1009A00061F447FD0AC0E114F1040105110529F0C5
:1009B000405C5F4F6F4F7F4F40781A8EFE1711F0EB
:1009C00081E08A8F4D8F5E8F6F8F78A383E0898F50
:1009D000CE0149960E94FD06A096E2E10C94AD1767
:1009E000A8E1B0E0E6EFF4E00C94991769837A830C
:1009F0008B839C832D833E834F835887B9E0EB2EF6
:100A0000F12CEC0EFD1ECE010196B7010E94D2071B
:100A10008E010F5E1F4FCE010596B8010E94D207CE
:100A20002985223008F47EC03989323010F4B801AB
:100A30007CC08A859A8989278A87243011F02230E0
:100A400031F4231709F06EC06CE471E06EC03430ED
:100A500039F41D861E861F86188A1C861B8604C0D4
:100A6000323021F484E08987B7015FC02B853C8553
:100A70008B899C89281B390B3C872B87ED84FE844E
:100A80000F851889AD88BE88CF88D88CEA14FB04FE
:100A90000C051D0540F4EE0CFF1C001F111F21501A
:100AA00030403C872B8720E030E040E050E080E0A1
:100AB00090E0A0E0B0E460E070E0EA14FB040C0514
:100AC0001D0540F0282B392B4A2B5B2BEA18FB081D
:100AD0000C091D09B695A79597958795EE0CFF1CF7
:100AE000001F111F6F5F7F4F6F31710531F7DA0102
:100AF000C9018F779070A070B07080349105A10506
:100B0000B10561F427FD0AC0E114F10401051105E6
:100B100029F0205C3F4F4F4F5F4F20782D873E8755
:100B20004F87588BBE01675F7F4FCB010E94FD0648
:100B30006896EAE00C94B517A8E1B0E0E2EAF5E0C7
:100B40000C949D1769837A838B839C832D833E83CA
:100B50004F83588789E0E82EF12CEC0EFD1ECE0164
:100B60000196B7010E94D2078E010F5E1F4FCE0182
:100B70000596B8010E94D2078985823040F08989A4
:100B8000823028F0C701B8010E944A0801C08FEFE7
:100B90006896E6E00C94B917A8E1B0E0E2EDF5E064
:100BA0000C949D1769837A838B839C832D833E836A
:100BB0004F83588789E0E82EF12CEC0EFD1ECE0104
:100BC0000196B7010E94D2078E010F5E1F4FCE0122
:100BD0000596B8010E94D2078985823040F0898944
:100BE000823028F0C701B8010E944A0801C081E0A4
:100BF0006896E6E00C94B917A8E0B0E0E2E0F6E011
:100C00000C949A179B01AC0183E08983DA01C90136
:100C10008827B7FD83959927AA27BB27B82E2115CA
:100C200031054105510519F482E089833AC08823D2
:100C3000A9F0203080E0380780E0480780E85807B6
:100C400029F460E070E080E09FEC30C0EE24FF24E7
:100C50008701E21AF30A040B150B02C079018A011D
:100C60008EE1C82ED12CDC82CB82ED82FE820F83F6
:100C70001887C801B7010E94AE0601971816190619
:100C800084F4082E04C0EE0CFF1C001F111F0A94F0
:100C9000D2F7ED82FE820F831887C81AD90ADC8248
:100CA000CB82BA82CE0101960E94FD062896E9E029
:100CB0000C94B617ACE0B0E0E0E6F6E00C94A117B7
:100CC00069837A838B839C83CE010196BE016B5F1F
:100CD0007F4F0E94D2078D81823061F1823050F1C6
:100CE000843021F48E81882351F12EC02F813885E4
:100CF00037FD20C06E812F3131051CF06623F9F0DD
:100D000023C08EE190E0821B930B29853A854B85A9
:100D10005C8504C056954795379527958A95D2F7F7
:100D20006623B1F050954095309521953F4F4F4F38
:100D30005F4F0EC020E030E040E050E009C02FEFF0
:100D40003FEF4FEF5FE704C020E030E040E050E8C5
:100D5000B901CA012C96E2E00C94BD17EF92FF9204
:100D60000F931F937B018C0180E0E81680E0F8066A
:100D700081E0080780E0180788F48FEFE816F10497
:100D80000105110531F028F088E090E0A0E0B0E026
:100D900017C080E090E0A0E0B0E012C080E0E8166C
:100DA00080E0F80680E0080781E0180728F088E175
:100DB00090E0A0E0B0E004C080E190E0A0E0B0E00E
:100DC00020E230E040E050E0281B390B4A0B5B0B7F
:100DD00004C016950795F794E7948A95D2F7F70122
:100DE000EC5AFE4F8081281B310941095109C90184
:100DF0001F910F91FF90EF900895DF92EF92FF9275
:100E00000F931F93FC01E480F58006811781D18048
:100E10008081823048F480E090E0A0E1B0E0E82AF0
:100E2000F92A0A2B1B2BA5C0843009F49FC08230FD
:100E300021F4EE24FF24870105C0E114F10401052B
:100E4000110519F4E0E0F0E096C0628173819FEF34
:100E5000623879070CF05BC022E83FEF261B370BA6
:100E60002A3131052CF020E030E040E050E02AC08B
:100E7000B801A701022E04C076956795579547954E
:100E80000A94D2F781E090E0A0E0B0E004C0880FBF
:100E9000991FAA1FBB1F2A95D2F70197A109B10973
:100EA0008E219F21A023B1230097A105B10521F038
:100EB00081E090E0A0E0B0E09A01AB01282B392B53
:100EC0004A2B5B2BDA01C9018F779070A070B0704C
:100ED00080349105A105B10539F427FF09C0205CD4
:100EE0003F4F4F4F5F4F04C0215C3F4F4F4F5F4F0D
:100EF000E0E0F0E02030A0E03A07A0E04A07A0E4FC
:100F00005A0710F0E1E0F0E079018A0127C060386B
:100F1000710564F5FB01E158FF4FD801C7018F77D8
:100F20009070A070B07080349105A105B10539F4BE
:100F3000E7FE0DC080E490E0A0E0B0E004C08FE3E5
:100F400090E0A0E0B0E0E80EF91E0A1F1B1F17FF9B
:100F500005C016950795F794E794319687E01695A6
:100F60000795F794E7948A95D1F705C0EE24FF24FE
:100F70008701EFEFF0E06E2F679566276795902F5A
:100F80009F77D794DD24D7948E2F8695492F462BB3
:100F9000582F5D29B701CA011F910F91FF90EF9063
:100FA000DF900895FC01DB01408151812281622F95
:100FB0006F7770E0221F2227221F9381892F880FCD
:100FC000822B282F30E0991F9927991F11969C9307
:100FD000119721153105A9F54115510561057105D7
:100FE00011F482E037C082E89FEF13969C938E93B2
:100FF00012979A01AB0167E0220F331F441F551F60
:101000006A95D1F783E08C930DC0220F331F441FE4
:10101000551F12968D919C911397019713969C934F
:101020008E931297203080E0380780E0480780E4F4
:10103000580758F314962D933D934D935C9317974F
:1010400008952F3F310579F441155105610571056A
:1010500019F484E08C93089564FF03C081E08C93BD
:1010600012C01C9210C02F57304013963C932E9301
:10107000129783E08C9387E0440F551F661F771FFC
:101080008A95D1F7706414964D935D936D937C931C
:10109000179708951F93DC01FB019C91923008F48F
:1010A00047C08081823008F443C0943051F41196D7
:1010B0001C91843099F58181682F70E0611B710962
:1010C0003FC0843021F0923031F48230B9F1818117
:1010D000882389F12DC011961C9111978230F1F06F
:1010E00081811817D9F412962D913C911397828122
:1010F00093818217930794F028173907BCF0149650
:101100008D919D910D90BC91A02D248135814681BA
:101110005781281739074A075B0718F4112341F054
:101120000AC082179307A407B50740F4112319F0EA
:1011300061E070E005C06FEF7FEF02C060E070E03B
:10114000CB011F91089580917C0085FF05C080919F
:101150007900282F30E004C0209178003091790088
:10116000C901089590933F0180933E010895089529
:10117000089580917C0085FF05C080917900282F1B
:1011800030E004C02091780030917900C9010895C1
:10119000282F8032B0F487E880937A0080917C0019
:1011A000982F9064662311F0806C02C0892F8F778E
:1011B000807E822B80937C0080917A008064809373
:1011C0007A00089560E00E94C808089560E00E94D7
:1011D000C80880917A0086FDFCCF80917C0085FF55
:1011E00005C080917900282F30E004C0209178005C
:1011F00030917900C90108950E94E6080895EF92A0
:10120000FF920F931F93CF93DF93EB0160E00E9457
:10121000C80880917A0086FDFCCF9E01EE24FF2451
:10122000870180917A00806480937A0080917A00AF
:1012300086FDFCCF80917C0085FF04C08091790001
:1012400090E004C08091780090917900A0E0B0E037
:10125000E80EF91E0A1F1B1F2150304011F7CE0166
:1012600096958795C034D10540F48E0D9F1D6C2F47
:1012700070E00E942D179B010DC0A0E0B0E0E80EC9
:10128000F91E0A1F1B1F9E0140E050E0C801B70174
:101290000E945417C901CDB7DEB7E6E00C94B91728
:1012A00087E064E170E00E94FF0808950E94FF0853
:1012B000089590933F0180933E0108951F931091EC
:1012C0007C0080917C008F7D80937C008EE164E1C6
:1012D00070E00E94FF088EE164E170E00E94FF0868
:1012E0009C0115FD04C080917C008F7D03C080911E
:1012F0007C00806280937C00B9017695679580E0E0
:1013000090E06C54744D8E4E9F4F40E050E00E9430
:101310005417C9011F9108950E945E090895A0E025
:10132000B0E020913E0130913F0140E050E0BC012F
:10133000CD010E9402179B01AC0180917C0085FFCA
:101340000BC0B901CA0161587F4F8F4F9F4F2FEFDC
:1013500030E040E050E00AC0B901CA0161507E4F60
:101360008F4F9F4F2FEF33E040E050E00E94541723
:10137000C90108950E94FF080E948F0908950E94E4
:10138000BA09089580917C0085FF06C0809179009C
:1013900090E00E948F0908958091780090917900E3
:1013A0000E948F09089560E00E94C80880917A0029
:1013B00086FDFCCF0E94C20908950E94D3090895BA
:1013C0000E94C209089587E064E170E00E94FF086E
:1013D0000E948F0908950E948F0908951F9310910C
:1013E0007C0080917C008F7D80937C0086E064E1AE
:1013F00070E00E94BA099C0115FD04C080917C0038
:101400008F7D03C080917C00806280937C00C90145
:10141000880F991F820F931F880F991F880F991F9C
:101420008A5792406DE070E00E944117CB011F91F6
:1014300008950E94EE0908951F9310917C008091F9
:101440007C008F7D80937C0086E064E170E00E94E8
:10145000BA099C0115FD04C080917C008F7D03C0FA
:1014600080917C00806280937C0084E190E0AC01FC
:10147000249FC001259F900D349F900D11248E5202
:101480009F4167E270E00E944117CB011F910895D0
:101490000E941C0A08951F9310917C0080917C008B
:1014A0008F7D80937C0086E06AE070E00E94BA093C
:1014B000AC0115FD04C080917C008F7D03C080913C
:1014C0007C00806280937C009A01220F331F240FDE
:1014D000351F2F5F3F4F36952795C9011F910895FE
:1014E0000E944B0A08951F9310917C0080917C000C
:1014F0008F7D80937C0086E06AE070E00E94BA09EC
:10150000AC0115FD04C080917C008F7D03C08091EB
:101510007C00806280937C009A01220F331F240F8D
:10152000351FC9011F9108950E94730A08950E94F2
:10153000730A08950895089580914B01882339F026
:1015400020E08091780290917902892B09F021E0C6
:10155000822F089510926F0083E28093800081E1D2
:10156000809381001092820080E197E2909389003D
:101570008093880010928B0010928A00229A7894AF
:101580000895A0E0B0E0E7ECFAE00C9499178C0124
:101590005B01C42E80917702882329F481E0809337
:1015A00077020E94AA0A10924B0117FD03C0DD24A6
:1015B000D39403C01F772AE0D22E80918100E82EB9
:1015C000FF2488EFE822FF2488ECD89EC001112474
:1015D00080179107C8F4E80197E20131190710F06C
:1015E000C0E1D7E2BE017695679580E090E0605853
:1015F000794687469F4F9E0140E050E00E94541775
:10160000890181E090E025C088E2D89E802D1124D8
:10161000C82FD0E0C017D10708F4E801BE017695C5
:1016200067959E0140E050E09AE0D91639F480E0D9
:1016300090E0605E734481449F4F06C080E090E07C
:1016400060537D4E8C4E9F4F0E945417890182E05B
:1016500090E0E82AF92A9AE0D91639F4CE010596E5
:101660006AE070E00E942D17EB0183E0C83ED807C6
:1016700011F4B5010FC0BE0180E090E0950140E09B
:1016800050E00E94021728EE33E040E050E00E9454
:101690007617B90110926F00E092810010938900D3
:1016A00000938800E0918800F0918900AC2DA03172
:1016B00008F0AFE080E190E08A1B910902C0F69546
:1016C000E7958A95E2F7F0938B00E0938A00709398
:1016D0005F0260935E0286B38FEF86BB81E08093EA
:1016E0006F00CDB7DEB7EAE00C94B5170E94C10ACF
:1016F0000895CF93DF93EB018F3F11F0442329F43A
:1017000088EE93E0BE0140E067C0813110F420E034
:1017100005C0282F2051203608F02FE5822F6CE0DD
:101720000E942117382F682F70E084EF9FEF689F89
:10173000F001699FF00D789FF00D1124E20FF11D6B
:10174000EC30F10538F4EC5CFF4F0C94C8178CE9D1
:1017500091E023C080E090E020C085EB91E01DC0C7
:101760008FEC91E01AC08AEE91E017C087E092E01A
:1017700014C086E292E011C087E492E00EC089E6D0
:1017800092E00BC08EE892E008C085EB92E005C0C5
:101790008EED92E002C08AE093E0373071F002C033
:1017A000880F991F6A95E2F7323020F005966AE0BB
:1017B00070E00BC0805090480BC036E0880F991F36
:1017C0003A95E1F7029665E070E00E942D17CB0193
:1017D000403108F04FE0BE010E94C10ADF91CF9175
:1017E00008950E94790B089580914B01882339F068
:1017F00020E08091780290917902892B09F021E014
:10180000822F089510926F00E1E8F0E08081887FD8
:101810008160808380E197E29093890080938800C3
:1018200010928B0010928A0081E080934B011092FD
:1018300079021092780208950E94020C0895309166
:101840005C02E0917802F0917902332311F0249147
:1018500001C02081822F81548A3108F4205E203219
:1018600059F48091780290917902019690937902CF
:1018700080937802019729F7822F0895CF93DF9301
:101880000E941F0C282FC0E0D0E01DC0CE0153E005
:10189000880F991F5A95E1F7CC0FDD1FC80FD91F8C
:1018A000822F992787FD9095C80FD91FE0978091C7
:1018B0007802909179020196909379028093780250
:1018C0000E941F0C282F822F80538A30F8F2CE01FD
:1018D000DF91CF910895A0E0B0E0E1E7FCE00C9447
:1018E000971780904001B0905A02BB2021F0609180
:1018F0005B02662399F4A0905B0200914501109170
:101900004601E0904101F0904201C0914301D09125
:101910004401C0904701D090480108C18FEF70E0AA
:1019200040E00E94790B10925B02CBC194E0892EBB
:10193000BB2404EF11E084E0E82EF12CC0EDD7E0E9
:10194000B4E09B2EAFE0CA2ED12C0E941F0C282F92
:101950008091780290917902019690937902809318
:101960007802263609F498C02736CCF42236A1F145
:10197000233674F42E3361F12F3334F42132B1F273
:101980002C3309F00BC126C0213609F007C121C153
:10199000243609F451C025360CF066C035C02F3608
:1019A00009F4C1C0203754F42C3609F4A5C02D36F3
:1019B00009F4A6C0273609F0F1C086C0243709F41F
:1019C000D1C0263709F4E6C0223709F0E7C0B0C01D
:1019D0008394BBCF8A94B9CFA0925B02B0925A0293
:1019E0001093460100934501F0924201E0924101BB
:1019F000D0934401C093430190924001D09248019A
:101A0000C09247012BE0FCC0A0925B02B0925A0248
:101A10001093460100934501F0924201E09241018A
:101A2000D0934401C093430190924001D092480169
:101A3000C092470120E0E4C0A0925B02B0925A023B
:101A40001093460100934501F0924201E09241015A
:101A5000D0934401C093430190924001D092480139
:101A6000C092470122E0CCC0A0925B02B0925A0221
:101A70001093460100934501F0924201E09241012A
:101A8000D0934401C093430190924001D092480109
:101A9000C092470124E0B4C0A0925B02B0925A0207
:101AA0001093460100934501F0924201E0924101FA
:101AB000D0934401C093430190924001D0924801D9
:101AC000C092470125E09CC0A0925B02B0925A02EE
:101AD0001093460100934501F0924201E0924101CA
:101AE000D0934401C093430190924001D0924801A9
:101AF000C092470127E084C00E943E0C7C0144C094
:101B00000E941F0C8C3611F4BB2403C0AA24BB24F2
:101B1000B394809178029091790201969093790222
:101B20008093780212CF0E943E0C882E982C0DCF05
:101B3000A0925B02B0925A021093460100934501B5
:101B4000F0924201E0924101D0934401C0934301DD
:101B500090924001D0924801C092470120E0FF24BA
:101B6000F3944FC00E943E0CBC0180EC9DE50E94A6
:101B70002D17CB01EB01F3E0CC0FDD1FFA95E1F758
:101B8000880F991FC80FD91FCE01B7010E942D17CA
:101B90008B01DBCE0E943E0C6C01D7CEA0925B0283
:101BA000B0925A021093460100934501F09242010F
:101BB000E0924101D0934401C093430190924001CF
:101BC000D0924801C0924701109279021092780297
:101BD00078C0A0925B02B0925A0210934601009323
:101BE0004501F0924201E0924101D0934401C0933B
:101BF000430190924001D0924801C092470129E0F0
:101C0000FF248CE0889EC0011124E22EE80E0AC059
:101C10008091780290917902019690937902809355
:101C20007802E3940E941F0C8B3291F3833281F38C
:101C30000CC080917802909179020196909379027C
:101C400080937802EA940E941F0C8D3291F3C09128
:101C50004501D09146018153883058F400914301E9
:101C6000109144010E943E0CBC01C8010E942D1736
:101C7000EB018E010BC08091780290917902019660
:101C80009093790280937802C00FD11F1695079523
:101C90000E941F0C8E3279F380915A02882339F00A
:101CA000CE019695879580935B02C81BD109FF20D2
:101CB00011F0EE24EA948E2DBE01409147010E945E
:101CC000790BCDB7DEB7ECE00C94B31710926F0030
:101CD000909379028093780281E080935C02109265
:101CE0005B020E946B0C08950E94660E089510928C
:101CF0006F00909379028093780210925C021092A8
:101D00005B020E946B0C08950E94770E08951F924B
:101D10000F920FB60F9211242F933F934F935F931F
:101D20006F937F938F939F93AF93BF93EF93FF93A3
:101D300080915E0290915F02019790935F02809381
:101D40005E02019611F510926F00789480918100E7
:101D5000887F81608093810080E197E29093890081
:101D60008093880010928B0010928A0081E080930B
:101D70004B018091780290917902892B31F080910A
:101D80005D02882311F40E946B0CFF91EF91BF91CB
:101D9000AF919F918F917F916F915F914F913F9103
:101DA0002F910F900FBE0F901F90189510926F00FB
:101DB00080914B01882341F08091780290917902C3
:101DC000892B11F00E946B0C81E080936F0020E062
:101DD0008091780290917902892B09F021E0822F7D
:101DE000089580935D02882311F40E94D60E089511
:101DF0000E94F10E08950E94D60E08950895089548
:101E000080E090E00895EF92FF920F931F936AB1E4
:101E100057985A98289AE0906402F09065020091D1
:101E200066021091670220E030E041E050E0CA0114
:101E30006F9364E06A95F1F76F910197C9F75C9A27
:101E4000CA016F9364E06A95F1F76F910197C9F742
:101E500089B15C98FA016F9364E06A95F1F76F912C
:101E60003197C9F75C9AFA016F9364E06A95F1F7CC
:101E70006F913197C9F75C9887FF0BC02C5F3F4F7C
:101E8000C901A0E0B0E08E159F05A007B10708F4D6
:101E9000CECF6AB91F910F91FF90EF90089565B171
:101EA00090E0AC0141705070440F551F9C012670AA
:101EB000307053E0220F331F5A95E1F7422B6D7CAF
:101EC000462B45B92BB18870907034E0880F991F6C
:101ED0003A95E1F72F77282B2BB95C9A81E090E0B7
:101EE000FC016F9364E06A95F1F76F913197C9F740
:101EF0005C986F9364E06A95F1F76F910197C9F769
:101F000008958091600290916102009711F00E9403
:101F10007B188091490190E0019720914A0130E0BF
:101F2000AC01429FC001439F900D529F900D112420
:101F30000E94CE179093610280936002009729F16E
:101F400060E070E208C0E0916002F0916102E40F8D
:101F5000F51F70836F5F462F50E08091490190E03C
:101F6000019720914A0130E0FC01E29FC001E39F0C
:101F7000900DF29F900D11244817590724F384EC1B
:101F800091E160E07FE00E94D318089580934A01B8
:101F9000609349010E94810F089580934A016093E4
:101FA00049010E94810F08950E94810F089580E1E8
:101FB00097E2A0E0B0E08093640290936502A09362
:101FC0006602B0936702529A209A549A8EE190E08A
:101FD0000E94671683E00E940A1386E090E00E9448
:101FE000671683E00E940A1382E090E00E94671661
:101FF00083E00E940A1382E090E00E94671682E06C
:102000000E940A1382E090E00E94671688E20E9414
:10201000541088E00E94541081E00E94541086E021
:102020000E9454108CE00E94541008958091680220
:10203000882329F481E0809368020E94D70F0895D5
:10204000BF92CF92DF92EF92FF920F931F93082FD0
:10205000162FF42E0E9416100E94030FB4B0C5B0C4
:10206000DAB0EBB02898112311F05A9A01C05A98AF
:1020700084B1826384B9579A81E0F81629F0802FE1
:1020800082958F700E944F0F802F8F700E944F0F8C
:10209000DAB8EBB8B4B8C5B81F910F91FF90EF90C4
:1020A000DF90CF90BF90089560E042E00E94201042
:1020B00008950F931F93082F162F08C0002311F4C3
:1020C00080E101C084E10E94541011501123B1F746
:1020D0001F910F9108950E94591008958CE00E945D
:1020E000541008950E946E100895813011F48FE00D
:1020F00001C08EE00E94541008950E94751008954A
:10210000A4E0B0E0E6E8F0E10C949F17182F062F4A
:1021100080E8898380EC8A8384E98B8384ED8C83D7
:10212000FE01E60FF11D8181810F0E945410109372
:102130006302009362022496E4E00C94BB170E94B1
:102140008010089581E00E94541080916002909167
:102150006102892B19F160E070E208C0E091600231
:10216000F0916102E40FF51F70836F5F462F50E01E
:102170008091490190E0019720914A0130E0FC01F3
:10218000E29FC001E39F900DF29F900D112448172C
:10219000590724F3109263021092620208950E947C
:1021A000A210089561E042E00E94201008950F936C
:1021B0001F93CF93DF9300E010E8C82FD0E0812F6A
:1021C00090E08C239D23892B11F081E301C080E3F3
:1021D0000E94D2100F5F083011F01695F0CFDF91FA
:1021E000CF911F910F9108950E94D71008958A30C2
:1021F00010F4805D01C0895C0E94D21008951F9385
:10220000182F82958F700E94F710812F8F700E9477
:10221000F7101F9108951F93182F892F0E94FF1008
:10222000812F0E94FF101F9108950E940B110895A5
:102230000E94FF1008956F927F928F929F92AF92AB
:10224000BF92CF92DF92FF920F93DF93CF93CDB7E0
:10225000DEB72A970FB6F894DEBF0FBECDBF5B0185
:102260006C010AE03E010894611C711CFA2CC60145
:10227000B5012AE030E040E050E00E945417C90167
:10228000DA015C016D0101504301800E911C80E375
:10229000F80EC601B5012AE030E040E050E00E94AF
:1022A0000217F61AF401F082A114B104C104D1049A
:1022B000E9F608C0F601E00FF11D80810E94D210FE
:1022C0000F5F04C06E010894C11CD11C0A3090F34A
:1022D0002A960FB6F894DEBF0FBECDBFCF91DF9127
:1022E0000F91FF90DF90CF90BF90AF909F908F9015
:1022F0007F906F9008950E941B110895EF92FF92B6
:102300000F931F937B018C0197FF0BC010950095D5
:10231000F094E094E11CF11C011D111D8DE20E945E
:10232000D210C801B7010E941B111F910F91FF909D
:10233000EF9008950E947E110895CF93DF93EC01F2
:1023400003C00E94D2102196FE0184918823C9F710
:10235000DF91CF9108950E949D110895CF93DF934F
:10236000EC0103C021960E94D21088818823D1F706
:10237000DF91CF9108950E94AE1108950E94D2106E
:1023800008950E94D2100895A0E0B0E0EAECF1E1D7
:102390000C949B17E82E8091600290916102892B2A
:1023A00009F405C12AE0E21609F446C038E0E31654
:1023B000C9F4809163028150809363028F3F51F48E
:1023C0008091620281508093620280914A01815023
:1023D00080936302809162028F3F09F0E2C0109205
:1023E0006202DDC08E2D0E94D21020916202222353
:1023F000C9F030E02150304080914A0190E0AC01BA
:10240000249FC001259F900D349F900D1124209191
:102410006302E0916002F0916102E80FF91FE20FA0
:10242000F11DE082809163028F5F8093630290913F
:102430004A01891709F0BBC040916202242F30E0A5
:102440008091490190E001972817390709F0A4C04D
:10245000C0E0D0E044C080E06C2F0E948010FF24D8
:102460006E010894C11CD11C35C00F2D10E090E006
:102470009C01C29FC001C39F900DD29F900D11245B
:10248000E0916002F0916102E00FF11FE80FF91F87
:1024900080810E94D210E0916002F09161028091EF
:1024A0004A0190E0C89FD001C99FB00DD89FB00DE0
:1024B0001124E00FF11FAE0FBF1FAC01C49EC0017D
:1024C000C59E900DD49E900D1124E80FF91F8081B8
:1024D0008C93F39480914A01F81638F2E6016091EA
:1024E0004901862F90E00297C817D9070CF4B3CFA3
:1024F000623008F440C0625080E00E948010FF24E7
:10250000E0E2DE2E34C00F2D10E08091490190E012
:10251000029730E0AC01429FC001439F900D529F53
:10252000900D1124E0916002F0916102E00FF11F23
:10253000E80FF91F80810E94D2102091490130E0FC
:102540002250304080914A0190E0AC01249FC001AC
:10255000259F900D349F900D1124E0916002F09121
:102560006102E00FF11FE80FF91FD082F394209170
:102570004A01F21640F260914901615080E00E94E8
:10258000801000E004C080E20E94D2100F5F8091B2
:102590004A010817C0F303C04F5F409362021092D4
:1025A000630280916302609162020E9480102E2D6E
:1025B000332727FD3095C901CDB7DEB7E8E00C948D
:1025C000B717EF92FF920F931F93CF93DF937C0186
:1025D000062F10E0F3E0000F111FFA95E1F7C0E0BD
:1025E000D0E09E01200F822F80640E945410F701DA
:1025F000EC0FFD1FE4918E2F0E94D2102196C8305F
:10260000D10579F7CDB7DEB7E6E00C94B9170E9493
:10261000E112089560E041E00E94201008950F93B8
:102620001F93CF93DF93082F162FEA010BC00023CF
:1026300011F488E101C08CE10E945410CE010E9487
:1026400067161150112399F7DF91CF911F910F91C8
:1026500008950E940F130895282F883068F481E0B0
:1026600090E002C0880F991F2A95E2F7282FAAE26E
:10267000B0E0EBE2F0E029C08E3080F430E028508A
:10268000304081E090E002C0880F991F2A95E2F760
:10269000282FA4E2B0E0E5E2F0E017C0853130F089
:1026A00020E0A0E0B0E0E0E0F0E00FC030E02E502D
:1026B000304081E090E002C0880F991F2A95E2F730
:1026C000282FA7E2B0E0E8E2F0E06F3F19F4808144
:1026D000822709C0662319F08081822B04C0908173
:1026E000822F8095892380838C91822B8C930895EF
:1026F00008950895E0EBF0E083EF8083808184BD4E
:10270000E1EBF0E082E08083808185BDE4EBF0E0E6
:1027100010828081E3EBF0E08083808188BD88B502
:1027200087BD86E060E00E942C1385E060E00E9497
:102730002C138BE060E00E942C1383E060E00E9489
:102740002C13089580916902882329F481E08093F5
:1027500069020E947A130895CF93DF93EC010E94DF
:10276000A213D7FD02C020E004C0D095C195DF4F71
:1027700021E0CE01CF3FD10519F014F08FEF90E0AA
:10278000222319F018BC87BD02C088BD17BCDF9199
:10279000CF9108950E94AC130895CF93DF93EC017D
:1027A0000E94A213D7FD02C020E004C0D095C195BD
:1027B000DF4F21E0CE01CF3FD10519F014F08FEFAC
:1027C00090E0222329F01092B4008093B30004C05B
:1027D0008093B4001092B300DF91CF9108950E94CE
:1027E000CD1308950F931F938B010E94AC13C80162
:1027F0000E94CD131F910F9108950E94F213089526
:102800000895089580916A02882391F481E080936D
:102810006A0284B18D7C84B985B1826385B985E013
:1028200090E06F9364E06A95F1F76F910197C9F7B3
:10283000089584B18D7C84B985B1826385B985E0C2
:1028400090E06F9364E06A95F1F76F910197C9F793
:1028500008951F93182F0E94021483B1809581233D
:102860001F9108950E9429140895CF92DF92EF924C
:10287000FF920F931F93C82ED3B00E9498167B012E
:102880008C010E94021480917002813011F181301C
:1028900038F0823009F444C0833009F08BC066C040
:1028A0002C2D30E08D2D90E08095909528233923B4
:1028B000232B09F47FC0D094DC20D0926B02E092ED
:1028C0006C02F0926D0200936E0210936F0281E031
:1028D0006FC080916C0290916D02A0916E02B091D8
:1028E0006F02E81AF90A0A0B1B0B8FE0E816F104D5
:1028F0000105110508F45EC040916B028D2D90E03A
:1029000080959095242F30E082239323892B59F1D1
:1029100082E080937002D094D422D0926B024AC09D
:1029200040916B02642F70E02D2D30E0CB018223AB
:102930009323892B79F083E0809370024D2140939B
:102940006B02E0926C02F0926D0200936E021093A3
:102950006F0230C08C2D90E0209530958223932318
:102960006817790739F11092700224C080916C02C7
:1029700090916D02A0916E02B0916F02E81AF90A6F
:102980000A0B1B0B8FE0E816F1040105110590F00E
:1029900040916B02842F90E02D2D30E08223932311
:1029A000892B29F010927002842F8D2104C082E0BF
:1029B0008093700280E01F910F91FF90EF90DF9065
:1029C000CF9008950E9435140895CF92DF92EF9230
:1029D000FF920F931F93C82ED3B0D0940E949816E5
:1029E0007B018C010E94021480917602813011F1EA
:1029F000813038F0823009F444C0833009F08BC054
:102A000066C02C2D30E08D2D90E080959095282388
:102A10003923232B09F47FC0D094DC20D09271029B
:102A2000E0927202F09273020093740210937502A6
:102A300081E06FC08091720290917302A091740244
:102A4000B0917502E81AF90A0A0B1B0B8FE0E81621
:102A5000F1040105110508F45EC0409171028D2D4D
:102A600090E080959095242F30E082239323892B4A
:102A700059F182E080937602D094D422D0927102F0
:102A80004AC0609171022D2D30E0462F50E0C901FF
:102A900084239523892B79F083E080937602D622D4
:102AA000D0927102E0927202F0927302009374026B
:102AB0001093750230C08C2D90E0209530958223C4
:102AC00093234817590739F11092760224C0809158
:102AD000720290917302A0917402B0917502E81A8B
:102AE000F90A0A0B1B0B8FE0E816F104010511052A
:102AF00090F0409171028D2D90E0242F30E08223E0
:102B00009323892B29F0109276028D2D842304C003
:102B100082E08093760280E01F910F91FF90EF900A
:102B2000DF90CF9008950E94E51408951F93CF93EE
:102B3000DF93182F0E940214C12FD0E083B190E0E0
:102B40008C239D23892BD1F38AE090E00E946716A5
:102B500083B190E08C239D23892B81F383B1812362
:102B6000DF91CF911F9108950E94961508951F93AC
:102B7000CF93DF93182F0E940214C12FD0E083B1AE
:102B800090E0809590958C239D23892BC1F38AE05A
:102B900090E00E94671683B190E0809590958C2319
:102BA0009D23892B61F383B180958123DF91CF91A0
:102BB0001F9108951F930E94B715182F0E94961514
:102BC000812F1F9108950E94DA1508950E94B7156C
:102BD000089508950895A2E0B0E0E1EFF5E10C94C6
:102BE000A1172091850230918602CE010196211510
:102BF000310519F48F58924002C0821B930B9A83BF
:102C0000898389819A812296E2E00C94BD170E9403
:102C1000EB1508952F928F939F932FB680917B028F
:102C200090917C02019680937B0290937C0290E0CD
:102C300080917D02891F80937D02909183029C5F29
:102C4000909383028091820280519742C0F09093CA
:102C500083028093820280917E0290917F0201968E
:102C600080937E0290937F0290E080918002891F82
:102C70008093800280918102891F809381022FBE00
:102C80009F918F912F90189528EE33E009C0F9019C
:102C90006F9364E06A95F1F76F913197C9F70197E7
:102CA0000097A9F708956F5F7F4F8F4F9F4F660F73
:102CB000771F881F991F25E030E040E050E00E9418
:102CC0005417CA01B90108950E945316089528EEB9
:102CD00033E009C0F9016F9364E06A95F1F76F91F1
:102CE0003197C9F701970097A9F70895A0E7B0E0D9
:102CF0008C918E7F8C93E0EBF0E080818360808309
:102D0000E1EBF0E08081807F80838081826080833E
:102D1000B89A8C9181608C93789408958091840204
:102D2000882329F481E0809384020E947616089516
:102D30000E948E16E0E7F0E080818E7F80832091F4
:102D40007E0230917F024091800250918102808109
:102D500081608083B901CA0108950E949816089580
:102D60000E948E16809170008E7F8093700060911B
:102D7000B20080917A0290917B02A0917C02B09186
:102D80007D02B89905C0262F30E040E050E011C028
:102D90008091B20020917A0230917B0240917C02B6
:102DA00050917D0220503F4F4F4F5F4F90E0A0E089
:102DB000B0E0282B392B4A2B5B2B8091700081606F
:102DC00080937000B901CA0108950E94B016089559
:102DD0000E948E16E0E7F0E080818E7F8083109263
:102DE0007E0210927F021092800210928102109255
:102DF00083021092820280818160808308950E9404
:102E0000E8160895629FD001739FF001829FE00D44
:102E1000F11D649FE00DF11D929FF00D839FF00D59
:102E2000749FF00D659FF00D9927729FB00DE11D05
:102E3000F91F639FB00DE11DF91FBD01CF011124E2
:102E40000895991B79E004C0991F961708F0961B06
:102E5000881F7A95C9F780950895AA1BBB1B51E17D
:102E600007C0AA1FBB1FA617B70710F0A61BB70BFA
:102E7000881F991F5A95A9F780959095BC01CD019F
:102E8000089597FB092E07260AD077FD04D0E5DFC9
:102E900006D000201AF4709561957F4F0895F6F7DB
:102EA000909581959F4F0895A1E21A2EAA1BBB1BF6
:102EB000FD010DC0AA1FBB1FEE1FFF1FA217B30706
:102EC000E407F50720F0A21BB30BE40BF50B661F1C
:102ED000771F881F991F1A9469F7609570958095E0
:102EE00090959B01AC01BD01CF01089597FB092E80
:102EF00005260ED057FD04D0D7DF0AD0001C38F4C9
:102F000050954095309521953F4F4F4F5F4F089515
:102F1000F6F790958095709561957F4F8F4F9F4FF5
:102F200008952F923F924F925F926F927F928F926D
:102F30009F92AF92BF92CF92DF92EF92FF920F9348
:102F40001F93CF93DF93CDB7DEB7CA1BDB0B0FB652
:102F5000F894DEBF0FBECDBF09942A88398848880F
:102F60005F846E847D848C849B84AA84B984C884A5
:102F7000DF80EE80FD800C811B81AA81B981CE0F9C
:102F8000D11D0FB6F894DEBF0FBECDBFED01089581
:102F9000EE0FFF1F0590F491E02D0994CF93DF937E
:102FA000BC018230910510F462E070E0A0918702CC
:102FB000B0918802ED01E0E0F0E040E050E021C097
:102FC000888199818617970769F48A819B81309758
:102FD00019F09383828304C09093880280938702C0
:102FE000FE0134C06817790738F44115510519F00E
:102FF0008417950708F4AC01FE018A819B819C012E
:10300000E9012097E9F641155105A9F1CA01861B8E
:10301000970B049708F4BA01E0E0F0E02AC08D9124
:103020009C91119784179507F9F46417750781F43B
:1030300012968D919C911397309719F09383828308
:1030400004C09093880280938702FD0132964FC09E
:10305000CA01861B970BFD01E80FF91F619371935D
:1030600002978D939C9343C0FD01828193819C01C3
:10307000D9011097A1F68091850290918602892B43
:1030800041F480915602909157029093860280936A
:10309000850240915802509159024115510541F461
:1030A0004DB75EB78091540290915502481B590B61
:1030B000209185023091860224173507B0F4CA01A9
:1030C000821B930B8617970780F0AB014E5F5F4F13
:1030D0008417950750F0420F531F50938602409378
:1030E0008502F9016193719302C0E0E0F0E0CF0145
:1030F000DF91CF910895CF93DF93009709F450C0EB
:10310000EC0122971B821A82A0918702B09188025B
:10311000109709F140E050E0AC17BD0708F1BB8300
:10312000AA83FE0121913191E20FF31FAE17BF0771
:1031300079F48D919C911197280F391F2E5F3F4F85
:103140003983288312968D919C9113979B838A8350
:103150004115510571F4D0938802C093870220C0B5
:1031600012968D919C911397AD01009711F0DC019F
:10317000D3CFFA01D383C28321913191E20FF31FA0
:10318000CE17DF0769F488819981280F391F2E5FD8
:103190003F4FFA01318320838A819B81938382830D
:1031A000DF91CF9108950F931F93CF93DF938C01FD
:1031B000EB01009731F46115710519F420E030E05E
:1031C00038C081E090E06EE070E00E941F19FC01C1
:1031D0009C01009771F180E88383209771F0D38779
:1031E000C28781E883838091890290918A02892B2A
:1031F00021F4F0938A02E093890201151105C9F0C8
:103200001187008783818260838380918B029091F4
:103210008C02892B71F4F0938C02E0938B028091E5
:103220008D0290918E02892B21F4F0938E02E0930F
:103230008D02C901DF91CF911F910F9108950F93D6
:103240001F93CF93DF93689F8001699F100D789F34
:10325000100D1124C8010E94CE17EC01009729F02F
:1032600060E070E0A8010E943B19CE01DF91CF9190
:103270001F910F910895DC0101C06D9341505040A2
:08328000E0F70895F894FFCF78
:103288003D3F00216333320021653332002167332B
:10329800320053706565643D3F20004B703D302E11
:1032A800303F20004B693D302E303F20004B643DBD
:1032B800302E303F2000507265737320420088130F
:1032C800040400D007F4010F000208010000000008
:1032D80000000000000102020303030304040404C5
:1032E800040404040505050505050505050505058A
:1032F800050505050606060606060606060606066A
:103308000606060606060606060606060606060655
:103318000606060607070707070707070707070739
:103328000707070707070707070707070707070725
:103338000707070707070707070707070707070715
:103348000707070707070707070707070707070705
:1033580007070707080808080808080808080808E9
:1033680008080808080808080808080808080808D5
:1033780008080808080808080808080808080808C5
:1033880008080808080808080808080808080808B5
:1033980008080808080808080808080808080808A5
:1033A8000808080808080808080808080808080895
:1033B8000808080808080808080808080808080885
:1033C8000808080808080808080808080808080875
:0A33D8000808080820008F0200001A
:00000001FF
