:100000000C9440000C945D000C945D000C945D0019
:100010000C945D000C945D000C945D000C945D00EC
:100020000C945D000C942A160C945D000C945D00F9
:100030000C945D000C94A70E0C945D000C945D0074
:100040000C945D000C945D000C945D000C945D00BC
:100050000C945D000C945D000C945D000C945D00AC
:100060000C945D000C945D00C70BCD0BD00BD30B33
:10007000D60BD90BDC0BDF0BE20BE50BE80BEB0B24
:1000800011241FBECFEFD4E0DEBFCDBF12E0A0E051
:10009000B1E0E8ECF2E302C005900D92AC34B10798
:1000A000D9F712E0ACE4B2E001C01D92A138B1076B
:1000B000E1F70E9497020C9462190C940000ECE79F
:1000C000F0E08081806280833D984598089585E0C6
:1000D0000E941C09089586E00E941C09089587E08B
:1000E0000E941C0908950E941C0908958EEC9FEF40
:1000F00062E370E00E941D14089582E390E06EECCC
:100100007FEF0E941D14089586EA9FEF6EEC7FEF4B
:100110000E941D1408958EEC9FEF66EA7FEF0E9407
:100120001D14089580E090E060E070E00E941D14CE
:100130000895AF92BF92CF92DF92EF92FF920F930A
:100140001F93B82EA62E69017A01012B11F00E948F
:10015000EF108B2D6A2D0E94BF10C701B6010E94BF
:10016000BA111F910F91FF90EF90DF90CF90BF9049
:10017000AF9008950F931F93CF93DF93182F062FFF
:10018000EA01232B11F00E94EF10812F602F0E94B3
:10019000BF10CE010E94DB11DF91CF911F910F9113
:1001A0000895AF92BF92CF92DF92EF92FF920F939A
:1001B0001F93CF93DF93EC010E94EF10EE24FF24F6
:1001C00087015E01CC24B7FCC094DC2C17C080E012
:1001D00060E00E94BF10C801B7016A0D7B1D8C1D35
:1001E0009D1D0E94BA1188EE93E00E9464160E9441
:1001F000EF100894E108F10801091109CE018E0DF4
:100200009F1D181619061CF3DF91CF911F910F91B6
:10021000FF90EF90DF90CF90BF90AF900895EF9256
:10022000FF920F931F93DF93CF93CDB7DEB7E29783
:100230000FB6F894DEBF0FBECDBF8E010F5F1F4F0C
:1002400083E3E82EF12CEC0EFD1E88ED9FEF68E2B3
:1002500070E00E941D1482E590E00E94641680E028
:1002600090E060E070E00E941D1487E00E941C098D
:10027000F801819391938F01EE15FF0531F7CE01BF
:100280000196E2960FB6F894DEBF0FBECDBFCF91B8
:10029000DF911F910F91FF90EF900895AF92BF9261
:1002A000CF92DF92EF92FF920F931F935C017B013D
:1002B00066277727681B790B0E941D140027F7FC1F
:1002C0000095102FC801B7010E94750628E431EE91
:1002D0004AE553E40E94CF047B018C01CC24B7FC97
:1002E000C094DC2CC601B5010E9475069B01AC01CF
:1002F000C801B7010E94C9050E94D306DC01CB01E9
:100300000E94641680E090E060E070E00E941D149E
:100310001F910F91FF90EF90DF90CF90BF90AF9023
:100320000895AF92BF92CF92DF92EF92FF920F9318
:100330001F935C017B01882799278A199B09B501C6
:100340000E941D140027F7FC0095102FC801B7016B
:100350000E94750628E431EE4AE553E40E94CF047A
:100360007B018C01CC24B7FCC094DC2CC601B50108
:100370000E9475069B01AC01C801B7010E94C90526
:100380000E94D306DC01CB010E94641680E090E05D
:1003900060E070E00E941D141F910F91FF90EF909C
:1003A000DF90CF90BF90AF9008950F931F939C0163
:1003B0008B01B9010E941D14C8010E94641680E0DF
:1003C00090E060E070E00E941D141F910F9108956D
:1003D000CF92DF92EF92FF920F931F93CF93DF9311
:1003E0007C018A01EB01C12C9DE7D92E0E94EF1000
:1003F00080E060E00E94BF10C7010E94DB1180E036
:1004000091E00E94DB1180E061E00E94BF10BE011C
:10041000882777FD8095982F0E94BA1181E00E946D
:100420009D1082E30E9452148823D9F782E30E9430
:10043000061681FF07C083E091E00E94A40EC01B56
:10044000D10B20C084FF16C00E9492100E94EF10B2
:1004500088E091E00E94A40E84E690E00E94641679
:10046000CE01DF91CF911F910F91FF90EF90DF9020
:10047000CF90089585FF06C08DE091E00E94A40E04
:10048000C00FD11F83E8C030D8074CF480E09DE74F
:10049000B8010E946117EC01C050DD47A7CF8DE77E
:1004A000C130D8070CF4A2CF80E09DE7B8010E94CC
:1004B0006117E601C81BD90B99CF0F931F938C01CD
:1004C00088EC90E062E370E04EE00E94960B8BE4D3
:1004D00090E00E9464168CE291E062E370E04EE0EE
:1004E0000E94960B88EC90E062E370E04EE00E9480
:1004F000960B8BE490E00E9464168CE291E062E33C
:1005000070E04EE00E94960B80E060E00E94BF1019
:10051000C8010E94DB1180E10E9452148823D9F3A4
:1005200084EF91E00E9464161F910F9108958F92BD
:100530009F92AF92BF92CF92DF92EF92FF920F9372
:100540001F93CF93DF930E945F0082E191E066E901
:1005500070E041E050E00E94E8014C018BE191E045
:1005600067E870E041E050E00E94E8015C0184E24D
:1005700091E00E945D0282E090E00E94D100CC24D4
:10058000DD2403C021E0C22ED12C86E00E941C098C
:100590008C0185E00E941C09EC0187E00E941C0987
:1005A0007C010531110534F4C531D1051CF4C0E0DE
:1005B000D0E003C06497C01BD10BC114D10451F427
:1005C0008E149F043CF489E190E069E170E00E94A0
:1005D0001D1423C0B701882777FD8095982F0E94AE
:1005E000750629E133E64CE05FEB0E94CF0420E082
:1005F00030E04CED52E40E94A2040E94D3069B011D
:100600002C1B3D0BCE01860F971FB9010E941D14B4
:1006100081E0C816D10409F0B8CFEA14FB040CF04D
:10062000B1CF80E090E060E070E00E941D140E9475
:10063000EF108CE291E00E94DB11B701882777FD73
:100640008095982F0E94BA11FFCFA0E0B0E0EBE2B6
:10065000F3E00C94B117DC012B01FA019C9192306C
:1006600008F439C1EB018881823008F433C1943039
:1006700069F4843009F02FC111969C9111978981FA
:10068000981709F428C1ADE3B1E025C1843009F41D
:1006900021C18230A9F4923009F01DC19A01AD0147
:1006A00088E0EA010990AE01E90109929E018150BA
:1006B000C1F7E201898111969C918923818308C148
:1006C000923009F407C112962D903C901397EB01DC
:1006D0008A819B811496AD90BD90CD90DC90179748
:1006E000EC80FD800E811F819101281B390BB9011F
:1006F00037FF04C066277727621B730B60327105D2
:100700000CF061C0121613066CF537014801062E75
:1007100004C096948794779467940A94D2F721E062
:1007200030E040E050E004C0220F331F441F551F4B
:100730006A95D2F721503040404050402E213F2151
:1007400040235123211531054105510521F021E0B8
:1007500030E040E050E079018A01E628F7280829D6
:1007600019293CC0232BD1F1260E371E3501460135
:10077000062E04C096948794779467940A94D2F7CF
:1007800021E030E040E050E004C0220F331F441F5E
:10079000551F6A95D2F721503040404050402A21E1
:1007A0003B214C215D21211531054105510521F0E9
:1007B00021E030E040E050E059016A01A628B72866
:1007C000C828D9280BC0821593052CF01C01AA2437
:1007D000BB24650103C0EE24FF24870111969C9180
:1007E000D20111968C91981709F445C0992339F0DC
:1007F000A80197012A193B094C095D0906C0A60109
:1008000095012E193F09400B510B57FD08C011826D
:100810003382228224833583468357831DC081E03F
:1008200081833382228288279927DC01821B930BE4
:10083000A40BB50B84839583A683B7830DC0220FC9
:10084000331F441F551F248335834683578382817A
:1008500093810197938382832481358146815781D7
:10086000DA01C9010197A109B1098F5F9F4FAF4F0D
:10087000BF4328F30BC0918333822282EA0CFB1C16
:100880000C1D1D1DE482F5820683178383E080839F
:10089000248135814681578157FF1AC0C901AA2793
:1008A00097FDA095BA2F81709070A070B07056958A
:1008B000479537952795822B932BA42BB52B8483B3
:1008C0009583A683B78382819381019693838283E4
:1008D000DF0101C0D201CD01CDB7DEB7E2E10C945A
:1008E000CD17A0E2B0E0E7E7F4E00C94BD17698310
:1008F0007A838B839C832D833E834F835887E9E0E3
:10090000EE2EF12CEC0EFD1ECE010196B7010E94D9
:100910004B088E010F5E1F4FCE010596B8010E9455
:100920004B088A8991E089278A8BC701B801AE01FB
:10093000475E5F4F0E9425030E947607A096E6E07F
:100940000C94D917A0E2B0E0E8EAF4E00C94BD17EB
:1009500069837A838B839C832D833E834F8358875F
:10096000F9E0EF2EF12CEC0EFD1ECE010196B70141
:100970000E944B088E010F5E1F4FCE010596B801F5
:100980000E944B08C701B801AE01475E5F4F0E944D
:1009900025030E947607A096E6E00C94D917A0E202
:1009A000B0E0E5EDF4E00C94B11769837A838B83B2
:1009B0009C832D833E834F835887CE010196BE01D1
:1009C000675F7F4F0E944B08CE010596BE016F5EA8
:1009D0007F4F0E944B089985923088F08989823038
:1009E000C8F0943019F4823051F404C0843029F4F2
:1009F000923081F48DE391E0C6C0923049F420E05A
:100A00009A858A89981321E02A87CE010996BBC06E
:100A1000823049F420E09A858A89981321E02A8B54
:100A2000CE014196B0C02D843E844F8458886D8895
:100A30007E888F88988CEE24FF248701AA24BB240B
:100A4000650140E050E060E070E0E0E0F0E0C1010E
:100A500081709070892BE9F0E60CF71C081D191DB8
:100A60009A01AB012A0D3B1D4C1D5D1D80E090E0FD
:100A7000A0E0B0E0E614F7040805190520F481E0D1
:100A800090E0A0E0B0E0BA01A901480F591F6A1F29
:100A90007B1FAA0CBB1CCC1CDD1C97FE08C081E090
:100AA00090E0A0E0B0E0A82AB92ACA2ADB2A319651
:100AB000E032F10549F0660C771C881C991C5694AD
:100AC000479437942794C3CFFA85EA892B893C89C8
:100AD0008B859C85280F391F2E5F3F4F17C0CA0199
:100AE00081709070892B61F016950795F794E794C3
:100AF00080E090E0A0E0B0E8E82AF92A0A2B1B2B5E
:100B000076956795579547952F5F3F4F77FDE7CFD0
:100B10000CC0440F551F661F771F17FD4160EE0C78
:100B2000FF1C001F111F21503040403090E059073A
:100B300090E0690790E4790760F32B8F3C8FDB012D
:100B4000CA018F779070A070B07080349105A105B4
:100B5000B10561F447FD0AC0E114F1040105110576
:100B600029F0405C5F4F6F4F7F4F40781A8EFE1721
:100B700011F081E08A8F4D8F5E8F6F8F78A383E0B5
:100B8000898FCE0149960E947607A096E2E10C94E7
:100B9000CD17A8E1B0E0EFECF5E00C94B91769834C
:100BA0007A838B839C832D833E834F835887B9E060
:100BB000EB2EF12CEC0EFD1ECE010196B7010E942A
:100BC0004B088E010F5E1F4FCE010596B8010E94A3
:100BD0004B082985223008F47EC03989323010F460
:100BE000B8017CC08A859A8989278A87243011F0C8
:100BF000223031F4231709F06EC06DE371E06EC04E
:100C0000343039F41D861E861F86188A1C861B8682
:100C100004C0323021F484E08987B7015FC02B859E
:100C20003C858B899C89281B390B3C872B87ED845D
:100C3000FE840F851889AD88BE88CF88D88CEA14C9
:100C4000FB040C051D0540F4EE0CFF1C001F111FDA
:100C5000215030403C872B8720E030E040E050E0DE
:100C600080E090E0A0E0B0E460E070E0EA14FB0413
:100C70000C051D0540F0282B392B4A2B5B2BEA185D
:100C8000FB080C091D09B695A79597958795EE0C5D
:100C9000FF1C001F111F6F5F7F4F6F31710531F710
:100CA000DA01C9018F779070A070B070803491051F
:100CB000A105B10561F427FD0AC0E114F1040105A5
:100CC000110529F0205C3F4F4F4F5F4F20782D8753
:100CD0003E874F87588BBE01675F7F4FCB010E94D5
:100CE00076076896EAE00C94D517A8E0B0E0EBE749
:100CF000F6E00C94BA179B01AC0183E08983DA011A
:100D0000C9018827B7FD83959927AA27BB27B82E45
:100D1000211531054105510519F482E089833AC056
:100D20008823A9F0203080E0380780E0480780E879
:100D3000580729F460E070E080E09FEC30C0EE24BA
:100D4000FF248701E21AF30A040B150B02C0790194
:100D50008A018EE1C82ED12CDC82CB82ED82FE820C
:100D60000F831887C801B7010E942707019718163B
:100D7000190684F4082E04C0EE0CFF1C001F111F7E
:100D80000A94D2F7ED82FE820F831887C81AD90A17
:100D9000DC82CB82BA82CE0101960E947607289629
:100DA000E9E00C94D617ACE0B0E0E9EDF6E00C9485
:100DB000C11769837A838B839C83CE010196BE0120
:100DC0006B5F7F4F0E944B088D81823061F18230D2
:100DD00050F1843021F48E81882351F12EC02F816F
:100DE000388537FD20C06E812F3131051CF0662318
:100DF000F9F023C08EE190E0821B930B29853A85A0
:100E00004B855C8504C056954795379527958A95FF
:100E1000D2F76623B1F050954095309521953F4F1C
:100E20004F4F5F4F0EC020E030E040E050E009C07F
:100E30002FEF3FEF4FEF5FE704C020E030E040E0EE
:100E400050E8B901CA012C96E2E00C94DD17EF924C
:100E5000FF920F931F937B018C0180E0E81680E0E6
:100E6000F80681E0080780E0180788F48FEFE8169D
:100E7000F1040105110531F028F088E090E0A0E0D0
:100E8000B0E017C080E090E0A0E0B0E012C080E0E9
:100E9000E81680E0F80680E0080781E0180728F0EF
:100EA00088E190E0A0E0B0E004C080E190E0A0E044
:100EB000B0E020E230E040E050E0281B390B4A0B64
:100EC0005B0B04C016950795F794E7948A95D2F7C3
:100ED000F701EB5BFE4F8081281B31094109510965
:100EE000C9011F910F91FF90EF900895DF92EF924B
:100EF000FF920F931F93FC01E480F5800681178118
:100F0000D1808081823048F480E090E0A0E1B0E0C0
:100F1000E82AF92A0A2B1B2BA5C0843009F49FC0AC
:100F2000823021F4EE24FF24870105C0E114F1048E
:100F30000105110519F4E0E0F0E096C062817381CB
:100F40009FEF623879070CF05BC022E83FEF261B69
:100F5000370B2A3131052CF020E030E040E050E042
:100F60002AC0B801A701022E04C07695679557954F
:100F700047950A94D2F781E090E0A0E0B0E004C089
:100F8000880F991FAA1FBB1F2A95D2F70197A109A5
:100F9000B1098E219F21A023B1230097A105B1059E
:100FA00021F081E090E0A0E0B0E09A01AB01282BB5
:100FB000392B4A2B5B2BDA01C9018F779070A07017
:100FC000B07080349105A105B10539F427FF09C03F
:100FD000205C3F4F4F4F5F4F04C0215C3F4F4F4F4E
:100FE0005F4FE0E0F0E02030A0E03A07A0E04A07E1
:100FF000A0E45A0710F0E1E0F0E079018A0127C08F
:101000006038710564F5FB01E158FF4FD801C70155
:101010008F779070A070B07080349105A105B105F4
:1010200039F4E7FE0DC080E490E0A0E0B0E004C039
:101030008FE390E0A0E0B0E0E80EF91E0A1F1B1F4E
:1010400017FF05C016950795F794E794319687E04A
:1010500016950795F794E7948A95D1F705C0EE2485
:10106000FF248701EFEFF0E06E2F67956627679505
:10107000902F9F77D794DD24D7948E2F8695492F74
:10108000462B582F5D29B701CA011F910F91FF9080
:10109000EF90DF900895FC01DB01408151812281B6
:1010A000622F6F7770E0221F2227221F9381892FE2
:1010B000880F822B282F30E0991F9927991F1196AE
:1010C0009C93119721153105A9F54115510561052D
:1010D000710511F482E037C082E89FEF13969C936C
:1010E0008E9312979A01AB0167E0220F331F441FC2
:1010F000551F6A95D1F783E08C930DC0220F331FE3
:10110000441F551F12968D919C911397019713962A
:101110009C938E931297203080E0380780E0480738
:1011200080E4580758F314962D933D934D935C93A8
:10113000179708952F3F310579F441155105610541
:10114000710519F484E08C93089564FF03C081E075
:101150008C9312C01C9210C02F57304013963C93B2
:101160002E93129783E08C9387E0440F551F661FE0
:10117000771F8A95D1F7706414964D935D936D93A4
:101180007C931797089580917C0085FF05C080911E
:101190007900282F30E004C0209178003091790048
:1011A000C90108959093300180932F010895089507
:1011B000089580917C0085FF05C080917900282FDB
:1011C00030E004C02091780030917900C901089581
:1011D000282F8032B0F487E880937A0080917C00D9
:1011E000982F9064662311F0806C02C0892F8F774E
:1011F000807E822B80937C0080917A008064809333
:101200007A00089560E00E94E808089560E00E9476
:10121000E80880917A0086FDFCCF80917C0085FFF4
:1012200005C080917900282F30E004C0209178001B
:1012300030917900C90108950E9406090895EF923E
:10124000FF920F931F93CF93DF93EB0160E00E9417
:10125000E80880917A0086FDFCCF9E01EE24FF24F1
:10126000870180917A00806480937A0080917A006F
:1012700086FDFCCF80917C0085FF04C080917900C1
:1012800090E004C08091780090917900A0E0B0E0F7
:10129000E80EF91E0A1F1B1F2150304011F7CE0126
:1012A00096958795C034D10540F48E0D9F1D6C2F07
:1012B00070E00E944D179B010DC0A0E0B0E0E80E69
:1012C000F91E0A1F1B1F9E0140E050E0C801B70134
:1012D0000E947417C901CDB7DEB7E6E00C94D917A8
:1012E00087E064E170E00E941F0908950E941F09D1
:1012F00008959093300180932F0108951F931091CA
:101300007C0080917C008F7D80937C008EE164E185
:1013100070E00E941F098EE164E170E00E941F09E5
:101320009C0115FD04C080917C008F7D03C08091DD
:101330007C00806280937C00B9017695679580E09F
:1013400090E06C54744D8E4E9F4F40E050E00E94F0
:101350007417C9011F9108950E947E090895A0E0A5
:10136000B0E020912F013091300140E050E0BC010D
:10137000CD010E9422179B01AC0180917C0085FF6A
:101380000BC0B901CA0161587F4F8F4F9F4F2FEF9C
:1013900030E040E050E00AC0B901CA0161507E4F20
:1013A0008F4F9F4F2FEF33E040E050E00E947417C3
:1013B000C90108950E941F090E94AF0908950E9463
:1013C000DA09089580917C0085FF06C0809179003C
:1013D00090E00E94AF090895809178009091790083
:1013E0000E94AF09089560E00E94E80880917A00A9
:1013F00086FDFCCF0E94E20908950E94F30908953A
:101400000E94E209089587E064E170E00E941F09EC
:101410000E94AF0908950E94AF0908951F9310918B
:101420007C0080917C008F7D80937C0086E064E16D
:1014300070E00E94DA099C0115FD04C080917C00D7
:101440008F7D03C080917C00806280937C00C90105
:10145000880F991F820F931F880F991F880F991F5C
:101460008A5792406DE070E00E946117CB011F9196
:1014700008950E940E0A08951F9310917C00809198
:101480007C008F7D80937C0086E064E170E00E94A8
:10149000DA099C0115FD04C080917C008F7D03C09A
:1014A00080917C00806280937C0084E190E0AC01BC
:1014B000249FC001259F900D349F900D11248E52C2
:1014C0009F4167E270E00E946117CB011F91089570
:1014D0000E943C0A08951F9310917C0080917C002B
:1014E0008F7D80937C0086E06AE070E00E94DA09DC
:1014F000AC0115FD04C080917C008F7D03C08091FC
:101500007C00806280937C009A01220F331F240F9D
:10151000351F2F5F3F4F36952795C9011F910895BD
:101520000E946B0A08951F9310917C0080917C00AB
:101530008F7D80937C0086E06AE070E00E94DA098B
:10154000AC0115FD04C080917C008F7D03C08091AB
:101550007C00806280937C009A01220F331F240F4D
:10156000351FC9011F9108950E94930A08950E9492
:10157000930A08950895089580913C01882339F0D5
:1015800020E080916A0290916B02892B09F021E0A2
:10159000822F089510926F0083E28093800081E192
:1015A000809381001092820080E197E290938900FD
:1015B0008093880010928B0010928A00229A78946F
:1015C0000895A0E0B0E0E7EEFAE00C94B9178C01C2
:1015D0005B01C42E80916902882329F481E0809305
:1015E00069020E94CA0A10923C0117FD03C0DD2463
:1015F000D39403C01F772AE0D22E80918100E82E79
:10160000FF2488EFE822FF2488ECD89EC001112433
:1016100080179107C8F4E80197E20131190710F02B
:10162000C0E1D7E2BE017695679580E090E0605812
:10163000794687469F4F9E0140E050E00E94741714
:10164000890181E090E025C088E2D89E802D112498
:10165000C82FD0E0C017D10708F4E801BE01769585
:1016600067959E0140E050E09AE0D91639F480E099
:1016700090E0605E734481449F4F06C080E090E03C
:1016800060537D4E8C4E9F4F0E947417890182E0FB
:1016900090E0E82AF92A9AE0D91639F4CE010596A5
:1016A0006AE070E00E944D17EB0183E0C83ED80766
:1016B00011F4B5010FC0BE0180E090E0950140E05B
:1016C00050E00E94221728EE33E040E050E00E94F4
:1016D0009617B90110926F00E09281001093890073
:1016E00000938800E0918800F0918900AC2DA03132
:1016F00008F0AFE080E190E08A1B910902C0F69506
:10170000E7958A95E2F7F0938B00E0938A00709357
:1017100051026093500286B38FEF86BB81E08093C5
:101720006F00CDB7DEB7EAE00C94D5170E94E10A4E
:101730000895CF93DF93EB018F3F11F0442329F4F9
:1017400088EE93E0BE0140E067C0813110F420E0F4
:1017500005C0282F2051203608F02FE5822F6CE09D
:101760000E944117382F682F70E084EF9FEF689F29
:10177000F001699FF00D789FF00D1124E20FF11D2B
:10178000EC30F10538F4EC5CFF4F0C94E8178CE971
:1017900091E023C080E090E020C085EB91E01DC087
:1017A0008FEC91E01AC08AEE91E017C087E092E0DA
:1017B00014C086E292E011C087E492E00EC089E690
:1017C00092E00BC08EE892E008C085EB92E005C085
:1017D0008EED92E002C08AE093E0373071F002C0F3
:1017E000880F991F6A95E2F7323020F005966AE07B
:1017F00070E00BC0805090480BC036E0880F991FF6
:101800003A95E1F7029665E070E00E944D17CB0132
:10181000403108F04FE0BE010E94E10ADF91CF9114
:1018200008950E94990B089580913C01882339F016
:1018300020E080916A0290916B02892B09F021E0EF
:10184000822F089510926F00E1E8F0E08081887F98
:101850008160808380E197E2909389008093880083
:1018600010928B0010928A0081E080933C011092CC
:101870006B0210926A0208950E94220C0895309122
:101880004E02E0916A02F0916B02332311F0249131
:1018900001C02081822F81548A3108F4205E2032D9
:1018A00059F480916A0290916B02019690936B02B9
:1018B00080936A02019729F7822F0895CF93DF93CF
:1018C0000E943F0C282FC0E0D0E01DC0CE0153E0A5
:1018D000880F991F5A95E1F7CC0FDD1FC80FD91F4C
:1018E000822F992787FD9095C80FD91FE097809187
:1018F0006A0290916B02019690936B0280936A0248
:101900000E943F0C282F822F80538A30F8F2CE019C
:10191000DF91CF910895A0E0B0E0E1E9FCE00C9404
:10192000B71780903101B0904C02BB2021F060913C
:101930004D02662399F4A0904D020091360110915A
:101940003701E0903201F0903301C0913401D09121
:101950003501C0903801D090390108C18FEF70E097
:1019600040E00E94990B10924D02CBC194E0892E69
:10197000BB2404EF11E084E0E82EF12CC0EDD7E0A9
:10198000B4E09B2EAFE0CA2ED12C0E943F0C282F32
:1019900080916A0290916B02019690936B02809302
:1019A0006A02263609F498C02736CCF42236A1F113
:1019B000233674F42E3361F12F3334F42132B1F233
:1019C0002C3309F00BC126C0213609F007C121C113
:1019D000243609F451C025360CF066C035C02F36C8
:1019E00009F4C1C0203754F42C3609F4A5C02D36B3
:1019F00009F4A6C0273609F0F1C086C0243709F4DF
:101A0000D1C0263709F4E6C0223709F0E7C0B0C0DC
:101A10008394BBCF8A94B9CFA0924D02B0924C026E
:101A20001093370100933601F0923301E0923201B6
:101A3000D0933501C093340190923101D092390195
:101A4000C09238012BE0FCC0A0924D02B0924C0233
:101A50001093370100933601F0923301E092320186
:101A6000D0933501C093340190923101D092390165
:101A7000C092380120E0E4C0A0924D02B0924C0226
:101A80001093370100933601F0923301E092320156
:101A9000D0933501C093340190923101D092390135
:101AA000C092380122E0CCC0A0924D02B0924C020C
:101AB0001093370100933601F0923301E092320126
:101AC000D0933501C093340190923101D092390105
:101AD000C092380124E0B4C0A0924D02B0924C02F2
:101AE0001093370100933601F0923301E0923201F6
:101AF000D0933501C093340190923101D0923901D5
:101B0000C092380125E09CC0A0924D02B0924C02D8
:101B10001093370100933601F0923301E0923201C5
:101B2000D0933501C093340190923101D0923901A4
:101B3000C092380127E084C00E945E0C7C0144C042
:101B40000E943F0C8C3611F4BB2403C0AA24BB2492
:101B5000B39480916A0290916B02019690936B020C
:101B600080936A0212CF0E945E0C882E982C0DCFB3
:101B7000A0924D02B0924C021093370100933601AF
:101B8000F0923301E0923201D0933501C0933401D9
:101B900090923101D0923901C092380120E0FF24A7
:101BA000F3944FC00E945E0CBC0180EC9DE50E9446
:101BB0004D17CB01EB01F3E0CC0FDD1FFA95E1F7F8
:101BC000880F991FC80FD91FCE01B7010E944D176A
:101BD0008B01DBCE0E945E0C6C01D7CEA0924D0231
:101BE000B0924C021093370100933601F09233010A
:101BF000E0923201D0933501C093340190923101CB
:101C0000D0923901C092380110926B0210926A0290
:101C100078C0A0924D02B0924C021093370100930D
:101C20003601F0923301E0923201D0933501C09336
:101C3000340190923101D0923901C092380129E0EB
:101C4000FF248CE0889EC0011124E22EE80E0AC019
:101C500080916A0290916B02019690936B0280933F
:101C60006A02E3940E943F0C8B3291F3833281F33A
:101C70000CC080916A0290916B02019690936B0266
:101C800080936A02EA940E943F0C8D3291F3C091D6
:101C90003601D09137018153883058F400913401D6
:101CA000109135010E945E0CBC01C8010E944D17C5
:101CB000EB018E010BC080916A0290916B0201963C
:101CC00090936B0280936A02C00FD11F16950795FF
:101CD0000E943F0C8E3279F380914C02882339F0B8
:101CE000CE019695879580934D02C81BD109FF20A0
:101CF00011F0EE24EA948E2DBE01409138010E942D
:101D0000990BCDB7DEB7ECE00C94D31710926F00AF
:101D100090936B0280936A0281E080934E0210924E
:101D20004D020E948B0C08950E94860E0895109219
:101D30006F0090936B0280936A0210924E02109291
:101D40004D020E948B0C08950E94970E08951F92D9
:101D50000F920FB60F9211242F933F934F935F93DF
:101D60006F937F938F939F93AF93BF93EF93FF9363
:101D7000809150029091510201979093510280936B
:101D80005002019611F510926F00789480918100B5
:101D9000887F81608093810080E197E29093890041
:101DA0008093880010928B0010928A0081E08093CB
:101DB0003C0180916A0290916B02892B31F08091F5
:101DC0004F02882311F40E948B0CFF91EF91BF9179
:101DD000AF919F918F917F916F915F914F913F91C3
:101DE0002F910F900FBE0F901F90189510926F00BB
:101DF00080913C01882341F080916A0290916B02AE
:101E0000892B11F00E948B0C81E080936F0020E001
:101E100080916A0290916B02892B09F021E0822F58
:101E2000089580934F02882311F40E94F60E0895BE
:101E30000E94110F08950E94F60E089508950895C6
:101E400080E090E00895EF92FF920F931F936AB1A4
:101E500057985A98289AE0905602F09057020091AD
:101E600058021091590220E030E041E050E0CA01F0
:101E70006F9364E06A95F1F76F910197C9F75C9AE7
:101E8000CA016F9364E06A95F1F76F910197C9F702
:101E900089B15C98FA016F9364E06A95F1F76F91EC
:101EA0003197C9F75C9AFA016F9364E06A95F1F78C
:101EB0006F913197C9F75C9887FF0BC02C5F3F4F3C
:101EC000C901A0E0B0E08E159F05A007B10708F496
:101ED000CECF6AB91F910F91FF90EF90089565B131
:101EE00090E0AC0141705070440F551F9C0126706A
:101EF000307053E0220F331F5A95E1F7422B6D7C6F
:101F0000462B45B92BB18870907034E0880F991F2B
:101F10003A95E1F72F77282B2BB95C9A81E090E076
:101F2000FC016F9364E06A95F1F76F913197C9F7FF
:101F30005C986F9364E06A95F1F76F910197C9F728
:101F400008958091520290915302009711F00E94DF
:101F50009B1880913A0190E0019720913B0130E07D
:101F6000AC01429FC001439F900D529F900D1124E0
:101F70000E94EE179093530280935202009729F12A
:101F800060E070E208C0E0915202F0915302E40F69
:101F9000F51F70836F5F462F50E080913A0190E00B
:101FA000019720913B0130E0FC01E29FC001E39FDB
:101FB000900DF29F900D11244817590724F384EED9
:101FC00091E160E27FE00E94F318089580933B0165
:101FD00060933A010E94A10F089580933B016093A2
:101FE0003A010E94A10F08950E94A10F089580E177
:101FF00097E2A0E0B0E08093560290935702A0933E
:102000005802B0935902529A209A549A8EE190E065
:102010000E94871683E00E942A1386E090E00E94C7
:10202000871683E00E942A1382E090E00E948716C0
:1020300083E00E942A1382E090E00E94871682E0EB
:102040000E942A1382E090E00E94871688E20E9494
:10205000741088E00E94741081E00E94741086E081
:102060000E9474108CE00E947410089580915A02AE
:10207000882329F481E080935A020E94F70F089583
:10208000BF92CF92DF92EF92FF920F931F93082F90
:10209000162FF42E0E9436100E94230FB4B0C5B044
:1020A000DAB0EBB02898112311F05A9A01C05A986F
:1020B00084B1826384B9579A81E0F81629F0802FA1
:1020C00082958F700E946F0F802F8F700E946F0F0C
:1020D000DAB8EBB8B4B8C5B81F910F91FF90EF9084
:1020E000DF90CF90BF90089560E042E00E944010E2
:1020F00008950F931F93082F162F08C0002311F483
:1021000080E101C084E10E94741011501123B1F7E5
:102110001F910F9108950E94791008958CE00E94FC
:10212000741008950E948E100895813011F48FE08C
:1021300001C08EE00E94741008950E9495100895C9
:10214000A4E0B0E0E6EAF0E10C94BF17182F062FE8
:1021500080E8898380EC8A8384E98B8384ED8C8397
:10216000FE01E60FF11D8181810F0E947410109312
:102170005502009354022496E4E00C94DB170E946D
:10218000A010089581E00E947410809152029091F5
:102190005302892B19F160E070E208C0E09152020D
:1021A000F0915302E40FF51F70836F5F462F50E0EC
:1021B00080913A0190E0019720913B0130E0FC01D1
:1021C000E29FC001E39F900DF29F900D11244817EC
:1021D000590724F3109255021092540208950E9458
:1021E000C210089561E042E00E94401008950F93EC
:1021F0001F93CF93DF9300E010E8C82FD0E0812F2A
:1022000090E08C239D23892B11F081E301C080E3B2
:102210000E94F2100F5F083011F01695F0CFDF9199
:10222000CF911F910F9108950E94F71008958A3061
:1022300010F4805D01C0895C0E94F21008951F9324
:10224000182F82958F700E941711812F8F700E9416
:1022500017111F9108951F93182F892F0E941F1186
:10226000812F0E941F111F9108950E942B11089524
:102270000E941F1108956F927F928F929F92AF924A
:10228000BF92CF92DF92FF920F93DF93CF93CDB7A0
:10229000DEB72A970FB6F894DEBF0FBECDBF5B0145
:1022A0006C010AE03E010894611C711CFA2CC60105
:1022B000B5012AE030E040E050E00E947417C90107
:1022C000DA015C016D0101504301800E911C80E335
:1022D000F80EC601B5012AE030E040E050E00E946F
:1022E0002217F61AF401F082A114B104C104D1043A
:1022F000E9F608C0F601E00FF11D80810E94F2109E
:102300000F5F04C06E010894C11CD11C0A3090F309
:102310002A960FB6F894DEBF0FBECDBFCF91DF91E6
:102320000F91FF90DF90CF90BF90AF909F908F90D4
:102330007F906F9008950E943B110895EF92FF9255
:102340000F931F937B018C0197FF0BC01095009595
:10235000F094E094E11CF11C011D111D8DE20E941E
:10236000F210C801B7010E943B111F910F91FF901D
:10237000EF9008950E949E110895CF93DF93EC0192
:1023800003C00E94F2102196FE0184918823C9F7B0
:10239000DF91CF9108950E94BD110895CF93DF93EF
:1023A000EC0103C021960E94F21088818823D1F7A6
:1023B000DF91CF9108950E94CE1108950E94F210EE
:1023C00008950E94F2100895A0E0B0E0EAEEF1E175
:1023D0000C94BB17E82E8091520290915302892BE6
:1023E00009F405C12AE0E21609F446C038E0E31614
:1023F000C9F4809155028150809355028F3F51F46A
:102400008091540281508093540280913B0181500D
:1024100080935502809154028F3F09F0E2C01092E0
:102420005402DDC08E2D0E94F2102091540222230E
:10243000C9F030E02150304080913B0190E0AC0188
:10244000249FC001259F900D349F900D1124209151
:102450005502E0915202F0915302E80FF91FE20F8A
:10246000F11DE082809155028F5F8093550290911B
:102470003B01891709F0BBC040915402242F30E082
:1024800080913A0190E001972817390709F0A4C01C
:10249000C0E0D0E044C080E06C2F0E94A010FF2478
:1024A0006E010894C11CD11C35C00F2D10E090E0C6
:1024B0009C01C29FC001C39F900DD29F900D11241B
:1024C000E0915202F0915302E00FF11FE80FF91F63
:1024D00080810E94F210E0915202F09153028091AB
:1024E0003B0190E0C89FD001C99FB00DD89FB00DAF
:1024F0001124E00FF11FAE0FBF1FAC01C49EC0013D
:10250000C59E900DD49E900D1124E80FF91F808177
:102510008C93F39480913B01F81638F2E6016091B8
:102520003A01862F90E00297C817D9070CF4B3CF71
:10253000623008F440C0625080E00E94A010FF2486
:10254000E0E2DE2E34C00F2D10E080913A0190E0E1
:10255000029730E0AC01429FC001439F900D529F13
:10256000900D1124E0915202F0915302E00FF11FFF
:10257000E80FF91F80810E94F21020913A0130E0AB
:102580002250304080913B0190E0AC01249FC0017B
:10259000259F900D349F900D1124E0915202F091EF
:1025A0005302E00FF11FE80FF91FD082F39420913E
:1025B0003B01F21640F260913A01615080E00E94C6
:1025C000A01000E004C080E20E94F2100F5F809132
:1025D0003B010817C0F303C04F5F409354021092B1
:1025E000550280915502609154020E94A0102E2D38
:1025F000332727FD3095C901CDB7DEB7E8E00C944D
:10260000D717EF92FF920F931F93CF93DF937C0125
:10261000062F10E0F3E0000F111FFA95E1F7C0E07C
:10262000D0E09E01200F822F80640E947410F70179
:10263000EC0FFD1FE4918E2F0E94F2102196C830FE
:10264000D10579F7CDB7DEB7E6E00C94D9170E9433
:102650000113089560E041E00E94401008950F9337
:102660001F93CF93DF93082F162FEA010BC000238F
:1026700011F488E101C08CE10E947410CE010E9427
:1026800087161150112399F7DF91CF911F910F9168
:1026900008950E942F130895282F883068F481E050
:1026A00090E002C0880F991F2A95E2F7282FAAE22E
:1026B000B0E0EBE2F0E029C08E3080F430E028504A
:1026C000304081E090E002C0880F991F2A95E2F720
:1026D000282FA4E2B0E0E5E2F0E017C0853130F049
:1026E00020E0A0E0B0E0E0E0F0E00FC030E02E50ED
:1026F000304081E090E002C0880F991F2A95E2F7F0
:10270000282FA7E2B0E0E8E2F0E06F3F19F4808103
:10271000822709C0662319F08081822B04C0908132
:10272000822F8095892380838C91822B8C930895AE
:1027300008950895E0EBF0E083EF8083808184BD0D
:10274000E1EBF0E082E08083808185BDE4EBF0E0A6
:1027500010828081E3EBF0E08083808188BD88B5C2
:1027600087BD86E060E00E944C1385E060E00E9437
:102770004C138BE060E00E944C1383E060E00E9409
:102780004C13089580915B02882329F481E08093A3
:102790005B020E949A130895CF93DF93EC010E948D
:1027A000C213D7FD02C020E004C0D095C195DF4F11
:1027B00021E0CE01CF3FD10519F014F08FEF90E06A
:1027C000222319F018BC87BD02C088BD17BCDF9159
:1027D000CF9108950E94CC130895CF93DF93EC011D
:1027E0000E94C213D7FD02C020E004C0D095C1955D
:1027F000DF4F21E0CE01CF3FD10519F014F08FEF6C
:1028000090E0222329F01092B4008093B30004C01A
:102810008093B4001092B300DF91CF9108950E948D
:10282000ED1308950F931F938B010E94CC13C801E1
:102830000E94ED131F910F9108950E9412140895A4
:102840000895089580915C02882391F481E080933B
:102850005C0284B18D7C84B985B1826385B985E0E1
:1028600090E06F9364E06A95F1F76F910197C9F773
:10287000089584B18D7C84B985B1826385B985E082
:1028800090E06F9364E06A95F1F76F910197C9F753
:1028900008951F93182F0E94221483B180958123DD
:1028A0001F9108950E9449140895CF92DF92EF92EC
:1028B000FF920F931F93C82ED3B00E94B8167B01CE
:1028C0008C010E94221480916202813011F18130CA
:1028D00038F0823009F444C0833009F08BC066C000
:1028E0002C2D30E08D2D90E0809590952823392374
:1028F000232B09F47FC0D094DC20D0925D02E092BB
:102900005E02F0925F02009360021093610281E028
:102910006FC080915E0290915F02A0916002B091C1
:102920006102E81AF90A0A0B1B0B8FE0E816F104A2
:102930000105110508F45EC040915D028D2D90E007
:1029400080959095242F30E082239323892B59F191
:1029500082E080936202D094D422D0925D024AC079
:1029600040915D02642F70E02D2D30E0CB01822379
:102970009323892B79F083E0809362024D21409369
:102980005D02E0925E02F0925F020093600210939B
:10299000610230C08C2D90E02095309582239323E6
:1029A0006817790739F11092620224C080915E02A3
:1029B00090915F02A0916002B0916102E81AF90A59
:1029C0000A0B1B0B8FE0E816F1040105110590F0CE
:1029D00040915D02842F90E02D2D30E082239323DF
:1029E000892B29F010926202842F8D2104C082E08D
:1029F0008093620280E01F910F91FF90EF90DF9033
:102A0000CF9008950E9455140895CF92DF92EF92CF
:102A1000FF920F931F93C82ED3B0D0940E94B81684
:102A20007B018C010E94221480916802813011F197
:102A3000813038F0823009F444C0833009F08BC013
:102A400066C02C2D30E08D2D90E080959095282348
:102A50003923232B09F47FC0D094DC20D092630269
:102A6000E0926402F092650200936602109367029E
:102A700081E06FC08091640290916502A09166022E
:102A8000B0916702E81AF90A0A0B1B0B8FE0E816EF
:102A9000F1040105110508F45EC0409163028D2D1B
:102AA00090E080959095242F30E082239323892B0A
:102AB00059F182E080936802D094D422D0926302CC
:102AC0004AC0609163022D2D30E0462F50E0C901CD
:102AD00084239523892B79F083E080936802D622A2
:102AE000D0926302E0926402F09265020093660263
:102AF0001093670230C08C2D90E020953095822392
:102B000093234817590739F11092680224C0809125
:102B1000640290916502A0916602B0916702E81A82
:102B2000F90A0A0B1B0B8FE0E816F10401051105E9
:102B300090F0409163028D2D90E0242F30E08223AD
:102B40009323892B29F0109268028D2D842304C0D1
:102B500082E08093680280E01F910F91FF90EF90D8
:102B6000DF90CF9008950E94051508951F93CF938D
:102B7000DF93182F0E942214C12FD0E083B190E080
:102B80008C239D23892BD1F38AE090E00E94871645
:102B900083B190E08C239D23892B81F383B1812322
:102BA000DF91CF911F9108950E94B61508951F934C
:102BB000CF93DF93182F0E942214C12FD0E083B14E
:102BC00090E0809590958C239D23892BC1F38AE01A
:102BD00090E00E94871683B190E0809590958C23B9
:102BE0009D23892B61F383B180958123DF91CF9160
:102BF0001F9108951F930E94D715182F0E94B61594
:102C0000812F1F9108950E94FA1508950E94D715EB
:102C1000089508950895A2E0B0E0E1E1F6E10C9492
:102C2000C1172091770230917802CE0101962115CB
:102C3000310519F48158924002C0821B930B9A838C
:102C4000898389819A812296E2E00C94DD170E94A3
:102C50000B1608952F928F939F932FB680916D023C
:102C600090916E02019680936D0290936E0290E0B7
:102C700080916F02891F80936F02909175029C5F13
:102C8000909375028091740280519742C0F09093A6
:102C90007502809374028091700290917102019686
:102CA000809370029093710290E080917202891F6C
:102CB0008093720280917302891F809373022FBEEA
:102CC0009F918F912F90189528EE33E009C0F9015C
:102CD0006F9364E06A95F1F76F913197C9F70197A7
:102CE0000097A9F708956F5F7F4F8F4F9F4F660F33
:102CF000771F881F991F25E030E040E050E00E94D8
:102D00007417CA01B90108950E947316089528EE38
:102D100033E009C0F9016F9364E06A95F1F76F91B0
:102D20003197C9F701970097A9F70895A0E7B0E098
:102D30008C918E7F8C93E0EBF0E0808183608083C8
:102D4000E1EBF0E08081807F8083808182608083FE
:102D5000B89A8C9181608C937894089580917602D2
:102D6000882329F481E0809376020E9496160895C4
:102D70000E94AE16E0E7F0E080818E7F8083209194
:102D80007002309171024091720250917302808101
:102D900081608083B901CA0108950E94B816089520
:102DA0000E94AE16809170008E7F809370006091BB
:102DB000B20080916C0290916D02A0916E02B09170
:102DC0006F02B89905C0262F30E040E050E011C0F6
:102DD0008091B20020916C0230916D0240916E02A0
:102DE00050916F0220503F4F4F4F5F4F90E0A0E057
:102DF000B0E0282B392B4A2B5B2B8091700081602F
:102E000080937000B901CA0108950E94D0160895F8
:102E10000E94AE16E0E7F0E080818E7F8083109202
:102E2000700210927102109272021092730210924C
:102E300075021092740280818160808308950E94DF
:102E400008170895629FD001739FF001829FE00DE3
:102E5000F11D649FE00DF11D929FF00D839FF00D19
:102E6000749FF00D659FF00D9927729FB00DE11DC5
:102E7000F91F639FB00DE11DF91FBD01CF011124A2
:102E80000895991B79E004C0991F961708F0961BC6
:102E9000881F7A95C9F780950895AA1BBB1B51E13D
:102EA00007C0AA1FBB1FA617B70710F0A61BB70BBA
:102EB000881F991F5A95A9F780959095BC01CD015F
:102EC000089597FB092E07260AD077FD04D0E5DF89
:102ED00006D000201AF4709561957F4F0895F6F79B
:102EE000909581959F4F0895A1E21A2EAA1BBB1BB6
:102EF000FD010DC0AA1FBB1FEE1FFF1FA217B307C6
:102F0000E407F50720F0A21BB30BE40BF50B661FDB
:102F1000771F881F991F1A9469F76095709580959F
:102F200090959B01AC01BD01CF01089597FB092E3F
:102F300005260ED057FD04D0D7DF0AD0001C38F488
:102F400050954095309521953F4F4F4F5F4F0895D5
:102F5000F6F790958095709561957F4F8F4F9F4FB5
:102F600008952F923F924F925F926F927F928F922D
:102F70009F92AF92BF92CF92DF92EF92FF920F9308
:102F80001F93CF93DF93CDB7DEB7CA1BDB0B0FB612
:102F9000F894DEBF0FBECDBF09942A8839884888CF
:102FA0005F846E847D848C849B84AA84B984C88465
:102FB000DF80EE80FD800C811B81AA81B981CE0F5C
:102FC000D11D0FB6F894DEBF0FBECDBFED01089541
:102FD000EE0FFF1F0590F491E02D0994CF93DF933E
:102FE000BC018230910510F462E070E0A09179029A
:102FF000B0917A02ED01E0E0F0E040E050E021C065
:10300000888199818617970769F48A819B81309717
:1030100019F09383828304C090937A02809379029B
:10302000FE0134C06817790738F44115510519F0CD
:103030008417950708F4AC01FE018A819B819C01ED
:10304000E9012097E9F641155105A9F1CA01861B4E
:10305000970B049708F4BA01E0E0F0E02AC08D91E4
:103060009C91119784179507F9F46417750781F4FB
:1030700012968D919C911397309719F093838283C8
:1030800004C090937A0280937902FD0132964FC07A
:10309000CA01861B970BFD01E80FF91F619371931D
:1030A00002978D939C9343C0FD01828193819C0183
:1030B000D9011097A1F68091770290917802892B1F
:1030C00041F4809147029091480290937802809356
:1030D00077024091490250914A024115510541F44D
:1030E0004DB75EB78091450290914602481B590B3F
:1030F000209177023091780224173507B0F4CA0185
:10310000821B930B8617970780F0AB014E5F5F4FD2
:103110008417950750F0420F531F50937802409345
:103120007702F9016193719302C0E0E0F0E0CF0112
:10313000DF91CF910895CF93DF93009709F450C0AA
:10314000EC0122971B821A82A0917902B0917A0237
:10315000109709F140E050E0AC17BD0708F1BB83C0
:10316000AA83FE0121913191E20FF31FAE17BF0731
:1031700079F48D919C911197280F391F2E5F3F4F45
:103180003983288312968D919C9113979B838A8310
:103190004115510571F4D0937A02C093790220C091
:1031A00012968D919C911397AD01009711F0DC015F
:1031B000D3CFFA01D383C28321913191E20FF31F60
:1031C000CE17DF0769F488819981280F391F2E5F98
:1031D0003F4FFA01318320838A819B8193838283CD
:1031E000DF91CF9108950F931F93CF93DF938C01BD
:1031F000EB01009731F46115710519F420E030E01E
:1032000038C081E090E06EE070E00E943F19FC0160
:103210009C01009771F180E88383209771F0D38738
:10322000C28781E8838380917B0290917C02892B05
:1032300021F4F0937C02E0937B0201151105C9F0A3
:103240001187008783818260838380917D029091C2
:103250007E02892B71F4F0937E02E0937D028091CF
:103260007F0290918002892B21F4F0938002E093F9
:103270007F02C901DF91CF911F910F9108950F93A4
:103280001F93CF93DF93689F8001699F100D789FF4
:10329000100D1124C8010E94EE17EC01009729F0CF
:1032A00060E070E0A8010E945B19CE01DF91CF9130
:1032B0001F910F910895DC0101C06D934150504062
:0832C000E0F70895F894FFCF38
:1032C8003D3F0021633332002165333200216733EB
:1032D8003200536574506E743D3F00456E64506E05
:1032E800743D3F005072657373204200663D00884C
:1032F80013040400D007F4010F00020801000000C5
:103308000000000000000102020303030304040498
:10331800040404040405050505050505050505055A
:10332800050505050506060606060606060606063A
:103338000606060606060606060606060606060625
:10334800060606060607070707070707070707070A
:1033580007070707070707070707070707070707F5
:1033680007070707070707070707070707070707E5
:1033780007070707070707070707070707070707D5
:1033880007070707070808080808080808080808BA
:1033980008080808080808080808080808080808A5
:1033A8000808080808080808080808080808080895
:1033B8000808080808080808080808080808080885
:1033C8000808080808080808080808080808080875
:1033D8000808080808080808080808080808080865
:1033E8000808080808080808080808080808080855
:1033F8000808080808080808080808080808080845
:0C340800080808080820008102000000ED
:00000001FF
