:100000000C9442000C946A000C946A000C946A00F0
:100010000C946A000C946A000C946A000C946A00B8
:100020000C946A000C945D140C946A000C946A00A1
:100030000C946A000C94DA0C0C946A000C946A001C
:100040000C946A000C946A000C946A000C946A0088
:100050000C946A000C946A000C946A000C946A0078
:100060000C946A000C946A00FA09000A030A060A52
:10007000090A0C0A0F0A120A150A180A1B0A1E0A94
:100080007D157E1511241FBECFEFD4E0DEBFCDBF9E
:1000900012E0A0E0B1E0E6E3FEE302C005900D92BD
:1000A000A035B107D9F712E0A0E5B2E001C01D927A
:1000B000AD3CB107E1F710E0C2E8D0E004C0229700
:1000C000FE010E94961DC038D107C9F70E94DA02CE
:1000D0000C940E1F0C940000ECE7F0E0808180622D
:1000E00080833D98459808958EEC9FEF62E370E021
:1000F0000E945012089582E390E06EEC7FEF0E9420
:100100005012089586EA9FEF6EEC7FEF0E94501226
:1001100008958EEC9FEF66EA7FEF0E9450120895DB
:1001200080E090E060E070E00E945012089585E069
:100130000E944F07089587E00E944F07089586E0C8
:100140000E944F0708950E944F070895EF92FF9273
:100150000F931F93DF93CF93CDB7DEB7E2970FB620
:10016000F894DEBF0FBECDBF8E010F5F1F4F83E33C
:10017000E82EF12CEC0EFD1E88ED9FEF68E270E09A
:100180000E94501282E590E00E94971480E090E077
:1001900060E070E00E94501286E00E944F07F80174
:1001A000819391938F01EE15FF0531F7CE010196F2
:1001B000E2960FB6F894DEBF0FBECDBFCF91DF91B0
:1001C0001F910F91FF90EF900895AF92BF92CF9241
:1001D000DF92EF92FF920F931F935C017B016627E2
:1001E0007727681B790B0E9450120027F7FC0095B7
:1001F000102FC801B7010E94A80428E431EE4AE597
:1002000053E40E9402037B018C01CC24B7FCC09410
:10021000DC2CC601B5010E94A8049B01AC01C801F9
:10022000B7010E94FC030E940605DC01CB010E947D
:10023000971480E090E060E070E00E9450121F91FF
:100240000F91FF90EF90DF90CF90BF90AF90089507
:10025000AF92BF92CF92DF92EF92FF920F931F93D4
:100260005C017B01882799278A199B09B5010E94A7
:1002700050120027F7FC0095102FC801B7010E940B
:10028000A80428E431EE4AE553E40E9402037B010E
:100290008C01CC24B7FCC094DC2CC601B5010E94B3
:1002A000A8049B01AC01C801B7010E94FC030E9495
:1002B0000605DC01CB010E94971480E090E060E02D
:1002C00070E00E9450121F910F91FF90EF90DF900D
:1002D000CF90BF90AF9008950F931F939C018B0117
:1002E000B9010E945012C8010E94971480E090E06A
:1002F00060E070E00E9450121F910F910895AF923C
:10030000BF92CF92DF92EF92FF920F931F93B82E7E
:10031000A62E69017A01012B11F00E94220F8B2D6C
:100320006A2D0E94F20EC701B6010E94ED0F1F91C7
:100330000F91FF90EF90DF90CF90BF90AF90089516
:10034000EF92FF920F931F93CF93DF93EC010E94E4
:10035000220FEE24FF2487010EC080E060E00E949F
:10036000F20EC801B7010E94ED0F88EE93E00E94E3
:1003700097140E94220F0894E11CF11C011D111D0D
:10038000CE15DF0554F7DF91CF911F910F91FF90AC
:10039000EF9008950F931F93CF93DF93182F062F9D
:1003A000EA01232B11F00E94220F812F602F0E945F
:1003B000F20ECE010E940E10DF91CF911F910F918E
:1003C0000895EF92FF920F931F932CC00E94001587
:1003D00024EF31E040E050E00E94201D61157105DE
:1003E00081059105F9F40E94220F80E090E060E021
:1003F00070E040E051E00E94CA0180E061E00E94AC
:10040000F20E85E00E944F077C0186E00E944F07B4
:10041000E81AF90A0027F7FC0095102FC801B70168
:100420000E94ED0F80E10E948512882379F285E019
:100430000E944F078C0186E00E944F077C0189E0F3
:1004400091E00E94D70C0E191F09C8011F910F914E
:10045000FF90EF900895CF92DF92EF92FF920F936B
:100460001F93CF93DF937C018A01EB01C12C9DE7A1
:10047000D92E0E94220F80E060E00E94F20EC70198
:100480000E940E1083E191E00E940E1080E061E076
:100490000E94F20EBE01882777FD8095982F0E945A
:1004A000ED0F81E00E94D00E82E30E948512882326
:1004B000D9F782E30E94391481FF07C086E191E0F9
:1004C0000E94D70CC01BD10B20C084FF16C00E9415
:1004D000C50E0E94220F8BE191E00E94D70C84E6AA
:1004E00090E00E949714CE01DF91CF911F910F9160
:1004F000FF90EF90DF90CF90089585FF06C080E2D7
:1005000091E00E94D70CC00FD11F83E8C030D807FC
:100510004CF480E09DE7B8010E940D1DEC01C05035
:10052000DD47A7CF8DE7C130D8070CF4A2CF80E01C
:100530009DE7B8010E940D1DE601C81BD90B99CF9C
:100540000F931F938C0188EC90E062E370E04EE023
:100550000E94C9098BE490E00E9497148CE291E01C
:1005600062E370E04EE00E94C90988EC90E062E32B
:1005700070E04EE00E94C9098BE490E00E9497145D
:100580008CE291E062E370E04EE00E94C90980E0F5
:1005900060E00E94F20EC8010E940E1080E10E94ED
:1005A00085128823D9F384EF91E00E9497141F915C
:1005B0000F9108950E946C0085E291E00E94A002D4
:1005C00080ED97E00E940C168EEC9FEF62E370E0E6
:1005D0000E94501287E00E944F07CD97DCF380E025
:1005E00090E060E070E00E9450128CE291E00E9486
:1005F000971482E390E062E370E00E94501280E082
:1006000090E00895A0E2B0E0E8E0F3E00C945D1D16
:1006100069837A838B839C832D833E834F835887A2
:10062000CE010196BE01675F7F4F0E947E06CE011C
:100630000596BE016F5E7F4F0E947E0699859230BF
:1006400088F089898230C8F0943019F4823051F4EE
:1006500004C0843029F4923081F481E491E0C6C072
:10066000923049F420E09A858A89981321E02A87FC
:10067000CE010996BBC0823049F420E09A858A8970
:10068000981321E02A8BCE014196B0C02D843E8480
:100690004F8458886D887E888F88988CEE24FF243C
:1006A0008701AA24BB24650140E050E060E070E0CF
:1006B000E0E0F0E0C10181709070892BE9F0E60C78
:1006C000F71C081D191D9A01AB012A0D3B1D4C1D7D
:1006D0005D1D80E090E0A0E0B0E0E614F7040805BE
:1006E000190520F481E090E0A0E0B0E0BA01A90192
:1006F000480F591F6A1F7B1FAA0CBB1CCC1CDD1C9A
:1007000097FE08C081E090E0A0E0B0E0A82AB92AF6
:10071000CA2ADB2A3196E032F10549F0660C771CD3
:10072000881C991C5694479437942794C3CFFA8514
:10073000EA892B893C898B859C85280F391F2E5F80
:100740003F4F17C0CA0181709070892B61F01695D8
:100750000795F794E79480E090E0A0E0B0E8E82AFD
:10076000F92A0A2B1B2B76956795579547952F5F8E
:100770003F4F77FDE7CF0CC0440F551F661F771F13
:1007800017FD4160EE0CFF1C001F111F215030406F
:10079000403090E0590790E0690790E4790760F3F2
:1007A0002B8F3C8FDB01CA018F779070A070B070E7
:1007B00080349105A105B10561F447FD0AC0E1143B
:1007C000F1040105110529F0405C5F4F6F4F7F4F29
:1007D00040781A8EFE1711F081E08A8F4D8F5E8F60
:1007E0006F8F78A383E0898FCE0149960E94A90577
:1007F000A096E2E10C94791DA8E1B0E0E2E0F4E01B
:100800000C94651D69837A838B839C832D833E833F
:100810004F835887B9E0EB2EF12CEC0EFD1ECE0174
:100820000196B7010E947E068E010F5E1F4FCE011A
:100830000596B8010E947E062985223008F47EC004
:100840003989323010F4B8017CC08A859A898927A9
:100850008A87243011F0223031F4231709F06EC05A
:1008600061E471E06EC0343039F41D861E861F8647
:10087000188A1C861B8604C0323021F484E08987E4
:10088000B7015FC02B853C858B899C89281B390B60
:100890003C872B87ED84FE840F851889AD88BE8840
:1008A000CF88D88CEA14FB040C051D0540F4EE0C2F
:1008B000FF1C001F111F215030403C872B8720E078
:1008C00030E040E050E080E090E0A0E0B0E460E0A4
:1008D00070E0EA14FB040C051D0540F0282B392BB1
:1008E0004A2B5B2BEA18FB080C091D09B695A79546
:1008F00097958795EE0CFF1C001F111F6F5F7F4FB0
:100900006F31710531F7DA01C9018F779070A070EE
:10091000B07080349105A105B10561F427FD0AC0CE
:10092000E114F1040105110529F0205C3F4F4F4F00
:100930005F4F20782D873E874F87588BBE01675FBA
:100940007F4FCB010E94A9056896EAE00C94811DB7
:10095000A8E0B0E0EEEAF4E00C94661D9B01AC0167
:1009600083E08983DA01C9018827B7FD8395992738
:10097000AA27BB27B82E211531054105510519F4C9
:1009800082E089833AC08823A9F0203080E03807CC
:1009900080E0480780E8580729F460E070E080E0D4
:1009A0009FEC30C0EE24FF248701E21AF30A040B07
:1009B000150B02C079018A018EE1C82ED12CDC8290
:1009C000CB82ED82FE820F831887C801B7010E9497
:1009D0005A0501971816190684F4082E04C0EE0C67
:1009E000FF1C001F111F0A94D2F7ED82FE820F83B5
:1009F0001887C81AD90ADC82CB82BA82CE01019646
:100A00000E94A9052896E9E00C94821DACE0B0E0B4
:100A1000ECE0F5E00C946D1D69837A838B839C83F5
:100A2000CE010196BE016B5F7F4F0E947E068D81D5
:100A3000823061F1823050F1843021F48E8188233C
:100A400051F12EC02F81388537FD20C06E812F31A6
:100A500031051CF06623F9F023C08EE190E0821B83
:100A6000930B29853A854B855C8504C0569547953F
:100A7000379527958A95D2F76623B1F05095409522
:100A8000309521953F4F4F4F5F4F0EC020E030E033
:100A900040E050E009C02FEF3FEF4FEF5FE704C0A9
:100AA00020E030E040E050E8B901CA012C96E2E0D5
:100AB0000C94891DEF92FF920F931F937B018C0181
:100AC00080E0E81680E0F80681E0080780E018077B
:100AD00088F48FEFE816F1040105110531F028F0D4
:100AE00088E090E0A0E0B0E017C080E090E0A0E0F7
:100AF000B0E012C080E0E81680E0F80680E0080769
:100B000081E0180728F088E190E0A0E0B0E004C0A0
:100B100080E190E0A0E0B0E020E230E040E050E092
:100B2000281B390B4A0B5B0B04C016950795F794ED
:100B3000E7948A95D2F7F701E75BFE4F8081281B87
:100B4000310941095109C9011F910F91FF90EF909F
:100B50000895DF92EF92FF920F931F93FC01E480C0
:100B6000F58006811781D1808081823048F480E051
:100B700090E0A0E1B0E0E82AF92A0A2B1B2BA5C0DF
:100B8000843009F49FC0823021F4EE24FF248701D1
:100B900005C0E114F1040105110519F4E0E0F0E0ED
:100BA00096C0628173819FEF623879070CF05BC059
:100BB00022E83FEF261B370B2A3131052CF020E0CD
:100BC00030E040E050E02AC0B801A701022E04C086
:100BD00076956795579547950A94D2F781E090E00E
:100BE000A0E0B0E004C0880F991FAA1FBB1F2A9580
:100BF000D2F70197A109B1098E219F21A023B1232A
:100C00000097A105B10521F081E090E0A0E0B0E0FF
:100C10009A01AB01282B392B4A2B5B2BDA01C90136
:100C20008F779070A070B07080349105A105B105E8
:100C300039F427FF09C0205C3F4F4F4F5F4F04C07E
:100C4000215C3F4F4F4F5F4FE0E0F0E02030A0E0ED
:100C50003A07A0E04A07A0E45A0710F0E1E0F0E00C
:100C600079018A0127C06038710564F5FB01E158FC
:100C7000FF4FD801C7018F779070A070B07080349B
:100C80009105A105B10539F4E7FE0DC080E490E0BF
:100C9000A0E0B0E004C08FE390E0A0E0B0E0E80E98
:100CA000F91E0A1F1B1F17FF05C016950795F7941D
:100CB000E794319687E016950795F794E7948A951F
:100CC000D1F705C0EE24FF248701EFEFF0E06E2F8F
:100CD000679566276795902F9F77D794DD24D794E3
:100CE0008E2F8695492F462B582F5D29B701CA01B3
:100CF0001F910F91FF90EF90DF900895FC01DB01B1
:100D0000408151812281622F6F7770E0221F22275C
:100D1000221F9381892F880F822B282F30E0991F63
:100D20009927991F11969C93119721153105A9F5C3
:100D3000411551056105710511F482E037C082E863
:100D40009FEF13969C938E9312979A01AB0167E0E5
:100D5000220F331F441F551F6A95D1F783E08C93F0
:100D60000DC0220F331F441F551F12968D919C9169
:100D70001397019713969C938E931297203080E0DF
:100D8000380780E0480780E4580758F314962D93FD
:100D90003D934D935C93179708952F3F310579F458
:100DA000411551056105710519F484E08C9308958E
:100DB00064FF03C081E08C9312C01C9210C02F57B7
:100DC000304013963C932E93129783E08C9387E0E8
:100DD000440F551F661F771F8A95D1F770641496CC
:100DE0004D935D936D937C931797089580917C004C
:100DF00085FF05C080917900282F30E004C0209144
:100E0000780030917900C901089590932F01809363
:100E10002E0108950895089580917C0085FF05C0F6
:100E200080917900282F30E004C020917800309123
:100E30007900C9010895282F8032B0F487E88093A3
:100E40007A0080917C00982F9064662311F0806C6A
:100E500002C0892F8F77807E822B80937C008091C7
:100E60007A00806480937A00089560E00E941B07F6
:100E7000089560E00E941B0780917A0086FDFCCFF8
:100E800080917C0085FF05C080917900282F30E09B
:100E900004C02091780030917900C90108950E9422
:100EA00039070895EF92FF920F931F93CF93DF932B
:100EB000EB0160E00E941B0780917A0086FDFCCF69
:100EC0009E01EE24FF24870180917A008064809344
:100ED0007A0080917A0086FDFCCF80917C0085FFAE
:100EE00004C08091790090E004C0809178009091D6
:100EF0007900A0E0B0E0E80EF91E0A1F1B1F215088
:100F0000304011F7CE0196958795C034D10540F455
:100F10008E0D9F1D6C2F70E00E94F91C9B010DC06F
:100F2000A0E0B0E0E80EF91E0A1F1B1F9E0140E082
:100F300050E0C801B7010E94201DC901CDB7DEB73E
:100F4000E6E00C94851D87E064E170E00E945207A2
:100F500008950E945207089590932F0180932E01C7
:100F600008951F9310917C0080917C008F7D809369
:100F70007C008EE164E170E00E9452078EE164E142
:100F800070E00E9452079C0115FD04C080917C0016
:100F90008F7D03C080917C00806280937C00B901CA
:100FA0007695679580E090E06C54744D8E4E9F4F1F
:100FB00040E050E00E94201DC9011F9108950E9449
:100FC000B1070895A0E0B0E020912E0130912F01EB
:100FD00040E050E0BC01CD010E94CE1C9B01AC0161
:100FE00080917C0085FF0BC0B901CA0161587F4F19
:100FF0008F4F9F4F2FEF30E040E050E00AC0B90123
:10100000CA0161507E4F8F4F9F4F2FEF33E040E07A
:1010100050E00E94201DC90108950E9452070E94BD
:10102000E20708950E940D08089580917C0085FFD5
:1010300006C08091790090E00E94E20708958091B7
:101040007800909179000E94E207089560E00E9484
:101050001B0780917A0086FDFCCF0E941508089539
:101060000E94260808950E941508089587E064E10B
:1010700070E00E9452070E94E20708950E94E20772
:1010800008951F9310917C0080917C008F7D809348
:101090007C0086E064E170E00E940D089C0115FD73
:1010A00004C080917C008F7D03C080917C008062B1
:1010B00080937C00C901880F991F820F931F880FAE
:1010C000991F880F991F8A5792406DE070E00E9427
:1010D0000D1DCB011F9108950E94410808951F9393
:1010E00010917C0080917C008F7D80937C0086E055
:1010F00064E170E00E940D089C0115FD04C0809120
:101100007C008F7D03C080917C00806280937C0096
:1011100084E190E0AC01249FC001259F900D349F95
:10112000900D11248E529F4167E270E00E940D1DC8
:10113000CB011F9108950E946F0808951F9310918D
:101140007C0080917C008F7D80937C0086E06AE04B
:1011500070E00E940D08AC0115FD04C080917C0078
:101160008F7D03C080917C00806280937C009A0117
:10117000220F331F240F351F2F5F3F4F36952795C2
:10118000C9011F9108950E949E0808951F93109110
:101190007C0080917C008F7D80937C0086E06AE0FB
:1011A00070E00E940D08AC0115FD04C080917C0028
:1011B0008F7D03C080917C00806280937C009A01C7
:1011C000220F331F240F351FC9011F9108950E945C
:1011D000C60808950E94C60808950895089580914C
:1011E0003B01882339F020E080916E0290916F02DC
:1011F000892B09F021E0822F089510926F0083E27D
:101200008093800081E1809381001092820080E1D0
:1012100097E2909389008093880010928B0010923F
:101220008A00229A78940895A0E0B0E0EAE1F9E01B
:101230000C94651D8C015B01C42E80916D02882386
:1012400029F481E080936D020E94FD0810923B0119
:1012500017FD03C0DD24D39403C01F772AE0D22EEC
:1012600080918100E82EFF2488EFE822FF2488EC9B
:10127000D89EC001112480179107C8F4E80197E2B5
:101280000131190710F0C0E1D7E2BE0176956795EC
:1012900080E090E06058794687469F4F9E0140E08D
:1012A00050E00E94201D890181E090E025C088E285
:1012B000D89E802D1124C82FD0E0C017D10708F484
:1012C000E801BE01769567959E0140E050E09AE006
:1012D000D91639F480E090E0605E734481449F4FFA
:1012E00006C080E090E060537D4E8C4E9F4F0E9480
:1012F000201D890182E090E0E82AF92A9AE0D916B7
:1013000039F4CE0105966AE070E00E94F91CEB0109
:1013100083E0C83ED80711F4B5010FC0BE0180E0DC
:1013200090E0950140E050E00E94CE1C28EE33E0B2
:1013300040E050E00E94421DB90110926F00E0921F
:1013400081001093890000938800E0918800F0915B
:101350008900AC2DA03108F0AFE080E190E08A1B5D
:10136000910902C0F695E7958A95E2F7F0938B0014
:10137000E0938A00709355026093540286B38FEF16
:1013800086BB81E080936F00CDB7DEB7EAE00C94B6
:10139000811D0E9414090895CF93DF93EB018F3FC5
:1013A00011F0442329F488EE93E0BE0140E067C0C9
:1013B000813110F420E005C0282F2051203608F09C
:1013C0002FE5822F6CE00E94ED1C382F682F70E013
:1013D00084EF9FEF689FF001699FF00D789FF00DFB
:1013E0001124E20FF11DEC30F10538F4EC5CFF4FF5
:1013F0000C94941D8CE991E023C080E090E020C023
:1014000085EB91E01DC08FEC91E01AC08AEE91E06F
:1014100017C087E092E014C086E292E011C087E432
:1014200092E00EC089E692E00BC08EE892E008C020
:1014300085EB92E005C08EED92E002C08AE093E079
:10144000373071F002C0880F991F6A95E2F7323089
:1014500020F005966AE070E00BC0805090480BC009
:1014600036E0880F991F3A95E1F7029665E070E043
:101470000E94F91CCB01403108F04FE0BE010E94F0
:101480001409DF91CF9108950E94CC0908958091AD
:101490003B01882339F020E080916E0290916F0229
:1014A000892B09F021E0822F089510926F00E1E866
:1014B000F0E08081887F8160808380E197E2909373
:1014C00089008093880010928B0010928A0081E03E
:1014D00080933B0110926F0210926E0208950E9459
:1014E000550A089530915202E0916E02F0916F0218
:1014F000332311F0249101C02081822F81548A313D
:1015000008F4205E203259F480916E0290916F02AF
:10151000019690936F0280936E02019729F7822FB4
:101520000895CF93DF930E94720A282FC0E0D0E085
:101530001DC0CE0153E0880F991F5A95E1F7CC0FDB
:10154000DD1FC80FD91F822F992787FD9095C80FDF
:10155000D91FE09780916E0290916F02019690934F
:101560006F0280936E020E94720A282F822F80538E
:101570008A30F8F2CE01DF91CF910895A0E0B0E07B
:10158000E4ECFAE00C94631D80903001B0905002BE
:10159000BB2021F060915102662399F4A090510282
:1015A0000091350110913601E0903101F090320147
:1015B000C0913301D0913401C0903701D0903801EF
:1015C00008C18FEF70E040E00E94CC0910925102F8
:1015D000CBC194E0892EBB2404EF11E084E0E82E17
:1015E000F12CC0EDD7E0B4E09B2EAFE0CA2ED12C99
:1015F0000E94720A282F80916E0290916F020196CC
:1016000090936F0280936E02263609F498C02736B5
:10161000CCF42236A1F1233674F42E3361F12F334A
:1016200034F42132B1F22C3309F00BC126C021363B
:1016300009F007C121C1243609F451C025360CF048
:1016400066C035C02F3609F4C1C0203754F42C369B
:1016500009F4A5C02D3609F4A6C0273609F0F1C05B
:1016600086C0243709F4D1C0263709F4E6C02237F2
:1016700009F0E7C0B0C08394BBCF8A94B9CFA092E1
:101680005102B09250021093360100933501F0924E
:101690003201E0923101D0933401C0933301909232
:1016A0003001D0923801C09237012BE0FCC0A092EB
:1016B0005102B09250021093360100933501F0921E
:1016C0003201E0923101D0933401C0933301909202
:1016D0003001D0923801C092370120E0E4C0A092DE
:1016E0005102B09250021093360100933501F092EE
:1016F0003201E0923101D0933401C09333019092D2
:101700003001D0923801C092370122E0CCC0A092C3
:101710005102B09250021093360100933501F092BD
:101720003201E0923101D0933401C09333019092A1
:101730003001D0923801C092370124E0B4C0A092A9
:101740005102B09250021093360100933501F0928D
:101750003201E0923101D0933401C0933301909271
:101760003001D0923801C092370125E09CC0A09290
:101770005102B09250021093360100933501F0925D
:101780003201E0923101D0933401C0933301909241
:101790003001D0923801C092370127E084C00E9406
:1017A000910A7C0144C00E94720A8C3611F4BB2459
:1017B00003C0AA24BB24B39480916E0290916F025F
:1017C000019690936F0280936E0212CF0E94910A4D
:1017D000882E982C0DCFA0925102B09250021093F7
:1017E000360100933501F0923201E0923101D0933D
:1017F0003401C093330190923001D0923801C092ED
:10180000370120E0FF24F3944FC00E94910ABC01ED
:1018100080EC9DE50E94F91CCB01EB01F3E0CC0FBD
:10182000DD1FFA95E1F7880F991FC80FD91FCE0168
:10183000B7010E94F91C8B01DBCE0E94910A6C015A
:10184000D7CEA0925102B09250021093360100936D
:101850003501F0923201E0923101D0933401C0930E
:10186000330190923001D0923801C092370110922A
:101870006F0210926E0278C0A0925102B092500294
:101880001093360100933501F0923201E09231015C
:10189000D0933401C093330190923001D09238013B
:1018A000C092370129E0FF248CE0889EC0011124FA
:1018B000E22EE80E0AC080916E0290916F020196AE
:1018C00090936F0280936E02E3940E94720A8B32AF
:1018D00091F3833281F30CC080916E0290916F027C
:1018E000019690936F0280936E02EA940E94720AAE
:1018F0008D3291F3C0913501D091360181538830FA
:1019000058F400913301109134010E94910ABC01F6
:10191000C8010E94F91CEB018E010BC080916E0280
:1019200090916F02019690936F0280936E02C00FA8
:10193000D11F169507950E94720A8E3279F3809115
:101940005002882339F0CE019695879580935102F5
:10195000C81BD109FF2011F0EE24EA948E2DBE01A0
:10196000409137010E94CC09CDB7DEB7ECE00C9472
:101970007F1D10926F0090936F0280936E0281E042
:1019800080935202109251020E94BE0A08950E9452
:10199000B90C089510926F0090936F0280936E02BD
:1019A00010925202109251020E94BE0A08950E94A3
:1019B000CA0C08951F920F920FB60F9211242F9305
:1019C0003F934F935F936F937F938F939F93AF93C7
:1019D000BF93EF93FF93809154029091550201972A
:1019E0009093550280935402019611F510926F0066
:1019F000789480918100887F81608093810080E16C
:101A000097E2909389008093880010928B00109247
:101A10008A0081E080933B0180916E0290916F0279
:101A2000892B31F080915302882311F40E94BE0A61
:101A3000FF91EF91BF91AF919F918F917F916F91A6
:101A40005F914F913F912F910F900FBE0F901F907C
:101A5000189510926F0080913B01882341F080918E
:101A60006E0290916F02892B11F00E94BE0A81E0F4
:101A700080936F0020E080916E0290916F02892B1D
:101A800009F021E0822F089580935302882311F4F6
:101A90000E94290D08950E94440D08950E94290D69
:101AA00008950895089580E090E00895EF92FF92E0
:101AB0000F931F936AB157985A98289AE0905A0248
:101AC000F0905B0200915C0210915D0220E030E03A
:101AD00041E050E0CA016F9364E06A95F1F76F91BD
:101AE0000197C9F75C9ACA016F9364E06A95F1F7B0
:101AF0006F910197C9F789B15C98FA016F9364E01F
:101B00006A95F1F76F913197C9F75C9AFA016F9373
:101B100064E06A95F1F76F913197C9F75C9887FF98
:101B20000BC02C5F3F4FC901A0E0B0E08E159F05B0
:101B3000A007B10708F4CECF6AB91F910F91FF90AB
:101B4000EF90089565B190E0AC0141705070440F82
:101B5000551F9C012670307053E0220F331F5A9599
:101B6000E1F7422B6D7C462B45B92BB18870907004
:101B700034E0880F991F3A95E1F72F77282B2BB97E
:101B80005C9A81E090E0FC016F9364E06A95F1F764
:101B90006F913197C9F75C986F9364E06A95F1F79C
:101BA0006F910197C9F7089580915602909157025D
:101BB000009711F00E94471E8091390190E0019733
:101BC00020913A0130E0AC01429FC001439F900D4B
:101BD000529F900D11240E949A1D9093570280935A
:101BE0005602009729F160E070E208C0E0915602C9
:101BF000F0915702E40FF51F70836F5F462F50E09E
:101C00008091390190E0019720913A0130E0FC0188
:101C1000E29FC001E39F900DF29F900D11244817A1
:101C2000590724F387E190E163E57DE00E949F1E60
:101C3000089580933A01609339010E94D40D08956C
:101C400080933A01609339010E94D40D08950E9457
:101C5000D40D089580E197E2A0E0B0E080935A02AD
:101C600090935B02A0935C02B0935D02529A209A1B
:101C7000549A8EE190E00E94BA1483E00E945D11B4
:101C800086E090E00E94BA1483E00E945D1182E039
:101C900090E00E94BA1483E00E945D1182E090E01F
:101CA0000E94BA1482E00E945D1182E090E00E94DE
:101CB000BA1488E20E94A70E88E00E94A70E81E075
:101CC0000E94A70E86E00E94A70E8CE00E94A70E3D
:101CD000089580915E02882329F481E080935E025A
:101CE0000E942A0E0895BF92CF92DF92EF92FF9248
:101CF0000F931F93082F162FF42E0E94690E0E9437
:101D0000560DB4B0C5B0DAB0EBB02898112311F07D
:101D10005A9A01C05A9884B1826384B9579A81E073
:101D2000F81629F0802F82958F700E94A20D802FC7
:101D30008F700E94A20DDAB8EBB8B4B8C5B81F9185
:101D40000F91FF90EF90DF90CF90BF90089560E0EB
:101D500042E00E94730E08950F931F93082F162FD1
:101D600008C0002311F480E101C084E10E94A70EA5
:101D700011501123B1F71F910F9108950E94AC0EDD
:101D800008958CE00E94A70E08950E94C10E089548
:101D9000813011F48FE001C08EE00E94A70E0895FB
:101DA0000E94C80E0895A4E0B0E0E9EDFEE00C94B6
:101DB0006B1D182F062F80E8898380EC8A8384E9C5
:101DC0008B8384ED8C83FE01E60FF11D8181810FF1
:101DD0000E94A70E10935902009358022496E4E043
:101DE0000C94871D0E94D30E089581E00E94A70ED7
:101DF0008091560290915702892B19F160E070E2B0
:101E000008C0E0915602F0915702E40FF51F70836D
:101E10006F5F462F50E08091390190E0019720914B
:101E20003A0130E0FC01E29FC001E39F900DF29F78
:101E3000900D11244817590724F31092590210925B
:101E4000580208950E94F50E089561E042E00E9454
:101E5000730E08950F931F93CF93DF9300E010E864
:101E6000C82FD0E0812F90E08C239D23892B11F087
:101E700081E301C080E30E94250F0F5F083011F05D
:101E80001695F0CFDF91CF911F910F9108950E9489
:101E90002A0F08958A3010F4805D01C0895C0E9489
:101EA000250F08951F93182F82958F700E944A0F57
:101EB000812F8F700E944A0F1F9108951F93182F32
:101EC000892F0E94520F812F0E94520F1F91089557
:101ED0000E945E0F08950E94520F08956F927F92A4
:101EE0008F929F92AF92BF92CF92DF92FF920F9309
:101EF000DF93CF93CDB7DEB72A970FB6F894DEBF46
:101F00000FBECDBF5B016C010AE03E010894611C6D
:101F1000711CFA2CC601B5012AE030E040E050E027
:101F20000E94201DC901DA015C016D0101504301CD
:101F3000800E911C80E3F80EC601B5012AE030E066
:101F400040E050E00E94CE1CF61AF401F082A11489
:101F5000B104C104D104E9F608C0F601E00FF11D97
:101F600080810E94250F0F5F04C06E010894C11C80
:101F7000D11C0A3090F32A960FB6F894DEBF0FBE3C
:101F8000CDBFCF91DF910F91FF90DF90CF90BF90A9
:101F9000AF909F908F907F906F9008950E946E0FEA
:101FA0000895EF92FF920F931F937B018C0197FF8F
:101FB0000BC010950095F094E094E11CF11C011DFC
:101FC000111D8DE20E94250FC801B7010E946E0FFE
:101FD0001F910F91FF90EF9008950E94D10F0895E7
:101FE000CF93DF93EC0103C00E94250F2196FE01E1
:101FF00084918823C9F7DF91CF9108950E94F00F53
:102000000895CF93DF93EC0103C021960E94250F22
:1020100088818823D1F7DF91CF9108950E94011024
:1020200008950E94250F08950E94250F0895A0E0AD
:10203000B0E0EDE1F0E10C94671DE82E80915602CE
:1020400090915702892B09F405C12AE0E21609F4A0
:1020500046C038E0E316C9F480915902815080935C
:1020600059028F3F51F48091580281508093580259
:1020700080913A01815080935902809158028F3F9C
:1020800009F0E2C010925802DDC08E2D0E94250F8B
:10209000209158022223C9F030E021503040809135
:1020A0003A0190E0AC01249FC001259F900D349F20
:1020B000900D112420915902E0915602F09157029F
:1020C000E80FF91FE20FF11DE082809159028F5F46
:1020D0008093590290913A01891709F0BBC0409151
:1020E0005802242F30E08091390190E001972817A1
:1020F000390709F0A4C0C0E0D0E044C080E06C2FF4
:102100000E94D30EFF246E010894C11CD11C35C05F
:102110000F2D10E090E09C01C29FC001C39F900D65
:10212000D29F900D1124E0915602F0915702E00FDA
:10213000F11FE80FF91F80810E94250FE0915602E0
:10214000F091570280913A0190E0C89FD001C99F59
:10215000B00DD89FB00D1124E00FF11FAE0FBF1FBF
:10216000AC01C49EC001C59E900DD49E900D11245B
:10217000E80FF91F80818C93F39480913A01F8164F
:1021800038F2E60160913901862F90E00297C81776
:10219000D9070CF4B3CF623008F440C0625080E03D
:1021A0000E94D30EFF24E0E2DE2E34C00F2D10E09B
:1021B0008091390190E0029730E0AC01429FC0016C
:1021C000439F900D529F900D1124E0915602F09183
:1021D0005702E00FF11FE80FF91F80810E94250FC1
:1021E0002091390130E02250304080913A0190E056
:1021F000AC01249FC001259F900D349F900D1124A8
:10220000E0915602F0915702E00FF11FE80FF91F1D
:10221000D082F39420913A01F21640F26091390194
:10222000615080E00E94D30E00E004C080E20E9472
:10223000250F0F5F80913A010817C0F303C04F5F6D
:1022400040935802109259028091590260915802AD
:102250000E94D30E2E2D332727FD3095C901CDB70F
:10226000DEB7E8E00C94831DEF92FF920F931F936B
:10227000CF93DF937C01062F10E0F3E0000F111FD6
:10228000FA95E1F7C0E0D0E09E01200F822F806434
:102290000E94A70EF701EC0FFD1FE4918E2F0E9404
:1022A000250F2196C830D10579F7CDB7DEB7E6E026
:1022B0000C94851D0E943411089560E041E00E9455
:1022C000730E08950F931F93CF93DF93082F162F4C
:1022D000EA010BC0002311F488E101C08CE10E94E7
:1022E000A70ECE010E94BA141150112399F7DF9165
:1022F000CF911F910F9108950E9462110895282F88
:10230000883068F481E090E002C0880F991F2A9518
:10231000E2F7282FAAE2B0E0EBE2F0E029C08E302D
:1023200080F430E02850304081E090E002C0880F17
:10233000991F2A95E2F7282FA4E2B0E0E5E2F0E049
:1023400017C0853130F020E0A0E0B0E0E0E0F0E040
:102350000FC030E02E50304081E090E002C0880F86
:10236000991F2A95E2F7282FA7E2B0E0E8E2F0E013
:102370006F3F19F48081822709C0662319F080819C
:10238000822B04C09081822F8095892380838C9139
:10239000822B8C93089508950895E0EBF0E083EF8D
:1023A0008083808184BDE1EBF0E082E080838081E6
:1023B00085BDE4EBF0E010828081E3EBF0E0808308
:1023C000808188BD88B587BD86E060E00E947F116E
:1023D00085E060E00E947F118BE060E00E947F1149
:1023E00083E060E00E947F11089580915F0288235E
:1023F00029F481E080935F020E94CD110895CF936C
:10240000DF93EC010E94F511D7FD02C020E004C06B
:10241000D095C195DF4F21E0CE01CF3FD10519F016
:1024200014F08FEF90E0222319F018BC87BD02C092
:1024300088BD17BCDF91CF9108950E94FF110895C8
:10244000CF93DF93EC010E94F511D7FD02C020E08D
:1024500004C0D095C195DF4F21E0CE01CF3FD1051B
:1024600019F014F08FEF90E0222329F01092B400BD
:102470008093B30004C08093B4001092B300DF9146
:10248000CF9108950E94201208950F931F938B01FE
:102490000E94FF11C8010E9420121F910F91089500
:1024A0000E9445120895089508958091600288233E
:1024B00091F481E08093600284B18D7C84B985B110
:1024C000826385B985E090E06F9364E06A95F1F7E7
:1024D0006F910197C9F7089584B18D7C84B985B156
:1024E000826385B985E090E06F9364E06A95F1F7C7
:1024F0006F910197C9F708951F93182F0E945512E5
:1025000083B1809581231F9108950E947C120895C4
:10251000CF92DF92EF92FF920F931F93C82ED3B00A
:102520000E94EB147B018C010E945512809166027F
:10253000813011F1813038F0823009F444C08330A9
:1025400009F08BC066C02C2D30E08D2D90E0809579
:10255000909528233923232B09F47FC0D094DC20C5
:10256000D0926102E0926202F092630200936402F0
:102570001093650281E06FC08091620290916302C6
:10258000A0916402B0916502E81AF90A0A0B1B0BCC
:102590008FE0E816F1040105110508F45EC04091D2
:1025A00061028D2D90E080959095242F30E082235C
:1025B0009323892B59F182E080936602D094D42230
:1025C000D09261024AC040916102642F70E02D2DCB
:1025D00030E0CB0182239323892B79F083E0809331
:1025E00066024D2140936102E0926202F092630222
:1025F000009364021093650230C08C2D90E020950A
:102600003095822393236817790739F11092660277
:1026100024C08091620290916302A0916402B09103
:102620006502E81AF90A0A0B1B0B8FE0E816F104A1
:102630000105110590F040916102842F90E02D2D4D
:1026400030E082239323892B29F010926602842F95
:102650008D2104C082E08093660280E01F910F917B
:10266000FF90EF90DF90CF9008950E948812089518
:10267000CF92DF92EF92FF920F931F93C82ED3B0A9
:10268000D0940E94EB147B018C010E945512809122
:102690006C02813011F1813038F0823009F444C08D
:1026A000833009F08BC066C02C2D30E08D2D90E07A
:1026B0008095909528233923232B09F47FC0D0944B
:1026C000DC20D0926702E0926802F09269020093E7
:1026D0006A0210936B0281E06FC080916802909152
:1026E0006902A0916A02B0916B02E81AF90A0A0B1A
:1026F0001B0B8FE0E816F1040105110508F45EC01C
:10270000409167028D2D90E080959095242F30E0C8
:1027100082239323892B59F182E080936C02D09419
:10272000D422D09267024AC0609167022D2D30E01A
:10273000462F50E0C90184239523892B79F083E04B
:1027400080936C02D622D0926702E0926802F092E7
:10275000690200936A0210936B0230C08C2D90E0E6
:1027600020953095822393234817590739F1109209
:102770006C0224C08091680290916902A0916A0263
:10278000B0916B02E81AF90A0A0B1B0B8FE0E816EE
:10279000F1040105110590F0409167028D2D90E044
:1027A000242F30E082239323892B29F010926C028E
:1027B0008D2D842304C082E080936C0280E01F9101
:1027C0000F91FF90EF90DF90CF9008950E94381303
:1027D00008951F93CF93DF93182F0E945512C12F96
:1027E000D0E083B190E08C239D23892BD1F38AE044
:1027F00090E00E94BA1483B190E08C239D23892B32
:1028000081F383B18123DF91CF911F9108950E94BD
:10281000E91308951F93CF93DF93182F0E94551249
:10282000C12FD0E083B190E0809590958C239D23BB
:10283000892BC1F38AE090E00E94BA1483B190E042
:10284000809590958C239D23892B61F383B180958E
:102850008123DF91CF911F9108951F930E940A1445
:10286000182F0E94E913812F1F9108950E942D14A3
:1028700008950E940A14089508950895A2E0B0E012
:10288000E4E4F4E10C946D1D2091C3023091C40284
:10289000CE0101962115310519F48D5C924002C0DC
:1028A000821B930B9A83898389819A812296E2E025
:1028B0000C94891D0E943E1408952F928F939F932C
:1028C0002FB68091710290917202019680937102ED
:1028D0009093720290E080917302891F809373023B
:1028E000909179029C5F9093790280917802805157
:1028F0009742C0F09093790280937802809174029D
:10290000909175020196809374029093750290E005
:1029100080917602891F8093760280917702891FC9
:10292000809377022FBE9F918F912F90189528EE5C
:1029300033E009C0F9016F9364E06A95F1F76F9194
:102940003197C9F701970097A9F708956F5F7F4FF7
:102950008F4F9F4F660F771F881F991F25E030E02C
:1029600040E050E00E94201DCA01B90108950E9474
:10297000A614089528EE33E009C0F9016F9364E0CE
:102980006A95F1F76F913197C9F701970097A9F709
:102990000895A0E7B0E08C918E7F8C93E0EBF0E09F
:1029A000808183608083E1EBF0E08081807F8083A1
:1029B000808182608083B89A8C9181608C937894B6
:1029C000089580917A02882329F481E080937A0225
:1029D0000E94C91408950E94E114E0E7F0E08081AC
:1029E0008E7F80832091740230917502409176022F
:1029F00050917702808181608083B901CA01089576
:102A00000E94EB1408950E94E114809170008E7F63
:102A1000809370006091B200809170029091710279
:102A2000A0917202B0917302B89905C0262F30E0D0
:102A300040E050E011C08091B200209170023091CE
:102A40007102409172025091730220503F4F4F4FDC
:102A50005F4F90E0A0E0B0E0282B392B4A2B5B2B96
:102A600080917000816080937000B901CA0108955F
:102A70000E94031508950E94E114E0E7F0E08081D0
:102A80008E7F8083109274021092750210927602EB
:102A90001092770210927902109278028081816000
:102AA000808308950E943B15089580917B02909148
:102AB0007C02089580917D0290917E02089580911C
:102AC0007F0290918002089580918102909182020C
:102AD000089580917B0290917C02089580917D02FF
:102AE00090917E02089580917F02909180020895D6
:102AF0008091810290918202089508958BE792E07F
:102B00000E943E1B08958BE792E00E94651A08958B
:102B10009C01462F8BE792E0B90121E00E94651AE3
:102B200008959C01462F8BE792E0B90120E00E94B6
:102B3000651A08958BE792E00E94A81908959C01F8
:102B4000462F8BE792E0B9010E94A81908958BE700
:102B500092E00E945E1C0895682F8BE792E00E942D
:102B60005E1C08958BE792E00E94CC1608958BE7D7
:102B700092E00E94CC1608958BE792E00E94EB163B
:102B800008958BE792E00E94EB1608959C01462F72
:102B90008BE792E0B9010E94381908959C01462FF5
:102BA0008BE792E0B9010E94381908950F93DF93E3
:102BB000CF9300D000D00F92CDB7DEB79C01962FF7
:102BC000DE011196ECE3F1E085E001900D92815079
:102BD000E1F7BE016F5F7F4F992329F08BE792E009
:102BE00045E00FEF04C08BE792E045E003E10E946F
:102BF00053178BE792E00E94CC160E943B150F9072
:102C00000F900F900F900F90CF91DF910F9108953B
:102C100061E00E94D615089560E00E94D6150895DF
:102C20008BE792E00E9402170895FC011182108246
:102C3000138212821582148216826830A0F489E20F
:102C400090E0918380838BE290E0938382838AE299
:102C500090E09583848381E090E002C0880F991F03
:102C60006A95E2F719C06E30C8F483E290E0918370
:102C7000808385E290E09383828384E290E0958371
:102C80008483262F30E02850304081E090E002C05D
:102C9000880F991F2A95E2F7868308956531C0F45D
:102CA00086E290E09183808388E290E09383828340
:102CB00087E290E095838483262F30E02E503040C9
:102CC00081E090E002C0880F991F2A95E2F7868381
:102CD0000895A091C102B091C2021C96ED91FC91A1
:102CE0001D97309779F0808119969C911997892BBF
:102CF00080831A96ED91FC911B97808119969C9187
:102D0000892B80830895E091C102F091C2028081F5
:102D100091810895E091C102F091C2028281938174
:102D20000895E091C102F091C202848195810895D5
:102D3000E091C102F091C202868197810895A7E0D7
:102D4000B0E0E5EAF6E10C946B1D8C01FC01118208
:102D500010821382128215821482178216826131C8
:102D600018F080E1808702C0FC016087F801208BA9
:102D7000CE010196642F0E9415168F81F80181877C
:102D80008B819C81938782878D819E8195878487A3
:102D90002796E4E00C94871DDC011C96ED91FC91D4
:102DA0001D97309781F0808119969C911997892BF6
:102DB00080831A96ED91FC911B97908119968C91C6
:102DC00080958923808308958091C1029091C202E9
:102DD0000E94CC160895DC011C96ED91FC911D9784
:102DE000309779F0808119969C911997892B80836F
:102DF0001A96ED91FC911B97808119969C91892BD5
:102E000080830895DC0120E040C0ED91FC91119792
:102E1000309761F0822F90E0880F991FE80FF91F1B
:102E20001E968D919C911F97918380831496ED91AE
:102E3000FC911597309761F0822F90E0880F991FD1
:102E4000E80FF91F1E968D919C911F9791838083A7
:102E50001296ED91FC911397309741F0822F90E0FC
:102E6000880F991FE80FF91F118210821696ED91B5
:102E7000FC911797309741F0822F90E0880F991FAF
:102E8000E80FF91F118210822F5F18968C91189706
:102E9000281708F4BACF08958091C1029091C20218
:102EA0000E9402170895A7E0B0E0E9E5F7E10C946D
:102EB0005D1D6C012B01642F7901402F20E00E94E1
:102EC0009F16C6018F5B9F4FFC011082D601AE5B3F
:102ED000BF4F1C9296012D5B3F4FF9011082F60106
:102EE000F786E686EE241E010894211C311C390168
:102EF0004D015C0128C00E2D10E0F201E00FF11F22
:102F0000C10160810E9415162F81F601E00FF11FAB
:102F1000218B89819A81000F111F0C0D1D1DF80155
:102F200092A381A38332910511F4F50108C0863282
:102F3000910511F4F40103C0899721F4F301808114
:102F4000822B8083E394F6018085E816A0F2279611
:102F5000E2E10C94791D0F930E9453170F9108958D
:102F60000F930E9453170F910895A0E0B0E0EBEB90
:102F7000F7E10C94631DEC015B01CF5BDF4F4991DE
:102F8000A9918880C354D04090E009C0E92FF0E0B7
:102F9000EE0FFF1FEA0DFB1D118210829F5F8885D7
:102FA0009817A0F384B1CF5BDF4F3991832B84B99D
:102FB00087B12991822B87B98AB19881C354D040B7
:102FC000892B8AB985B1832B85B988B1822B88B9C1
:102FD0008BB1892B8BB9EAE0F0E06F9364E06A95DE
:102FE000F1F76F913197C9F784B13095832384B994
:102FF00087B12095822387B98AB1909589238AB9B0
:1030000085B1382335B988B1282328B98BB19823E5
:103010009BB99090B000C090B1008091B0008360E7
:103020008093B00082E08093B100D090B20060E065
:1030300070E03AC05091B2005D19650F711DE3B0A8
:10304000E41609F04FC0F6B0FA1609F04BC089B18A
:10305000881509F047C025C0A42FB0E09D01220FBC
:10306000331F8501020F131FF80180819181892B85
:10307000A1F42C0F3D1FF90181A192A1FC01208137
:1030800030E0AC0FBD1F51968C9190E0282339237E
:10309000232B19F4F801718360834F5F88854817EB
:1030A000D8F2D50E4E2DAF2D8E859F8568177907E6
:1030B00008F29092B000C092B10020E00FC0E22F61
:1030C000F0E0EE0FFF1FEA0DFB1D80819181892B3F
:1030D00021F48E859F85918380832F5F88852817B3
:1030E00070F305C0E3B0F6B089B040E0D7CFCDB7FC
:1030F000DEB7ECE00C947F1DEF92FF920F931F93CD
:10310000CF93DF93EC017B01122F642F402F21E03E
:103110000E949F1619A31AA230E041E050E013C0AC
:10312000E32FF0E0D701AE0FBF1FEC0FFD1F8C9116
:10313000818BCA010C9002C0880F991F0A94E2F794
:10314000282B2AA33F5F88852AA1381748F32F73BD
:103150002AA38FEF93E09F878E87CDB7DEB7E6E097
:103160000C94851D0F930E947C180F9108950F9366
:103170000E947C180F910895A0E0B0E0E2ECF8E125
:103180000C94671DEC018B01D0907C00E0907A00DC
:10319000C7B0F8B080917A0086FDFCCF90E009C0FE
:1031A000E92FF0E0EE0FFF1FE00FF11F11821082F8
:1031B0009F5F88859817A0F397B18AA1809598237F
:1031C00097B998B1892388B987E880937A0050E04D
:1031D00025C0FE01E40FF11D8189806480937C008D
:1031E00080917A00806480937A0080917A0086FDD5
:1031F000FCCFE42FF0E0EE0FFF1FE00FF11F209156
:1032000078003091790080819181820F931F9183A2
:1032100080834F5F88854817E0F25F5F89A1581768
:1032200010F040E017C040E0F5CFE42FF0E0EE0FE3
:10323000FF1FE00FF11F69A1862F90E095958795FC
:1032400020813181820F931F70E00E94F91C7183ED
:1032500060834F5F8885481740F3D0927C00E092EE
:103260007A00F8B8C7B8CDB7DEB7E8E00C94831D94
:10327000A0E2B0E0EEE3F9E10C94671D8C017B0164
:10328000D42E842F81508230B0F4D8011C96ED9159
:10329000FC911D97309779F0808119969C91199730
:1032A000892B80831A96ED91FC911B97808119964A
:1032B0009C91892B8083F8018089882389F4C80137
:1032C000B7010E94B517C8010E94CC16F2E0DF16C4
:1032D000D9F5C801BE016F5F7F4F0E94B51710C0BE
:1032E000C801B7010E94BC18C8010E94CC1682E038
:1032F000D81651F5C801BE016F5F7F4F0E94BC1800
:1033000040E0BE016F5F7F4F1AC0E42FF0E0EE0F88
:10331000FF1F6701CE0EDF1EE60FF71FD8011E96B6
:103320002D913C911F9780819181281B390BF601CB
:1033300080819181820F931F918380834F5FD80199
:1033400018968C91481708F3A096E8E00C94831D1A
:10335000A0E0B0E0EEEAF9E10C94641DEC01162F58
:10336000072F942E22E0421711F0442351F48C8150
:103370009D81892B09F4A4C08E819F81892B09F43A
:103380009FC0892D8150823050F488819981892B8A
:1033900009F496C08A819B81892B09F491C0CE01E2
:1033A000612F702F492D0E943819812F902F9C0179
:1033B0005901CC24DD2400E010E07CC081E09816A7
:1033C00069F4EA81FB81E00FF11F20813181E881FE
:1033D000F981E00FF11F408151813DC0AC81BD8179
:1033E000992059F4EE81FF81E00FF11F2081318196
:1033F000A00FB11F4D915C912EC0A00FB11F8D91F8
:103400009C91E881F981E00FF11F20813181EE85E7
:10341000FF858217930710F4AF0105C0A9014E0F75
:103420005F1F481B590BEE81FF81E00FF11F608188
:103430007181EA81FB81E00FF11F80819181EE852E
:10344000FF856817790710F49F0105C09C012E0FB6
:103450003F1F261B370B7901E41AF50A01F1F5012C
:103460006081718180E090E09A0140E050E0621B51
:10347000730B840B950B28EE33E040E050E00E9484
:10348000CE1C970140E050E00E94421DC901F3E0CC
:10349000293E3F0714F088EE93E097FF02C080E0DA
:1034A00090E0F501819391935F010894C11CD11CB8
:1034B0000E5F1F4F888590E0C816D9060CF47ECFAA
:1034C000CDB7DEB7EBE00C94801DA4E0B0E0EBE6F6
:1034D000FAE10C945D1D8C01F62EE72E2A830E94E2
:1034E000A819D8011896BC91B9832F2D3E2DC9017A
:1034F0008C01552444246624772443011C821B82BA
:10350000AA24BB246501B8EE2B2EB3E03B2E32C0BB
:10351000F801E080F180FA81FF2321F091012E195A
:103520003F09790139ECE316F10414F04424439483
:1035300083E3E816F1049CF0B701882777FD8095B6
:10354000982FA60195010E94CE1C660E771E881E3C
:10355000991EAB81BC81AE0DBF1DBC83AB83539460
:1035600088EE93E0A0E0B0E0A80EB91ECA1EDB1EF4
:103570000E5F1F4F9981591658F2442021F5692F8B
:1035800070E084EF91E0DC016A9FC0016B9F900DB9
:103590007A9F900D1124845F91402091BF02309159
:1035A000C002281739071CF440E050E01AC088EE2A
:1035B00093E0689FA001699F500D789F500D1124E2
:1035C000485E53400EC0EB81FC819F0140E050E01B
:1035D000C401B3010E94201DA9013093C0022093B1
:1035E000BF02CA012496E2E10C94791D9C01462F8A
:1035F0008091C1029091C202B90121E00E94651A36
:1036000008959C01462F8091C1029091C202B90198
:1036100020E00E94651A08959C01462F8091C10206
:103620009091C202B9010E94A81908959C01462FE9
:103630008091C1029091C202B9010E943819089587
:10364000CF93DF93EC018A819B81009711F00E9458
:10365000471E8E819F81009711F00E94471E88812E
:103660009981009711F00E94471E8C819D810097DF
:1036700011F00E94471EDF91CF910895CF93DF9301
:10368000EC018A819B81009711F00E94471E8E8178
:103690009F81009711F00E94471E888199810097B1
:1036A00011F00E94471E8C819D81009711F00E94AD
:1036B000471EDF91CF910895A3E6B0E0E2E6FBE17B
:1036C0000C945D1D7C015B016A01A2962FAFA2974D
:1036D000DA018D919C91892B11F5F701808590E09D
:1036E000880F991F0E949A1DD6018D939C93009775
:1036F00009F4DFC020E030E00CC0C901880F991F39
:10370000D601ED91FC91E80FF91F118210822F5F15
:103710003F4FF701808590E02817390774F3D501F2
:103720008D919C91892B89F000E010E03E01089476
:10373000611C711C41E4242E312C2C0E3D1E31E203
:10374000432E512C4C0E5D1E28C0F701808590E061
:10375000880F991F0E949A1DD5018D939C93009705
:1037600009F4A7C020E030E011C0C901880F991FFB
:10377000D501ED91FC91E80FF91FD7011E968D91AF
:103780009C911F97918380832F5F3F4FF701808526
:1037900090E0281739074CF3C7CFC701B301A296B1
:1037A0004FADA2970E943819D70118968C91882E98
:1037B0009924A101F301A4965FAE4EAEA49760E0F8
:1037C00070E034C00115110559F0A496AEADBFAD3F
:1037D000A4972D913C91808191812817390758F445
:1037E00080819181A496AEADBFADA4978D939C933B
:1037F0000115110541F0DA012D913C9180819181F3
:103800008217930728F480819181DA018D939C932C
:103810006F5F7F4F4E5F5F4F3296A4968EAD9FAD28
:10382000A4970296A4969FAF8EAFA49768157905CA
:103830004CF20F5F1F4F0A30110509F0AECF40E088
:1038400050E020E030E08E010F5B1F4FBE016F5D46
:103850007F4F28C0F801E20FF31F80809180F601AE
:10386000A081B181A20FB31F8D919C9111978815F2
:10387000990510F48D929C92FB01E20FF31F80805A
:103880009180F501A081B181A20FB31F8D919C9110
:1038900011978816990610F48D929C924F5F5F4F96
:1038A0002E5F3F4FD70118968C9190E0481759072B
:1038B0008CF2CD59DF4FE2E10C94791D1F93CF9329
:1038C000DF93EC01162F862F8150823040F4AE0139
:1038D0004E5F5F4FCE01BE0121E00E945C1B1230A3
:1038E00011F0112349F4AE014A5F5F4FCE012496D7
:1038F000BE0120E00E945C1BDF91CF911F910895D3
:10390000682F8091C1029091C2020E945E1C0895AE
:10391000A0E0B0E0EEE8FCE10C94681D8C01F62E0E
:10392000E42ED22E83E290E00E949A1DEC010097D3
:1039300011F480E00BC0B8014F2D2E2D0D2D0E94EB
:103940007C18D093C202C093C10281E0CDB7DEB72C
:10395000E7E00C94841DA0E0B0E0E1EBFCE10C9406
:10396000671D8C01D62E7A01C22E84E490E00E945D
:103970009A1DEC01009711F480E00BC0B8014D2DA9
:1039800097010C2D0E945317D093C202C093C1021D
:1039900081E0CDB7DEB7E8E00C94831D629FD001D3
:1039A000739FF001829FE00DF11D649FE00DF11DFA
:1039B000929FF00D839FF00D749FF00D659FF00DA9
:1039C0009927729FB00DE11DF91F639FB00DE11D96
:1039D000F91FBD01CF0111240895991B79E004C09E
:1039E000991F961708F0961B881F7A95C9F780953E
:1039F0000895AA1BBB1B51E107C0AA1FBB1FA61736
:103A0000B70710F0A61BB70B881F991F5A95A9F787
:103A100080959095BC01CD01089597FB092E07264E
:103A20000AD077FD04D0E5DF06D000201AF47095A7
:103A300061957F4F0895F6F7909581959F4F089572
:103A4000A1E21A2EAA1BBB1BFD010DC0AA1FBB1FA2
:103A5000EE1FFF1FA217B307E407F50720F0A21B14
:103A6000B30BE40BF50B661F771F881F991F1A9481
:103A700069F760957095809590959B01AC01BD01AB
:103A8000CF01089597FB092E05260ED057FD04D0CF
:103A9000D7DF0AD0001C38F4509540953095219519
:103AA0003F4F4F4F5F4F0895F6F790958095709573
:103AB00061957F4F8F4F9F4F08952F923F924F9266
:103AC0005F926F927F928F929F92AF92BF92CF92AE
:103AD000DF92EF92FF920F931F93CF93DF93CDB7B7
:103AE000DEB7CA1BDB0B0FB6F894DEBF0FBECDBF2F
:103AF00009942A88398848885F846E847D848C8400
:103B00009B84AA84B984C884DF80EE80FD800C8108
:103B10001B81AA81B981CE0FD11D0FB6F894DEBFEB
:103B20000FBECDBFED010895EE0FFF1F0590F4917C
:103B3000E02D0994CF93DF93BC018230910510F4FE
:103B400062E070E0A091C502B091C602ED01E0E034
:103B5000F0E040E050E021C0888199818617970706
:103B600069F48A819B81309719F09383828304C022
:103B70009093C6028093C502FE0134C0681779078E
:103B800038F44115510519F08417950708F4AC0174
:103B9000FE018A819B819C01E9012097E9F641158C
:103BA0005105A9F1CA01861B970B049708F4BA01C5
:103BB000E0E0F0E02AC08D919C9111978417950761
:103BC000F9F46417750781F412968D919C911397FF
:103BD000309719F09383828304C09093C602809338
:103BE000C502FD0132964FC0CA01861B970BFD012D
:103BF000E80FF91F6193719302978D939C9343C0D3
:103C0000FD01828193819C01D9011097A1F68091D9
:103C1000C3029091C402892B41F480914B02909190
:103C20004C029093C4028093C30240914D02509184
:103C30004E024115510541F44DB75EB780914902DE
:103C400090914A02481B590B2091C3023091C40243
:103C500024173507B0F4CA01821B930B8617970708
:103C600080F0AB014E5F5F4F8417950750F0420F15
:103C7000531F5093C4024093C302F901619371939F
:103C800002C0E0E0F0E0CF01DF91CF910895CF9343
:103C9000DF93009709F450C0EC0122971B821A822F
:103CA000A091C502B091C602109709F140E050E022
:103CB000AC17BD0708F1BB83AA83FE0121913191A6
:103CC000E20FF31FAE17BF0779F48D919C91119706
:103CD000280F391F2E5F3F4F3983288312968D910D
:103CE0009C9113979B838A834115510571F4D0935E
:103CF000C602C093C50220C012968D919C91139765
:103D0000AD01009711F0DC01D3CFFA01D383C28358
:103D100021913191E20FF31FCE17DF0769F48881FB
:103D20009981280F391F2E5F3F4FFA01318320837D
:103D30008A819B8193838283DF91CF9108950F9332
:103D40001F93CF93DF938C01EB01009731F4611542
:103D5000710519F420E030E038C081E090E06EE0B9
:103D600070E00E94EB1EFC019C01009771F180E85D
:103D70008383209771F0D387C28781E88383809102
:103D8000C7029091C802892B21F4F093C802E093F6
:103D9000C70201151105C9F0118700878381826070
:103DA00083838091C9029091CA02892B71F4F093A8
:103DB000CA02E093C9028091CB029091CC02892B78
:103DC00021F4F093CC02E093CB02C901DF91CF91B3
:103DD0001F910F9108950F931F93CF93DF93689FC7
:103DE0008001699F100D789F100D1124C8010E9459
:103DF0009A1DEC01009729F060E070E0A8010E9494
:103E0000071FCE01DF91CF911F910F910895DC0123
:103E100001C06D9341505040E0F7089510E0C2E8B2
:103E2000D0E004C0FE010E94961D2296C438D1073E
:063E3000C9F7F894FFCF72
:103E3600416C69676E426F74003E6733323E3E6383
:103E46003332003D3F0021633332002165333200B7
:103E56002167333200426F6D6220302E36008813A0
:103E6600040400D007F4010F000208010E0F101120
:103E7600120000000000000000000102020303031C
:103E860003040404040404040405050505050505E6
:103E960005050505050505050506060606060606C5
:103EA60006060606060606060606060606060606AC
:103EB6000606060606060606060707070707070795
:103EC600070707070707070707070707070707077C
:103ED600070707070707070707070707070707076C
:103EE600070707070707070707070707070707075C
:103EF6000707070707070707070808080808080845
:103F0600080808080808080808080808080808082B
:103F1600080808080808080808080808080808081B
:103F2600080808080808080808080808080808080B
:103F360008080808080808080808080808080808FB
:103F460008080808080808080808080808080808EB
:103F560008080808080808080808080808080808DB
:103F660008080808080808080808080808080808CB
:103F76000808080808080808082000CD0200000004
:00000001FF
