:100000000C9440000C945D000C945D000C945D0019
:100010000C945D000C945D000C945D000C945D00EC
:100020000C945D000C943A140C945D000C945D00EB
:100030000C945D000C94B70C0C945D000C945D0066
:100040000C945D000C945D000C945D000C945D00BC
:100050000C945D000C945D000C945D000C945D00AC
:100060000C945D000C945D00D709DD09E009E309FB
:10007000E609E909EC09EF09F209F509F809FB09B4
:1000800011241FBECFEFD4E0DEBFCDBF12E0A0E051
:10009000B1E0E8EEFEE202C005900D92A633B10792
:1000A000D9F712E0A6E3B2E001C01D92AB36B1076A
:1000B000E1F70E9497020C9472170C940000ECE791
:1000C000F0E08081806280833D984598089585E0C6
:1000D0000E942C07089586E00E942C07089587E06F
:1000E0000E942C0708950E942C0708958EEC9FEF24
:1000F00062E370E00E942D12089582E390E06EECBE
:100100007FEF0E942D12089586EA9FEF6EEC7FEF3D
:100110000E942D1208958EEC9FEF66EA7FEF0E94F9
:100120002D12089580E090E060E070E00E942D12B2
:100130000895AF92BF92CF92DF92EF92FF920F930A
:100140001F93B82EA62E69017A01012B11F00E948F
:10015000FF0E8B2D6A2D0E94CF0EC701B6010E94A3
:10016000CA0F1F910F91FF90EF90DF90CF90BF903B
:10017000AF9008950F931F93CF93DF93182F062FFF
:10018000EA01232B11F00E94FF0E812F602F0E94A5
:10019000CF0ECE010E94EB0FDF91CF911F910F91F7
:1001A0000895AF92BF92CF92DF92EF92FF920F939A
:1001B0001F93CF93DF93EC010E94FF0EEE24FF24E8
:1001C00087015E01CC24B7FCC094DC2C17C080E012
:1001D00060E00E94CF0EC801B7016A0D7B1D8C1D27
:1001E0009D1D0E94CA0F88EE93E00E9474140E9425
:1001F000FF0E0894E108F10801091109CE018E0DE6
:100200009F1D181619061CF3DF91CF911F910F91B6
:10021000FF90EF90DF90CF90BF90AF900895EF9256
:10022000FF920F931F93DF93CF93CDB7DEB7E29783
:100230000FB6F894DEBF0FBECDBF8E010F5F1F4F0C
:1002400083E3E82EF12CEC0EFD1E88ED9FEF68E2B3
:1002500070E00E942D1282E590E00E94741480E00C
:1002600090E060E070E00E942D1287E00E942C0771
:10027000F801819391938F01EE15FF0531F7CE01BF
:100280000196E2960FB6F894DEBF0FBECDBFCF91B8
:10029000DF911F910F91FF90EF900895AF92BF9261
:1002A000CF92DF92EF92FF920F931F935C017B013D
:1002B00066277727681B790B0E942D120027F7FC11
:1002C0000095102FC801B7010E94850428E431EE83
:1002D0004AE553E40E94DF027B018C01CC24B7FC89
:1002E000C094DC2CC601B5010E9485049B01AC01C1
:1002F000C801B7010E94D9030E94E304DC01CB01CD
:100300000E94741480E090E060E070E00E942D1282
:100310001F910F91FF90EF90DF90CF90BF90AF9023
:100320000895AF92BF92CF92DF92EF92FF920F9318
:100330001F935C017B01882799278A199B09B501C6
:100340000E942D120027F7FC0095102FC801B7015D
:100350000E94850428E431EE4AE553E40E94DF025E
:100360007B018C01CC24B7FCC094DC2CC601B50108
:100370000E9485049B01AC01C801B7010E94D9030A
:100380000E94E304DC01CB010E94741480E090E041
:1003900060E070E00E942D121F910F91FF90EF908E
:1003A000DF90CF90BF90AF9008950F931F939C0163
:1003B0008B01B9010E942D12C8010E94741480E0C3
:1003C00090E060E070E00E942D121F910F9108955F
:1003D000CF92DF92EF92FF920F931F93CF93DF9311
:1003E0007C018A01EB01C12C9DE7D92E0E94FF0EF2
:1003F00080E060E00E94CF0EC7010E94EB0F80E01A
:1004000091E00E94EB0F80E061E00E94CF0EBE0100
:10041000882777FD8095982F0E94CA0F81E00E945F
:10042000AD0E82E30E9462128823D9F782E30E9414
:10043000161481FF07C083E091E00E94B40CC01B3A
:10044000D10B20C084FF16C00E94A20E0E94FF0E96
:1004500088E091E00E94B40C84E690E00E9474145D
:10046000CE01DF91CF911F910F91FF90EF90DF9020
:10047000CF90089585FF06C08DE091E00E94B40CF6
:10048000C00FD11F83E8C030D8074CF480E09DE74F
:10049000B8010E947115EC01C050DD47A7CF8DE770
:1004A000C130D8070CF4A2CF80E09DE7B8010E94CC
:1004B0007115E601C81BD90B99CF0F931F938C01BF
:1004C00088EC90E062E370E04EE00E94A6098BE4C5
:1004D00090E00E9474148CE291E062E370E04EE0E0
:1004E0000E94A60988EC90E062E370E04EE00E9472
:1004F000A6098BE490E00E9474148CE291E062E320
:1005000070E04EE00E94A60980E060E00E94CF0EFD
:10051000C8010E94EB0F80E10E9462128823D9F388
:1005200084EF91E00E9474141F910F910895CF926F
:10053000DF92EF92FF920F931F93CF93DF930E946E
:100540005F0082E191E00E945D0282E090E00E9403
:10055000D100EE24FF243EE6C32ED12C86E00E947B
:100560002C078C0185E00E942C07EC0187E00E949B
:100570002C079C010531110534F4C531D1051CF45B
:1005800080E090E004C0CE014497801B910BE11401
:10059000F10469F4233A310554F089E190E069E10E
:1005A00070E00E942D1221E0E22EF12CD7CFB6018F
:1005B000681B790B82599F4F0E942D12CFCFA0E26A
:1005C000B0E0E5EEF2E00C94C11569837A838B8389
:1005D0009C832D833E834F835887CE010196BE01B5
:1005E000675F7F4F0E945B06CE010596BE016F5E7E
:1005F0007F4F0E945B069985923088F0898982300E
:10060000C8F0943019F4823051F404C0843029F4D5
:10061000923081F488E291E0C6C0923049F420E043
:100620009A858A89981321E02A87CE010996BBC052
:10063000823049F420E09A858A89981321E02A8B38
:10064000CE014196B0C02D843E844F8458886D8879
:100650007E888F88988CEE24FF248701AA24BB24EF
:10066000650140E050E060E070E0E0E0F0E0C101F2
:1006700081709070892BE9F0E60CF71C081D191D9C
:100680009A01AB012A0D3B1D4C1D5D1D80E090E0E1
:10069000A0E0B0E0E614F7040805190520F481E0B5
:1006A00090E0A0E0B0E0BA01A901480F591F6A1F0D
:1006B0007B1FAA0CBB1CCC1CDD1C97FE08C081E074
:1006C00090E0A0E0B0E0A82AB92ACA2ADB2A319635
:1006D000E032F10549F0660C771C881C991C569491
:1006E000479437942794C3CFFA85EA892B893C89AC
:1006F0008B859C85280F391F2E5F3F4F17C0CA017D
:1007000081709070892B61F016950795F794E794A6
:1007100080E090E0A0E0B0E8E82AF92A0A2B1B2B41
:1007200076956795579547952F5F3F4F77FDE7CFB4
:100730000CC0440F551F661F771F17FD4160EE0C5C
:10074000FF1C001F111F21503040403090E059071E
:1007500090E0690790E4790760F32B8F3C8FDB0111
:10076000CA018F779070A070B07080349105A10598
:10077000B10561F447FD0AC0E114F104010511055A
:1007800029F0405C5F4F6F4F7F4F40781A8EFE1705
:1007900011F081E08A8F4D8F5E8F6F8F78A383E099
:1007A000898FCE0149960E948605A096E2E10C94BD
:1007B000DD15A8E1B0E0EFEDF3E00C94C915698315
:1007C0007A838B839C832D833E834F835887B9E044
:1007D000EB2EF12CEC0EFD1ECE010196B7010E940E
:1007E0005B068E010F5E1F4FCE010596B8010E9479
:1007F0005B062985223008F47EC03989323010F436
:10080000B8017CC08A859A8989278A87243011F0AB
:10081000223031F4231709F06EC068E271E06EC037
:10082000343039F41D861E861F86188A1C861B8666
:1008300004C0323021F484E08987B7015FC02B8582
:100840003C858B899C89281B390B3C872B87ED8441
:10085000FE840F851889AD88BE88CF88D88CEA14AD
:10086000FB040C051D0540F4EE0CFF1C001F111FBE
:10087000215030403C872B8720E030E040E050E0C2
:1008800080E090E0A0E0B0E460E070E0EA14FB04F7
:100890000C051D0540F0282B392B4A2B5B2BEA1841
:1008A000FB080C091D09B695A79597958795EE0C41
:1008B000FF1C001F111F6F5F7F4F6F31710531F7F4
:1008C000DA01C9018F779070A070B0708034910503
:1008D000A105B10561F427FD0AC0E114F104010589
:1008E000110529F0205C3F4F4F4F5F4F20782D8737
:1008F0003E874F87588BBE01675F7F4FCB010E94B9
:1009000086056896EAE00C94E515A8E0B0E0EBE80F
:10091000F4E00C94CA159B01AC0183E08983DA01F1
:10092000C9018827B7FD83959927AA27BB27B82E29
:10093000211531054105510519F482E089833AC03A
:100940008823A9F0203080E0380780E0480780E85D
:10095000580729F460E070E080E09FEC30C0EE249E
:10096000FF248701E21AF30A040B150B02C0790178
:100970008A018EE1C82ED12CDC82CB82ED82FE82F0
:100980000F831887C801B7010E9437050197181611
:10099000190684F4082E04C0EE0CFF1C001F111F62
:1009A0000A94D2F7ED82FE820F831887C81AD90AFB
:1009B000DC82CB82BA82CE0101960E9486052896FF
:1009C000E9E00C94E615ACE0B0E0E9EEF4E00C945C
:1009D000D11569837A838B839C83CE010196BE01F6
:1009E0006B5F7F4F0E945B068D81823061F18230A8
:1009F00050F1843021F48E81882351F12EC02F8153
:100A0000388537FD20C06E812F3131051CF06623FB
:100A1000F9F023C08EE190E0821B930B29853A8583
:100A20004B855C8504C056954795379527958A95E3
:100A3000D2F76623B1F050954095309521953F4F00
:100A40004F4F5F4F0EC020E030E040E050E009C063
:100A50002FEF3FEF4FEF5FE704C020E030E040E0D2
:100A600050E8B901CA012C96E2E00C94ED15EF9222
:100A7000FF920F931F937B018C0180E0E81680E0CA
:100A8000F80681E0080780E0180788F48FEFE81681
:100A9000F1040105110531F028F088E090E0A0E0B4
:100AA000B0E017C080E090E0A0E0B0E012C080E0CD
:100AB000E81680E0F80680E0080781E0180728F0D3
:100AC00088E190E0A0E0B0E004C080E190E0A0E028
:100AD000B0E020E230E040E050E0281B390B4A0B48
:100AE0005B0B04C016950795F794E7948A95D2F7A7
:100AF000F701E05DFE4F8081281B31094109510952
:100B0000C9011F910F91FF90EF900895DF92EF922E
:100B1000FF920F931F93FC01E480F58006811781FB
:100B2000D1808081823048F480E090E0A0E1B0E0A4
:100B3000E82AF92A0A2B1B2BA5C0843009F49FC090
:100B4000823021F4EE24FF24870105C0E114F10472
:100B50000105110519F4E0E0F0E096C062817381AF
:100B60009FEF623879070CF05BC022E83FEF261B4D
:100B7000370B2A3131052CF020E030E040E050E026
:100B80002AC0B801A701022E04C076956795579533
:100B900047950A94D2F781E090E0A0E0B0E004C06D
:100BA000880F991FAA1FBB1F2A95D2F70197A10989
:100BB000B1098E219F21A023B1230097A105B10582
:100BC00021F081E090E0A0E0B0E09A01AB01282B99
:100BD000392B4A2B5B2BDA01C9018F779070A070FB
:100BE000B07080349105A105B10539F427FF09C023
:100BF000205C3F4F4F4F5F4F04C0215C3F4F4F4F32
:100C00005F4FE0E0F0E02030A0E03A07A0E04A07C4
:100C1000A0E45A0710F0E1E0F0E079018A0127C072
:100C20006038710564F5FB01E158FF4FD801C70139
:100C30008F779070A070B07080349105A105B105D8
:100C400039F4E7FE0DC080E490E0A0E0B0E004C01D
:100C50008FE390E0A0E0B0E0E80EF91E0A1F1B1F32
:100C600017FF05C016950795F794E794319687E02E
:100C700016950795F794E7948A95D1F705C0EE2469
:100C8000FF248701EFEFF0E06E2F679566276795E9
:100C9000902F9F77D794DD24D7948E2F8695492F58
:100CA000462B582F5D29B701CA011F910F91FF9064
:100CB000EF90DF900895FC01DB014081518122819A
:100CC000622F6F7770E0221F2227221F9381892FC6
:100CD000880F822B282F30E0991F9927991F119692
:100CE0009C93119721153105A9F541155105610511
:100CF000710511F482E037C082E89FEF13969C9350
:100D00008E9312979A01AB0167E0220F331F441FA5
:100D1000551F6A95D1F783E08C930DC0220F331FC6
:100D2000441F551F12968D919C911397019713960E
:100D30009C938E931297203080E0380780E048071C
:100D400080E4580758F314962D933D934D935C938C
:100D5000179708952F3F310579F441155105610525
:100D6000710519F484E08C93089564FF03C081E059
:100D70008C9312C01C9210C02F57304013963C9396
:100D80002E93129783E08C9387E0440F551F661FC4
:100D9000771F8A95D1F7706414964D935D936D9388
:100DA0007C931797089580917C0085FF05C0809102
:100DB0007900282F30E004C020917800309179002C
:100DC000C901089590931B0180931A010895089515
:100DD000089580917C0085FF05C080917900282FBF
:100DE00030E004C02091780030917900C901089565
:100DF000282F8032B0F487E880937A0080917C00BD
:100E0000982F9064662311F0806C02C0892F8F7731
:100E1000807E822B80937C0080917A008064809316
:100E20007A00089560E00E94F806089560E00E944C
:100E3000F80680917A0086FDFCCF80917C0085FFCA
:100E400005C080917900282F30E004C020917800FF
:100E500030917900C90108950E9416070895EF9214
:100E6000FF920F931F93CF93DF93EB0160E00E94FB
:100E7000F80680917A0086FDFCCF9E01EE24FF24C7
:100E8000870180917A00806480937A0080917A0053
:100E900086FDFCCF80917C0085FF04C080917900A5
:100EA00090E004C08091780090917900A0E0B0E0DB
:100EB000E80EF91E0A1F1B1F2150304011F7CE010A
:100EC00096958795C034D10540F48E0D9F1D6C2FEB
:100ED00070E00E945D159B010DC0A0E0B0E0E80E3F
:100EE000F91E0A1F1B1F9E0140E050E0C801B70118
:100EF0000E948415C901CDB7DEB7E6E00C94E91570
:100F000087E064E170E00E942F0708950E942F0798
:100F1000089590931B0180931A0108951F931091D7
:100F20007C0080917C008F7D80937C008EE164E169
:100F300070E00E942F078EE164E170E00E942F07AD
:100F40009C0115FD04C080917C008F7D03C08091C1
:100F50007C00806280937C00B9017695679580E083
:100F600090E06C54744D8E4E9F4F40E050E00E94D4
:100F70008415C9011F9108950E948E070895A0E06D
:100F8000B0E020911A0130911B0140E050E0BC011B
:100F9000CD010E9432159B01AC0180917C0085FF40
:100FA0000BC0B901CA0161587F4F8F4F9F4F2FEF80
:100FB00030E040E050E00AC0B901CA0161507E4F04
:100FC0008F4F9F4F2FEF33E040E050E00E94841599
:100FD000C90108950E942F070E94BF0708950E942B
:100FE000EA07089580917C0085FF06C08091790012
:100FF00090E00E94BF070895809178009091790059
:101000000E94BF07089560E00E94F80680917A0070
:1010100086FDFCCF0E94F20708950E940308089500
:101020000E94F207089587E064E170E00E942F07B4
:101030000E94BF0708950E94BF0708951F93109153
:101040007C0080917C008F7D80937C0086E064E151
:1010500070E00E94EA079C0115FD04C080917C00AD
:101060008F7D03C080917C00806280937C00C901E9
:10107000880F991F820F931F880F991F880F991F40
:101080008A5792406DE070E00E947115CB011F916C
:1010900008950E941E0808951F9310917C0080916E
:1010A0007C008F7D80937C0086E064E170E00E948C
:1010B000EA079C0115FD04C080917C008F7D03C070
:1010C00080917C00806280937C0084E190E0AC01A0
:1010D000249FC001259F900D349F900D11248E52A6
:1010E0009F4167E270E00E947115CB011F91089546
:1010F0000E944C0808951F9310917C0080917C0001
:101100008F7D80937C0086E06AE070E00E94EA07B1
:10111000AC0115FD04C080917C008F7D03C08091DF
:101120007C00806280937C009A01220F331F240F81
:10113000351F2F5F3F4F36952795C9011F910895A1
:101140000E947B0808951F9310917C0080917C0081
:101150008F7D80937C0086E06AE070E00E94EA0761
:10116000AC0115FD04C080917C008F7D03C080918F
:101170007C00806280937C009A01220F331F240F31
:10118000351FC9011F9108950E94A30808950E9468
:10119000A30808950895089580912701882339F0C0
:1011A00020E08091540290915502892B09F021E0B2
:1011B000822F089510926F0083E28093800081E176
:1011C000809381001092820080E197E290938900E1
:1011D0008093880010928B0010928A00229A789453
:1011E0000895A0E0B0E0E7EFF8E00C94C9158C0199
:1011F0005B01C42E80915302882329F481E08093FF
:1012000053020E94DA081092270117FD03C0DD2463
:10121000D39403C01F772AE0D22E80918100E82E5C
:10122000FF2488EFE822FF2488ECD89EC001112417
:1012300080179107C8F4E80197E20131190710F00F
:10124000C0E1D7E2BE017695679580E090E06058F6
:10125000794687469F4F9E0140E050E00E948415EA
:10126000890181E090E025C088E2D89E802D11247C
:10127000C82FD0E0C017D10708F4E801BE01769569
:1012800067959E0140E050E09AE0D91639F480E07D
:1012900090E0605E734481449F4F06C080E090E020
:1012A00060537D4E8C4E9F4F0E948415890182E0D1
:1012B00090E0E82AF92A9AE0D91639F4CE01059689
:1012C0006AE070E00E945D15EB0183E0C83ED8073C
:1012D00011F4B5010FC0BE0180E090E0950140E03F
:1012E00050E00E94321528EE33E040E050E00E94CA
:1012F000A615B90110926F00E09281001093890049
:1013000000938800E0918800F0918900AC2DA03115
:1013100008F0AFE080E190E08A1B910902C0F695E9
:10132000E7958A95E2F7F0938B00E0938A0070933B
:101330003B0260933A0286B38FEF86BB81E08093D5
:101340006F00CDB7DEB7EAE00C94E5150E94F10816
:101350000895CF93DF93EB018F3F11F0442329F4DD
:1013600088EE93E0BE0140E067C0813110F420E0D8
:1013700005C0282F2051203608F02FE5822F6CE081
:101380000E945115382F682F70E084EF9FEF689FFF
:10139000F001699FF00D789FF00D1124E20FF11D0F
:1013A000EC30F10538F4EC5CFF4F0C94F8158CE947
:1013B00091E023C080E090E020C085EB91E01DC06B
:1013C0008FEC91E01AC08AEE91E017C087E092E0BE
:1013D00014C086E292E011C087E492E00EC089E674
:1013E00092E00BC08EE892E008C085EB92E005C069
:1013F0008EED92E002C08AE093E0373071F002C0D7
:10140000880F991F6A95E2F7323020F005966AE05E
:1014100070E00BC0805090480BC036E0880F991FD9
:101420003A95E1F7029665E070E00E945D15CB0108
:10143000403108F04FE0BE010E94F108DF91CF91EA
:1014400008950E94A909089580912701882339F001
:1014500020E08091540290915502892B09F021E0FF
:10146000822F089510926F00E1E8F0E08081887F7C
:101470008160808380E197E2909389008093880067
:1014800010928B0010928A0081E0809327011092C5
:1014900055021092540208950E94320A0895309124
:1014A0003802E0915402F0915502332311F0249157
:1014B00001C02081822F81548A3108F4205E2032BD
:1014C00059F48091540290915502019690935502DF
:1014D00080935402019729F7822F0895CF93DF93C9
:1014E0000E944F0A282FC0E0D0E01DC0CE0153E07B
:1014F000880F991F5A95E1F7CC0FDD1FC80FD91F30
:10150000822F992787FD9095C80FD91FE09780916A
:101510005402909155020196909355028093540283
:101520000E944F0A282F822F80538A30F8F2CE0172
:10153000DF91CF910895A0E0B0E0E1EAFAE00C94E9
:10154000C71580901C01B0903602BB2021F060913D
:101550003702662399F4A09037020091210110917F
:101560002201E0901D01F0901E01C0911F01D09159
:101570002001C0902301D090240108C18FEF70E0BA
:1015800040E00E94A90910923702CBC194E0892E55
:10159000BB2404EF11E084E0E82EF12CC0EDD7E08D
:1015A000B4E09B2EAFE0CA2ED12C0E944F0A282F08
:1015B0008091540290915502019690935502809328
:1015C0005402263609F498C02736CCF42236A1F10D
:1015D000233674F42E3361F12F3334F42132B1F217
:1015E0002C3309F00BC126C0213609F007C121C1F7
:1015F000243609F451C025360CF066C035C02F36AC
:1016000009F4C1C0203754F42C3609F4A5C02D3696
:1016100009F4A6C0273609F0F1C086C0243709F4C2
:10162000D1C0263709F4E6C0223709F0E7C0B0C0C0
:101630008394BBCF8A94B9CFA0923702B09236027E
:101640001093220100932101F0921E01E0921D01EE
:10165000D0932001C0931F0190921C01D0922401CD
:10166000C09223012BE0FCC0A0923702B092360258
:101670001093220100932101F0921E01E0921D01BE
:10168000D0932001C0931F0190921C01D09224019D
:10169000C092230120E0E4C0A0923702B09236024B
:1016A0001093220100932101F0921E01E0921D018E
:1016B000D0932001C0931F0190921C01D09224016D
:1016C000C092230122E0CCC0A0923702B092360231
:1016D0001093220100932101F0921E01E0921D015E
:1016E000D0932001C0931F0190921C01D09224013D
:1016F000C092230124E0B4C0A0923702B092360217
:101700001093220100932101F0921E01E0921D012D
:10171000D0932001C0931F0190921C01D09224010C
:10172000C092230125E09CC0A0923702B0923602FD
:101730001093220100932101F0921E01E0921D01FD
:10174000D0932001C0931F0190921C01D0922401DC
:10175000C092230127E084C00E946E0A7C0144C02D
:101760000E944F0A8C3611F4BB2403C0AA24BB2468
:10177000B394809154029091550201969093550232
:101780008093540212CF0E946E0A882E982C0DCF9F
:10179000A0923702B09236021093220100932101E9
:1017A000F0921E01E0921D01D0932001C0931F0111
:1017B00090921C01D0922401C092230120E0FF24CA
:1017C000F3944FC00E946E0ABC0180EC9DE50E941C
:1017D0005D15CB01EB01F3E0CC0FDD1FFA95E1F7CE
:1017E000880F991FC80FD91FCE01B7010E945D1540
:1017F0008B01DBCE0E946E0A6C01D7CEA09237021D
:10180000B09236021093220100932101F0921E0142
:10181000E0921D01D0932001C0931F0190921C0102
:10182000D0922401C09223011092550210925402CA
:1018300078C0A0923702B092360210932201009332
:101840002101F0921E01E0921D01D0932001C0936E
:101850001F0190921C01D0922401C092230129E023
:10186000FF248CE0889EC0011124E22EE80E0AC0FD
:101870008091540290915502019690935502809365
:101880005402E3940E944F0A8B3291F3833281F326
:101890000CC080915402909155020196909355028C
:1018A00080935402EA940E944F0A8D3291F3C091C2
:1018B0002101D09122018153883058F400911F01F9
:1018C000109120010E946E0ABC01C8010E945D15A2
:1018D000EB018E010BC0809154029091550201964C
:1018E0009093550280935402C00FD11F169507950F
:1018F0000E944F0A8E3279F380913602882339F0A4
:10190000CE019695879580933702C81BD109FF2099
:1019100011F0EE24EA948E2DBE01409123010E9425
:10192000A909CDB7DEB7ECE00C94E31510926F0077
:10193000909355028093540281E080933802109274
:1019400037020E949B0A08950E94960C08951092F7
:101950006F009093550280935402109238021092B7
:1019600037020E949B0A08950E94A70C08951F92B7
:101970000F920FB60F9211242F933F934F935F93C3
:101980006F937F938F939F93AF93BF93EF93FF9347
:1019900080913A0290913B02019790933B02809391
:1019A0003A02019611F510926F00789480918100AF
:1019B000887F81608093810080E197E29093890025
:1019C0008093880010928B0010928A0081E08093AF
:1019D00027018091540290915502892B31F080911A
:1019E0003902882311F40E949B0AFF91EF91BF9165
:1019F000AF919F918F917F916F915F914F913F91A7
:101A00002F910F900FBE0F901F90189510926F009E
:101A100080912701882341F08091540290915502D2
:101A2000892B11F00E949B0A81E080936F0020E0D7
:101A30008091540290915502892B09F021E0822F68
:101A4000089580933902882311F40E94060D0895A9
:101A50000E94210D08950E94060D0895089508958D
:101A600080E090E00895EF92FF920F931F936AB188
:101A700057985A98289AE0904002F09041020091BD
:101A800042021091430220E030E041E050E0CA0100
:101A90006F9364E06A95F1F76F910197C9F75C9ACB
:101AA000CA016F9364E06A95F1F76F910197C9F7E6
:101AB00089B15C98FA016F9364E06A95F1F76F91D0
:101AC0003197C9F75C9AFA016F9364E06A95F1F770
:101AD0006F913197C9F75C9887FF0BC02C5F3F4F20
:101AE000C901A0E0B0E08E159F05A007B10708F47A
:101AF000CECF6AB91F910F91FF90EF90089565B115
:101B000090E0AC0141705070440F551F9C0126704D
:101B1000307053E0220F331F5A95E1F7422B6D7C52
:101B2000462B45B92BB18870907034E0880F991F0F
:101B30003A95E1F72F77282B2BB95C9A81E090E05A
:101B4000FC016F9364E06A95F1F76F913197C9F7E3
:101B50005C986F9364E06A95F1F76F910197C9F70C
:101B6000089580913C0290913D02009711F00E94EF
:101B7000AB168091250190E001972091260130E07D
:101B8000AC01429FC001439F900D529F900D1124C4
:101B90000E94FE1590933D0280933C02009729F12C
:101BA00060E070E208C0E0913C02F0913D02E40F79
:101BB000F51F70836F5F462F50E08091250190E004
:101BC00001972091260130E0FC01E29FC001E39FD4
:101BD000900DF29F900D11244817590724F384EFBC
:101BE0009FE060E37DE00E94031708958093260143
:101BF000609325010E94B10D0895809326016093A2
:101C000025010E94B10D08950E94B10D089580E153
:101C100097E2A0E0B0E08093400290934102A0934D
:101C20004202B0934302529A209A549A8EE190E075
:101C30000E94971483E00E943A1186E090E00E948F
:101C4000971483E00E943A1182E090E00E9497147A
:101C500083E00E943A1182E090E00E94971482E0B3
:101C60000E943A1182E090E00E94971488E20E945C
:101C7000840E88E00E94840E81E00E94840E86E03B
:101C80000E94840E8CE00E94840E0895809144028C
:101C9000882329F481E0809344020E94070E08956E
:101CA000BF92CF92DF92EF92FF920F931F93082F74
:101CB000162FF42E0E94460E0E94330DB4B0C5B00C
:101CC000DAB0EBB02898112311F05A9A01C05A9853
:101CD00084B1826384B9579A81E0F81629F0802F85
:101CE00082958F700E947F0D802F8F700E947F0DD4
:101CF000DAB8EBB8B4B8C5B81F910F91FF90EF9068
:101D0000DF90CF90BF90089560E042E00E94500EB7
:101D100008950F931F93082F162F08C0002311F466
:101D200080E101C084E10E94840E11501123B1F7BB
:101D30001F910F9108950E94890E08958CE00E94D2
:101D4000840E08950E949E0E0895813011F48FE054
:101D500001C08EE00E94840E08950E94A50E089591
:101D6000A4E0B0E0E6EBFEE00C94CF15182F062FB0
:101D700080E8898380EC8A8384E98B8384ED8C837B
:101D8000FE01E60FF11D8181810F0E94840E1093E8
:101D90003F0200933E022496E4E00C94EB150E946F
:101DA000B00E089581E00E94840E80913C029091D3
:101DB0003D02892B19F160E070E208C0E0913C021D
:101DC000F0913D02E40FF51F70836F5F462F50E0E6
:101DD0008091250190E001972091260130E0FC01DF
:101DE000E29FC001E39F900DF29F900D11244817D0
:101DF000590724F310923F0210923E0208950E9468
:101E0000D20E089561E042E00E94500E08950F93B3
:101E10001F93CF93DF9300E010E8C82FD0E0812F0D
:101E200090E08C239D23892B11F081E301C080E396
:101E30000E94020F0F5F083011F01695F0CFDF916E
:101E4000CF911F910F9108950E94070F08958A3036
:101E500010F4805D01C0895C0E94020F08951F93F9
:101E6000182F82958F700E94270F812F8F700E94EC
:101E7000270F1F9108951F93182F892F0E942F0F4E
:101E8000812F0E942F0F1F9108950E943B0F0895EC
:101E90000E942F0F08956F927F928F929F92AF9220
:101EA000BF92CF92DF92FF920F93DF93CF93CDB784
:101EB000DEB72A970FB6F894DEBF0FBECDBF5B0129
:101EC0006C010AE03E010894611C711CFA2CC601E9
:101ED000B5012AE030E040E050E00E948415C901DD
:101EE000DA015C016D0101504301800E911C80E319
:101EF000F80EC601B5012AE030E040E050E00E9453
:101F00003215F61AF401F082A114B104C104D1040F
:101F1000E9F608C0F601E00FF11D80810E94020F72
:101F20000F5F04C06E010894C11CD11C0A3090F3ED
:101F30002A960FB6F894DEBF0FBECDBFCF91DF91CA
:101F40000F91FF90DF90CF90BF90AF909F908F90B8
:101F50007F906F9008950E944B0F0895EF92FF922B
:101F60000F931F937B018C0197FF0BC01095009579
:101F7000F094E094E11CF11C011D111D8DE20E9402
:101F8000020FC801B7010E944B0F1F910F91FF90E4
:101F9000EF9008950E94AE0F0895CF93DF93EC0168
:101FA00003C00E94020F2196FE0184918823C9F785
:101FB000DF91CF9108950E94CD0F0895CF93DF93C5
:101FC000EC0103C021960E94020F88818823D1F77B
:101FD000DF91CF9108950E94DE0F08950E94020FB5
:101FE00008950E94020F0895A0E0B0E0EAEFFFE03C
:101FF0000C94CB15E82E80913C0290913D02892BE8
:1020000009F405C12AE0E21609F446C038E0E316F7
:10201000C9F480913F02815080933F028F3F51F479
:1020200080913E02815080933E0280912601815032
:1020300080933F0280913E028F3F09F0E2C01092F0
:102040003E02DDC08E2D0E94020F20913E0222230F
:10205000C9F030E0215030408091260190E0AC0181
:10206000249FC001259F900D349F900D1124209135
:102070003F02E0913C02F0913D02E80FF91FE20FB0
:10208000F11DE08280913F028F5F80933F0290912B
:102090002601891709F0BBC040913E02242F30E091
:1020A0008091250190E001972817390709F0A4C015
:1020B000C0E0D0E044C080E06C2F0E94B00EFF244E
:1020C0006E010894C11CD11C35C00F2D10E090E0AA
:1020D0009C01C29FC001C39F900DD29F900D1124FF
:1020E000E0913C02F0913D02E00FF11FE80FF91F73
:1020F00080810E94020FE0913C02F0913D028091AC
:10210000260190E0C89FD001C99FB00DD89FB00DA7
:102110001124E00FF11FAE0FBF1FAC01C49EC00120
:10212000C59E900DD49E900D1124E80FF91F80815B
:102130008C93F39480912601F81638F2E6016091B1
:102140002501862F90E00297C817D9070CF4B3CF6A
:10215000623008F440C0625080E00E94B00EFF245C
:10216000E0E2DE2E34C00F2D10E08091250190E0DA
:10217000029730E0AC01429FC001439F900D529FF7
:10218000900D1124E0913C02F0913D02E00FF11F0F
:10219000E80FF91F80810E94020F2091250130E095
:1021A000225030408091260190E0AC01249FC00174
:1021B000259F900D349F900D1124E0913C02F091E9
:1021C0003D02E00FF11FE80FF91FD082F394209138
:1021D0002601F21640F260912501615080E00E94D4
:1021E000B00E00E004C080E20E94020F0F5F8091F9
:1021F00026010817C0F303C04F5F40933E021092C0
:102200003F0280913F0260913E020E94B00E2E2D4F
:10221000332727FD3095C901CDB7DEB7E8E00C9430
:10222000E715EF92FF920F931F93CF93DF937C01FB
:10223000062F10E0F3E0000F111FFA95E1F7C0E060
:10224000D0E09E01200F822F80640E94840EF7014F
:10225000EC0FFD1FE4918E2F0E94020F2196C830D3
:10226000D10579F7CDB7DEB7E6E00C94E9150E9409
:102270001111089560E041E00E94500E08950F93FF
:102280001F93CF93DF93082F162FEA010BC0002373
:1022900011F488E101C08CE10E94840ECE010E94FD
:1022A00097141150112399F7DF91CF911F910F913E
:1022B00008950E943F110895282F883068F481E026
:1022C00090E002C0880F991F2A95E2F7282FAAE212
:1022D000B0E0EBE2F0E029C08E3080F430E028502E
:1022E000304081E090E002C0880F991F2A95E2F704
:1022F000282FA4E2B0E0E5E2F0E017C0853130F02D
:1023000020E0A0E0B0E0E0E0F0E00FC030E02E50D0
:10231000304081E090E002C0880F991F2A95E2F7D3
:10232000282FA7E2B0E0E8E2F0E06F3F19F48081E7
:10233000822709C0662319F08081822B04C0908116
:10234000822F8095892380838C91822B8C93089592
:1023500008950895E0EBF0E083EF8083808184BDF1
:10236000E1EBF0E082E08083808185BDE4EBF0E08A
:1023700010828081E3EBF0E08083808188BD88B5A6
:1023800087BD86E060E00E945C1185E060E00E940D
:102390005C118BE060E00E945C1183E060E00E94D1
:1023A0005C11089580914502882329F481E080938F
:1023B00045020E94AA110895CF93DF93EC010E9479
:1023C000D211D7FD02C020E004C0D095C195DF4FE7
:1023D00021E0CE01CF3FD10519F014F08FEF90E04E
:1023E000222319F018BC87BD02C088BD17BCDF913D
:1023F000CF9108950E94DC110895CF93DF93EC01F3
:102400000E94D211D7FD02C020E004C0D095C19532
:10241000DF4F21E0CE01CF3FD10519F014F08FEF4F
:1024200090E0222329F01092B4008093B30004C0FE
:102430008093B4001092B300DF91CF9108950E9471
:10244000FD1108950F931F938B010E94DC11C801A9
:102450000E94FD111F910F9108950E94221208956C
:102460000895089580914602882391F481E0809335
:10247000460284B18D7C84B985B1826385B985E0DB
:1024800090E06F9364E06A95F1F76F910197C9F757
:10249000089584B18D7C84B985B1826385B985E066
:1024A00090E06F9364E06A95F1F76F910197C9F737
:1024B00008951F93182F0E94321283B180958123B3
:1024C0001F9108950E9459120895CF92DF92EF92C2
:1024D000FF920F931F93C82ED3B00E94C8147B01A4
:1024E0008C010E94321280914C02813011F18130B6
:1024F00038F0823009F444C0833009F08BC066C0E4
:102500002C2D30E08D2D90E0809590952823392357
:10251000232B09F47FC0D094DC20D0924702E092B4
:102520004802F092490200934A0210934B0281E064
:102530006FC08091480290914902A0914A02B091E7
:102540004B02E81AF90A0A0B1B0B8FE0E816F1049C
:102550000105110508F45EC0409147028D2D90E001
:1025600080959095242F30E082239323892B59F175
:1025700082E080934C02D094D422D09247024AC089
:1025800040914702642F70E02D2D30E0CB01822373
:102590009323892B79F083E080934C024D21409363
:1025A0004702E0924802F092490200934A021093D7
:1025B0004B0230C08C2D90E02095309582239323E0
:1025C0006817790739F110924C0224C080914802B3
:1025D00090914902A0914A02B0914B02E81AF90A7F
:1025E0000A0B1B0B8FE0E816F1040105110590F0B2
:1025F00040914702842F90E02D2D30E082239323D9
:10260000892B29F010924C02842F8D2104C082E086
:1026100080934C0280E01F910F91FF90EF90DF902C
:10262000CF9008950E9465120895CF92DF92EF92A5
:10263000FF920F931F93C82ED3B0D0940E94C8145A
:102640007B018C010E94321280915202813011F183
:10265000813038F0823009F444C0833009F08BC0F7
:1026600066C02C2D30E08D2D90E08095909528232C
:102670003923232B09F47FC0D094DC20D0924D0263
:10268000E0924E02F0924F020093500210935102DA
:1026900081E06FC080914E0290914F02A091500254
:1026A000B0915102E81AF90A0A0B1B0B8FE0E816E9
:1026B000F1040105110508F45EC040914D028D2D15
:1026C00090E080959095242F30E082239323892BEE
:1026D00059F182E080935202D094D422D0924D02DC
:1026E0004AC060914D022D2D30E0462F50E0C901C7
:1026F00084239523892B79F083E080935202D6229C
:10270000D0924D02E0924E02F0924F02009350029E
:102710001093510230C08C2D90E02095309582238B
:1027200093234817590739F11092520224C080911F
:102730004E0290914F02A0915002B0915102E81ABE
:10274000F90A0A0B1B0B8FE0E816F10401051105CD
:1027500090F040914D028D2D90E0242F30E08223A7
:102760009323892B29F0109252028D2D842304C0CB
:1027700082E08093520280E01F910F91FF90EF90D2
:10278000DF90CF9008950E94151308951F93CF9363
:10279000DF93182F0E943212C12FD0E083B190E056
:1027A0008C239D23892BD1F38AE090E00E9497141B
:1027B00083B190E08C239D23892B81F383B1812306
:1027C000DF91CF911F9108950E94C61308951F9322
:1027D000CF93DF93182F0E943212C12FD0E083B124
:1027E00090E0809590958C239D23892BC1F38AE0FE
:1027F00090E00E94971483B190E0809590958C238F
:102800009D23892B61F383B180958123DF91CF9143
:102810001F9108951F930E94E713182F0E94C6135B
:10282000812F1F9108950E940A1408950E94E713B2
:10283000089508950895A2E0B0E0E1E2F4E10C9477
:10284000D1152091610230916202CE0101962115CD
:10285000310519F48B56924002C0821B930B9A8368
:10286000898389819A812296E2E00C94ED150E9479
:102870001B1408952F928F939F932FB68091570228
:10288000909158020196809357029093580290E0DD
:1028900080915902891F8093590290915F029C5F39
:1028A00090935F0280915E0280519742C0F09093B6
:1028B0005F0280935E0280915A0290915B020196C2
:1028C00080935A0290935B0290E080915C02891F92
:1028D00080935C0280915D02891F80935D022FBE10
:1028E0009F918F912F90189528EE33E009C0F90140
:1028F0006F9364E06A95F1F76F913197C9F701978B
:102900000097A9F708956F5F7F4F8F4F9F4F660F16
:10291000771F881F991F25E030E040E050E00E94BB
:102920008415CA01B90108950E948314089528EE00
:1029300033E009C0F9016F9364E06A95F1F76F9194
:102940003197C9F701970097A9F70895A0E7B0E07C
:102950008C918E7F8C93E0EBF0E0808183608083AC
:10296000E1EBF0E08081807F8083808182608083E2
:10297000B89A8C9181608C937894089580916002CC
:10298000882329F481E0809360020E94A6140895B0
:102990000E94BE14E0E7F0E080818E7F808320916A
:1029A0005A0230915B0240915C0250915D0280813D
:1029B00081608083B901CA0108950E94C8140895F6
:1029C0000E94BE14809170008E7F80937000609191
:1029D000B2008091560290915702A0915802B09196
:1029E0005902B89905C0262F30E040E050E011C0F0
:1029F0008091B200209156023091570240915802C6
:102A00005091590220503F4F4F4F5F4F90E0A0E050
:102A1000B0E0282B392B4A2B5B2B80917000816012
:102A200080937000B901CA0108950E94E0140895CE
:102A30000E94BE14E0E7F0E080818E7F80831092D8
:102A40005A0210925B0210925C0210925D02109288
:102A50005F0210925E0280818160808308950E94EF
:102A600018150895629FD001739FF001829FE00DB9
:102A7000F11D649FE00DF11D929FF00D839FF00DFD
:102A8000749FF00D659FF00D9927729FB00DE11DA9
:102A9000F91F639FB00DE11DF91FBD01CF01112486
:102AA0000895991B79E004C0991F961708F0961BAA
:102AB000881F7A95C9F780950895AA1BBB1B51E121
:102AC00007C0AA1FBB1FA617B70710F0A61BB70B9E
:102AD000881F991F5A95A9F780959095BC01CD0143
:102AE000089597FB092E07260AD077FD04D0E5DF6D
:102AF00006D000201AF4709561957F4F0895F6F77F
:102B0000909581959F4F0895A1E21A2EAA1BBB1B99
:102B1000FD010DC0AA1FBB1FEE1FFF1FA217B307A9
:102B2000E407F50720F0A21BB30BE40BF50B661FBF
:102B3000771F881F991F1A9469F760957095809583
:102B400090959B01AC01BD01CF01089597FB092E23
:102B500005260ED057FD04D0D7DF0AD0001C38F46C
:102B600050954095309521953F4F4F4F5F4F0895B9
:102B7000F6F790958095709561957F4F8F4F9F4F99
:102B800008952F923F924F925F926F927F928F9211
:102B90009F92AF92BF92CF92DF92EF92FF920F93EC
:102BA0001F93CF93DF93CDB7DEB7CA1BDB0B0FB6F6
:102BB000F894DEBF0FBECDBF09942A8839884888B3
:102BC0005F846E847D848C849B84AA84B984C88449
:102BD000DF80EE80FD800C811B81AA81B981CE0F40
:102BE000D11D0FB6F894DEBF0FBECDBFED01089525
:102BF000EE0FFF1F0590F491E02D0994CF93DF9322
:102C0000BC018230910510F462E070E0A091630293
:102C1000B0916402ED01E0E0F0E040E050E021C05E
:102C2000888199818617970769F48A819B813097FB
:102C300019F09383828304C09093640280936302AB
:102C4000FE0134C06817790738F44115510519F0B1
:102C50008417950708F4AC01FE018A819B819C01D1
:102C6000E9012097E9F641155105A9F1CA01861B32
:102C7000970B049708F4BA01E0E0F0E02AC08D91C8
:102C80009C91119784179507F9F46417750781F4DF
:102C900012968D919C911397309719F093838283AC
:102CA00004C09093640280936302FD0132964FC08A
:102CB000CA01861B970BFD01E80FF91F6193719301
:102CC00002978D939C9343C0FD01828193819C0167
:102CD000D9011097A1F68091610290916202892B2F
:102CE00041F480913202909133029093620280937A
:102CF000610240913402509135024115510541F471
:102D00004DB75EB78091300290913102481B590B4C
:102D1000209161023091620224173507B0F4CA0194
:102D2000821B930B8617970780F0AB014E5F5F4FB6
:102D30008417950750F0420F531F5093620240933F
:102D40006102F9016193719302C0E0E0F0E0CF010C
:102D5000DF91CF910895CF93DF93009709F450C08E
:102D6000EC0122971B821A82A0916302B091640247
:102D7000109709F140E050E0AC17BD0708F1BB83A4
:102D8000AA83FE0121913191E20FF31FAE17BF0715
:102D900079F48D919C911197280F391F2E5F3F4F29
:102DA0003983288312968D919C9113979B838A83F4
:102DB0004115510571F4D0936402C093630220C0A1
:102DC00012968D919C911397AD01009711F0DC0143
:102DD000D3CFFA01D383C28321913191E20FF31F44
:102DE000CE17DF0769F488819981280F391F2E5F7C
:102DF0003F4FFA01318320838A819B8193838283B1
:102E0000DF91CF9108950F931F93CF93DF938C01A0
:102E1000EB01009731F46115710519F420E030E001
:102E200038C081E090E06EE070E00E944F17FC0136
:102E30009C01009771F180E88383209771F0D3871C
:102E4000C28781E883838091650290916602892B15
:102E500021F4F0936602E093650201151105C9F0B3
:102E600011870087838182608383809167029091BC
:102E70006802892B71F4F0936802E09367028091F5
:102E8000690290916A02892B21F4F0936A02E0931F
:102E90006902C901DF91CF911F910F9108950F939E
:102EA0001F93CF93DF93689F8001699F100D789FD8
:102EB000100D1124C8010E94FE15EC01009729F0A5
:102EC00060E070E0A8010E946B17CE01DF91CF9106
:102ED0001F910F910895DC0101C06D934150504046
:082EE000E0F70895F894FFCF1C
:102EE8003D3F0021633332002165333200216733CF
:102EF800320050726573732042008813040400D0B6
:102F080007F4010F000208010000000000000000A3
:102F18000001020203030303040404040404040478
:102F28000505050505050505050505050505050549
:102F38000606060606060606060606060606060629
:102F48000606060606060606060606060606060619
:102F580007070707070707070707070707070707F9
:102F680007070707070707070707070707070707E9
:102F780007070707070707070707070707070707D9
:102F880007070707070707070707070707070707C9
:102F980008080808080808080808080808080808A9
:102FA8000808080808080808080808080808080899
:102FB8000808080808080808080808080808080889
:102FC8000808080808080808080808080808080879
:102FD8000808080808080808080808080808080869
:102FE8000808080808080808080808080808080859
:102FF8000808080808080808080808080808080849
:103008000808080808080808080808080808080838
:0630180020006B02000025
:00000001FF
