:100000000C9440000C945D000C945D000C945D0019
:100010000C945D000C945D000C945D000C945D00EC
:100020000C945D000C94CD140C945D000C945D0058
:100030000C945D000C94CB0C0C945D000C945D0052
:100040000C945D000C945D000C945D000C945D00BC
:100050000C945D000C945D000C945D000C945D00AC
:100060000C945D000C945D00EE09F409F709FA099F
:10007000FD09000A030A060A090A0C0A0F0A120AF5
:1000800011241FBECFEFD4E0DEBFCDBF12E0A0E051
:10009000B1E0EAE2F0E302C005900D92A634B107A8
:1000A000D9F712E0A6E4B2E001C01D92AB37B10768
:1000B000E1F70E9423020C9413180C940000ECE763
:1000C000F0E08081806280833D98459808958EECB1
:1000D0009FEF62E370E00E944112089582E390E096
:1000E0006EEC7FEF0E944112089586EA9FEF6EEC5E
:1000F0007FEF0E94411208958EEC9FEF66EA7FEF3A
:100100000E9441120895AF92BF92CF92DF92EF9278
:10011000FF920F931F935C017B0166277727681B73
:10012000790B0E9441120027F7FC0095102FC8019F
:10013000B7010E943C0428E431EE4AE553E40E94F2
:1001400096027B018C01CC24B7FCC094DC2CC60148
:10015000B5010E943C049B01AC01C801B7010E949B
:1001600090030E949A04DC01CB010E94181580E0E4
:1001700090E060E070E00E9441121F910F91FF90AB
:10018000EF90DF90CF90BF90AF900895AF92BF9265
:10019000CF92DF92EF92FF920F931F935C017B014E
:1001A000882799278A199B09B5010E9441120027C7
:1001B000F7FC0095102FC801B7010E943C0428E409
:1001C00031EE4AE553E40E9496027B018C01CC2477
:1001D000B7FCC094DC2CC601B5010E943C049B0115
:1001E000AC01C801B7010E9490030E949A04DC018F
:1001F000CB010E94181580E090E060E070E00E9462
:1002000041121F910F91FF90EF90DF90CF90BF9020
:10021000AF90089580E090E060E070E00E944112AD
:100220000895AF92BF92CF92DF92EF92FF920F9319
:100230001F93B82EA62E69017A01012B11F00E949E
:10024000130F8B2D6A2D0E94E30EC701B6010E9489
:10025000DE0F1F910F91FF90EF90DF90CF90BF9036
:10026000AF900895EF92FF920F931F93CF93DF9378
:10027000EC010E94130FEE24FF2487010EC080E0E2
:1002800060E00E94E30EC801B7010E94DE0F88EE15
:1002900093E00E9418150E94130F0894E11CF11CB2
:1002A000011D111DCE15DF0554F7DF91CF911F9170
:1002B0000F91FF90EF9008950F931F93CF93DF93CB
:1002C000182F062FEA01232B11F00E94130F812F04
:1002D000602F0E94E30ECE010E94FF0FDF91CF91AD
:1002E0001F910F91089585E00E940107089587E00E
:1002F0000E940107089586E00E9401070895EF9289
:10030000FF920F931F93DF93CF93CDB7DEB7E297A2
:100310000FB6F894DEBF0FBECDBF8E010F5F1F4F2B
:1003200083E3E82EF12CEC0EFD1E88ED9FEF68E2D2
:1003300070E00E94411282E590E00E94181580E072
:1003400090E060E070E00E94411286E00E940107A8
:10035000F801819391938F01EE15FF0531F7CE01DE
:100360000196E2960FB6F894DEBF0FBECDBFCF91D7
:10037000DF911F910F91FF90EF9008950F931F93BE
:100380008C0180E091E00E94C80C80E060E00E9457
:10039000E30EC8010E94FF0F80E10E9446128823ED
:1003A000D9F384EF91E00E9418151F910F910895E1
:1003B0000F931F93CF93DF938C01C0E0D0E00E9496
:1003C000130F80E060E00E94E30EC8010E94FF0F5F
:1003D0008AE091E00E94FF0F80E061E00E94E30E5E
:1003E000BE01882777FD8095982F0E94DE0F81E05F
:1003F0000E94C10E82E30E9446128823D9F782E34D
:100400000E94901481FF07C08DE091E00E94C80C0B
:100410002A97AAF6D2CF84FF0EC00E94B60E0E9481
:10042000130F82E191E00E94C80CCE01DF91CF91C1
:100430001F910F91089585FFC2CF87E191E00E943F
:10044000C80C2A96BCCFCF92DF92EF92FF920F9307
:100450001F93CF93DF930E945F008CE191E00E9495
:10046000BE0185E291E00E94D801EC018EE591E0A9
:100470000E94181588E290E06AE570E00E9483000F
:1004800086E00E94010726E930E0281B390B96E937
:10049000C92ED12C1AC00E94130FC801B7010E94A7
:1004A000DE0F8AEF90E00E94181588E290E06AE083
:1004B00070E00E94C6008AEF90E00E94181586E066
:1004C0000E9401079601281B390B79010027F7FCD0
:1004D0000095102FC217D307F4F20E94130FC80122
:1004E000B7010E94DE0F8AEF90E00E94181588E2A3
:1004F00090E064E170E00E94C6008AEF90E00E9404
:10050000181588EE93E00E94181580E590E060E5EC
:1005100070E00E9441128CED95E00E94181580E079
:1005200090E060E070E00E944112FFCFA0E2B0E0F6
:10053000ECE9F2E00C94621669837A838B839C83E6
:100540002D833E834F835887CE010196BE01675F9E
:100550007F4F0E941206CE010596BE016F5E7F4F4F
:100560000E9412069985923088F089898230C8F0FD
:10057000943019F4823051F404C0843029F492305C
:1005800081F487E391E0C6C0923049F420E09A8577
:100590008A89981321E02A87CE010996BBC0823050
:1005A00049F420E09A858A89981321E02A8BCE01AC
:1005B0004196B0C02D843E844F8458886D887E88D3
:1005C0008F88988CEE24FF248701AA24BB24650120
:1005D00040E050E060E070E0E0E0F0E0C1018170F8
:1005E0009070892BE9F0E60CF71C081D191D9A0183
:1005F000AB012A0D3B1D4C1D5D1D80E090E0A0E08D
:10060000B0E0E614F7040805190520F481E090E055
:10061000A0E0B0E0BA01A901480F591F6A1F7B1F73
:10062000AA0CBB1CCC1CDD1C97FE08C081E090E02E
:10063000A0E0B0E0A82AB92ACA2ADB2A3196E03223
:10064000F10549F0660C771C881C991C5694479458
:1006500037942794C3CFFA85EA892B893C898B8507
:100660009C85280F391F2E5F3F4F17C0CA0181702C
:100670009070892B61F016950795F794E79480E0C8
:1006800090E0A0E0B0E8E82AF92A0A2B1B2B769527
:100690006795579547952F5F3F4F77FDE7CF0CC084
:1006A000440F551F661F771F17FD4160EE0CFF1C9E
:1006B000001F111F21503040403090E0590790E05A
:1006C000690790E4790760F32B8F3C8FDB01CA0147
:1006D0008F779070A070B07080349105A105B1053E
:1006E00061F447FD0AC0E114F1040105110529F088
:1006F000405C5F4F6F4F7F4F40781A8EFE1711F0AE
:1007000081E08A8F4D8F5E8F6F8F78A383E0898F12
:10071000CE0149960E943D05A096E2E10C947E161A
:10072000A8E1B0E0E6E9F3E00C946A1669837A8305
:100730008B839C832D833E834F835887B9E0EB2EB8
:10074000F12CEC0EFD1ECE010196B7010E9412069F
:100750008E010F5E1F4FCE010596B8010E94120652
:100760002985223008F47EC03989323010F4B8016E
:100770007CC08A859A8989278A87243011F02230A3
:1007800031F4231709F06EC067E371E06EC03430B6
:1007900039F41D861E861F86188A1C861B8604C097
:1007A000323021F484E08987B7015FC02B853C8516
:1007B0008B899C89281B390B3C872B87ED84FE8411
:1007C0000F851889AD88BE88CF88D88CEA14FB04C1
:1007D0000C051D0540F4EE0CFF1C001F111F2150DD
:1007E00030403C872B8720E030E040E050E080E064
:1007F00090E0A0E0B0E460E070E0EA14FB040C05D7
:100800001D0540F0282B392B4A2B5B2BEA18FB08DF
:100810000C091D09B695A79597958795EE0CFF1CB9
:10082000001F111F6F5F7F4F6F31710531F7DA01C4
:10083000C9018F779070A070B07080349105A105C8
:10084000B10561F427FD0AC0E114F10401051105A9
:1008500029F0205C3F4F4F4F5F4F20782D873E8718
:100860004F87588BBE01675F7F4FCB010E943D05CC
:100870006896EAE00C948616A8E0B0E0E2E4F4E0C2
:100880000C946B169B01AC0183E08983DA01C901EA
:100890008827B7FD83959927AA27BB27B82E21154E
:1008A00031054105510519F482E089833AC0882356
:1008B000A9F0203080E0380780E0480780E858073A
:1008C00029F460E070E080E09FEC30C0EE24FF246B
:1008D0008701E21AF30A040B150B02C079018A01A1
:1008E0008EE1C82ED12CDC82CB82ED82FE820F837A
:1008F0001887C801B7010E94EE040197181619065F
:1009000084F4082E04C0EE0CFF1C001F111F0A9473
:10091000D2F7ED82FE820F831887C81AD90ADC82CB
:10092000CB82BA82CE0101960E943D052896E9E06D
:100930000C948716ACE0B0E0E0EAF4E00C94721698
:1009400069837A838B839C83CE010196BE016B5FA2
:100950007F4F0E9412068D81823061F1823050F10A
:10096000843021F48E81882351F12EC02F81388567
:1009700037FD20C06E812F3131051CF06623F9F060
:1009800023C08EE190E0821B930B29853A854B852D
:100990005C8504C056954795379527958A95D2F77B
:1009A0006623B1F050954095309521953F4F4F4FBC
:1009B0005F4F0EC020E030E040E050E009C02FEF74
:1009C0003FEF4FEF5FE704C020E030E040E050E849
:1009D000B901CA012C96E2E00C948E16EF92FF92B8
:1009E0000F931F937B018C0180E0E81680E0F806EE
:1009F00081E0080780E0180788F48FEFE816F1041B
:100A00000105110531F028F088E090E0A0E0B0E0A9
:100A100017C080E090E0A0E0B0E012C080E0E816EF
:100A200080E0F80680E0080781E0180728F088E1F8
:100A300090E0A0E0B0E004C080E190E0A0E0B0E091
:100A400020E230E040E050E0281B390B4A0B5B0B02
:100A500004C016950795F794E7948A95D2F7F701A5
:100A6000E15CFE4F8081281B310941095109C90110
:100A70001F910F91FF90EF900895DF92EF92FF92F8
:100A80000F931F93FC01E480F58006811781D180CC
:100A90008081823048F480E090E0A0E1B0E0E82A74
:100AA000F92A0A2B1B2BA5C0843009F49FC0823081
:100AB00021F4EE24FF24870105C0E114F1040105AF
:100AC000110519F4E0E0F0E096C0628173819FEFB8
:100AD000623879070CF05BC022E83FEF261B370B2A
:100AE0002A3131052CF020E030E040E050E02AC00F
:100AF000B801A701022E04C07695679557954795D2
:100B00000A94D2F781E090E0A0E0B0E004C0880F42
:100B1000991FAA1FBB1F2A95D2F70197A109B109F6
:100B20008E219F21A023B1230097A105B10521F0BB
:100B300081E090E0A0E0B0E09A01AB01282B392BD6
:100B40004A2B5B2BDA01C9018F779070A070B070CF
:100B500080349105A105B10539F427FF09C0205C57
:100B60003F4F4F4F5F4F04C0215C3F4F4F4F5F4F90
:100B7000E0E0F0E02030A0E03A07A0E04A07A0E47F
:100B80005A0710F0E1E0F0E079018A0127C06038EF
:100B9000710564F5FB01E158FF4FD801C7018F775C
:100BA0009070A070B07080349105A105B10539F442
:100BB000E7FE0DC080E490E0A0E0B0E004C08FE369
:100BC00090E0A0E0B0E0E80EF91E0A1F1B1F17FF1F
:100BD00005C016950795F794E794319687E016952A
:100BE0000795F794E7948A95D1F705C0EE24FF2482
:100BF0008701EFEFF0E06E2F679566276795902FDE
:100C00009F77D794DD24D7948E2F8695492F462B36
:100C1000582F5D29B701CA011F910F91FF90EF90E6
:100C2000DF900895FC01DB01408151812281622F18
:100C30006F7770E0221F2227221F9381892F880F50
:100C4000822B282F30E0991F9927991F11969C938A
:100C5000119721153105A9F541155105610571055A
:100C600011F482E037C082E89FEF13969C938E9335
:100C700012979A01AB0167E0220F331F441F551FE3
:100C80006A95D1F783E08C930DC0220F331F441F68
:100C9000551F12968D919C911397019713969C93D3
:100CA0008E931297203080E0380780E0480780E478
:100CB000580758F314962D933D934D935C931797D3
:100CC00008952F3F310579F44115510561057105EE
:100CD00019F484E08C93089564FF03C081E08C9341
:100CE00012C01C9210C02F57304013963C932E9385
:100CF000129783E08C9387E0440F551F661F771F80
:100D00008A95D1F7706414964D935D936D937C939F
:100D100017970895982F803278F487E880937A00A7
:100D200080917C0080648076892B80937C00809108
:100D30007A00806480937A00089580917C0085FF1A
:100D400005C080917900282F30E004C02091780000
:100D500030917900C901089590932A018093290167
:100D600008950895089580917C0085FF05C08091C5
:100D70007900282F30E004C020917800309179006C
:100D8000C9010895282F8032B0F487E880937A0053
:100D900080917C00982F9064662311F0806C02C0D3
:100DA000892F8F77807E822B80937C0080917A00C0
:100DB000806480937A000895982F803278F487E8D1
:100DC00080937A0080917C0080648076892B809368
:100DD0007C0080917A00806480937A0080917A0010
:100DE00086FDFCCF80917C0085FF05C08091790055
:100DF000282F30E004C02091780030917900C9019B
:100E000008950E94DC060895EF92FF920F931F93BE
:100E1000982F803278F487E880937A0080917C0064
:100E200080648076892B80937C0080917A00806436
:100E300080937A0080917A0086FDFCCFFB01EE243E
:100E4000FF24870180917A00806480937A008091EA
:100E50007A0086FDFCCF80917C0085FF04C08091E4
:100E6000790090E004C08091780090917900A0E032
:100E7000B0E0E80EF91E0A1F1B1F319719F7CB01CE
:100E8000969587956034710538F48E0D9F1D70E03E
:100E90000E94FE159B010DC0A0E0B0E0E80EF91E17
:100EA0000A1F1B1F9B0140E050E0C801B7010E94D0
:100EB0002516C9011F910F91FF90EF90089587E0CB
:100EC00064E170E00E94040708950E9404070895F9
:100ED00090932A018093290108951F9310917C001B
:100EE00080917C008F7D80937C008EE164E170E0D6
:100EF0000E9404078EE164E170E00E9404079C01F7
:100F000015FD04C080917C008F7D03C080917C0022
:100F1000806280937C00B9017695679580E090E0CF
:100F20006C54744D8E4E9F4F40E050E00E94251649
:100F3000C9011F9108950E946D070895A0E0B0E0D7
:100F40002091290130912A0140E050E0BC01CD01FF
:100F50000E94D3159B01AC0180917C0085FF0BC0E2
:100F6000B901CA0161587F4F8F4F9F4F2FEF30E07B
:100F700040E050E00AC0B901CA0161507E4F8F4F76
:100F80009F4F2FEF33E040E050E00E942516C9014B
:100F900008950E9404070E949E0708950E94C907B1
:100FA000089580917C0085FF06C08091790090E0D3
:100FB0000E949E07089580917800909179000E9488
:100FC0009E070895982F803278F487E880937A00FE
:100FD00080917C0080648076892B80937C00809156
:100FE0007A00806480937A0080917A0086FDFCCF3D
:100FF0000E94D10708950E94E20708950E94D10738
:10100000089587E064E170E00E9404070E949E0753
:1010100008950E949E0708951F9310917C0080916F
:101020007C008F7D80937C0086E064E170E00E940C
:10103000C9079C0115FD04C080917C008F7D03C011
:1010400080917C00806280937C00C901880F991F89
:10105000820F931F880F991F880F991F8A579240FC
:101060006DE070E00E941216CB011F9108950E945E
:101070000C0808951F9310917C0080917C008F7D57
:1010800080937C0086E064E170E00E94C9079C01C7
:1010900015FD04C080917C008F7D03C080917C0091
:1010A000806280937C0084E190E0AC01249FC001C9
:1010B000259F900D349F900D11248E529F4167E221
:1010C00070E00E941216CB011F9108950E943A0809
:1010D00008951F9310917C0080917C008F7D8093F8
:1010E0007C0086E06AE070E00E94C907AC0115FD53
:1010F00004C080917C008F7D03C080917C00806261
:1011000080937C009A01220F331F240F351F2F5F1D
:101110003F4F36952795C9011F9108950E94690890
:1011200008951F9310917C0080917C008F7D8093A7
:101130007C0086E06AE070E00E94C907AC0115FD02
:1011400004C080917C008F7D03C080917C00806210
:1011500080937C009A01220F331F240F351FC90191
:101160001F9108950E94910808950E949108089582
:101170000895089580913601882339F020E0809108
:10118000640290916502892B09F021E0822F089575
:1011900010926F00E1E8F0E08081887F81608083B9
:1011A00080E197E2909389008093880010928B00F1
:1011B00010928A0081E080933601109265021092AD
:1011C0006402089510926F0083E28093800081E1B1
:1011D000809381001092820080E197E290938900D1
:1011E0008093880010928B0010928A00229A789443
:1011F0000895A0E0B0E0EFEFF8E00C946A16FC016F
:101200005B01C42E809163028823C9F481E080933E
:10121000630210926F0083E28093800081E18093EB
:1012200081001092820080E197E290938900809380
:10123000880010928B0010928A00229A7894109263
:101240003601F7FD03C0DD24D39403C0FF772AE005
:10125000D22E80918100082F10E0087F107088EC5A
:10126000D89EC00111248E179F07C0F4EF0187E2BA
:10127000E131F80710F0C0E1D7E2BE01769567953D
:1012800080E090E06058794687469F4F9E0140E09D
:1012900050E00E9425167901016024C088E2D89EA2
:1012A000802D1124C82FD0E0CE17DF0708F4EF01FE
:1012B000BE01769567959E0140E050E08AE0D81621
:1012C00039F480E090E0605E734481449F4F06C033
:1012D00080E090E060537D4E8C4E9F4F0E9425161B
:1012E000790102608AE0D81639F4CE0105966AE0E9
:1012F00070E00E94FE15EB0183E0C83ED80711F4B0
:10130000B5010FC0BE0180E090E0950140E050E0E3
:101310000E94D31528EE33E040E050E00E944716CB
:10132000B90110926F0000938100F0928900E09261
:101330008800E0918800F0918900AC2DA03108F080
:10134000AFE080E190E08A1B910902C0F695E79535
:101350008A95E2F7F0938B00E0938A0070934B023A
:1013600060934A0286B38FEF86BB81E080936F0063
:10137000CDB7DEB7EAE00C9486160E94F90808950E
:10138000CF93DF93EB018F3F11F0442329F488EED4
:1013900093E0BE0140E067C0813110F420E005C059
:1013A000282F2051203608F02FE5822F6CE00E9474
:1013B000F215382F682F70E084EF9FEF689FF001DF
:1013C000699FF00D789FF00D1124E20FF11DEC30B4
:1013D000F10538F4EC5CFF4F0C9499168CE991E020
:1013E00023C080E090E020C085EB91E01DC08FEC31
:1013F00091E01AC08AEE91E017C087E092E014C035
:1014000086E292E011C087E492E00EC089E692E0A5
:101410000BC08EE892E008C085EB92E005C08EED2F
:1014200092E002C08AE093E0373071F002C0880F8A
:10143000991F6A95E2F7323020F005966AE070E075
:101440000BC0805090480BC036E0880F991F3A952A
:10145000E1F7029665E070E00E94FE15CB01403195
:1014600008F04FE0BE010E94F908DF91CF91089586
:101470000E94C009089580913601882339F020E048
:101480008091640290916502892B09F021E0822FFE
:10149000089510926F00E1E8F0E08081887F81601C
:1014A000808380E197E29093890080938800109276
:1014B0008B0010928A0081E08093360110926502C1
:1014C00010926402089530914802E0916402F09114
:1014D0006502332311F0249101C02081822F8154B1
:1014E0008A3108F4205E203259F480916402909190
:1014F000650201969093650280936402019729F733
:10150000822F0895CF93DF930E94630A282FC0E0B3
:10151000D0E01DC0CE0153E0880F991F5A95E1F726
:10152000CC0FDD1FC80FD91F822F992787FD9095FB
:10153000C80FD91FE09780916402909165020196CF
:1015400090936502809364020E94630A282F822F81
:1015500080538A30F8F2CE01DF91CF910895A0E058
:10156000B0E0E5EBFAE00C94681680902B01B090A7
:101570004602BB2021F060914702662399F4A090B7
:1015800047020091300110913101E0902C01F09060
:101590002D01C0912E01D0912F01C0903201D09029
:1015A000330108C18FEF70E040E00E94C009109243
:1015B0004702CBC194E0892EBB2404EF11E084E004
:1015C000E82EF12CC0EDD7E0B4E09B2EAFE0CA2EA0
:1015D000D12C0E94630A282F8091640290916502A9
:1015E00001969093650280936402263609F498C0B0
:1015F0002736CCF42236A1F1233674F42E3361F170
:101600002F3334F42132B1F22C3309F00BC126C050
:10161000213609F007C121C1243609F451C025360D
:101620000CF066C035C02F3609F4C1C0203754F421
:101630002C3609F4A5C02D3609F4A6C0273609F0CA
:10164000F1C086C0243709F4D1C0263709F4E6C0BA
:10165000223709F0E7C0B0C08394BBCF8A94B9CFDA
:10166000A0924702B09246021093310100933001DC
:10167000F0922D01E0922C01D0932F01C0932E0106
:1016800090922B01D0923301C09232012BE0FCC02A
:10169000A0924702B09246021093310100933001AC
:1016A000F0922D01E0922C01D0932F01C0932E01D6
:1016B00090922B01D0923301C092320120E0E4C01D
:1016C000A0924702B092460210933101009330017C
:1016D000F0922D01E0922C01D0932F01C0932E01A6
:1016E00090922B01D0923301C092320122E0CCC003
:1016F000A0924702B092460210933101009330014C
:10170000F0922D01E0922C01D0932F01C0932E0175
:1017100090922B01D0923301C092320124E0B4C0E8
:10172000A0924702B092460210933101009330011B
:10173000F0922D01E0922C01D0932F01C0932E0145
:1017400090922B01D0923301C092320125E09CC0CF
:10175000A0924702B09246021093310100933001EB
:10176000F0922D01E0922C01D0932F01C0932E0115
:1017700090922B01D0923301C092320127E084C0B5
:101780000E94820A7C0144C00E94630A8C3611F4D4
:10179000BB2403C0AA24BB24B3948091640290911B
:1017A00065020196909365028093640212CF0E94B5
:1017B000820A882E982C0DCFA0924702B092460242
:1017C0001093310100933001F0922D01E0922C0131
:1017D000D0932F01C0932E0190922B01D092330110
:1017E000C092320120E0FF24F3944FC00E94820A8D
:1017F000BC0180EC9DE50E94FE15CB01EB01F3E0FE
:10180000CC0FDD1FFA95E1F7880F991FC80FD91F7C
:10181000CE01B7010E94FE158B01DBCE0E94820A29
:101820006C01D7CEA0924702B092460210933101CC
:1018300000933001F0922D01E0922C01D0932F0102
:10184000C0932E0190922B01D0923301C0923201AD
:10185000109265021092640278C0A0924702B09282
:1018600046021093310100933001F0922D01E09275
:101870002C01D0932F01C0932E0190922B01D09276
:101880003301C092320129E0FF248CE0889EC00120
:101890001124E22EE80E0AC0809164029091650244
:1018A00001969093650280936402E3940E94630A18
:1018B0008B3291F3833281F30CC08091640290915A
:1018C000650201969093650280936402EA940E94F7
:1018D000630A8D3291F3C0913001D091310181536F
:1018E000883058F400912E0110912F010E94820A35
:1018F000BC01C8010E94FE15EB018E010BC0809156
:10190000640290916502019690936502809364024F
:10191000C00FD11F169507950E94630A8E3279F386
:1019200080914602882339F0CE0196958795809361
:101930004702C81BD109FF2011F0EE24EA948E2D36
:10194000BE01409132010E94C009CDB7DEB7ECE084
:101950000C94841610926F00909365028093640239
:1019600081E080934802109247020E94AF0A0895D6
:101970000E94AA0C089510926F00909365028093C4
:10198000640210924802109247020E94AF0A089522
:101990000E94BB0C08951F920F920FB60F92112454
:1019A0002F933F934F935F936F937F938F939F9367
:1019B000AF93BF93EF93FF9380914A0290914B02B4
:1019C000019790934B0280934A02019611F5109271
:1019D0006F00789480918100887F8160809381007E
:1019E00080E197E2909389008093880010928B00A9
:1019F00010928A0081E08093360180916402909178
:101A00006502892B31F080914902882311F40E94EC
:101A1000AF0AFF91EF91BF91AF919F918F917F910D
:101A20006F915F914F913F912F910F900FBE0F904B
:101A30001F90189510926F0080913601882341F015
:101A40008091640290916502892B11F00E94AF0A87
:101A500081E080936F0020E08091640290916502A4
:101A6000892B09F021E0822F089580934902882371
:101A700011F40E941A0D08950E94350D08950E94D8
:101A80001A0D08950895089580E090E00895EF926A
:101A9000FF920F931F936AB157985A98289AE09033
:101AA0005002F0905102009152021091530220E036
:101AB00030E041E050E0CA016F9364E06A95F1F7CD
:101AC0006F910197C9F75C9ACA016F9364E06A95B8
:101AD000F1F76F910197C9F789B15C98FA016F939B
:101AE00064E06A95F1F76F913197C9F75C9AFA0152
:101AF0006F9364E06A95F1F76F913197C9F75C983D
:101B000087FF0BC02C5F3F4FC901A0E0B0E08E15EE
:101B10009F05A007B10708F4CECF6AB91F910F91B6
:101B2000FF90EF90089565B190E0AC014170507066
:101B3000440F551F9C012670307053E0220F331F55
:101B40005A95E1F7422B6D7C462B45B92BB1887035
:101B5000907034E0880F991F3A95E1F72F77282B82
:101B60002BB95C9A81E090E0FC016F9364E06A9588
:101B7000F1F76F913197C9F75C986F9364E06A95BC
:101B8000F1F76F910197C9F7089580914C029091F8
:101B90004D02009711F00E944C178091340190E0A3
:101BA00001972091350130E0AC01429FC001439F75
:101BB000900D529F900D11240E949F1690934D02FC
:101BC00080934C02009729F160E070E208C0E09138
:101BD0004C02F0914D02E40FF51F70836F5F462FAA
:101BE00050E08091340190E001972091350130E080
:101BF000FC01E29FC001E39F900DF29F900D112424
:101C00004817590724F388E090E164E47DE00E94DE
:101C1000A417089580933501609334010E94C50D87
:101C2000089580933501609334010E94C50D089595
:101C30000E94C50D089580E197E2A0E0B0E0809396
:101C4000500290935102A0935202B0935302529AC1
:101C5000209A549A8EE190E00E94381583E00E9409
:101C60004E1186E090E00E94381583E00E944E11EC
:101C700082E090E00E94381583E00E944E1182E0DD
:101C800090E00E94381582E00E944E1182E090E0C0
:101C90000E94381588E20E94980E88E00E94980EF3
:101CA00081E00E94980E86E00E94980E8CE00E94CF
:101CB000980E089580915402882329F481E080933E
:101CC00054020E941B0E0895BF92CF92DF92EF92B2
:101CD000FF920F931F93082F162FF42E0E945A0E77
:101CE0000E94470DB4B0C5B0DAB0EBB0289811230C
:101CF00011F05A9A01C05A9884B1826384B9579AF4
:101D000081E0F81629F0802F82958F700E94930D44
:101D1000802F8F700E94930DDAB8EBB8B4B8C5B8B5
:101D20001F910F91FF90EF90DF90CF90BF9008959B
:101D300060E042E00E94640E08950F931F93082F05
:101D4000162F08C0002311F480E101C084E10E9435
:101D5000980E11501123B1F71F910F9108950E9411
:101D60009D0E08958CE00E94980E08950E94B20E78
:101D70000895813011F48FE001C08EE00E94980E2A
:101D800008950E94B90E0895A4E0B0E0EAECFEE0E8
:101D90000C947016182F062F80E8898380EC8A83B4
:101DA00084E98B8384ED8C83FE01E60FF11D818134
:101DB000810F0E94980E10934F0200934E022496BA
:101DC000E4E00C948C160E94C40E089581E00E94F9
:101DD000980E80914C0290914D02892B19F160E090
:101DE00070E208C0E0914C02F0914D02E40FF51F43
:101DF00070836F5F462F50E08091340190E001972F
:101E00002091350130E0FC01E29FC001E39F900D7D
:101E1000F29F900D11244817590724F310924F0296
:101E200010924E0208950E94E60E089561E042E08D
:101E30000E94640E08950F931F93CF93DF9300E0E9
:101E400010E8C82FD0E0812F90E08C239D23892BB0
:101E500011F081E301C080E30E94160F0F5F08308C
:101E600011F01695F0CFDF91CF911F910F9108954A
:101E70000E941B0F08958A3010F4805D01C0895CB8
:101E80000E94160F08951F93182F82958F700E943D
:101E90003B0F812F8F700E943B0F1F9108951F935E
:101EA000182F892F0E94430F812F0E94430F1F91EB
:101EB00008950E944F0F08950E94430F08956F9256
:101EC0007F928F929F92AF92BF92CF92DF92FF92BA
:101ED0000F93DF93CF93CDB7DEB72A970FB6F89461
:101EE000DEBF0FBECDBF5B016C010AE03E0108946E
:101EF000611C711CFA2CC601B5012AE030E040E0FB
:101F000050E00E942516C901DA015C016D01015003
:101F10004301800E911C80E3F80EC601B5012AE052
:101F200030E040E050E00E94D315F61AF401F08250
:101F3000A114B104C104D104E9F608C0F601E00F10
:101F4000F11D80810E94160F0F5F04C06E0108947E
:101F5000C11CD11C0A3090F32A960FB6F894DEBF4C
:101F60000FBECDBFCF91DF910F91FF90DF90CF904B
:101F7000BF90AF909F908F907F906F9008950E9438
:101F80005F0F0895EF92FF920F931F937B018C01D7
:101F900097FF0BC010950095F094E094E11CF11CA4
:101FA000011D111D8DE20E94160FC801B7010E948C
:101FB0005F0F1F910F91FF90EF9008950E94C20F45
:101FC0000895CF93DF93EC0103C00E94160F219672
:101FD000FE0184918823C9F7DF91CF9108950E9473
:101FE000E10F0895CF93DF93EC0103C021960E9487
:101FF000160F88818823D1F7DF91CF9108950E9431
:10200000F20F08950E94160F08950E94160F08956A
:10201000A0E0B0E0EEE0F0E10C946C16E82E8091C8
:102020004C0290914D02892B09F405C12AE0E21679
:1020300009F446C038E0E316C9F480914F0281509C
:1020400080934F028F3F51F480914E0281508093D4
:102050004E0280913501815080934F0280914E0253
:102060008F3F09F0E2C010924E02DDC08E2D0E941B
:10207000160F20914E022223C9F030E0215030404B
:102080008091350190E0AC01249FC001259F900D07
:10209000349F900D112420914F02E0914C02F09159
:1020A0004D02E80FF91FE20FF11DE08280914F020F
:1020B0008F5F80934F0290913501891709F0BBC063
:1020C00040914E02242F30E08091340190E001973E
:1020D0002817390709F0A4C0C0E0D0E044C080E070
:1020E0006C2F0E94C40EFF246E010894C11CD11CE9
:1020F00035C00F2D10E090E09C01C29FC001C39F2E
:10210000900DD29F900D1124E0914C02F0914D0260
:10211000E00FF11FE80FF91F80810E94160FE09178
:102120004C02F0914D028091350190E0C89FD001A2
:10213000C99FB00DD89FB00D1124E00FF11FAE0F55
:10214000BF1FAC01C49EC001C59E900DD49E900DD2
:102150001124E80FF91F80818C93F394809135014D
:10216000F81638F2E60160913401862F90E002976C
:10217000C817D9070CF4B3CF623008F440C06250DE
:1021800080E00E94C40EFF24E0E2DE2E34C00F2D5A
:1021900010E08091340190E0029730E0AC01429F62
:1021A000C001439F900D529F900D1124E0914C026D
:1021B000F0914D02E00FF11FE80FF91F80810E949E
:1021C000160F2091340130E02250304080913501CB
:1021D00090E0AC01249FC001259F900D349F900D8D
:1021E0001124E0914C02F0914D02E00FF11FE80F35
:1021F000F91FD082F39420913501F21640F26091DC
:102200003401615080E00E94C40E00E004C080E20E
:102210000E94160F0F5F809135010817C0F303C0AD
:102220004F5F40934E0210924F0280914F02609197
:102230004E020E94C40E2E2D332727FD3095C90172
:10224000CDB7DEB7E8E00C948816EF92FF920F93BB
:102250001F93CF93DF937C01062F10E0F3E0000F74
:10226000111FFA95E1F7C0E0D0E09E01200F822F08
:1022700080640E94980EF701EC0FFD1FE4918E2FF1
:102280000E94160F2196C830D10579F7CDB7DEB779
:10229000E6E00C948A160E942511089560E041E062
:1022A0000E94640E08950F931F93CF93DF93082F1E
:1022B000162FEA010BC0002311F488E101C08CE164
:1022C0000E94980ECE010E9438151150112399F7E3
:1022D000DF91CF911F910F9108950E94531108959E
:1022E000282F883068F481E090E002C0880F991FA1
:1022F0002A95E2F7282FAAE2B0E0EBE2F0E029C04D
:102300008E3080F430E02850304081E090E002C010
:10231000880F991F2A95E2F7282FA4E2B0E0E5E2A2
:10232000F0E017C0853130F020E0A0E0B0E0E0E060
:10233000F0E00FC030E02E50304081E090E002C06D
:10234000880F991F2A95E2F7282FA7E2B0E0E8E26C
:10235000F0E06F3F19F48081822709C0662319F0ED
:102360008081822B04C09081822F80958923808375
:102370008C91822B8C93089508950895E0EBF0E002
:1023800083EF8083808184BDE1EBF0E082E0808395
:10239000808185BDE4EBF0E010828081E3EBF0E02A
:1023A0008083808188BD88B587BD86E060E00E941B
:1023B000701185E060E00E9470118BE060E00E9487
:1023C000701183E060E00E947011089580915502C1
:1023D000882329F481E0809355020E94BE1108955C
:1023E000CF93DF93EC010E94E611D7FD02C020E0FD
:1023F00004C0D095C195DF4F21E0CE01CF3FD1057C
:1024000019F014F08FEF90E0222319F018BC87BD6B
:1024100002C088BD17BCDF91CF9108950E94F011D2
:102420000895CF93DF93EC010E94E611D7FD02C01F
:1024300020E004C0D095C195DF4F21E0CE01CF3F11
:10244000D10519F014F08FEF90E0222329F01092BB
:10245000B4008093B30004C08093B4001092B30022
:10246000DF91CF9108950E94111208950F931F9349
:102470008B010E94F011C8010E9411121F910F914F
:1024800008950E943612089508950895282F809186
:102490005602882391F481E08093560284B18D7CAA
:1024A00084B985B1826385B985E090E06F9364E07B
:1024B0006A95F1F76F910197C9F783B180958223EF
:1024C000089580915602882391F481E0809356020A
:1024D00084B18D7C84B985B1826385B985E090E053
:1024E0006F9364E06A95F1F76F910197C9F70895CA
:1024F00084B18D7C84B985B1826385B985E090E033
:102500006F9364E06A95F1F76F910197C9F70895A9
:10251000282F80915602882391F481E080935602FF
:1025200084B18D7C84B985B1826385B985E090E002
:102530006F9364E06A95F1F76F910197C9F783B1E2
:102540008095822308950F931F93082F13B10E9443
:102550006915AB01BC0180915602882391F481E09A
:102560008093560284B18D7C84B985B1826385B92C
:1025700085E090E06F9364E06A95F1F76F910197C1
:10258000C9F780915C02813011F1813038F08230DE
:1025900009F443C0833009F089C065C0202F30E0C2
:1025A000812F90E08095909528233923232B09F4DF
:1025B0007DC01095102310935702409358025093FA
:1025C000590260935A0270935B0281E06DC0809162
:1025D000580290915902A0915A02B0915B02481B97
:1025E000590B6A0B7B0B4F3051056105710508F4DF
:1025F0005DC040915702812F90E080959095242FE7
:1026000030E082239323892B59F182E080935C028E
:10261000109514231093570249C0E0915702AE2F32
:10262000B0E0212F30E0CD0182239323892B79F074
:1026300083E080935C02E123E093570240935802C9
:102640005093590260935A0270935B022FC0802FFF
:1026500090E02095309582239323A817B90731F194
:1026600010925C0223C08091580290915902A0916F
:102670005A02B0915B02481B590B6A0B7B0B4F301F
:1026800051056105710590F040915702842F90E04B
:10269000212F30E082239323892B29F010925C02B2
:1026A000842F812304C082E080935C0280E01F912C
:1026B0000F9108950E94A31208950F931F93082F5E
:1026C00013B110950E946915AB01BC0180915602AF
:1026D000882391F481E08093560284B18D7C84B983
:1026E00085B1826385B985E090E06F9364E06A9577
:1026F000F1F76F910197C9F780916202813011F172
:10270000813038F0823009F443C0833009F089C049
:1027100065C0202F30E0812F90E080959095282390
:102720003923232B09F47DC01095102310935D02EB
:1027300040935E0250935F02609360027093610267
:1027400081E06DC080915E0290915F02A091600275
:10275000B0916102481B590B6A0B7B0B4F3051053E
:102760006105710508F45DC040915D02812F90E024
:1027700080959095242F30E082239323892B59F163
:1027800082E0809362021095142310935D0249C089
:10279000A0915D02212F30E0EA2FF0E0C9018E23E5
:1027A0009F23892B79F083E0809362021A23109390
:1027B0005D0240935E0250935F02609360027093EB
:1027C00061022FC0802F90E02095309582239323C3
:1027D000E817F90731F11092620223C080915E027E
:1027E00090915F02A0916002B0916102481B590B69
:1027F0006A0B7B0B4F3051056105710590F04091DC
:102800005D02812F90E0242F30E082239323892BD7
:1028100029F010926202812F842304C082E0809309
:10282000620280E01F910F9108950E945D13089548
:102830001F93CF93DF93182F80915602882391F432
:1028400081E08093560284B18D7C84B985B1826326
:1028500085B985E090E06F9364E06A95F1F76F9138
:102860000197C9F7C12FD0E083B190E08C239D235D
:10287000892BD1F38AE090E00E94381583B190E073
:102880008C239D23892B81F383B18123DF91CF9109
:102890001F9108950E94181408951F93CF93DF93FA
:1028A000182F80915602882391F481E0809356027C
:1028B00084B18D7C84B985B1826385B985E090E06F
:1028C0006F9364E06A95F1F76F910197C9F7C12F93
:1028D000D0E083B190E0809590958C239D23892B47
:1028E000C1F38AE090E00E94381583B190E08095B2
:1028F00090958C239D23892B61F383B1809581234F
:10290000DF91CF911F9108951F930E944D14182FAE
:102910000E941814812F1F9108950E948414089515
:102920000E944D140895A2E0B0E0E9E9F4E10C94AE
:1029300072162091710230917202CE01019621151A
:10294000310519F48B57924002C0821B930B9A8376
:10295000898389819A812296E2E00C948E160895EB
:102960000895A2E0B0E0E7EBF4E10C947216209138
:10297000710230917202CE0101962115310519F4D0
:102980008B57924002C0821B930B9A838983898163
:102990009A812296E2E00C948E162F928F939F9349
:1029A0002FB680916702909168020196809367022A
:1029B0009093680290E080916902891F8093690278
:1029C00090916F029C5F90936F0280916E02805194
:1029D0009742C0F090936F0280936E0280916A02DA
:1029E00090916B02019680936A0290936B0290E043
:1029F00080916C02891F80936C0280916D02891F07
:102A000080936D022FBE9F918F912F9018956F5FCD
:102A10007F4F8F4F9F4F660F771F881F991F25E0AD
:102A200030E040E050E00E942516CA01B901089547
:102A300028EE33E009C0F9016F9364E06A95F1F77D
:102A40006F913197C9F701970097A9F708956F5FC4
:102A50007F4F8F4F9F4F660F771F881F991F25E06D
:102A600030E040E050E00E942516CA01B901089507
:102A700028EE33E009C0F9016F9364E06A95F1F73D
:102A80006F913197C9F701970097A9F70895A0E7CB
:102A9000B0E08C918E7F8C93E0EBF0E080818360DE
:102AA0008083E1EBF0E08081807F808380818260A1
:102AB0008083B89A8C9181608C93789408958091EA
:102AC0007002882329F481E0809370020E944715E8
:102AD00008950E945F15E0E7F0E080818E7F80839B
:102AE00020916A0230916B0240916C0250916D020C
:102AF000808181608083B901CA0108950E946915AF
:102B000008950E945F15809170008E7F8093700001
:102B10006091B2008091660290916702A091680274
:102B2000B0916902B89905C0262F30E040E050E02E
:102B300011C08091B20020916602309167024091ED
:102B400068025091690220503F4F4F4F5F4F90E015
:102B5000A0E0B0E0282B392B4A2B5B2B8091700032
:102B6000816080937000B901CA0108950E948115A7
:102B700008950E945F15E0E7F0E080818E7F8083FA
:102B800010926A0210926B0210926C0210926D0207
:102B900010926F0210926E0280818160808308958E
:102BA0000E94B9150895629FD001739FF001829F22
:102BB000E00DF11D649FE00DF11D929FF00D839FCC
:102BC000F00D749FF00D659FF00D9927729FB00D69
:102BD000E11DF91F639FB00DE11DF91FBD01CF017C
:102BE00011240895991B79E004C0991F961708F0E5
:102BF000961B881F7A95C9F780950895AA1BBB1B61
:102C000051E107C0AA1FBB1FA617B70710F0A61BEC
:102C1000B70B881F991F5A95A9F780959095BC010D
:102C2000CD01089597FB092E07260AD077FD04D021
:102C3000E5DF06D000201AF4709561957F4F089566
:102C4000F6F7909581959F4F0895A1E21A2EAA1B41
:102C5000BB1BFD010DC0AA1FBB1FEE1FFF1FA2174C
:102C6000B307E407F50720F0A21BB30BE40BF50B49
:102C7000661F771F881F991F1A9469F760957095D2
:102C8000809590959B01AC01BD01CF01089597FB04
:102C9000092E05260ED057FD04D0D7DF0AD0001C20
:102CA00038F450954095309521953F4F4F4F5F4FE9
:102CB0000895F6F790958095709561957F4F8F4FA9
:102CC0009F4F08952F923F924F925F926F927F9203
:102CD0008F929F92AF92BF92CF92DF92EF92FF922C
:102CE0000F931F93CF93DF93CDB7DEB7CA1BDB0BD8
:102CF0000FB6F894DEBF0FBECDBF09942A8839887D
:102D000048885F846E847D848C849B84AA84B98483
:102D1000C884DF80EE80FD800C811B81AA81B9818F
:102D2000CE0FD11D0FB6F894DEBF0FBECDBFED01A3
:102D30000895EE0FFF1F0590F491E02D0994CF93B5
:102D4000DF93BC018230910510F462E070E0A09145
:102D50007302B0917402ED01E0E0F0E040E050E079
:102D600021C0888199818617970769F48A819B81A0
:102D7000309719F09383828304C0909374028093F8
:102D80007302FE0134C06817790738F44115510504
:102D900019F08417950708F4AC01FE018A819B8124
:102DA0009C01E9012097E9F641155105A9F1CA01F5
:102DB000861B970B049708F4BA01E0E0F0E02AC004
:102DC0008D919C91119784179507F9F464177507F5
:102DD00081F412968D919C911397309719F09383FB
:102DE000828304C09093740280937302FD01329633
:102DF0004FC0CA01861B970BFD01E80FF91F6193B5
:102E0000719302978D939C9343C0FD0182819381BE
:102E10009C01D9011097A1F68091710290917202E4
:102E2000892B41F480914102909142029093720269
:102E30008093710240914302509144024115510523
:102E400041F44DB75EB780913F0290914002481B1C
:102E5000590B209171023091720224173507B0F49A
:102E6000CA01821B930B8617970780F0AB014E5F58
:102E70005F4F8417950750F0420F531F5093720213
:102E800040937102F9016193719302C0E0E0F0E0B8
:102E9000CF01DF91CF910895CF93DF93009709F48D
:102EA00050C0EC0122971B821A82A0917302B0914C
:102EB0007402109709F140E050E0AC17BD0708F12B
:102EC000BB83AA83FE0121913191E20FF31FAE175C
:102ED000BF0779F48D919C911197280F391F2E5FB0
:102EE0003F4F3983288312968D919C9113979B8332
:102EF0008A834115510571F4D0937402C093730213
:102F000020C012968D919C911397AD01009711F0FE
:102F1000DC01D3CFFA01D383C28321913191E20F37
:102F2000F31FCE17DF0769F488819981280F391FB5
:102F30002E5F3F4FFA01318320838A819B819383E7
:102F40008283DF91CF9108950F931F93CF93DF93E7
:102F50008C01EB01009731F46115710519F420E043
:102F600030E038C081E090E06EE070E00E94F01741
:102F7000FC019C01009771F180E88383209771F038
:102F8000D387C28781E8838380917502909176020E
:102F9000892B21F4F0937602E09375020115110557
:102FA000C9F01187008783818260838380917702D3
:102FB00090917802892B71F4F0937802E093770274
:102FC0008091790290917A02892B21F4F0937A0210
:102FD000E0937902C901DF91CF911F910F9108957C
:102FE0000F931F93CF93DF93689F8001699F100D0C
:102FF000789F100D1124C8010E949F16EC010097C4
:1030000029F060E070E0A8010E940C18CE01DF9169
:10301000CF911F910F910895DC0101C06D93415034
:0A3020005040E0F70895F894FFCF48
:10302A004C3136206365673E63003D3F00216333C0
:10303A00320021653332002167333200426F6D62FC
:10304A0020302E31004D4158008813040400D00767
:10305A00F4010F0002080100000000000000000057
:10306A000102020303030304040404040404040520
:10307A0005050505050505050505050505050506F5
:10308A0006060606060606060606060606060606D6
:10309A0006060606060606060606060606060607C5
:1030AA0007070707070707070707070707070707A6
:1030BA000707070707070707070707070707070796
:1030CA000707070707070707070707070707070786
:1030DA000707070707070707070707070707070875
:1030EA000808080808080808080808080808080856
:1030FA000808080808080808080808080808080846
:10310A000808080808080808080808080808080835
:10311A000808080808080808080808080808080825
:10312A000808080808080808080808080808080815
:10313A000808080808080808080808080808080805
:10314A0008080808080808080808080808080808F5
:10315A0008080808080808080808080808080820CD
:06316A00007B02000000E2
:00000001FF
