:100000000C9442000C946A000C946A000C946A00F0
:100010000C946A000C946A000C946A000C946A00B8
:100020000C946A000C9448130C946A000C946A00B7
:100030000C946A000C94C50B0C946A000C946A0032
:100040000C946A000C946A000C946A000C946A0088
:100050000C946A000C946A000C946A000C946A0078
:100060000C946A000C946A00E508EB08EE08F108AD
:10007000F408F708FA08FD08000903090609090948
:100080006814691411241FBECFEFD4E0DEBFCDBFCA
:1000900012E0A0E0B1E0ECE0FCE302C005900D92BC
:1000A000AA32B107D9F712E0AAE2B2E001C01D926C
:1000B000A73AB107E1F710E0C2E8D0E004C0229708
:1000C000FE010E94811CC038D107C9F70E942D0192
:1000D0000C94F91D0C940000AF92BF92CF92DF9266
:1000E000EF92FF920F931F935C017B0166277727A6
:1000F000681B790B0E943B110027F7FC0095102F1D
:10010000C801B7010E94930328E431EE4AE553E4A5
:100110000E94ED017B018C01CC24B7FCC094DC2C47
:10012000C601B5010E9493039B01AC01C801B70150
:100130000E94E7020E94F103DC01CB010E948213BE
:1001400080E090E060E070E00E943B111F910F9111
:10015000FF90EF90DF90CF90BF90AF900895AF9257
:10016000BF92CF92DF92EF92FF920F931F935C01A9
:100170007B01882799278A199B09B5010E943B11A9
:100180000027F7FC0095102FC801B7010E949303C8
:1001900028E431EE4AE553E40E94ED017B018C0135
:1001A000CC24B7FCC094DC2CC601B5010E9493039B
:1001B0009B01AC01C801B7010E94E7020E94F10354
:1001C000DC01CB010E94821380E090E060E070E0EF
:1001D0000E943B111F910F91FF90EF90DF90CF9005
:1001E000BF90AF9008950F931F938C0188EC90E01F
:1001F00062E370E04EE00E94B4088BE490E00E945D
:1002000082138CE291E062E370E04EE00E94B40859
:1002100088EC90E062E370E04EE00E94B4088BE46A
:1002200090E00E9482138CE291E062E370E04EE085
:100230000E94B40880E060E00E94DD0DC8010E94C9
:10024000F90E80E10E9470118823D9F384EF91E0C8
:100250000E9482131F910F9108958F929F92AF92E7
:10026000BF92CF92DF92EF92FF920F931F93DF9393
:10027000CF93CDB7DEB72A970FB6F894DEBF0FBE87
:10028000CDBF80E091E00E94F30080ED97E00E94F6
:10029000F31480E10E94F21288EE93E00E94821330
:1002A0000CEE1FEF0832110528F088E290E068EDAF
:1002B0007FEF04C088ED9FEF68E270E00E943B1181
:1002C00081E00E94971484E190E00E9482130F5F06
:1002D0001F4F0C33110531F780E090E060E070E0D3
:1002E0000E943B1180917C00806280937C003D984D
:1002F000459880E091E00E94F30088EE93E00E9430
:100300008213CC24DD244E010894811C911C9EE6AE
:10031000A92EB12CC40161E00E947C149C010697B7
:10032000825E934028F487E390E061E470E00AC0C5
:10033000C901895E93408F51934038F487E390E080
:100340006FE570E00E946C0016C0C90189509740AB
:100350008F5A944028F487E390E06FE570E009C07D
:10036000295B3B40225E334030F487E390E061E458
:1003700070E00E94AF0086E00E943A067C0185E0B2
:100380000E943A068C0187E00E943A069C0145E1F2
:10039000E416F10434F4053111051CF480E090E01A
:1003A00004C0C80144978E199F09C114D10469F48F
:1003B000233A310554F089E190E069E170E00E9450
:1003C0003B1181E0C82ED12CA5CFB501681B790B5C
:1003D00082599F4F0E943B119DCFA0E2B0E0E3EF16
:1003E000F1E00C94481C69837A838B839C832D8372
:1003F0003E834F835887CE010196BE01675F7F4FD2
:100400000E946905CE010596BE016F5E7F4F0E9476
:1004100069059985923088F089898230C8F09430D6
:1004200019F4823051F404C0843029F4923081F4FC
:100430008BE191E0C6C0923049F420E09A858A8928
:10044000981321E02A87CE010996BBC0823049F477
:1004500020E09A858A89981321E02A8BCE01419663
:10046000B0C02D843E844F8458886D887E888F88E4
:10047000988CEE24FF248701AA24BB24650140E068
:1004800050E060E070E0E0E0F0E0C1018170907069
:10049000892BE9F0E60CF71C081D191D9A01AB0128
:1004A0002A0D3B1D4C1D5D1D80E090E0A0E0B0E0FA
:1004B000E614F7040805190520F481E090E0A0E0B7
:1004C000B0E0BA01A901480F591F6A1F7B1FAA0C8F
:1004D000BB1CCC1CDD1C97FE08C081E090E0A0E0B6
:1004E000B0E0A82AB92ACA2ADB2A3196E032F105FF
:1004F00049F0660C771C881C991C569447943794D5
:100500002794C3CFFA85EA892B893C898B859C8502
:10051000280F391F2E5F3F4F17C0CA01817090709E
:10052000892B61F016950795F794E79480E090E0A9
:10053000A0E0B0E8E82AF92A0A2B1B2B76956795EC
:10054000579547952F5F3F4F77FDE7CF0CC0440F7E
:10055000551F661F771F17FD4160EE0CFF1C001F23
:10056000111F21503040403090E0590790E069075A
:1005700090E4790760F32B8F3C8FDB01CA018F7702
:100580009070A070B07080349105A105B10561F440
:1005900047FD0AC0E114F1040105110529F0405C92
:1005A0005F4F6F4F7F4F40781A8EFE1711F081E03A
:1005B0008A8F4D8F5E8F6F8F78A383E0898FCE01F6
:1005C00049960E949404A096E2E10C94641CA8E170
:1005D000B0E0EDEEF2E00C94501C69837A838B83DB
:1005E0009C832D833E834F835887B9E0EB2EF12CFB
:1005F000EC0EFD1ECE010196B7010E9469058E0129
:100600000F5E1F4FCE010596B8010E94690529852E
:10061000223008F47EC03989323010F4B8017CC031
:100620008A859A8989278A87243011F0223031F40B
:10063000231709F06EC06BE171E06EC0343039F4FD
:100640001D861E861F86188A1C861B8604C03230B3
:1006500021F484E08987B7015FC02B853C858B89B5
:100660009C89281B390B3C872B87ED84FE840F85E2
:100670001889AD88BE88CF88D88CEA14FB040C0595
:100680001D0540F4EE0CFF1C001F111F21503040CF
:100690003C872B8720E030E040E050E080E090E0B5
:1006A000A0E0B0E460E070E0EA14FB040C051D0576
:1006B00040F0282B392B4A2B5B2BEA18FB080C093E
:1006C0001D09B695A79597958795EE0CFF1C001F01
:1006D000111F6F5F7F4F6F31710531F7DA01C9016B
:1006E0008F779070A070B07080349105A105B1052E
:1006F00061F427FD0AC0E114F1040105110529F098
:10070000205C3F4F4F4F5F4F20782D873E874F87AC
:10071000588BBE01675F7F4FCB010E94940468969F
:10072000EAE00C946C1CA8E0B0E0E9E9F3E00C947A
:10073000511C9B01AC0183E08983DA01C901882740
:10074000B7FD83959927AA27BB27B82E2115310518
:100750004105510519F482E089833AC08823A9F044
:10076000203080E0380780E0480780E8580729F407
:1007700060E070E080E09FEC30C0EE24FF24870151
:10078000E21AF30A040B150B02C079018A018EE10B
:10079000C82ED12CDC82CB82ED82FE820F8318879B
:1007A000C801B7010E94450401971816190684F480
:1007B000082E04C0EE0CFF1C001F111F0A94D2F774
:1007C000ED82FE820F831887C81AD90ADC82CB8299
:1007D000BA82CE0101960E9494042896E9E00C9416
:1007E0006D1CACE0B0E0E7EFF3E00C94581C6983BB
:1007F0007A838B839C83CE010196BE016B5F7F4F12
:100800000E9469058D81823061F1823050F184301F
:1008100021F48E81882351F12EC02F81388537FD38
:1008200020C06E812F3131051CF06623F9F023C002
:100830008EE190E0821B930B29853A854B855C8580
:1008400004C056954795379527958A95D2F7662324
:10085000B1F050954095309521953F4F4F4F5F4FE8
:100860000EC020E030E040E050E009C02FEF3FEF45
:100870004FEF5FE704C020E030E040E050E8B9010E
:10088000CA012C96E2E00C94741CEF92FF920F9335
:100890001F937B018C0180E0E81680E0F80681E080
:1008A000080780E0180788F48FEFE816F1040105C7
:1008B000110531F028F088E090E0A0E0B0E017C02A
:1008C00080E090E0A0E0B0E012C080E0E81680E0B8
:1008D000F80680E0080781E0180728F088E190E03A
:1008E000A0E0B0E004C080E190E0A0E0B0E020E251
:1008F00030E040E050E0281B390B4A0B5B0B04C092
:1009000016950795F794E7948A95D2F7F701ED5D70
:10091000FE4F8081281B310941095109C9011F91EE
:100920000F91FF90EF900895DF92EF92FF920F9357
:100930001F93FC01E480F58006811781D1808081BE
:10094000823048F480E090E0A0E1B0E0E82AF92AA3
:100950000A2B1B2BA5C0843009F49FC0823021F4E0
:10096000EE24FF24870105C0E114F10401051105FF
:1009700019F4E0E0F0E096C0628173819FEF623885
:1009800079070CF05BC022E83FEF261B370B2A31BA
:1009900031052CF020E030E040E050E02AC0B80102
:1009A000A701022E04C076956795579547950A943E
:1009B000D2F781E090E0A0E0B0E004C0880F991F7A
:1009C000AA1FBB1F2A95D2F70197A109B1098E2151
:1009D0009F21A023B1230097A105B10521F081E05B
:1009E00090E0A0E0B0E09A01AB01282B392B4A2B14
:1009F0005B2BDA01C9018F779070A070B0708034E2
:100A00009105A105B10539F427FF09C0205C3F4FCE
:100A10004F4F5F4F04C0215C3F4F4F4F5F4FE0E0AF
:100A2000F0E02030A0E03A07A0E04A07A0E45A072F
:100A300010F0E1E0F0E079018A0127C0603871052B
:100A400064F5FB01E158FF4FD801C7018F77907023
:100A5000A070B07080349105A105B10539F4E7FEAE
:100A60000DC080E490E0A0E0B0E004C08FE390E02F
:100A7000A0E0B0E0E80EF91E0A1F1B1F17FF05C01B
:100A800016950795F794E794319687E016950795A4
:100A9000F794E7948A95D1F705C0EE24FF248701E7
:100AA000EFEFF0E06E2F679566276795902F9F77A1
:100AB000D794DD24D7948E2F8695492F462B582F17
:100AC0005D29B701CA011F910F91FF90EF90DF9050
:100AD0000895FC01DB01408151812281622F6F77F3
:100AE00070E0221F2227221F9381892F880F822BDB
:100AF000282F30E0991F9927991F11969C931197E1
:100B000021153105A9F5411551056105710511F44E
:100B100082E037C082E89FEF13969C938E931297E2
:100B20009A01AB0167E0220F331F441F551F6A95DE
:100B3000D1F783E08C930DC0220F331F441F551F44
:100B400012968D919C911397019713969C938E9377
:100B50001297203080E0380780E0480780E458078B
:100B600058F314962D933D934D935C9317970895E6
:100B70002F3F310579F4411551056105710519F4CF
:100B800084E08C93089564FF03C081E08C9312C0CD
:100B90001C9210C02F57304013963C932E931297FF
:100BA00083E08C9387E0440F551F661F771F8A955B
:100BB000D1F7706414964D935D936D937C93179762
:100BC000089580917C0085FF05C080917900282FD1
:100BD00030E004C02091780030917900C901089577
:100BE00090930901809308010895089508958091D4
:100BF0007C0085FF05C080917900282F30E004C07B
:100C00002091780030917900C9010895282F803211
:100C1000B0F487E880937A0080917C00982F9064EC
:100C2000662311F0806C02C0892F8F77807E822B23
:100C300080937C0080917A00806480937A0008958C
:100C400060E00E940606089560E00E94060680911A
:100C50007A0086FDFCCF80917C0085FF05C08091E5
:100C60007900282F30E004C020917800309179007D
:100C7000C90108950E9424060895EF92FF920F93F0
:100C80001F93CF93DF93EB0160E00E9406068091F3
:100C90007A0086FDFCCF9E01EE24FF24870180911F
:100CA0007A00806480937A0080917A0086FDFCCF80
:100CB00080917C0085FF04C08091790090E004C0A1
:100CC0008091780090917900A0E0B0E0E80EF91EE4
:100CD0000A1F1B1F2150304011F7CE0196958795B2
:100CE000C034D10540F48E0D9F1D6C2F70E00E9422
:100CF000E41B9B010DC0A0E0B0E0E80EF91E0A1F46
:100D00001B1F9E0140E050E0C801B7010E940B1C70
:100D1000C901CDB7DEB7E6E00C94701C87E064E152
:100D200070E00E943D0608950E943D06089590934C
:100D300009018093080108951F9310917C00809110
:100D40007C008F7D80937C008EE164E170E00E94E6
:100D50003D068EE164E170E00E943D069C0115FDB8
:100D600004C080917C008F7D03C080917C008062F4
:100D700080937C00B9017695679580E090E06C5493
:100D8000744D8E4E9F4F40E050E00E940B1CC901F5
:100D90001F9108950E949C060895A0E0B0E0209164
:100DA00008013091090140E050E0BC01CD010E94F2
:100DB000B91B9B01AC0180917C0085FF0BC0B90180
:100DC000CA0161587F4F8F4F9F4F2FEF30E040E0B7
:100DD00050E00AC0B901CA0161507E4F8F4F9F4F4A
:100DE0002FEF33E040E050E00E940B1CC901089552
:100DF0000E943D060E94CD0608950E94F8060895BF
:100E000080917C0085FF06C08091790090E00E946F
:100E1000CD06089580917800909179000E94CD06CA
:100E2000089560E00E94060680917A0086FDFCCF5E
:100E30000E94000708950E94110708950E9400076C
:100E4000089587E064E170E00E943D060E94CD06AF
:100E500008950E94CD0608951F9310917C00809103
:100E60007C008F7D80937C0086E064E170E00E94CE
:100E7000F8069C0115FD04C080917C008F7D03C0A5
:100E800080917C00806280937C00C901880F991F4B
:100E9000820F931F880F991F880F991F8A579240BE
:100EA0006DE070E00E94F81BCB011F9108950E9435
:100EB0002C0708951F9310917C0080917C008F7DFA
:100EC00080937C0086E064E170E00E94F8069C015B
:100ED00015FD04C080917C008F7D03C080917C0053
:100EE000806280937C0084E190E0AC01249FC0018B
:100EF000259F900D349F900D11248E529F4167E2E3
:100F000070E00E94F81BCB011F9108950E945A07C0
:100F100008951F9310917C0080917C008F7D8093B9
:100F20007C0086E06AE070E00E94F806AC0115FDE6
:100F300004C080917C008F7D03C080917C00806222
:100F400080937C009A01220F331F240F351F2F5FDF
:100F50003F4F36952795C9011F9108950E94890733
:100F600008951F9310917C0080917C008F7D809369
:100F70007C0086E06AE070E00E94F806AC0115FD96
:100F800004C080917C008F7D03C080917C008062D2
:100F900080937C009A01220F331F240F351FC90153
:100FA0001F9108950E94B10708950E94B107089506
:100FB0000895089580911501882339F020E08091EB
:100FC000480290914902892B09F021E0822F08956F
:100FD00010926F0083E28093800081E18093810012
:100FE0001092820080E197E29093890080938800BC
:100FF00010928B0010928A00229A78940895A0E0B3
:10100000B0E0E5E0F8E00C94501C8C015B01C42ECC
:1010100080914702882329F481E0809347020E944F
:10102000E8071092150117FD03C0DD24D39403C017
:101030001F772AE0D22E80918100E82EFF2488EFCE
:10104000E822FF2488ECD89EC00111248017910764
:10105000C8F4E80197E20131190710F0C0E1D7E2C6
:10106000BE017695679580E090E0605879468746A6
:101070009F4F9E0140E050E00E940B1C890181E0DF
:1010800090E025C088E2D89E802D1124C82FD0E0A2
:10109000C017D10708F4E801BE01769567959E0157
:1010A00040E050E09AE0D91639F480E090E0605ECC
:1010B000734481449F4F06C080E090E060537D4EB2
:1010C0008C4E9F4F0E940B1C890182E090E0E82A21
:1010D000F92A9AE0D91639F4CE0105966AE070E053
:1010E0000E94E41BEB0183E0C83ED80711F4B50170
:1010F0000FC0BE0180E090E0950140E050E00E940A
:10110000B91B28EE33E040E050E00E942D1CB901ED
:1011100010926F00E0928100109389000093880084
:10112000E0918800F0918900AC2DA03108F0AFE08B
:1011300080E190E08A1B910902C0F695E7958A95B7
:10114000E2F7F0938B00E0938A0070932F02609394
:101150002E0286B38FEF86BB81E080936F00CDB700
:10116000DEB7EAE00C946C1C0E94FF070895CF9351
:10117000DF93EB018F3F11F0442329F488EE93E0D5
:10118000BE0140E067C0813110F420E005C0282F87
:101190002051203608F02FE5822F6CE00E94D81BEA
:1011A000382F682F70E084EF9FEF689FF001699FF0
:1011B000F00D789FF00D1124E20FF11DEC30F105D8
:1011C00038F4EC5CFF4F0C947F1C8CE991E023C059
:1011D00080E090E020C085EB91E01DC08FEC91E0B5
:1011E0001AC08AEE91E017C087E092E014C086E250
:1011F00092E011C087E492E00EC089E692E00BC055
:101200008EE892E008C085EB92E005C08EED92E09A
:1012100002C08AE093E0373071F002C0880F991F56
:101220006A95E2F7323020F005966AE070E00BC074
:10123000805090480BC036E0880F991F3A95E1F72F
:10124000029665E070E00E94E41BCB01403108F09B
:101250004FE0BE010E94FF07DF91CF9108950E94E9
:10126000B708089580911501882339F020E0809116
:10127000480290914902892B09F021E0822F0895BC
:1012800010926F00E1E8F0E08081887F81608083C8
:1012900080E197E2909389008093880010928B0000
:1012A00010928A0081E080931501109249021092F9
:1012B000480208950E944009089530912C02E0915F
:1012C0004802F0914902332311F0249101C020819A
:1012D000822F81548A3108F4205E203259F48091A3
:1012E00048029091490201969093490280934802E6
:1012F000019729F7822F0895CF93DF930E945D090C
:10130000282FC0E0D0E01DC0CE0153E0880F991F08
:101310005A95E1F7CC0FDD1FC80FD91F822F9927EF
:1013200087FD9095C80FD91FE09780914802909152
:101330004902019690934902809348020E945D09F8
:10134000282F822F80538A30F8F2CE01DF91CF917F
:101350000895A0E0B0E0EFEAF9E00C944E1C809014
:101360000A01B0902A02BB2021F060912B02662373
:1013700099F4A0902B0200910F0110911001E090C0
:101380000B01F0900C01C0910D01D0910E01C090A5
:101390001101D090120108C18FEF70E040E00E946F
:1013A000B70810922B02CBC194E0892EBB2404EF26
:1013B00011E084E0E82EF12CC0EDD7E0B4E09B2EE4
:1013C000AFE0CA2ED12C0E945D09282F80914802DF
:1013D00090914902019690934902809348022636E3
:1013E00009F498C02736CCF42236A1F1233674F4E0
:1013F0002E3361F12F3334F42132B1F22C3309F062
:101400000BC126C0213609F007C121C1243609F4D9
:1014100051C025360CF066C035C02F3609F4C1C066
:10142000203754F42C3609F4A5C02D3609F4A6C093
:10143000273609F0F1C086C0243709F4D1C0263719
:1014400009F4E6C0223709F0E7C0B0C08394BBCFEF
:101450008A94B9CFA0922B02B0922A021093100165
:1014600000930F01F0920C01E0920B01D0930E015A
:10147000C0930D0190920A01D0921201C092110105
:101480002BE0FCC0A0922B02B0922A021093100114
:1014900000930F01F0920C01E0920B01D0930E012A
:1014A000C0930D0190920A01D0921201C0921101D5
:1014B00020E0E4C0A0922B02B0922A021093100107
:1014C00000930F01F0920C01E0920B01D0930E01FA
:1014D000C0930D0190920A01D0921201C0921101A5
:1014E00022E0CCC0A0922B02B0922A0210931001ED
:1014F00000930F01F0920C01E0920B01D0930E01CA
:10150000C0930D0190920A01D0921201C092110174
:1015100024E0B4C0A0922B02B0922A0210931001D2
:1015200000930F01F0920C01E0920B01D0930E0199
:10153000C0930D0190920A01D0921201C092110144
:1015400025E09CC0A0922B02B0922A0210931001B9
:1015500000930F01F0920C01E0920B01D0930E0169
:10156000C0930D0190920A01D0921201C092110114
:1015700027E084C00E947C097C0144C00E945D0970
:101580008C3611F4BB2403C0AA24BB24B3948091ED
:101590004802909149020196909349028093480233
:1015A00012CF0E947C09882E982C0DCFA0922B027E
:1015B000B0922A021093100100930F01F0920C01D7
:1015C000E0920B01D0930E01C0930D0190920A019D
:1015D000D0921201C092110120E0FF24F3944FC079
:1015E0000E947C09BC0180EC9DE50E94E41BCB01BC
:1015F000EB01F3E0CC0FDD1FFA95E1F7880F991F9F
:10160000C80FD91FCE01B7010E94E41B8B01DBCEAE
:101610000E947C096C01D7CEA0922B02B0922A02C4
:101620001093100100930F01F0920C01E0920B0156
:10163000D0930E01C0930D0190920A01D092120135
:10164000C0921101109249021092480278C0A092F3
:101650002B02B0922A021093100100930F01F09216
:101660000C01E0920B01D0930E01C0930D019092FA
:101670000A01D0921201C092110129E0FF248CE0EE
:10168000889EC0011124E22EE80E0AC08091480213
:101690009091490201969093490280934802E39405
:1016A0000E945D098B3291F3833281F30CC08091EB
:1016B0004802909149020196909349028093480212
:1016C000EA940E945D098D3291F3C0910F01D0918F
:1016D00010018153883058F400910D0110910E01D2
:1016E0000E947C09BC01C8010E94E41BEB018E0131
:1016F0000BC0809148029091490201969093490253
:1017000080934802C00FD11F169507950E945D096E
:101710008E3279F380912A02882339F0CE01969592
:10172000879580932B02C81BD109FF2011F0EE246E
:10173000EA948E2DBE01409111010E94B708CDB7E9
:10174000DEB7ECE00C946A1C10926F009093490293
:101750008093480281E080932C0210922B020E9419
:10176000A90908950E94A40B089510926F00909308
:1017700049028093480210922C0210922B020E9480
:10178000A90908950E94B50B08951F920F920FB6F4
:101790000F9211242F933F934F935F936F937F93F7
:1017A0008F939F93AF93BF93EF93FF9380912E02FC
:1017B00090912F02019790932F0280932E02019611
:1017C00011F510926F00789480918100887F81607C
:1017D0008093810080E197E2909389008093880054
:1017E00010928B0010928A0081E080931501809105
:1017F000480290914902892B31F080912D02882373
:1018000011F40E94A909FF91EF91BF91AF919F91AF
:101810008F917F916F915F914F913F912F910F9099
:101820000FBE0F901F90189510926F0080911501B8
:10183000882341F08091480290914902892B11F050
:101840000E94A90981E080936F0020E08091480206
:1018500090914902892B09F021E0822F089580930D
:101860002D02882311F40E94140C08950E942F0C5D
:1018700008950E94140C08950895089580E090E062
:101880000895EF92FF920F931F936AB157985A9859
:10189000289AE0903402F0903502009136021091BF
:1018A000370220E030E041E050E0CA016F9364E08D
:1018B0006A95F1F76F910197C9F75C9ACA016F9326
:1018C00064E06A95F1F76F910197C9F789B15C9867
:1018D000FA016F9364E06A95F1F76F913197C9F758
:1018E0005C9AFA016F9364E06A95F1F76F91319712
:1018F000C9F75C9887FF0BC02C5F3F4FC901A0E080
:10190000B0E08E159F05A007B10708F4CECF6AB9E5
:101910001F910F91FF90EF90089565B190E0AC0199
:1019200041705070440F551F9C012670307053E079
:10193000220F331F5A95E1F7422B6D7C462B45B998
:101940002BB18870907034E0880F991F3A95E1F7B9
:101950002F77282B2BB95C9A81E090E0FC016F93E4
:1019600064E06A95F1F76F913197C9F75C986F93CE
:1019700064E06A95F1F76F910197C9F70895809136
:10198000300290913102009711F00E94321D809137
:10199000130190E001972091140130E0AC01429FC7
:1019A000C001439F900D529F900D11240E94851CF1
:1019B0009093310280933002009729F160E070E249
:1019C00008C0E0913002F0913102E40FF51F7083FE
:1019D0006F5F462F50E08091130190E001972091B6
:1019E000140130E0FC01E29FC001E39F900DF29FE3
:1019F000900D11244817590724F382E09FE06EE30D
:101A00007CE00E948A1D0895809314016093130165
:101A10000E94BF0C089580931401609313010E94EB
:101A2000BF0C08950E94BF0C089580E197E2A0E0EA
:101A3000B0E08093340290933502A0933602B093C5
:101A40003702529A209A549A8EE190E00E94A51390
:101A500083E00E94481086E090E00E94A51383E096
:101A60000E94481082E090E00E94A51383E00E944B
:101A7000481082E090E00E94A51382E00E94481086
:101A800082E090E00E94A51388E20E94920D88E017
:101A90000E94920D81E00E94920D86E00E94920DBC
:101AA0008CE00E94920D089580913802882329F4D9
:101AB00081E0809338020E94150D0895BF92CF9265
:101AC000DF92EF92FF920F931F93082F162FF42EA1
:101AD0000E94540D0E94410CB4B0C5B0DAB0EBB016
:101AE0002898112311F05A9A01C05A9884B1826340
:101AF00084B9579A81E0F81629F0802F82958F706B
:101B00000E948D0C802F8F700E948D0CDAB8EBB87C
:101B1000B4B8C5B81F910F91FF90EF90DF90CF90B0
:101B2000BF90089560E042E00E945E0D08950F931B
:101B30001F93082F162F08C0002311F480E101C065
:101B400084E10E94920D11501123B1F71F910F9162
:101B500008950E94970D08958CE00E94920D0895BB
:101B60000E94AC0D0895813011F48FE001C08EE029
:101B70000E94920D08950E94B30D0895A4E0B0E074
:101B8000E4ECFDE00C94561C182F062F80E88983A6
:101B900080EC8A8384E98B8384ED8C83FE01E60FDD
:101BA000F11D8181810F0E94920D109333020093E9
:101BB00032022496E4E00C94721C0E94BE0D08953B
:101BC00081E00E94920D8091300290913102892B28
:101BD00019F160E070E208C0E0913002F09131024A
:101BE000E40FF51F70836F5F462F50E08091130163
:101BF00090E001972091140130E0FC01E29FC001C8
:101C0000E39F900DF29F900D11244817590724F37C
:101C1000109233021092320208950E94E00D08954E
:101C200061E042E00E945E0D08950F931F93CF93F1
:101C3000DF9300E010E8C82FD0E0812F90E08C23E4
:101C40009D23892B11F081E301C080E30E94100ED7
:101C50000F5F083011F01695F0CFDF91CF911F91F3
:101C60000F9108950E94150E08958A3010F4805D3A
:101C700001C0895C0E94100E08951F93182F829551
:101C80008F700E94350E812F8F700E94350E1F912C
:101C900008951F93182F892F0E943D0E812F0E94B7
:101CA0003D0E1F9108950E94490E08950E943D0E19
:101CB00008956F927F928F929F92AF92BF92CF9230
:101CC000DF92FF920F93DF93CF93CDB7DEB72A97C2
:101CD0000FB6F894DEBF0FBECDBF5B016C010AE00A
:101CE0003E010894611C711CFA2CC601B5012AE062
:101CF00030E040E050E00E940B1CC901DA015C01B9
:101D00006D0101504301800E911C80E3F80EC60165
:101D1000B5012AE030E040E050E00E94B91BF61A1D
:101D2000F401F082A114B104C104D104E9F608C0A1
:101D3000F601E00FF11D80810E94100E0F5F04C0BC
:101D40006E010894C11CD11C0A3090F32A960FB67C
:101D5000F894DEBF0FBECDBFCF91DF910F91FF9002
:101D6000DF90CF90BF90AF909F908F907F906F90BB
:101D700008950E94590E0895EF92FF920F931F93BA
:101D80007B018C0197FF0BC010950095F094E094B7
:101D9000E11CF11C011D111D8DE20E94100EC801F5
:101DA000B7010E94590E1F910F91FF90EF90089577
:101DB0000E94BC0E0895CF93DF93EC0103C00E94F4
:101DC000100E2196FE0184918823C9F7DF91CF91EF
:101DD00008950E94DB0E0895CF93DF93EC0103C0BA
:101DE00021960E94100E88818823D1F7DF91CF9130
:101DF00008950E94EC0E08950E94100E08950E940E
:101E0000100E0895A0E0B0E0E8E0FFE00C94521C52
:101E1000E82E8091300290913102892B09F405C19E
:101E20002AE0E21609F446C038E0E316C9F48091CE
:101E300033028150809333028F3F51F480913202FC
:101E4000815080933202809114018150809333023B
:101E5000809132028F3F09F0E2C010923202DDC061
:101E60008E2D0E94100E209132022223C9F030E004
:101E7000215030408091140190E0AC01249FC001BA
:101E8000259F900D349F900D112420913302E091F5
:101E90003002F0913102E80FF91FE20FF11DE082EC
:101EA000809133028F5F80933302909114018917E0
:101EB00009F0BBC040913202242F30E08091130121
:101EC00090E001972817390709F0A4C0C0E0D0E0DE
:101ED00044C080E06C2F0E94BE0DFF246E01089468
:101EE000C11CD11C35C00F2D10E090E09C01C29F99
:101EF000C001C39F900DD29F900D1124E09130023C
:101F0000F0913102E00FF11FE80FF91F80810E946C
:101F1000100EE0913002F09131028091140190E0B6
:101F2000C89FD001C99FB00DD89FB00D1124E00FFC
:101F3000F11FAE0FBF1FAC01C49EC001C59E900D26
:101F4000D49E900D1124E80FF91F80818C93F39497
:101F500080911401F81638F2E60160911301862F82
:101F600090E00297C817D9070CF4B3CF623008F499
:101F700040C0625080E00E94BE0DFF24E0E2DE2EF1
:101F800034C00F2D10E08091130190E0029730E0F3
:101F9000AC01429FC001439F900D529F900D1124B0
:101FA000E0913002F0913102E00FF11FE80FF91FCC
:101FB00080810E94100E2091130130E022503040A9
:101FC0008091140190E0AC01249FC001259F900DE9
:101FD000349F900D1124E0913002F0913102E00F16
:101FE000F11FE80FF91FD082F39420911401F2162B
:101FF00040F260911301615080E00E94BE0D00E04C
:1020000004C080E20E94100E0F5F80911401081737
:10201000C0F303C04F5F40933202109233028091AD
:102020003302609132020E94BE0D2E2D332727FD10
:102030003095C901CDB7DEB7E8E00C946E1CEF9285
:10204000FF920F931F93CF93DF937C01062F10E035
:10205000F3E0000F111FFA95E1F7C0E0D0E09E0118
:10206000200F822F80640E94920DF701EC0FFD1F5C
:10207000E4918E2F0E94100E2196C830D10579F779
:10208000CDB7DEB7E6E00C94701C0E941F100895D7
:1020900060E041E00E945E0D08950F931F93CF937F
:1020A000DF93082F162FEA010BC0002311F488E1FB
:1020B00001C08CE10E94920DCE010E94A513115027
:1020C000112399F7DF91CF911F910F9108950E94ED
:1020D0004D100895282F883068F481E090E002C008
:1020E000880F991F2A95E2F7282FAAE2B0E0EBE2C9
:1020F000F0E029C08E3080F430E02850304081E09C
:1021000090E002C0880F991F2A95E2F7282FA4E2D9
:10211000B0E0E5E2F0E017C0853130F020E0A0E06B
:10212000B0E0E0E0F0E00FC030E02E50304081E061
:1021300090E002C0880F991F2A95E2F7282FA7E2A6
:10214000B0E0E8E2F0E06F3F19F48081822709C037
:10215000662319F08081822B04C09081822F8095A4
:10216000892380838C91822B8C9308950895089500
:10217000E0EBF0E083EF8083808184BDE1EBF0E071
:1021800082E08083808185BDE4EBF0E01082808175
:10219000E3EBF0E08083808188BD88B587BD86E071
:1021A00060E00E946A1085E060E00E946A108BE0A7
:1021B00060E00E946A1083E060E00E946A10089567
:1021C00080913902882329F481E0809339020E94AA
:1021D000B8100895CF93DF93EC010E94E010D7FD73
:1021E00002C020E004C0D095C195DF4F21E0CE01B0
:1021F000CF3FD10519F014F08FEF90E0222319F0B2
:1022000018BC87BD02C088BD17BCDF91CF9108956F
:102210000E94EA100895CF93DF93EC010E94E01032
:10222000D7FD02C020E004C0D095C195DF4F21E06A
:10223000CE01CF3FD10519F014F08FEF90E02223AB
:1022400029F01092B4008093B30004C08093B400CE
:102250001092B300DF91CF9108950E940B11089561
:102260000F931F938B010E94EA10C8010E940B116B
:102270001F910F9108950E943011089508950895B7
:1022800080913A02882391F481E080933A0284B1EC
:102290008D7C84B985B1826385B985E090E06F93C8
:1022A00064E06A95F1F76F910197C9F7089584B1D9
:1022B0008D7C84B985B1826385B985E090E06F93A8
:1022C00064E06A95F1F76F910197C9F708951F933C
:1022D000182F0E94401183B1809581231F9108958A
:1022E0000E9467110895CF92DF92EF92FF920F93B1
:1022F0001F93C82ED3B00E94D6137B018C010E947D
:10230000401180914002813011F1813038F08230EB
:1023100009F444C0833009F08BC066C02C2D30E036
:102320008D2D90E08095909528233923232B09F457
:102330007FC0D094DC20D0923B02E0923C02F0922D
:102340003D0200933E0210933F0281E06FC08091F6
:102350003C0290913D02A0913E02B0913F02E81AEA
:10236000F90A0A0B1B0B8FE0E816F10401051105B1
:1023700008F45EC040913B028D2D90E080959095D1
:10238000242F30E082239323892B59F182E080931C
:102390004002D094D422D0923B024AC040913B02EA
:1023A000642F70E02D2D30E0CB0182239323892B05
:1023B00079F083E0809340024D2140933B02E0920C
:1023C0003C02F0923D0200933E0210933F0230C067
:1023D0008C2D90E020953095822393236817790700
:1023E00039F11092400224C080913C0290913D024C
:1023F000A0913E02B0913F02E81AF90A0A0B1B0BAA
:102400008FE0E816F1040105110590F040913B02C0
:10241000842F90E02D2D30E082239323892B29F007
:1024200010924002842F8D2104C082E080934002EC
:1024300080E01F910F91FF90EF90DF90CF90089573
:102440000E9473110895CF92DF92EF92FF920F9343
:102450001F93C82ED3B0D0940E94D6137B018C0159
:102460000E94401180914602813011F1813038F094
:10247000823009F444C0833009F08BC066C02C2D33
:1024800030E08D2D90E08095909528233923232BE3
:1024900009F47FC0D094DC20D0924102E092420245
:1024A000F0924302009344021093450281E06FC012
:1024B0008091420290914302A0914402B091450262
:1024C000E81AF90A0A0B1B0B8FE0E816F104010564
:1024D000110508F45EC0409141028D2D90E0809579
:1024E0009095242F30E082239323892B59F182E0A9
:1024F00080934602D094D422D09241024AC0609187
:1025000041022D2D30E0462F50E0C9018423952350
:10251000892B79F083E080934602D622D092410243
:10252000E0924202F092430200934402109345026B
:1025300030C08C2D90E0209530958223932348174E
:10254000590739F11092460224C0809142029091BD
:102550004302A0914402B0914502E81AF90A0A0B1D
:102560001B0B8FE0E816F1040105110590F0409176
:1025700041028D2D90E0242F30E082239323892B7C
:1025800029F0109246028D2D842304C082E08093AE
:10259000460280E01F910F91FF90EF90DF90CF9067
:1025A00008950E94231208951F93CF93DF93182F4D
:1025B0000E944011C12FD0E083B190E08C239D2375
:1025C000892BD1F38AE090E00E94A51383B190E0BB
:1025D0008C239D23892B81F383B18123DF91CF91BC
:1025E0001F9108950E94D41208951F93CF93DF93F3
:1025F000182F0E944011C12FD0E083B190E0809548
:1026000090958C239D23892BC1F38AE090E00E9452
:10261000A51383B190E0809590958C239D23892B01
:1026200061F383B180958123DF91CF911F9108954C
:102630001F930E94F512182F0E94D412812F1F9110
:1026400008950E94181308950E94F51208950895A0
:102650000895A2E0B0E0EFE2F3E10C94581C209161
:102660009D0230919E02CE0101962115310519F48B
:10267000875A924002C0821B930B9A838983898177
:102680009A812296E2E00C94741C0E94291308950A
:102690002F928F939F932FB680914B0290914C0273
:1026A000019680934B0290934C0290E080914D02F2
:1026B000891F80934D02909153029C5F9093530227
:1026C0008091520280519742C0F0909353028093C0
:1026D000520280914E0290914F02019680934E02D9
:1026E00090934F0290E080915002891F8093500296
:1026F00080915102891F809351022FBE9F918F912B
:102700002F90189528EE33E009C0F9016F9364E02B
:102710006A95F1F76F913197C9F701970097A9F77B
:1027200008956F5F7F4F8F4F9F4F660F771F881FF2
:10273000991F25E030E040E050E00E940B1CCA01E8
:10274000B90108950E949113089528EE33E009C05D
:10275000F9016F9364E06A95F1F76F913197C9F7CA
:1027600001970097A9F70895A0E7B0E08C918E7FBC
:102770008C93E0EBF0E0808183608083E1EBF0E01C
:102780008081807F8083808182608083B89A8C91F1
:1027900081608C937894089580915402882329F461
:1027A00081E0809354020E94B41308950E94CC13D8
:1027B000E0E7F0E080818E7F808320914E023091AF
:1027C0004F0240915002509151028081816080837C
:1027D000B901CA0108950E94D61308950E94CC132E
:1027E000809170008E7F809370006091B200809124
:1027F0004A0290914B02A0914C02B0914D02B899BF
:1028000005C0262F30E040E050E011C08091B200BA
:1028100020914A0230914B0240914C0250914D025E
:1028200020503F4F4F4F5F4F90E0A0E0B0E0282B8B
:10283000392B4A2B5B2B8091700081608093700054
:10284000B901CA0108950E94EE1308950E94CC13A5
:10285000E0E7F0E080818E7F808310924E0210923C
:102860004F02109250021092510210925302109295
:10287000520280818160808308950E942614089509
:10288000809155029091560208958091570290913F
:10289000580208958091590290915A0208958091AA
:1028A0005B0290915C0208958091550290915602CE
:1028B000089580915702909158020895809159028D
:1028C00090915A02089580915B0290915C02089564
:1028D000089585E592E00E94291A089585E592E021
:1028E0000E94501908959C01462F85E592E0B90198
:1028F00021E00E94501908959C01462F85E592E041
:10290000B90120E00E945019089585E592E00E94E7
:10291000931808959C01462F85E592E0B9010E9425
:102920009318089585E592E00E94491B0895682F49
:1029300085E592E00E94491B089585E592E00E949A
:10294000B715089585E592E00E94B715089585E5CD
:1029500092E00E94D615089585E592E00E94D61572
:1029600008959C01462F85E592E0B9010E94231845
:1029700008959C01462F85E592E0B9010E94231835
:1029800008950F93DF93CF9300D000D00F92CDB76F
:10299000DEB79C01962FDE011196E6E1F1E085E0BD
:1029A00001900D928150E1F7BE016F5F7F4F992337
:1029B00029F085E592E045E00FEF04C085E592E05F
:1029C00045E003E10E943E1685E592E00E94B715BE
:1029D0000E9426140F900F900F900F900F90CF91A0
:1029E000DF910F91089561E00E94C114089560E0A5
:1029F0000E94C114089585E592E00E94ED150895A6
:102A0000FC011182108213821282158214821682B6
:102A10006830A0F489E290E0918380838BE290E0BB
:102A2000938382838AE290E09583848381E090E0BF
:102A300002C0880F991F6A95E2F719C06E30C8F47A
:102A400083E290E09183808385E290E093838283A8
:102A500084E290E095838483262F30E02850304034
:102A600081E090E002C0880F991F2A95E2F78683E3
:102A700008956531C0F486E290E09183808388E216
:102A800090E09383828387E290E095838483262F6E
:102A900030E02E50304081E090E002C0880F991F56
:102AA0002A95E2F786830895A0919B02B0919C023B
:102AB0001C96ED91FC911D97309779F080811996C5
:102AC0009C911997892B80831A96ED91FC911B9705
:102AD000808119969C91892B80830895E0919B02B7
:102AE000F0919C02808191810895E0919B02F09188
:102AF0009C02828193810895E0919B02F0919C0257
:102B0000848195810895E0919B02F0919C028681D9
:102B100097810895A7E0B0E0E0E9F5E10C94561C38
:102B20008C01FC01118210821382128215821482A0
:102B300017821682613118F080E1808702C0FC01A3
:102B40006087F801208BCE010196642F0E9400154A
:102B50008F81F80181878B819C81938782878D810A
:102B60009E81958784872796E4E00C94721CDC0193
:102B70001C96ED91FC911D97309781F080811996FC
:102B80009C911997892B80831A96ED91FC911B9744
:102B9000908119968C9180958923808308958091E6
:102BA0009B0290919C020E94B7150895DC011C962F
:102BB000ED91FC911D97309779F0808119969C9149
:102BC0001997892B80831A96ED91FC911B97808130
:102BD00019969C91892B80830895DC0120E040C0E8
:102BE000ED91FC911197309761F0822F90E0880F62
:102BF000991FE80FF91F1E968D919C911F97918345
:102C000080831496ED91FC911597309761F0822F97
:102C100090E0880F991FE80FF91F1E968D919C91E7
:102C20001F97918380831296ED91FC9113973097B3
:102C300041F0822F90E0880F991FE80FF91F118251
:102C400010821696ED91FC911797309741F0822FE4
:102C500090E0880F991FE80FF91F118210822F5FF3
:102C600018968C911897281708F4BACF0895809178
:102C70009B0290919C020E94ED150895A7E0B0E0A0
:102C8000E4E4F6E10C94481C6C012B01642F7901FB
:102C9000402F20E00E948A15C6018F5B9F4FFC01E8
:102CA0001082D601AE5BBF4F1C9296012D5B3F4F49
:102CB000F9011082F601F786E686EE241E010894DB
:102CC000211C311C39014D015C0128C00E2D10E082
:102CD000F201E00FF11FC10160810E9400152F81F8
:102CE000F601E00FF11F218B89819A81000F111FDE
:102CF0000C0D1D1DF80192A381A38332910511F4DF
:102D0000F50108C08632910511F4F40103C08997DA
:102D100021F4F3018081822B8083E394F601808586
:102D2000E816A0F22796E2E10C94641C0F930E942F
:102D30003E160F9108950F930E943E160F9108952D
:102D4000A0E0B0E0E6EAF6E10C944E1CEC015B0179
:102D5000CF5BDF4F4991A9918880C354D04090E068
:102D600009C0E92FF0E0EE0FFF1FEA0DFB1D1182F5
:102D700010829F5F88859817A0F384B1CF5BDF4FE7
:102D80003991832B84B987B12991822B87B98AB174
:102D90009881C354D040892B8AB985B1832B85B9DA
:102DA00088B1822B88B98BB1892B8BB9EAE0F0E02E
:102DB0006F9364E06A95F1F76F913197C9F784B129
:102DC0003095832384B987B12095822387B98AB14E
:102DD000909589238AB985B1382335B988B12823DC
:102DE00028B98BB198239BB99090B000C090B100E6
:102DF0008091B00083608093B00082E08093B10046
:102E0000D090B20060E070E03AC05091B2005D191D
:102E1000650F711DE3B0E41609F04FC0F6B0FA1665
:102E200009F04BC089B1881509F047C025C0A42F0F
:102E3000B0E09D01220F331F8501020F131FF8011F
:102E400080819181892BA1F42C0F3D1FF90181A173
:102E500092A1FC01208130E0AC0FBD1F51968C91F6
:102E600090E028233923232B19F4F8017183608320
:102E70004F5F88854817D8F2D50E4E2DAF2D8E8521
:102E80009F856817790708F29092B000C092B10050
:102E900020E00FC0E22FF0E0EE0FFF1FEA0DFB1D58
:102EA00080819181892B21F48E859F8591838083F8
:102EB0002F5F8885281770F305C0E3B0F6B089B09E
:102EC00040E0D7CFCDB7DEB7ECE00C946A1CEF92B0
:102ED000FF920F931F93CF93DF93EC017B01122F8F
:102EE000642F402F21E00E948A1519A31AA230E016
:102EF00041E050E013C0E32FF0E0D701AE0FBF1F59
:102F0000EC0FFD1F8C91818BCA010C9002C0880FC1
:102F1000991F0A94E2F7282B2AA33F5F88852AA1EC
:102F2000381748F32F732AA38FEF93E09F878E877C
:102F3000CDB7DEB7E6E00C94701C0F930E946717C4
:102F40000F9108950F930E9467170F910895A0E0C5
:102F5000B0E0EDEAF7E10C94521CEC018B01D0904B
:102F60007C00E0907A00C7B0F8B080917A0086FDCE
:102F7000FCCF90E009C0E92FF0E0EE0FFF1FE00F5B
:102F8000F11F118210829F5F88859817A0F397B177
:102F90008AA18095982397B998B1892388B987E841
:102FA00080937A0050E025C0FE01E40FF11D818975
:102FB000806480937C0080917A00806480937A00A2
:102FC00080917A0086FDFCCFE42FF0E0EE0FFF1F2A
:102FD000E00FF11F2091780030917900808191817C
:102FE000820F931F918380834F5F88854817E0F29B
:102FF0005F5F89A1581710F040E017C040E0F5CF9F
:10300000E42FF0E0EE0FFF1FE00FF11F69A1862F04
:1030100090E09595879520813181820F931F70E014
:103020000E94E41B718360834F5F8885481740F3DB
:10303000D0927C00E0927A00F8B8C7B8CDB7DEB77E
:10304000E8E00C946E1CA0E2B0E0E9E2F8E10C9438
:10305000521C8C017B01D42E842F81508230B0F41D
:10306000D8011C96ED91FC911D97309779F08081E5
:1030700019969C911997892B80831A96ED91FC9152
:103080001B97808119969C91892B8083F8018089F8
:10309000882389F4C801B7010E94A016C8010E94C4
:1030A000B715F2E0DF16D9F5C801BE016F5F7F4F9B
:1030B0000E94A01610C0C801B7010E94A717C8013E
:1030C0000E94B71582E0D81651F5C801BE016F5FA6
:1030D0007F4F0E94A71740E0BE016F5F7F4F1AC06D
:1030E000E42FF0E0EE0FFF1F6701CE0EDF1EE60FAC
:1030F000F71FD8011E962D913C911F9780819181D9
:10310000281B390BF60180819181820F931F9183D7
:1031100080834F5FD80118968C91481708F3A096CA
:10312000E8E00C946E1CA0E0B0E0E9E9F8E10C9452
:103130004F1CEC01162F072F942E22E0421711F09E
:10314000442351F48C819D81892B09F4A4C08E8184
:103150009F81892B09F49FC0892D8150823050F4C2
:1031600088819981892B09F496C08A819B81892B5A
:1031700009F491C0CE01612F702F492D0E942318B0
:10318000812F902F9C015901CC24DD2400E010E018
:103190007CC081E0981669F4EA81FB81E00FF11FA1
:1031A00020813181E881F981E00FF11F4081518157
:1031B0003DC0AC81BD81992059F4EE81FF81E00FC3
:1031C000F11F20813181A00FB11F4D915C912EC064
:1031D000A00FB11F8D919C91E881F981E00FF11F43
:1031E00020813181EE85FF858217930710F4AF01AE
:1031F00005C0A9014E0F5F1F481B590BEE81FF81CF
:10320000E00FF11F60817181EA81FB81E00FF11F06
:1032100080819181EE85FF856817790710F49F0101
:1032200005C09C012E0F3F1F261B370B7901E41AA6
:10323000F50A01F1F5016081718180E090E09A0169
:1032400040E050E0621B730B840B950B28EE33E0DB
:1032500040E050E00E94B91B970140E050E00E941E
:103260002D1CC901F3E0293E3F0714F088EE93E0DE
:1032700097FF02C080E090E0F501819391935F0198
:103280000894C11CD11C0E5F1F4F888590E0C816A2
:10329000D9060CF47ECFCDB7DEB7EBE00C946B1CF7
:1032A000A4E0B0E0E6E5F9E10C94481C8C01F62EB0
:1032B000E72E2A830E949318D8011896BC91B983EF
:1032C0002F2D3E2DC9018C015524442466247724DA
:1032D00043011C821B82AA24BB246501B8EE2B2E5D
:1032E000B3E03B2E32C0F801E080F180FA81FF2389
:1032F00021F091012E193F09790139ECE316F1040F
:1033000014F04424439483E3E816F1049CF0B701DD
:10331000882777FD8095982FA60195010E94B91BFB
:10332000660E771E881E991EAB81BC81AE0DBF1D37
:10333000BC83AB83539488EE93E0A0E0B0E0A80E8A
:10334000B91ECA1EDB1E0E5F1F4F9981591658F217
:10335000442021F5692F70E084EF91E0DC016A9F41
:10336000C0016B9F900D7A9F900D1124845F914056
:103370002091990230919A02281739071CF440E0F5
:1033800050E01AC088EE93E0689FA001699F500D3D
:10339000789F500D1124485E53400EC0EB81FC8194
:1033A0009F0140E050E0C401B3010E940B1CA90141
:1033B00030939A0220939902CA012496E2E10C9478
:1033C000641C9C01462F80919B0290919C02B90144
:1033D00021E00E94501908959C01462F80919B0284
:1033E00090919C02B90120E00E94501908959C011F
:1033F000462F80919B0290919C02B9010E949318E4
:1034000008959C01462F80919B0290919C02B901E6
:103410000E9423180895CF93DF93EC018A819B814A
:10342000009711F00E94321D8E819F81009711F04C
:103430000E94321D88819981009711F00E94321DEF
:103440008C819D81009711F00E94321DDF91CF91F8
:103450000895CF93DF93EC018A819B81009711F04F
:103460000E94321D8E819F81009711F00E94321DB3
:1034700088819981009711F00E94321D8C819D8175
:10348000009711F00E94321DDF91CF910895A3E6BD
:10349000B0E0EDE4FAE10C94481C7C015B016A01A8
:1034A000A2962FAFA297DA018D919C91892B11F5ED
:1034B000F701808590E0880F991F0E94851CD60136
:1034C0008D939C93009709F4DFC020E030E00CC09E
:1034D000C901880F991FD601ED91FC91E80FF91FE2
:1034E000118210822F5F3F4FF701808590E02817EF
:1034F000390774F3D5018D919C91892B89F000E0F7
:1035000010E03E010894611C711C41E4242E312C12
:103510002C0E3D1E31E2432E512C4C0E5D1E28C058
:10352000F701808590E0880F991F0E94851CD501C6
:103530008D939C93009709F4A7C020E030E011C060
:10354000C901880F991FD501ED91FC91E80FF91F72
:10355000D7011E968D919C911F97918380832F5F39
:103560003F4FF701808590E0281739074CF3C7CF0C
:10357000C701B301A2964FADA2970E942318D701AD
:1035800018968C91882E9924A101F301A4965FAE20
:103590004EAEA49760E070E034C00115110559F0FB
:1035A000A496AEADBFADA4972D913C918081918141
:1035B0002817390758F480819181A496AEADBFAD2C
:1035C000A4978D939C930115110541F0DA012D917B
:1035D0003C91808191818217930728F480819181A9
:1035E000DA018D939C936F5F7F4F4E5F5F4F3296F2
:1035F000A4968EAD9FADA4970296A4969FAF8EAF72
:10360000A497681579054CF20F5F1F4F0A3011051A
:1036100009F0AECF40E050E020E030E08E010F5BDB
:103620001F4FBE016F5D7F4F28C0F801E20FF31FEF
:1036300080809180F601A081B181A20FB31F8D918E
:103640009C9111978815990510F48D929C92FB011D
:10365000E20FF31F80809180F501A081B181A20F5C
:10366000B31F8D919C9111978816990610F48D9235
:103670009C924F5F5F4F2E5F3F4FD70118968C9102
:1036800090E0481759078CF2CD59DF4FE2E10C94D6
:10369000641C1F93CF93DF93EC01162F862F81506C
:1036A000823040F4AE014E5F5F4FCE01BE0121E09B
:1036B0000E94471A123011F0112349F4AE014A5FFB
:1036C0005F4FCE012496BE0120E00E94471ADF9191
:1036D000CF911F910895682F80919B0290919C0239
:1036E0000E94491B0895A0E0B0E0E9E7FBE10C94DB
:1036F000531C8C01F62EE42ED22E83E290E00E9421
:10370000851CEC01009711F480E00BC0B8014F2D2F
:103710002E2D0D2D0E946717D0939C02C0939B0203
:1037200081E0CDB7DEB7E7E00C946F1CA0E0B0E01D
:10373000ECE9FBE10C94521C8C01D62E7A01C22ECE
:1037400084E490E00E94851CEC01009711F480E075
:103750000BC0B8014D2D97010C2D0E943E16D09341
:103760009C02C0939B0281E0CDB7DEB7E8E00C94E9
:103770006E1C629FD001739FF001829FE00DF11DCE
:10378000649FE00DF11D929FF00D839FF00D749FDB
:10379000F00D659FF00D9927729FB00DE11DF91F87
:1037A000639FB00DE11DF91FBD01CF0111240895E4
:1037B000991B79E004C0991F961708F0961B881F83
:1037C0007A95C9F780950895AA1BBB1B51E107C0E4
:1037D000AA1FBB1FA617B70710F0A61BB70B881FA1
:1037E000991F5A95A9F780959095BC01CD01089530
:1037F00097FB092E07260AD077FD04D0E5DF06D017
:1038000000201AF4709561957F4F0895F6F7909512
:1038100081959F4F0895A1E21A2EAA1BBB1BFD01A3
:103820000DC0AA1FBB1FEE1FFF1FA217B307E4079F
:10383000F50720F0A21BB30BE40BF50B661F771FF7
:10384000881F991F1A9469F76095709580959095D7
:103850009B01AC01BD01CF01089597FB092E052600
:103860000ED057FD04D0D7DF0AD0001C38F4509595
:103870004095309521953F4F4F4F5F4F0895F6F794
:1038800090958095709561957F4F8F4F9F4F0895CC
:103890002F923F924F925F926F927F928F929F9260
:1038A000AF92BF92CF92DF92EF92FF920F931F934E
:1038B000CF93DF93CDB7DEB7CA1BDB0B0FB6F894FF
:1038C000DEBF0FBECDBF09942A88398848885F843F
:1038D0006E847D848C849B84AA84B984C884DF80B0
:1038E000EE80FD800C811B81AA81B981CE0FD11D94
:1038F0000FB6F894DEBF0FBECDBFED010895EE0FF9
:10390000FF1F0590F491E02D0994CF93DF93BC0144
:103910008230910510F462E070E0A0919F02B091B6
:10392000A002ED01E0E0F0E040E050E021C088813D
:1039300099818617970769F48A819B81309719F0DE
:103940009383828304C09093A00280939F02FE0120
:1039500034C06817790738F44115510519F08417F8
:10396000950708F4AC01FE018A819B819C01E90165
:103970002097E9F641155105A9F1CA01861B970B5D
:10398000049708F4BA01E0E0F0E02AC08D919C9120
:10399000119784179507F9F46417750781F4129647
:1039A0008D919C911397309719F09383828304C073
:1039B0009093A00280939F02FD0132964FC0CA01EE
:1039C000861B970BFD01E80FF91F61937193029716
:1039D0008D939C9343C0FD01828193819C01D90109
:1039E0001097A1F680919D0290919E02892B41F43F
:1039F000809125029091260290939E0280939D02D1
:103A000040912702509128024115510541F44DB7CC
:103A10005EB78091230290912402481B590B20919C
:103A20009D0230919E0224173507B0F4CA01821B13
:103A3000930B8617970780F0AB014E5F5F4F84179B
:103A4000950750F0420F531F50939E0240939D02E2
:103A5000F9016193719302C0E0E0F0E0CF01DF91E2
:103A6000CF910895CF93DF93009709F450C0EC01F4
:103A700022971B821A82A0919F02B091A0021097F8
:103A800009F140E050E0AC17BD0708F1BB83AA8301
:103A9000FE0121913191E20FF31FAE17BF0779F4B8
:103AA0008D919C911197280F391F2E5F3F4F3983BD
:103AB000288312968D919C9113979B838A8341153D
:103AC000510571F4D093A002C0939F0220C01296BA
:103AD0008D919C911397AD01009711F0DC01D3CF2C
:103AE000FA01D383C28321913191E20FF31FCE17E4
:103AF000DF0769F488819981280F391F2E5F3F4FB6
:103B0000FA01318320838A819B8193838283DF91B1
:103B1000CF9108950F931F93CF93DF938C01EB0107
:103B2000009731F46115710519F420E030E038C0D8
:103B300081E090E06EE070E00E94D61DFC019C01E7
:103B4000009771F180E88383209771F0D387C28753
:103B500081E883838091A1029091A202892B21F4B4
:103B6000F093A202E093A10201151105C9F011879B
:103B700000878381826083838091A3029091A40255
:103B8000892B71F4F093A402E093A3028091A50223
:103B90009091A602892B21F4F093A602E093A5024E
:103BA000C901DF91CF911F910F9108950F931F933A
:103BB000CF93DF93689F8001699F100D789F100D50
:103BC0001124C8010E94851CEC01009729F060E0D7
:103BD00070E0A8010E94F21DCE01DF91CF911F91EC
:103BE0000F910895DC0101C06D9341505040E0F702
:103BF000089510E0C2E8D0E004C0FE010E94811CDC
:0C3C00002296C438D107C9F7F894FFCF12
:103C0C0050726573732042008813040400D007F4CB
:103C1C00010F000208010E0F10111200000000002D
:103C2C000000000001020203030303040404040463
:103C3C00040404050505050505050505050505052B
:103C4C00050505060606060606060606060606060B
:103C5C0006060606060606060606060606060606F8
:103C6C0006060607070707070707070707070707DB
:103C7C0007070707070707070707070707070707C8
:103C8C0007070707070707070707070707070707B8
:103C9C0007070707070707070707070707070707A8
:103CAC00070707080808080808080808080808088B
:103CBC000808080808080808080808080808080878
:103CCC000808080808080808080808080808080868
:103CDC000808080808080808080808080808080858
:103CEC000808080808080808080808080808080848
:103CFC000808080808080808080808080808080838
:103D0C000808080808080808080808080808080827
:103D1C000808080808080808080808080808080817
:0A3D2C000808082000A702000000AC
:00000001FF
