:100000000C9440000C945D000C945D000C945D0019
:100010000C945D000C945D000C945D000C945D00EC
:100020000C945D000C9443160C945D000C945D00E0
:100030000C945D000C94C00E0C945D000C945D005B
:100040000C945D000C945D000C945D000C945D00BC
:100050000C945D000C945D000C945D000C945D00AC
:100060000C945D000C945D00E00BE60BE90BEC0BCF
:10007000EF0BF20BF50BF80BFB0BFE0B010C040C5A
:1000800011241FBECFEFD4E0DEBFCDBF12E0A0E051
:10009000B1E0EAEFF2E302C005900D92AC34B10793
:1000A000D9F712E0ACE4B2E001C01D92A138B1076B
:1000B000E1F70E94CD020C947B190C940000ECE750
:1000C000F0E08081806280833D984598089585E0C6
:1000D0000E943509089587E00E943509089586E059
:1000E0000E94350908950E94350908958EEC9FEF0E
:1000F00062E370E00E943614089582E390E06EECB3
:100100007FEF0E943614089586EA9FEF6EEC7FEF32
:100110000E94361408958EEC9FEF66EA7FEF0E94EE
:100120003614089580E090E060E070E00E9436149C
:100130000895AF92BF92CF92DF92EF92FF920F930A
:100140001F93B82EA62E69017A01012B11F00E948F
:1001500008118B2D6A2D0E94D810C701B6010E948C
:10016000D3111F910F91FF90EF90DF90CF90BF9030
:10017000AF9008950F931F93CF93DF93182F062FFF
:10018000EA01232B11F00E940811812F602F0E9499
:10019000D810CE010E94F411DF91CF911F910F91E1
:1001A0000895EF92FF920F931F93CF93DF93EC018B
:1001B0000E940811EE24FF2487010EC080E060E059
:1001C0000E94D810C801B7010E94D31188EE93E0B5
:1001D0000E947D160E9408110894E11CF11C011D6B
:1001E000111DCE15DF0554F7DF91CF911F910F91AF
:1001F000FF90EF900895EF92FF920F931F93DF937C
:10020000CF93CDB7DEB7E2970FB6F894DEBF0FBE3F
:10021000CDBF8E010F5F1F4F83E3E82EF12CEC0E54
:10022000FD1E88ED9FEF68E270E00E94361482E5C3
:1002300090E00E947D1680E090E060E070E00E9417
:10024000361486E00E943509F801819391938F015D
:10025000EE15FF0531F7CE010196E2960FB6F89440
:10026000DEBF0FBECDBFCF91DF911F910F91FF90E9
:10027000EF900895AF92BF92CF92DF92EF92FF92EC
:100280000F931F935C017B0166277727681B790B0F
:100290000E9436140027F7FC0095102FC801B70103
:1002A0000E948E0628E431EE4AE553E40E94E804F9
:1002B0007B018C01CC24B7FCC094DC2CC601B501B9
:1002C0000E948E069B01AC01C801B7010E94E205A5
:1002D0000E94EC06DC01CB010E947D1680E090E0DC
:1002E00060E070E00E9436141F910F91FF90EF9034
:1002F000DF90CF90BF90AF900895AF92BF92CF9212
:10030000DF92EF92FF920F931F935C017B0188278E
:1003100099278A199B09B5010E9436140027F7FC1A
:100320000095102FC801B7010E948E0628E431EE17
:100330004AE553E40E94E8047B018C01CC24B7FC1D
:10034000C094DC2CC601B5010E948E069B01AC0155
:10035000C801B7010E94E2050E94EC06DC01CB0156
:100360000E947D1680E090E060E070E00E9436140C
:100370001F910F91FF90EF90DF90CF90BF90AF90C3
:1003800008950F931F939C018B01B9010E943614AD
:10039000C8010E947D1680E090E060E070E00E945D
:1003A00036141F910F910895EF92FF920F931F93B0
:1003B0002CC00E94E61624EF31E040E050E00E949D
:1003C0008D176115710581059105F9F40E940811D9
:1003D00080E090E060E070E040E051E00E94BA0010
:1003E00080E061E00E94D81085E00E9435097C0120
:1003F00086E00E943509E81AF90A0027F7FC009503
:10040000102FC801B7010E94D31180E10E946B1424
:10041000882379F285E00E9435098C0186E00E94EC
:1004200035097C0189E091E00E94BD0E0E191F097B
:10043000C8011F910F91FF90EF900895CF92DF9226
:10044000EF92FF920F931F93CF93DF937C018A016A
:10045000EB01C12C9DE7D92E0E94081180E060E0DD
:100460000E94D810C7010E94F41183E191E00E941C
:10047000F41180E061E00E94D810BE01882777FD6A
:100480008095982F0E94D31181E00E94B61082E3DC
:100490000E946B148823D9F782E30E941F1681FF04
:1004A00007C086E191E00E94BD0EC01BD10B20C0A9
:1004B00084FF16C00E94AB100E9408118BE191E0EE
:1004C0000E94BD0E84E690E00E947D16CE01DF9171
:1004D000CF911F910F91FF90EF90DF90CF900895F3
:1004E00085FF06C080E291E00E94BD0EC00FD11FC3
:1004F00083E8C030D8074CF480E09DE7B8010E9443
:100500007A17EC01C050DD47A7CF8DE7C130D8077F
:100510000CF4A2CF80E09DE7B8010E947A17E601B3
:10052000C81BD90B99CF0F931F938C0188EC90E0D7
:1005300062E370E04EE00E94AF0B8BE490E00E941B
:100540007D168CE291E062E370E04EE00E94AF0B1A
:1005500088EC90E062E370E04EE00E94AF0B8BE429
:1005600090E00E947D168CE291E062E370E04EE044
:100570000E94AF0B80E060E00E94D810C8010E948A
:10058000F41180E10E946B148823D9F384EF91E089
:100590000E947D161F910F910895CF92DF92EF92E6
:1005A000FF920F931F93CF93DF930E945F0085E22A
:1005B00091E00E94930282E090E00E94D100CC245E
:1005C000DD2486E00E9435097C0185E00E94350922
:1005D000EC0187E00E9435098C0185E1E816F10401
:1005E00034F4C531D1051CF4C0E0D0E003C06497F9
:1005F000CE19DF09C114D10439F4093711055CF0B3
:1006000021E0C22ED12C04C081E0C816D10419F417
:1006100002381105FCF0B801882777FD8095982FE6
:100620000E948E0629E133E64CE05FEB0E94E8046D
:1006300020E030E04CED52E40E94BB040E94EC0646
:100640009B012C1B3D0BCE01860F971FB9010E9409
:100650003614B7CF80E090E060E070E00E9436147E
:100660000E9408118DE291E00E94F411B8018827E0
:1006700077FD8095982F0E94D311FFCFA0E0B0E0C6
:10068000E4E4F3E00C94CA17DC012B01FA019C911D
:10069000923008F439C1EB018881823008F433C10B
:1006A000943069F4843009F02FC111969C91119710
:1006B0008981981709F428C1AEE3B1E025C18430DF
:1006C00009F421C18230A9F4923009F01DC19A01C8
:1006D000AD0188E0EA010990AE01E90109929E01AD
:1006E0008150C1F7E201898111969C918923818310
:1006F00008C1923009F407C112962D903C901397CF
:10070000EB018A819B811496AD90BD90CD90DC90D9
:100710001797EC80FD800E811F819101281B390BFA
:10072000B90137FF04C066277727621B730B60325D
:1007300071050CF061C0121613066CF53701480103
:10074000062E04C096948794779467940A94D2F7FF
:1007500021E030E040E050E004C0220F331F441F8E
:10076000551F6A95D2F721503040404050402E210D
:100770003F2140235123211531054105510521F029
:1007800021E030E040E050E079018A01E628F728D6
:10079000082919293CC0232BD1F1260E371E35011B
:1007A0004601062E04C096948794779467940A9421
:1007B000D2F721E030E040E050E004C0220F331FC8
:1007C000441F551F6A95D2F7215030404040504099
:1007D0002A213B214C215D2121153105410551057F
:1007E00021F021E030E040E050E059016A01A62804
:1007F000B728C828D9280BC0821593052CF01C01F6
:10080000AA24BB24650103C0EE24FF2487011196AE
:100810009C91D20111968C91981709F445C09923A7
:1008200039F0A80197012A193B094C095D0906C056
:10083000A60195012E193F09400B510B57FD08C029
:1008400011823382228224833583468357831DC0DD
:1008500081E081833382228288279927DC01821BF1
:10086000930BA40BB50B84839583A683B7830DC02C
:10087000220F331F441F551F24833583468357831C
:10088000828193810197938382832481358146817C
:100890005781DA01C9010197A109B1098F5F9F4F03
:1008A000AF4FBF4328F30BC0918333822282EA0CFF
:1008B000FB1C0C1D1D1DE482F5820683178383E05B
:1008C0008083248135814681578157FF1AC0C90131
:1008D000AA2797FDA095BA2F81709070A070B07074
:1008E0005695479537952795822B932BA42BB52B9F
:1008F00084839583A683B7838281938101969383B2
:100900008283DF0101C0D201CD01CDB7DEB7E2E1C4
:100910000C94E617A0E2B0E0E0E9F4E00C94D617FE
:1009200069837A838B839C832D833E834F8358878F
:10093000E9E0EE2EF12CEC0EFD1ECE010196B70182
:100940000E9464088E010F5E1F4FCE010596B8010C
:100950000E9464088A8991E089278A8BC701B801BF
:10096000AE01475E5F4F0E943E030E948F07A09634
:10097000E6E00C94F217A0E2B0E0E1ECF4E00C94B5
:10098000D61769837A838B839C832D833E834F8321
:100990005887F9E0EF2EF12CEC0EFD1ECE010196EA
:1009A000B7010E9464088E010F5E1F4FCE010596AD
:1009B000B8010E946408C701B801AE01475E5F4FED
:1009C0000E943E030E948F07A096E6E00C94F21767
:1009D000A0E2B0E0EEEEF4E00C94CA1769837A83EB
:1009E0008B839C832D833E834F835887CE01019652
:1009F000BE01675F7F4F0E946408CE010596BE016D
:100A00006F5E7F4F0E9464089985923088F08989D3
:100A10008230C8F0943019F4823051F404C084302C
:100A200029F4923081F48EE391E0C6C0923049F40B
:100A300020E09A858A89981321E02A87CE010996B9
:100A4000BBC0823049F420E09A858A89981321E05E
:100A50002A8BCE014196B0C02D843E844F845888A5
:100A60006D887E888F88988CEE24FF248701AA24C5
:100A7000BB24650140E050E060E070E0E0E0F0E0C1
:100A8000C10181709070892BE9F0E60CF71C081DFC
:100A9000191D9A01AB012A0D3B1D4C1D5D1D80E007
:100AA00090E0A0E0B0E0E614F7040805190520F492
:100AB00081E090E0A0E0B0E0BA01A901480F591F21
:100AC0006A1F7B1FAA0CBB1CCC1CDD1C97FE08C038
:100AD00081E090E0A0E0B0E0A82AB92ACA2ADB2A87
:100AE0003196E032F10549F0660C771C881C991CA0
:100AF0005694479437942794C3CFFA85EA892B8973
:100B00003C898B859C85280F391F2E5F3F4F17C06E
:100B1000CA0181709070892B61F016950795F79442
:100B2000E79480E090E0A0E0B0E8E82AF92A0A2BF8
:100B30001B2B76956795579547952F5F3F4F77FD10
:100B4000E7CF0CC0440F551F661F771F17FD41608C
:100B5000EE0CFF1C001F111F21503040403090E070
:100B6000590790E0690790E4790760F32B8F3C8F79
:100B7000DB01CA018F779070A070B070803491054E
:100B8000A105B10561F447FD0AC0E114F1040105B6
:100B9000110529F0405C5F4F6F4F7F4F40781A8EF0
:100BA000FE1711F081E08A8F4D8F5E8F6F8F78A3D3
:100BB00083E0898FCE0149960E948F07A096E2E1DB
:100BC0000C94E617A8E1B0E0E8EEF5E00C94D2173B
:100BD00069837A838B839C832D833E834F835887DD
:100BE000B9E0EB2EF12CEC0EFD1ECE010196B70103
:100BF0000E9464088E010F5E1F4FCE010596B8015A
:100C00000E9464082985223008F47EC03989323078
:100C100010F4B8017CC08A859A8989278A87243094
:100C200011F0223031F4231709F06EC06EE371E049
:100C30006EC0343039F41D861E861F86188A1C86C5
:100C40001B8604C0323021F484E08987B7015FC07D
:100C50002B853C858B899C89281B390B3C872B87EE
:100C6000ED84FE840F851889AD88BE88CF88D88C26
:100C7000EA14FB040C051D0540F4EE0CFF1C001FDC
:100C8000111F215030403C872B8720E030E040E0AE
:100C900050E080E090E0A0E0B0E460E070E0EA14B2
:100CA000FB040C051D0540F0282B392B4A2B5B2B30
:100CB000EA18FB080C091D09B695A7959795879525
:100CC000EE0CFF1C001F111F6F5F7F4F6F3171050E
:100CD00031F7DA01C9018F779070A070B07080345D
:100CE0009105A105B10561F427FD0AC0E114F104E5
:100CF0000105110529F0205C3F4F4F4F5F4F2078D1
:100D00002D873E874F87588BBE01675F7F4FCB0192
:100D10000E948F076896EAE00C94EE17A8E0B0E016
:100D2000E4E9F6E00C94D3179B01AC0183E08983DE
:100D3000DA01C9018827B7FD83959927AA27BB2720
:100D4000B82E211531054105510519F482E089833A
:100D50003AC08823A9F0203080E0380780E04807B7
:100D600080E8580729F460E070E080E09FEC30C034
:100D7000EE24FF248701E21AF30A040B150B02C0CC
:100D800079018A018EE1C82ED12CDC82CB82ED82E2
:100D9000FE820F831887C801B7010E9440070197A0
:100DA0001816190684F4082E04C0EE0CFF1C001F50
:100DB000111F0A94D2F7ED82FE820F831887C81A9A
:100DC000D90ADC82CB82BA82CE0101960E948F07BB
:100DD0002896E9E00C94EF17ACE0B0E0E2EFF6E023
:100DE0000C94DA1769837A838B839C83CE010196F6
:100DF000BE016B5F7F4F0E9464088D81823061F17C
:100E0000823050F1843021F48E81882351F12EC03C
:100E10002F81388537FD20C06E812F3131051CF0C0
:100E20006623F9F023C08EE190E0821B930B2985A5
:100E30003A854B855C8504C056954795379527952F
:100E40008A95D2F76623B1F050954095309521955B
:100E50003F4F4F4F5F4F0EC020E030E040E050E08A
:100E600009C02FEF3FEF4FEF5FE704C020E030E015
:100E700040E050E8B901CA012C96E2E00C94F61764
:100E8000EF92FF920F931F937B018C0180E0E81695
:100E900080E0F80681E0080780E0180788F48FEF0B
:100EA000E816F1040105110531F028F088E090E022
:100EB000A0E0B0E017C080E090E0A0E0B0E012C099
:100EC00080E0E81680E0F80680E0080781E0180777
:100ED00028F088E190E0A0E0B0E004C080E190E07C
:100EE000A0E0B0E020E230E040E050E0281B390B09
:100EF0004A0B5B0B04C016950795F794E7948A9507
:100F0000D2F7F701EA5BFE4F8081281B31094109C6
:100F10005109C9011F910F91FF90EF900895DF9241
:100F2000EF92FF920F931F93FC01E480F5800681FE
:100F30001781D1808081823048F480E090E0A0E188
:100F4000B0E0E82AF92A0A2B1B2BA5C0843009F44B
:100F50009FC0823021F4EE24FF24870105C0E114F4
:100F6000F1040105110519F4E0E0F0E096C062819A
:100F700073819FEF623879070CF05BC022E83FEF86
:100F8000261B370B2A3131052CF020E030E040E001
:100F900050E02AC0B801A701022E04C076956795DB
:100FA000579547950A94D2F781E090E0A0E0B0E031
:100FB00004C0880F991FAA1FBB1F2A95D2F701975B
:100FC000A109B1098E219F21A023B1230097A1057A
:100FD000B10521F081E090E0A0E0B0E09A01AB0122
:100FE000282B392B4A2B5B2BDA01C9018F779070A4
:100FF000A070B07080349105A105B10539F427FFC8
:1010000009C0205C3F4F4F4F5F4F04C0215C3F4FF2
:101010004F4F5F4FE0E0F0E02030A0E03A07A0E063
:101020004A07A0E45A0710F0E1E0F0E079018A01F4
:1010300027C06038710564F5FB01E158FF4FD80106
:10104000C7018F779070A070B07080349105A105B2
:10105000B10539F4E7FE0DC080E490E0A0E0B0E017
:1010600004C08FE390E0A0E0B0E0E80EF91E0A1F94
:101070001B1F17FF05C016950795F794E794319647
:1010800087E016950795F794E7948A95D1F705C000
:10109000EE24FF248701EFEFF0E06E2F67956627BF
:1010A0006795902F9F77D794DD24D7948E2F8695C0
:1010B000492F462B582F5D29B701CA011F910F9167
:1010C000FF90EF90DF900895FC01DB01408151819A
:1010D0002281622F6F7770E0221F2227221F9381C7
:1010E000892F880F822B282F30E0991F9927991F6D
:1010F00011969C93119721153105A9F541155105BC
:101100006105710511F482E037C082E89FEF139604
:101110009C938E9312979A01AB0167E0220F331FC5
:10112000441F551F6A95D1F783E08C930DC0220FA1
:10113000331F441F551F12968D919C911397019751
:1011400013969C938E931297203080E0380780E0AE
:10115000480780E4580758F314962D933D934D9318
:101160005C93179708952F3F310579F44115510588
:101170006105710519F484E08C93089564FF03C040
:1011800081E08C9312C01C9210C02F5730401396F0
:101190003C932E93129783E08C9387E0440F551F66
:1011A000661F771F8A95D1F7706414964D935D93EF
:1011B0006D937C931797089580917C0085FF05C0FF
:1011C00080917900282F30E004C020917800309180
:1011D0007900C901089590933101809330010895F9
:1011E0000895089580917C0085FF05C08091790065
:1011F000282F30E004C02091780030917900C90197
:101200000895282F8032B0F487E880937A00809187
:101210007C00982F9064662311F0806C02C0892FA7
:101220008F77807E822B80937C0080917A0080640F
:1012300080937A00089560E00E940109089560E0BB
:101240000E94010980917A0086FDFCCF80917C008C
:1012500085FF05C080917900282F30E004C02091DF
:10126000780030917900C90108950E941F090895FE
:10127000EF92FF920F931F93CF93DF93EB0160E008
:101280000E94010980917A0086FDFCCF9E01EE2428
:10129000FF24870180917A00806480937A00809196
:1012A0007A0086FDFCCF80917C0085FF04C0809190
:1012B000790090E004C08091780090917900A0E0DE
:1012C000B0E0E80EF91E0A1F1B1F2150304011F735
:1012D000CE0196958795C034D10540F48E0D9F1DA3
:1012E0006C2F70E00E9466179B010DC0A0E0B0E07B
:1012F000E80EF91E0A1F1B1F9E0140E050E0C801C6
:10130000B7010E948D17C901CDB7DEB7E6E00C9496
:10131000F21787E064E170E00E94380908950E94A6
:1013200038090895909331018093300108951F93F7
:1013300010917C0080917C008F7D80937C008EE1F9
:1013400064E170E00E9438098EE164E170E00E947F
:1013500038099C0115FD04C080917C008F7D03C07D
:1013600080917C00806280937C00B90176956795BE
:1013700080E090E06C54744D8E4E9F4F40E050E002
:101380000E948D17C9011F9108950E949709089521
:10139000A0E0B0E0209130013091310140E050E018
:1013A000BC01CD010E943B179B01AC0180917C00E8
:1013B00085FF0BC0B901CA0161587F4F8F4F9F4F06
:1013C0002FEF30E040E050E00AC0B901CA0161509F
:1013D0007E4F8F4F9F4F2FEF33E040E050E00E9451
:1013E0008D17C90108950E9438090E94C8090895FF
:1013F0000E94F309089580917C0085FF06C08091CA
:10140000790090E00E94C809089580917800909139
:1014100079000E94C809089560E00E940109809146
:101420007A0086FDFCCF0E94FB0908950E940C0AF9
:1014300008950E94FB09089587E064E170E00E942E
:1014400038090E94C80908950E94C80908951F9389
:1014500010917C0080917C008F7D80937C0086E0E1
:1014600064E170E00E94F3099C0115FD04C08091C5
:101470007C008F7D03C080917C00806280937C0023
:10148000C901880F991F820F931F880F991F880F1A
:10149000991F8A5792406DE070E00E947A17CB0145
:1014A0001F9108950E94270A08951F9310917C00B0
:1014B00080917C008F7D80937C0086E064E170E009
:1014C0000E94F3099C0115FD04C080917C008F7D72
:1014D00003C080917C00806280937C0084E190E076
:1014E000AC01249FC001259F900D349F900D1124C5
:1014F0008E529F4167E270E00E947A17CB011F91E4
:1015000008950E94550A08951F9310917C008091C0
:101510007C008F7D80937C0086E06AE070E00E9412
:10152000F309AC0115FD04C080917C008F7D03C0E0
:1015300080917C00806280937C009A01220F331F8F
:10154000240F351F2F5F3F4F36952795C9011F91F7
:1015500008950E94840A08951F9310917C00809141
:101560007C008F7D80937C0086E06AE070E00E94C2
:10157000F309AC0115FD04C080917C008F7D03C090
:1015800080917C00806280937C009A01220F331F3F
:10159000240F351FC9011F9108950E94AC0A0895B8
:1015A0000E94AC0A08950895089580913D01882312
:1015B00039F020E080916A0290916B02892B09F04A
:1015C00021E0822F089510926F0083E280938000C3
:1015D00081E1809381001092820080E197E29093F4
:1015E00089008093880010928B0010928A00229AC2
:1015F00078940895A0E0B0E0E0E0FBE00C94D2170E
:101600008C015B01C42E80916902882329F481E05A
:10161000809369020E94E30A10923D0117FD03C006
:10162000DD24D39403C01F772AE0D22E809181005D
:10163000E82EFF2488EFE822FF2488ECD89EC00122
:10164000112480179107C8F4E80197E201311907C6
:1016500010F0C0E1D7E2BE017695679580E090E09A
:101660006058794687469F4F9E0140E050E00E94B7
:101670008D17890181E090E025C088E2D89E802DF9
:101680001124C82FD0E0C017D10708F4E801BE012B
:10169000769567959E0140E050E09AE0D91639F4BE
:1016A00080E090E0605E734481449F4F06C080E01C
:1016B00090E060537D4E8C4E9F4F0E948D178901A4
:1016C00082E090E0E82AF92A9AE0D91639F4CE01AE
:1016D00005966AE070E00E946617EB0183E0C83E61
:1016E000D80711F4B5010FC0BE0180E090E095016C
:1016F00040E050E00E943B1728EE33E040E050E02D
:101700000E94AF17B90110926F00E0928100109310
:10171000890000938800E0918800F0918900AC2D49
:10172000A03108F0AFE080E190E08A1B910902C08F
:10173000F695E7958A95E2F7F0938B00E0938A009F
:10174000709351026093500286B38FEF86BB81E0A5
:1017500080936F00CDB7DEB7EAE00C94EE170E94DD
:10176000FA0A0895CF93DF93EB018F3F11F04423E2
:1017700029F488EE93E0BE0140E067C0813110F4A7
:1017800020E005C0282F2051203608F02FE5822FB9
:101790006CE00E945A17382F682F70E084EF9FEF9B
:1017A000689FF001699FF00D789FF00D1124E20F02
:1017B000F11DEC30F10538F4EC5CFF4F0C9401188E
:1017C0008CE991E023C080E090E020C085EB91E0BF
:1017D0001DC08FEC91E01AC08AEE91E017C087E03F
:1017E00092E014C086E292E011C087E492E00EC05D
:1017F00089E692E00BC08EE892E008C085EB92E0AB
:1018000005C08EED92E002C08AE093E0373071F0BF
:1018100002C0880F991F6A95E2F7323020F00596D2
:101820006AE070E00BC0805090480BC036E0880F33
:10183000991F3A95E1F7029665E070E00E946617FD
:10184000CB01403108F04FE0BE010E94FA0ADF915F
:10185000CF9108950E94B20B089580913D01882395
:1018600039F020E080916A0290916B02892B09F097
:1018700021E0822F089510926F00E1E8F0E080816E
:10188000887F8160808380E197E2909389008093D4
:10189000880010928B0010928A0081E080933D01B5
:1018A00010926B0210926A0208950E943B0C0895F8
:1018B00030914E02E0916A02F0916B02332311F0F5
:1018C000249101C02081822F81548A3108F4205E46
:1018D000203259F480916A0290916B0201969093A4
:1018E0006B0280936A02019729F7822F0895CF93A4
:1018F000DF930E94580C282FC0E0D0E01DC0CE011D
:1019000053E0880F991F5A95E1F7CC0FDD1FC80FE0
:10191000D91F822F992787FD9095C80FD91FE0976F
:1019200080916A0290916B02019690936B02809372
:101930006A020E94580C282F822F80538A30F8F2B6
:10194000CE01DF91CF910895A0E0B0E0EAEAFCE09B
:101950000C94D01780903201B0904C02BB2021F043
:1019600060914D02662399F4A0904D0200913701D9
:1019700010913801E0903301F0903401C0913501AD
:10198000D0913601C0903901D0903A0108C18FEF53
:1019900070E040E00E94B20B10924D02CBC194E087
:1019A000892EBB2404EF11E084E0E82EF12CC0ED79
:1019B000D7E0B4E09B2EAFE0CA2ED12C0E94580C89
:1019C000282F80916A0290916B02019690936B028E
:1019D00080936A02263609F498C02736CCF4223662
:1019E000A1F1233674F42E3361F12F3334F4213214
:1019F000B1F22C3309F00BC126C0213609F007C122
:101A000021C1243609F451C025360CF066C035C01A
:101A10002F3609F4C1C0203754F42C3609F4A5C080
:101A20002D3609F4A6C0273609F0F1C086C0243748
:101A300009F4D1C0263709F4E6C0223709F0E7C01F
:101A4000B0C08394BBCF8A94B9CFA0924D02B0921C
:101A50004C021093380100933701F0923401E09268
:101A60003301D0933601C093350190923201D09268
:101A70003A01C09239012BE0FCC0A0924D02B09215
:101A80004C021093380100933701F0923401E09238
:101A90003301D0933601C093350190923201D09238
:101AA0003A01C092390120E0E4C0A0924D02B09208
:101AB0004C021093380100933701F0923401E09208
:101AC0003301D0933601C093350190923201D09208
:101AD0003A01C092390122E0CCC0A0924D02B092EE
:101AE0004C021093380100933701F0923401E092D8
:101AF0003301D0933601C093350190923201D092D8
:101B00003A01C092390124E0B4C0A0924D02B092D3
:101B10004C021093380100933701F0923401E092A7
:101B20003301D0933601C093350190923201D092A7
:101B30003A01C092390125E09CC0A0924D02B092BA
:101B40004C021093380100933701F0923401E09277
:101B50003301D0933601C093350190923201D09277
:101B60003A01C092390127E084C00E94770C7C01C1
:101B700044C00E94580C8C3611F4BB2403C0AA2424
:101B8000BB24B39480916A0290916B02019690936A
:101B90006B0280936A0212CF0E94770C882E982CD9
:101BA0000DCFA0924D02B0924C02109338010093D9
:101BB0003701F0923401E0923301D0933601C093A3
:101BC000350190923201D0923A01C092390120E061
:101BD000FF24F3944FC00E94770CBC0180EC9DE57C
:101BE0000E946617CB01EB01F3E0CC0FDD1FFA95E5
:101BF000E1F7880F991FC80FD91FCE01B7010E94C6
:101C000066178B01DBCE0E94770C6C01D7CEA092B9
:101C10004D02B0924C021093380100933701F092BC
:101C20003401E0923301D0933601C0933501909294
:101C30003201D0923A01C092390110926B02109297
:101C40006A0278C0A0924D02B0924C021093380103
:101C500000933701F0923401E0923301D0933601C2
:101C6000C093350190923201D0923A01C09239016D
:101C700029E0FF248CE0889EC0011124E22EE80EAA
:101C80000AC080916A0290916B02019690936B0258
:101C900080936A02E3940E94580C8B3291F3833252
:101CA00081F30CC080916A0290916B02019690932F
:101CB0006B0280936A02EA940E94580C8D3291F371
:101CC000C0913701D09138018153883058F4009188
:101CD0003501109136010E94770CBC01C8010E94A9
:101CE0006617EB018E010BC080916A0290916B0226
:101CF000019690936B0280936A02C00FD11F1695D4
:101D000007950E94580C8E3279F380914C028823FB
:101D100039F0CE019695879580934D02C81BD10965
:101D2000FF2011F0EE24EA948E2DBE01409139017E
:101D30000E94B20BCDB7DEB7ECE00C94EC1710921A
:101D40006F0090936B0280936A0281E080934E0251
:101D500010924D020E94A40C08950E949F0E0895B7
:101D600010926F0090936B0280936A0210924E0261
:101D700010924D020E94A40C08950E94B00E089586
:101D80001F920F920FB60F9211242F933F934F93F0
:101D90005F936F937F938F939F93AF93BF93EF93D3
:101DA000FF938091500290915102019790935102BC
:101DB00080935002019611F510926F0078948091F3
:101DC0008100887F81608093810080E197E2909319
:101DD00089008093880010928B0010928A0081E025
:101DE00080933D0180916A0290916B02892B31F0C2
:101DF00080914F02882311F40E94A40CFF91EF916F
:101E0000BF91AF919F918F917F916F915F914F9112
:101E10003F912F910F900FBE0F901F901895109229
:101E20006F0080913D01882341F080916A0290917A
:101E30006B02892B11F00E94A40C81E080936F004B
:101E400020E080916A0290916B02892B09F021E0D9
:101E5000822F089580934F02882311F40E940F0F60
:101E600008950E942A0F08950E940F0F0895089563
:101E7000089580E090E00895EF92FF920F931F93F2
:101E80006AB157985A98289AE0905602F0905702F3
:101E9000009158021091590220E030E041E050E0FA
:101EA000CA016F9364E06A95F1F76F910197C9F7E2
:101EB0005C9ACA016F9364E06A95F1F76F9101979C
:101EC000C9F789B15C98FA016F9364E06A95F1F7FC
:101ED0006F913197C9F75C9AFA016F9364E06A9544
:101EE000F1F76F913197C9F75C9887FF0BC02C5FB2
:101EF0003F4FC901A0E0B0E08E159F05A007B107D4
:101F000008F4CECF6AB91F910F91FF90EF9008951A
:101F100065B190E0AC0141705070440F551F9C01B9
:101F20002670307053E0220F331F5A95E1F7422B91
:101F30006D7C462B45B92BB18870907034E0880FCA
:101F4000991F3A95E1F72F77282B2BB95C9A81E0FE
:101F500090E0FC016F9364E06A95F1F76F9131971F
:101F6000C9F75C986F9364E06A95F1F76F910197F8
:101F7000C9F708958091520290915302009711F091
:101F80000E94B41880913B0190E0019720913C01A0
:101F900030E0AC01429FC001439F900D529F900DD5
:101FA00011240E94071890935302809352020097C5
:101FB00029F160E070E208C0E0915202F091530212
:101FC000E40FF51F70836F5F462F50E080913B0157
:101FD00090E0019720913C0130E0FC01E29FC001BC
:101FE000E39F900DF29F900D11244817590724F399
:101FF0008DEF91E169E37FE00E940C1908958093D1
:102000003C0160933B010E94BA0F089580933C010C
:1020100060933B010E94BA0F08950E94BA0F089581
:1020200080E197E2A0E0B0E08093560290935702DF
:10203000A0935802B0935902529A209A549A8EE172
:1020400090E00E94A01683E00E94431386E090E097
:102050000E94A01683E00E94431382E090E00E9459
:10206000A01683E00E94431382E090E00E94A01635
:1020700082E00E94431382E090E00E94A01688E272
:102080000E948D1088E00E948D1081E00E948D10CA
:1020900086E00E948D108CE00E948D100895809142
:1020A0005A02882329F481E080935A020E9410107A
:1020B0000895BF92CF92DF92EF92FF920F931F93FA
:1020C000082F162FF42E0E944F100E943C0FB4B020
:1020D000C5B0DAB0EBB02898112311F05A9A01C0BC
:1020E0005A9884B1826384B9579A81E0F81629F02E
:1020F000802F82958F700E94880F802F8F700E9492
:10210000880FDAB8EBB8B4B8C5B81F910F91FF903B
:10211000EF90DF90CF90BF90089560E042E00E9482
:10212000591008950F931F93082F162F08C00023EE
:1021300011F480E101C084E10E948D10115011233F
:10214000B1F71F910F9108950E94921008958CE0AD
:102150000E948D1008950E94A7100895813011F4F7
:102160008FE001C08EE00E948D1008950E94AE1095
:102170000895A4E0B0E0EFEBF0E10C94D817182F2D
:10218000062F80E8898380EC8A8384E98B8384ED41
:102190008C83FE01E60FF11D8181810F0E948D105D
:1021A00010935502009354022496E4E00C94F41723
:1021B0000E94B910089581E00E948D108091520212
:1021C00090915302892B19F160E070E208C0E09110
:1021D0005202F0915302E40FF51F70836F5F462F98
:1021E00050E080913B0190E0019720913C0130E06C
:1021F000FC01E29FC001E39F900DF29F900D11241E
:102200004817590724F3109255021092540208956A
:102210000E94DB10089561E042E00E945910089589
:102220000F931F93CF93DF9300E010E8C82FD0E007
:10223000812F90E08C239D23892B11F081E301C035
:1022400080E30E940B110F5F083011F01695F0CF5C
:10225000DF91CF911F910F9108950E941011089561
:102260008A3010F4805D01C0895C0E940B110895D2
:102270001F93182F82958F700E943011812F8F70BD
:102280000E9430111F9108951F93182F892F0E94CB
:102290003811812F0E9438111F9108950E94441116
:1022A00008950E94381108956F927F928F929F92A5
:1022B000AF92BF92CF92DF92FF920F93DF93CF93B3
:1022C000CDB7DEB72A970FB6F894DEBF0FBECDBFED
:1022D0005B016C010AE03E010894611C711CFA2C40
:1022E000C601B5012AE030E040E050E00E948D17C1
:1022F000C901DA015C016D0101504301800E911C9E
:1023000080E3F80EC601B5012AE030E040E050E07D
:102310000E943B17F61AF401F082A114B104C10423
:10232000D104E9F608C0F601E00FF11D80810E949A
:102330000B110F5F04C06E010894C11CD11C0A3040
:1023400090F32A960FB6F894DEBF0FBECDBFCF91A3
:10235000DF910F91FF90DF90CF90BF90AF909F9053
:102360008F907F906F9008950E9454110895EF927E
:10237000FF920F931F937B018C0197FF0BC0109569
:102380000095F094E094E11CF11C011D111D8DE2FB
:102390000E940B11C801B7010E9454111F910F91A7
:1023A000FF90EF9008950E94B7110895CF93DF93A7
:1023B000EC0103C00E940B112196FE018491882339
:1023C000C9F7DF91CF9108950E94D6110895CF9358
:1023D000DF93EC0103C021960E940B1188818823B2
:1023E000D1F7DF91CF9108950E94E71108950E94DF
:1023F0000B1108950E940B110895A0E0B0E0E3E0F6
:10240000F2E10C94D417E82E80915202909153027D
:10241000892B09F405C12AE0E21609F446C038E028
:10242000E316C9F4809155028150809355028F3F85
:1024300051F48091540281508093540280913C0168
:10244000815080935502809154028F3F09F0E2C081
:1024500010925402DDC08E2D0E940B112091540267
:102460002223C9F030E02150304080913C0190E0BF
:10247000AC01249FC001259F900D349F900D112425
:1024800020915502E0915202F0915302E80FF91F9A
:10249000E20FF11DE082809155028F5F809355021B
:1024A00090913C01891709F0BBC040915402242F40
:1024B00030E080913B0190E001972817390709F03F
:1024C000A4C0C0E0D0E044C080E06C2F0E94B910EE
:1024D000FF246E010894C11CD11C35C00F2D10E0E3
:1024E00090E09C01C29FC001C39F900DD29F900DB0
:1024F0001124E0915202F0915302E00FF11FE80F16
:10250000F91F80810E940B11E0915202F091530259
:1025100080913C0190E0C89FD001C99FB00DD89F29
:10252000B00D1124E00FF11FAE0FBF1FAC01C49E10
:10253000C001C59E900DD49E900D1124E80FF91F87
:1025400080818C93F39480913C01F81638F2E60177
:1025500060913B01862F90E00297C817D9070CF4D1
:10256000B3CF623008F440C0625080E00E94B910DE
:10257000FF24E0E2DE2E34C00F2D10E080913B01FD
:1025800090E0029730E0AC01429FC001439F900D64
:10259000529F900D1124E0915202F0915302E00FEE
:1025A000F11FE80FF91F80810E940B1120913B0160
:1025B00030E02250304080913C0190E0AC01249FFB
:1025C000C001259F900D349F900D1124E09152027F
:1025D000F0915302E00FF11FE80FF91FD082F3943E
:1025E00020913C01F21640F260913B01615080E085
:1025F0000E94B91000E004C080E20E940B110F5F3E
:1026000080913C010817C0F303C04F5F4093540210
:102610001092550280915502609154020E94B910A7
:102620002E2D332727FD3095C901CDB7DEB7E8E061
:102630000C94F017EF92FF920F931F93CF93DF93B9
:102640007C01062F10E0F3E0000F111FFA95E1F76F
:10265000C0E0D0E09E01200F822F80640E948D1088
:10266000F701EC0FFD1FE4918E2F0E940B112196B4
:10267000C830D10579F7CDB7DEB7E6E00C94F21794
:102680000E941A13089560E041E00E9459100895D5
:102690000F931F93CF93DF93082F162FEA010BC0E0
:1026A000002311F488E101C08CE10E948D10CE015D
:1026B0000E94A0161150112399F7DF91CF911F911D
:1026C0000F9108950E9448130895282F883068F4C8
:1026D00081E090E002C0880F991F2A95E2F7282F29
:1026E000AAE2B0E0EBE2F0E029C08E3080F430E006
:1026F0002850304081E090E002C0880F991F2A9551
:10270000E2F7282FA4E2B0E0E5E2F0E017C085315F
:1027100030F020E0A0E0B0E0E0E0F0E00FC030E01A
:102720002E50304081E090E002C0880F991F2A951A
:10273000E2F7282FA7E2B0E0E8E2F0E06F3F19F4FB
:102740008081822709C0662319F08081822B04C012
:102750009081822F8095892380838C91822B8C930A
:10276000089508950895E0EBF0E083EF8083808181
:1027700084BDE1EBF0E082E08083808185BDE4EB05
:10278000F0E010828081E3EBF0E08083808188BDFF
:1027900088B587BD86E060E00E94651385E060E053
:1027A0000E9465138BE060E00E94651383E060E0A7
:1027B0000E946513089580915B02882329F481E0CB
:1027C00080935B020E94B3130895CF93DF93EC01D3
:1027D0000E94DB13D7FD02C020E004C0D095C19554
:1027E000DF4F21E0CE01CF3FD10519F014F08FEF7C
:1027F00090E0222319F018BC87BD02C088BD17BC29
:10280000DF91CF9108950E94E5130895CF93DF9350
:10281000EC010E94DB13D7FD02C020E004C0D0957C
:10282000C195DF4F21E0CE01CF3FD10519F014F063
:102830008FEF90E0222329F01092B4008093B30030
:1028400004C08093B4001092B300DF91CF9108953B
:102850000E94061408950F931F938B010E94E513A5
:10286000C8010E9406141F910F9108950E942B1415
:1028700008950895089580915C02882391F481E081
:1028800080935C0284B18D7C84B985B1826385B903
:1028900085E090E06F9364E06A95F1F76F9101979E
:1028A000C9F7089584B18D7C84B985B1826385B9F7
:1028B00085E090E06F9364E06A95F1F76F9101977E
:1028C000C9F708951F93182F0E943B1483B1809578
:1028D00081231F9108950E9462140895CF92DF9280
:1028E000EF92FF920F931F93C82ED3B00E94D11680
:1028F0007B018C010E943B1480916202813011F1B6
:10290000813038F0823009F444C0833009F08BC044
:1029100066C02C2D30E08D2D90E080959095282379
:102920003923232B09F47FC0D094DC20D0925D02A0
:10293000E0925E02F0925F020093600210936102E7
:1029400081E06FC080915E0290915F02A091600271
:10295000B0916102E81AF90A0A0B1B0B8FE0E81626
:10296000F1040105110508F45EC040915D028D2D52
:1029700090E080959095242F30E082239323892B3B
:1029800059F182E080936202D094D422D0925D0209
:102990004AC040915D02642F70E02D2D30E0CB01E4
:1029A00082239323892B79F083E0809362024D2167
:1029B00040935D02E0925E02F0925F02009360023B
:1029C0001093610230C08C2D90E0209530958223C9
:1029D00093236817790739F11092620224C080911D
:1029E0005E0290915F02A0916002B0916102E81ACC
:1029F000F90A0A0B1B0B8FE0E816F104010511051B
:102A000090F040915D02842F90E02D2D30E08223E4
:102A10009323892B29F010926202842F8D2104C008
:102A200082E08093620280E01F910F91FF90EF900F
:102A3000DF90CF9008950E946E140895CF92DF9298
:102A4000EF92FF920F931F93C82ED3B0D0940E94A1
:102A5000D1167B018C010E943B1480916802813069
:102A600011F1813038F0823009F444C0833009F02C
:102A70008BC066C02C2D30E08D2D90E08095909518
:102A800028233923232B09F47FC0D094DC20D09253
:102A90006302E0926402F092650200936602109372
:102AA000670281E06FC08091640290916502A091FD
:102AB0006602B0916702E81AF90A0A0B1B0B8FE055
:102AC000E816F1040105110508F45EC040916302A7
:102AD0008D2D90E080959095242F30E082239323D4
:102AE000892B59F182E080936802D094D422D0924D
:102AF00063024AC0609163022D2D30E0462F50E002
:102B0000C90184239523892B79F083E0809368029F
:102B1000D622D0926302E0926402F09265020093A2
:102B200066021093670230C08C2D90E0209530959E
:102B3000822393234817590739F11092680224C061
:102B40008091640290916502A0916602B091670243
:102B5000E81AF90A0A0B1B0B8FE0E816F1040105CD
:102B6000110590F0409163028D2D90E0242F30E00C
:102B700082239323892B29F0109268028D2D8423C0
:102B800004C082E08093680280E01F910F91FF9063
:102B9000EF90DF90CF9008950E941E1508951F9327
:102BA000CF93DF93182F0E943B14C12FD0E083B145
:102BB00090E08C239D23892BD1F38AE090E00E9442
:102BC000A01683B190E08C239D23892B81F383B1E0
:102BD0008123DF91CF911F9108950E94CF15089511
:102BE0001F93CF93DF93182F0E943B14C12FD0E087
:102BF00083B190E0809590958C239D23892BC1F320
:102C00008AE090E00E94A01683B190E080959095B4
:102C10008C239D23892B61F383B180958123DF91E0
:102C2000CF911F9108951F930E94F015182F0E94B5
:102C3000CF15812F1F9108950E94131608950E94A9
:102C4000F015089508950895A2E0B0E0EAE2F6E1F3
:102C50000C94DA172091770230917802CE01019618
:102C60002115310519F48158924002C0821B930B43
:102C70009A83898389819A812296E2E00C94F617DF
:102C80000E94241608952F928F939F932FB68091C0
:102C90006D0290916E02019680936D0290936E0288
:102CA00090E080916F02891F80936F02909175026E
:102CB0009C5F909375028091740280519742C0F09E
:102CC00090937502809374028091700290917102CA
:102CD0000196809370029093710290E0809172024D
:102CE000891F8093720280917302891F80937302FF
:102CF0002FBE9F918F912F90189528EE33E009C039
:102D0000F9016F9364E06A95F1F76F913197C9F714
:102D100001970097A9F708956F5F7F4F8F4F9F4FDF
:102D2000660F771F881F991F25E030E040E050E0D4
:102D30000E948D17CA01B90108950E948C1608954A
:102D400028EE33E009C0F9016F9364E06A95F1F76A
:102D50006F913197C9F701970097A9F70895A0E7F8
:102D6000B0E08C918E7F8C93E0EBF0E0808183600B
:102D70008083E1EBF0E08081807F808380818260CE
:102D80008083B89A8C9181608C9378940895809117
:102D90007602882329F481E0809376020E94AF16A0
:102DA00008950E94C716E0E7F0E080818E7F80835F
:102DB0002091700230917102409172025091730221
:102DC000808181608083B901CA0108950E94D11673
:102DD00008950E94C716809170008E7F80937000C6
:102DE0006091B20080916C0290916D02A0916E0290
:102DF000B0916F02B89905C0262F30E040E050E056
:102E000011C08091B20020916C0230916D0240910E
:102E10006E0250916F0220503F4F4F4F5F4F90E036
:102E2000A0E0B0E0282B392B4A2B5B2B809170005F
:102E3000816080937000B901CA0108950E94E9166B
:102E400008950E94C716E0E7F0E080818E7F8083BE
:102E5000109270021092710210927202109273021C
:102E600010927502109274028081816080830895AF
:102E70000E9421170895629FD001739FF001829FE5
:102E8000E00DF11D649FE00DF11D929FF00D839FF9
:102E9000F00D749FF00D659FF00D9927729FB00D96
:102EA000E11DF91F639FB00DE11DF91FBD01CF01A9
:102EB00011240895991B79E004C0991F961708F012
:102EC000961B881F7A95C9F780950895AA1BBB1B8E
:102ED00051E107C0AA1FBB1FA617B70710F0A61B1A
:102EE000B70B881F991F5A95A9F780959095BC013B
:102EF000CD01089597FB092E07260AD077FD04D04F
:102F0000E5DF06D000201AF4709561957F4F089593
:102F1000F6F7909581959F4F0895A1E21A2EAA1B6E
:102F2000BB1BFD010DC0AA1FBB1FEE1FFF1FA21779
:102F3000B307E407F50720F0A21BB30BE40BF50B76
:102F4000661F771F881F991F1A9469F760957095FF
:102F5000809590959B01AC01BD01CF01089597FB31
:102F6000092E05260ED057FD04D0D7DF0AD0001C4D
:102F700038F450954095309521953F4F4F4F5F4F16
:102F80000895F6F790958095709561957F4F8F4FD6
:102F90009F4F08952F923F924F925F926F927F9230
:102FA0008F929F92AF92BF92CF92DF92EF92FF9259
:102FB0000F931F93CF93DF93CDB7DEB7CA1BDB0B05
:102FC0000FB6F894DEBF0FBECDBF09942A883988AA
:102FD00048885F846E847D848C849B84AA84B984B1
:102FE000C884DF80EE80FD800C811B81AA81B981BD
:102FF000CE0FD11D0FB6F894DEBF0FBECDBFED01D1
:103000000895EE0FFF1F0590F491E02D0994CF93E2
:10301000DF93BC018230910510F462E070E0A09172
:103020007902B0917A02ED01E0E0F0E040E050E09A
:1030300021C0888199818617970769F48A819B81CD
:10304000309719F09383828304C090937A0280931F
:103050007902FE0134C06817790738F4411551052B
:1030600019F08417950708F4AC01FE018A819B8151
:103070009C01E9012097E9F641155105A9F1CA0122
:10308000861B970B049708F4BA01E0E0F0E02AC031
:103090008D919C91119784179507F9F46417750722
:1030A00081F412968D919C911397309719F0938328
:1030B000828304C090937A0280937902FD01329654
:1030C0004FC0CA01861B970BFD01E80FF91F6193E2
:1030D000719302978D939C9343C0FD0182819381EC
:1030E0009C01D9011097A1F6809177029091780206
:1030F000892B41F480914802909149029093780283
:103100008093770240914A0250914B02411551053C
:1031100041F44DB75EB78091460290914702481B3B
:10312000590B209177023091780224173507B0F4BB
:10313000CA01821B930B8617970780F0AB014E5F85
:103140005F4F8417950750F0420F531F509378023A
:1031500040937702F9016193719302C0E0E0F0E0DF
:10316000CF01DF91CF910895CF93DF93009709F4BA
:1031700050C0EC0122971B821A82A0917902B09173
:103180007A02109709F140E050E0AC17BD0708F152
:10319000BB83AA83FE0121913191E20FF31FAE1789
:1031A000BF0779F48D919C911197280F391F2E5FDD
:1031B0003F4F3983288312968D919C9113979B835F
:1031C0008A834115510571F4D0937A02C093790234
:1031D00020C012968D919C911397AD01009711F02C
:1031E000DC01D3CFFA01D383C28321913191E20F65
:1031F000F31FCE17DF0769F488819981280F391FE3
:103200002E5F3F4FFA01318320838A819B81938314
:103210008283DF91CF9108950F931F93CF93DF9314
:103220008C01EB01009731F46115710519F420E070
:1032300030E038C081E090E06EE070E00E94581904
:10324000FC019C01009771F180E88383209771F065
:10325000D387C28781E8838380917B0290917C022F
:10326000892B21F4F0937C02E0937B020115110578
:10327000C9F01187008783818260838380917D02FA
:1032800090917E02892B71F4F0937E02E0937D028F
:1032900080917F0290918002892B21F4F09380022B
:1032A000E0937F02C901DF91CF911F910F910895A3
:1032B0000F931F93CF93DF93689F8001699F100D39
:1032C000789F100D1124C8010E940718EC01009787
:1032D00029F060E070E0A8010E947419CE01DF912E
:1032E000CF911F910F910895DC0101C06D93415062
:0A32F0005040E0F70895F894FFCF76
:1032FA00416C69676E426F74003E6733323E3E63CB
:10330A003332003D3F0021633332002165333200FE
:10331A0021673332005072657373204200663D00A4
:10332A008813040400D007F4010F0002080100000A
:10333A00000000000000000102020303030304046A
:10334A000404040404040505050505050505050529
:10335A000505050505050606060606060606060609
:10336A0006060606060606060606060606060606F3
:10337A0006060606060607070707070707070707D9
:10338A0007070707070707070707070707070707C3
:10339A0007070707070707070707070707070707B3
:1033AA0007070707070707070707070707070707A3
:1033BA000707070707070808080808080808080889
:1033CA000808080808080808080808080808080873
:1033DA000808080808080808080808080808080863
:1033EA000808080808080808080808080808080853
:1033FA000808080808080808080808080808080843
:10340A000808080808080808080808080808080832
:10341A000808080808080808080808080808080822
:10342A000808080808080808080808080808080812
:0C343A00080808080808200081020000B3
:00000001FF
