:100000000C9440000C945D000C945D000C945D0019
:100010000C945D000C945D000C945D000C945D00EC
:100020000C945D000C9413150C945D000C945D0011
:100030000C945D000C94110D0C945D000C945D000B
:100040000C945D000C945D000C945D000C945D00BC
:100050000C945D000C945D000C945D000C945D00AC
:100060000C945D000C945D00340A3A0A3D0A400A83
:10007000430A460A490A4C0A4F0A520A550A580AC4
:1000800011241FBECFEFD4E0DEBFCDBF12E0A0E051
:10009000B1E0E6EBF0E302C005900D92AE32B1079D
:1000A000D9F712E0AEE2B2E001C01D92A336B1076B
:1000B000E1F70E94AB000C9459180C940000ECE797
:1000C000F0E08081806280833D9845980895AF92EA
:1000D000BF92CF92DF92EF92FF920F931F93B82EB1
:1000E000A62E69017A01012B11F00E94590F8B2D68
:1000F0006A2D0E94290FC701B6010E9424101F918A
:100100000F91FF90EF90DF90CF90BF90AF90089548
:100110000F931F93CF93DF93182F062FEA01232B02
:1001200011F00E94590F812F602F0E94290FCE01DC
:100130000E944510DF91CF911F910F91089585E0A6
:100140000E944707089586E00E944707089587E0C8
:100150000E9447070895EF92FF920F931F93CF934A
:10016000DF930E945F0086E00E9447077C0187E0E2
:100170000E944707EC0185E00E9447078C010E941E
:10018000C4152CE231E040E050E00E946B1661158E
:1001900071058105910539F70E94590F82E060E0F1
:1001A0000E94290FBE01882777FD8095982F0E9415
:1001B000241080E061E00E94290FB701882777FDB5
:1001C0008095982F0E94241085E061E00E94290FFD
:1001D000B801882777FD8095982F0E942410C3CFFF
:1001E0000E9447070895AF92BF92CF92DF92EF929D
:1001F000FF920F931F93CF93DF93EC010E94590F4F
:10020000EE24FF2487015E01CC24B7FCC094DC2CD3
:1002100017C080E060E00E94290FC801B7016A0D95
:100220007B1D8C1D9D1D0E94241088EE93E00E9472
:100230005E150E94590F0894E108F108010911099F
:10024000CE018E0D9F1D181619061CF3DF91CF915C
:100250001F910F91FF90EF90DF90CF90BF90AF90E4
:100260000895EF92FF920F931F93DF93CF93CDB733
:10027000DEB7E2970FB6F894DEBF0FBECDBF8E019A
:100280000F5F1F4F83E3E82EF12CEC0EFD1E88ED6F
:100290009FEF68E270E00E94871282E590E00E9482
:1002A0005E1580E090E060E070E00E94871287E0D9
:1002B0000E944707F801819391938F01EE15FF0586
:1002C00031F7CE010196E2960FB6F894DEBF0FBE6D
:1002D000CDBFCF91DF911F910F91FF90EF900895C7
:1002E0008EEC9FEF62E370E00E948712089582E334
:1002F00090E06EEC7FEF0E948712089586EA9FEFF0
:100300006EEC7FEF0E94871208958EEC9FEF66EAF5
:100310007FEF0E9487120895AF92BF92CF92DF9233
:10032000EF92FF920F931F935C017B016627772763
:10033000681B790B0E9487120027F7FC0095102F8D
:10034000C801B7010E94820428E431EE4AE553E473
:100350000E94DC027B018C01CC24B7FCC094DC2C15
:10036000C601B5010E9482049B01AC01C801B7011E
:100370000E94D6030E94E004DC01CB010E945E15BE
:1003800080E090E060E070E00E9487121F910F9182
:10039000FF90EF90DF90CF90BF90AF900895AF9215
:1003A000BF92CF92DF92EF92FF920F931F935C0167
:1003B0007B01882799278A199B09B5010E9487121A
:1003C0000027F7FC0095102FC801B7010E94820496
:1003D00028E431EE4AE553E40E94DC027B018C0103
:1003E000CC24B7FCC094DC2CC601B5010E94820469
:1003F0009B01AC01C801B7010E94D6030E94E00432
:10040000DC01CB010E945E1580E090E060E070E0CE
:100410000E9487121F910F91FF90EF90DF90CF9075
:10042000BF90AF9008950F931F939C018B01B9016A
:100430000E948712C8010E945E1580E090E060E093
:1004400070E00E9487121F910F91089580E090E064
:1004500060E070E00E9487120895CF92DF92EF92E1
:10046000FF920F931F93CF93DF937C018A01EB01DF
:10047000C12C9DE7D92E0E94590F80E060E00E94B8
:10048000290FC7010E94451080E091E00E944510AD
:1004900080E061E00E94290FBE01882777FD8095EA
:1004A000982F0E94241081E00E94070F82E30E948F
:1004B0008C128823D9F782E30E94D61481FF07C0EB
:1004C00083E091E00E940E0DC01BD10B20C084FF81
:1004D00016C00E94FC0E0E94590F88E091E00E9415
:1004E0000E0D84E690E00E945E15CE01DF91CF9163
:1004F0001F910F91FF90EF90DF90CF90089585FFAF
:1005000006C08DE091E00E940E0DC00FD11F83E860
:10051000C030D8074CF480E09DE7B8010E9458161F
:10052000EC01C050DD47A7CF8DE7C130D8070CF4F0
:10053000A2CF80E09DE7B8010E945816E601C81BD3
:10054000D90B99CF0F931F938C0188EC90E062E355
:1005500070E04EE00E94030A8BE490E00E945E157A
:100560008CE291E062E370E04EE00E94030A88ECC6
:1005700090E062E370E04EE00E94030A8BE490E0BA
:100580000E945E158CE291E062E370E04EE00E9412
:10059000030A80E060E00E94290FC8010E94451014
:1005A00080E10E948C128823D9F384EF91E00E94AD
:1005B0005E151F910F910895A0E2B0E0E2EEF2E027
:1005C0000C94A81669837A838B839C832D833E8346
:1005D0004F835887CE010196BE01675F7F4F0E940F
:1005E0005806CE010596BE016F5E7F4F0E945806E9
:1005F0009985923088F089898230C8F0943019F456
:10060000823051F404C0843029F4923081F480E2C5
:1006100091E0C6C0923049F420E09A858A89981307
:1006200021E02A87CE010996BBC0823049F420E040
:100630009A858A89981321E02A8BCE014196B0C011
:100640002D843E844F8458886D887E888F88988C4E
:10065000EE24FF248701AA24BB24650140E050E07A
:1006600060E070E0E0E0F0E0C10181709070892B03
:10067000E9F0E60CF71C081D191D9A01AB012A0DC3
:100680003B1D4C1D5D1D80E090E0A0E0B0E0E61455
:10069000F7040805190520F481E090E0A0E0B0E03F
:1006A000BA01A901480F591F6A1F7B1FAA0CBB1C66
:1006B000CC1CDD1C97FE08C081E090E0A0E0B0E01B
:1006C000A82AB92ACA2ADB2A3196E032F10549F074
:1006D000660C771C881C991C569447943794279471
:1006E000C3CFFA85EA892B893C898B859C85280FA5
:1006F000391F2E5F3F4F17C0CA0181709070892B40
:1007000061F016950795F794E79480E090E0A0E0FB
:10071000B0E8E82AF92A0A2B1B2B7695679557959E
:1007200047952F5F3F4F77FDE7CF0CC0440F551F14
:10073000661F771F17FD4160EE0CFF1C001F111F85
:1007400021503040403090E0590790E0690790E434
:10075000790760F32B8F3C8FDB01CA018F77907094
:10076000A070B07080349105A105B10561F447FD1A
:100770000AC0E114F1040105110529F0405C5F4F46
:100780006F4F7F4F40781A8EFE1711F081E08A8FED
:100790004D8F5E8F6F8F78A383E0898FCE0149964E
:1007A0000E948305A096E2E10C94C416A8E1B0E093
:1007B000ECEDF3E00C94B01669837A838B839C8311
:1007C0002D833E834F835887B9E0EB2EF12CEC0E3E
:1007D000FD1ECE010196B7010E9458068E010F5EE4
:1007E0001F4FCE010596B8010E9458062985223078
:1007F00008F47EC03989323010F4B8017CC08A8593
:100800009A8989278A87243011F0223031F42317FE
:1008100009F06EC060E271E06EC0343039F41D86BC
:100820001E861F86188A1C861B8604C0323021F45F
:1008300084E08987B7015FC02B853C858B899C89C3
:10084000281B390B3C872B87ED84FE840F85188984
:10085000AD88BE88CF88D88CEA14FB040C051D0532
:1008600040F4EE0CFF1C001F111F215030403C874C
:100870002B8720E030E040E050E080E090E0A0E016
:10088000B0E460E070E0EA14FB040C051D0540F0E4
:10089000282B392B4A2B5B2BEA18FB080C091D0966
:1008A000B695A79597958795EE0CFF1C001F111F15
:1008B0006F5F7F4F6F31710531F7DA01C9018F77B3
:1008C0009070A070B07080349105A105B10561F4FD
:1008D00027FD0AC0E114F1040105110529F0205C8F
:1008E0003F4F4F4F5F4F20782D873E874F87588B64
:1008F000BE01675F7F4FCB010E9483056896EAE0E7
:100900000C94CC16A8E0B0E0E8E8F4E00C94B11642
:100910009B01AC0183E08983DA01C9018827B7FD17
:1009200083959927AA27BB27B82E211531054105A4
:10093000510519F482E089833AC08823A9F0203058
:1009400080E0380780E0480780E8580729F460E035
:1009500070E080E09FEC30C0EE24FF248701E21AB3
:10096000F30A040B150B02C079018A018EE1C82E2F
:10097000D12CDC82CB82ED82FE820F831887C801E6
:10098000B7010E94340501971816190684F4082E41
:1009900004C0EE0CFF1C001F111F0A94D2F7ED8259
:1009A000FE820F831887C81AD90ADC82CB82BA82EA
:1009B000CE0101960E9483052896E9E00C94CD169D
:1009C000ACE0B0E0E6EEF4E00C94B81669837A830C
:1009D0008B839C83CE010196BE016B5F7F4F0E948B
:1009E00058068D81823061F1823050F1843021F4DB
:1009F0008E81882351F12EC02F81388537FD20C08C
:100A00006E812F3131051CF06623F9F023C08EE191
:100A100090E0821B930B29853A854B855C8504C049
:100A200056954795379527958A95D2F76623B1F065
:100A300050954095309521953F4F4F4F5F4F0EC0D9
:100A400020E030E040E050E009C02FEF3FEF4FEFF3
:100A50005FE704C020E030E040E050E8B901CA019F
:100A60002C96E2E00C94D416EF92FF920F931F9312
:100A70007B018C0180E0E81680E0F80681E0080741
:100A800080E0180788F48FEFE816F10401051105DE
:100A900031F028F088E090E0A0E0B0E017C080E0FE
:100AA00090E0A0E0B0E012C080E0E81680E0F80638
:100AB00080E0080781E0180728F088E190E0A0E0D6
:100AC000B0E004C080E190E0A0E0B0E020E230E0DF
:100AD00040E050E0281B390B4A0B5B0B04C0169515
:100AE0000795F794E7948A95D2F7F701E85DFE4FF2
:100AF0008081281B310941095109C9011F910F91BA
:100B0000FF90EF900895DF92EF92FF920F931F9363
:100B1000FC01E480F58006811781D18080818230DC
:100B200048F480E090E0A0E1B0E0E82AF92A0A2B3E
:100B30001B2BA5C0843009F49FC0823021F4EE2421
:100B4000FF24870105C0E114F1040105110519F422
:100B5000E0E0F0E096C0628173819FEF6238790730
:100B60000CF05BC022E83FEF261B370B2A31310522
:100B70002CF020E030E040E050E02AC0B801A701AE
:100B8000022E04C076956795579547950A94D2F73B
:100B900081E090E0A0E0B0E004C0880F991FAA1F98
:100BA000BB1F2A95D2F70197A109B1098E219F2178
:100BB000A023B1230097A105B10521F081E090E0C9
:100BC000A0E0B0E09A01AB01282B392B4A2B5B2B1C
:100BD000DA01C9018F779070A070B07080349105F0
:100BE000A105B10539F427FF09C0205C3F4F4F4FE5
:100BF0005F4F04C0215C3F4F4F4F5F4FE0E0F0E09C
:100C00002030A0E03A07A0E04A07A0E45A0710F01D
:100C1000E1E0F0E079018A0127C06038710564F5F0
:100C2000FB01E158FF4FD801C7018F779070A0708A
:100C3000B07080349105A105B10539F4E7FE0DC00F
:100C400080E490E0A0E0B0E004C08FE390E0A0E09A
:100C5000B0E0E80EF91E0A1F1B1F17FF05C016950E
:100C60000795F794E794319687E016950795F794E2
:100C7000E7948A95D1F705C0EE24FF248701EFEFB2
:100C8000F0E06E2F679566276795902F9F77D79432
:100C9000DD24D7948E2F8695492F462B582F5D291A
:100CA000B701CA011F910F91FF90EF90DF90089557
:100CB000FC01DB01408151812281622F6F7770E05E
:100CC000221F2227221F9381892F880F822B282FF2
:100CD00030E0991F9927991F11969C931197211520
:100CE0003105A9F5411551056105710511F482E041
:100CF00037C082E89FEF13969C938E9312979A01C8
:100D0000AB0167E0220F331F441F551F6A95D1F7CF
:100D100083E08C930DC0220F331F441F551F129682
:100D20008D919C911397019713969C938E93129794
:100D3000203080E0380780E0480780E4580758F307
:100D400014962D933D934D935C93179708952F3FE1
:100D5000310579F4411551056105710519F484E0F7
:100D60008C93089564FF03C081E08C9312C01C92A1
:100D700010C02F57304013963C932E93129783E068
:100D80008C9387E0440F551F661F771F8A95D1F714
:100D9000706414964D935D936D937C9317970895AB
:100DA000982F803278F487E880937A0080917C00D5
:100DB00080648076892B80937C0080917A008064A7
:100DC00080937A00089580917C0085FF05C0809112
:100DD0007900282F30E004C020917800309179000C
:100DE000C901089590931301809312010895089505
:100DF000089580917C0085FF05C080917900282F9F
:100E000030E004C02091780030917900C901089544
:100E1000282F8032B0F487E880937A0080917C009C
:100E2000982F9064662311F0806C02C0892F8F7711
:100E3000807E822B80937C0080917A0080648093F6
:100E40007A000895982F803278F487E880937A00AA
:100E500080917C0080648076892B80937C008091D7
:100E60007A00806480937A0080917A0086FDFCCFBE
:100E700080917C0085FF05C080917900282F30E0AB
:100E800004C02091780030917900C90108950E9432
:100E900022070895EF92FF920F931F93982F8032AD
:100EA00078F487E880937A0080917C008064807673
:100EB000892B80937C0080917A00806480937A00F3
:100EC00080917A0086FDFCCFFB01EE24FF24870190
:100ED00080917A00806480937A0080917A0086FD08
:100EE000FCCF80917C0085FF04C08091790090E068
:100EF00004C08091780090917900A0E0B0E0E80E05
:100F0000F91E0A1F1B1F319719F7CB01969587957C
:100F10006034710538F48E0D9F1D70E00E944416F8
:100F20009B010DC0A0E0B0E0E80EF91E0A1F1B1FD8
:100F30009B0140E050E0C801B7010E946B16C90157
:100F40001F910F91FF90EF90089587E064E170E0AA
:100F50000E944A0708950E944A070895909313013A
:100F60008093120108951F9310917C0080917C0062
:100F70008F7D80937C008EE164E170E00E944A07DF
:100F80008EE164E170E00E944A079C0115FD04C0F7
:100F900080917C008F7D03C080917C008062809373
:100FA0007C00B9017695679580E090E06C54744DB3
:100FB0008E4E9F4F40E050E00E946B16C9011F917A
:100FC00008950E94B3070895A0E0B0E020911201B7
:100FD0003091130140E050E0BC01CD010E94191690
:100FE0009B01AC0180917C0085FF0BC0B901CA0157
:100FF00061587F4F8F4F9F4F2FEF30E040E050E020
:101000000AC0B901CA0161507E4F8F4F9F4F2FEF29
:1010100033E040E050E00E946B16C90108950E9441
:101020004A070E94E40708950E940F0808958091DE
:101030007C0085FF06C08091790090E00E94E40763
:10104000089580917800909179000E94E4070895B6
:10105000982F803278F487E880937A0080917C0022
:1010600080648076892B80937C0080917A008064F4
:1010700080937A0080917A0086FDFCCF0E94170849
:1010800008950E94280808950E941708089587E08F
:1010900064E170E00E944A070E94E40708950E94FC
:1010A000E40708951F9310917C0080917C008F7D50
:1010B00080937C0086E064E170E00E940F089C0150
:1010C00015FD04C080917C008F7D03C080917C0061
:1010D000806280937C00C901880F991F820F931F43
:1010E000880F991F880F991F8A5792406DE070E012
:1010F0000E945816CB011F9108950E94520808952E
:101100001F9310917C0080917C008F7D80937C00E8
:1011100086E064E170E00E940F089C0115FD04C0A8
:1011200080917C008F7D03C080917C0080628093E1
:101130007C0084E190E0AC01249FC001259F900DCC
:10114000349F900D11248E529F4167E270E00E94FF
:101150005816CB011F9108950E94800808951F938F
:1011600010917C0080917C008F7D80937C0086E0D4
:101170006AE070E00E940F08AC0115FD04C0809188
:101180007C008F7D03C080917C00806280937C0016
:101190009A01220F331F240F351F2F5F3F4F3695C3
:1011A0002795C9011F9108950E94AF0808951F93C4
:1011B00010917C0080917C008F7D80937C0086E084
:1011C0006AE070E00E940F08AC0115FD04C0809138
:1011D0007C008F7D03C080917C00806280937C00C6
:1011E0009A01220F331F240F351FC9011F91089543
:1011F0000E94D70808950E94D70808950895089579
:1012000080911F01882339F020E080914C02909159
:101210004D02892B09F021E0822F089510926F0072
:10122000E1E8F0E08081887F8160808380E197E25F
:10123000909389008093880010928B0010928A000E
:1012400081E080931F0110924D0210924C0208958C
:1012500010926F0083E28093800081E1809381008F
:101260001092820080E197E2909389008093880039
:1012700010928B0010928A00229A78940895A0E030
:10128000B0E0E5E4F9E00C94B016FC015B01C42E7B
:1012900080914B028823C9F481E080934B02109225
:1012A0006F0083E28093800081E18093810010923F
:1012B000820080E197E290938900809388001092E9
:1012C0008B0010928A00229A789410921F01F7FDE9
:1012D00003C0DD24D39403C0FF772AE0D22E80918F
:1012E0008100082F10E0087F107088ECD89EC001A4
:1012F00011248E179F07C0F4EF0187E2E131F80750
:1013000010F0C0E1D7E2BE017695679580E090E0ED
:101310006058794687469F4F9E0140E050E00E940A
:101320006B167901016024C088E2D89E802D1124BB
:10133000C82FD0E0CE17DF0708F4EF01BE01769585
:1013400067959E0140E050E08AE0D81639F480E0CD
:1013500090E0605E734481449F4F06C080E090E05F
:1013600060537D4E8C4E9F4F0E946B167901026038
:101370008AE0D81639F4CE0105966AE070E00E9442
:101380004416EB0183E0C83ED80711F4B5010FC045
:10139000BE0180E090E0950140E050E00E94191607
:1013A00028EE33E040E050E00E948D16B901109223
:1013B0006F0000938100F0928900E0928800E09134
:1013C0008800F0918900AC2DA03108F0AFE080E1F9
:1013D00090E08A1B910902C0F695E7958A95E2F79D
:1013E000F0938B00E0938A00709333026093320293
:1013F00086B38FEF86BB81E080936F00CDB7DEB7F9
:10140000EAE00C94CC160E943F090895CF93DF9335
:10141000EB018F3F11F0442329F488EE93E0BE01E5
:1014200040E067C0813110F420E005C0282F205132
:10143000203608F02FE5822F6CE00E943816382FF6
:10144000682F70E084EF9FEF689FF001699FF00DB7
:10145000789FF00D1124E20FF11DEC30F10538F406
:10146000EC5CFF4F0C94DF168CE991E023C080E028
:1014700090E020C085EB91E01DC08FEC91E01AC098
:101480008AEE91E017C087E092E014C086E292E015
:1014900011C087E492E00EC089E692E00BC08EE8AE
:1014A00092E008C085EB92E005C08EED92E002C0AC
:1014B0008AE093E0373071F002C0880F991F6A9577
:1014C000E2F7323020F005966AE070E00BC0805001
:1014D00090480BC036E0880F991F3A95E1F70296C5
:1014E00065E070E00E944416CB01403108F04FE007
:1014F000BE010E943F09DF91CF9108950E94060A24
:10150000089580911F01882339F020E080914C02DA
:1015100090914D02892B09F021E0822F08951092BD
:101520006F00E1E8F0E08081887F8160808380E166
:1015300097E2909389008093880010928B0010921C
:101540008A0081E080931F0110924D0210924C029C
:10155000089530913002E0914C02F0914D02332316
:1015600011F0249101C02081822F81548A3108F426
:10157000205E203259F480914C0290914D020196E8
:1015800090934D0280934C02019729F7822F089582
:10159000CF93DF930E94A90A282FC0E0D0E01DC09E
:1015A000CE0153E0880F991F5A95E1F7CC0FDD1F4C
:1015B000C80FD91F822F992787FD9095C80FD91F73
:1015C000E09780914C0290914D02019690934D02CC
:1015D00080934C020E94A90A282F822F80538A30C0
:1015E000F8F2CE01DF91CF910895A0E0B0E0EBEFEB
:1015F000FAE00C94AE1680901401B0902E02BB203D
:1016000021F060912F02662399F4A0902F0200919F
:10161000190110911A01E0901501F0901601C09186
:101620001701D0911801C0901B01D0901C0108C176
:101630008FEF70E040E00E94060A10922F02CBC1AB
:1016400094E0892EBB2404EF11E084E0E82EF12C15
:10165000C0EDD7E0B4E09B2EAFE0CA2ED12C0E94A3
:10166000A90A282F80914C0290914D0201969093E7
:101670004D0280934C02263609F498C02736CCF4EC
:101680002236A1F1233674F42E3361F12F3334F472
:101690002132B1F22C3309F00BC126C0213609F0FA
:1016A00007C121C1243609F451C025360CF066C0AB
:1016B00035C02F3609F4C1C0203754F42C3609F454
:1016C000A5C02D3609F4A6C0273609F0F1C086C0A2
:1016D000243709F4D1C0263709F4E6C0223709F0CF
:1016E000E7C0B0C08394BBCF8A94B9CFA0922F0239
:1016F000B0922E0210931A0100931901F092160174
:10170000E0921501D0931801C09317019092140133
:10171000D0921C01C0921B012BE0FCC0A0922F02B2
:10172000B0922E0210931A0100931901F092160143
:10173000E0921501D0931801C09317019092140103
:10174000D0921C01C0921B0120E0E4C0A0922F02A5
:10175000B0922E0210931A0100931901F092160113
:10176000E0921501D0931801C093170190921401D3
:10177000D0921C01C0921B0122E0CCC0A0922F028B
:10178000B0922E0210931A0100931901F0921601E3
:10179000E0921501D0931801C093170190921401A3
:1017A000D0921C01C0921B0124E0B4C0A0922F0271
:1017B000B0922E0210931A0100931901F0921601B3
:1017C000E0921501D0931801C09317019092140173
:1017D000D0921C01C0921B0125E09CC0A0922F0258
:1017E000B0922E0210931A0100931901F092160183
:1017F000E0921501D0931801C09317019092140143
:10180000D0921C01C0921B0127E084C00E94C80A2C
:101810007C0144C00E94A90A8C3611F4BB2403C089
:10182000AA24BB24B39480914C0290914D0201965E
:1018300090934D0280934C0212CF0E94C80A882ECA
:10184000982C0DCFA0922F02B0922E0210931A0165
:1018500000931901F0921601E0921501D09318013E
:10186000C093170190921401D0921C01C0921B01E9
:1018700020E0FF24F3944FC00E94C80ABC0180EC12
:101880009DE50E944416CB01EB01F3E0CC0FDD1F78
:10189000FA95E1F7880F991FC80FD91FCE01B7013C
:1018A0000E9444168B01DBCE0E94C80A6C01D7CE81
:1018B000A0922F02B0922E0210931A0100931901E8
:1018C000F0921601E0921501D0931801C093170110
:1018D00090921401D0921C01C0921B0110924D02F3
:1018E00010924C0278C0A0922F02B0922E02109358
:1018F0001A0100931901F0921601E0921501D0939C
:101900001801C093170190921401D0921C01C0924B
:101910001B0129E0FF248CE0889EC0011124E22EE7
:10192000E80E0AC080914C0290914D02019690936E
:101930004D0280934C02E3940E94A90A8B3291F3EA
:10194000833281F30CC080914C0290914D0201963C
:1019500090934D0280934C02EA940E94A90A8D3222
:1019600091F3C0911901D0911A018153883058F434
:1019700000911701109118010E94C80ABC01C8010A
:101980000E944416EB018E010BC080914C02909195
:101990004D02019690934D0280934C02C00FD11FCF
:1019A000169507950E94A90A8E3279F380912E022E
:1019B000882339F0CE019695879580932F02C81B16
:1019C000D109FF2011F0EE24EA948E2DBE01409142
:1019D0001B010E94060ACDB7DEB7ECE00C94CA16D4
:1019E00010926F0090934D0280934C0281E080939F
:1019F000300210922F020E94F50A08950E94F00C06
:101A0000089510926F0090934D0280934C021092B3
:101A1000300210922F020E94F50A08950E94010DD3
:101A200008951F920F920FB60F9211242F933F9398
:101A30004F935F936F937F938F939F93AF93BF93D6
:101A4000EF93FF938091320290913302019790932C
:101A5000330280933202019611F510926F00789450
:101A600080918100887F81608093810080E197E28E
:101A7000909389008093880010928B0010928A00C6
:101A800081E080931F0180914C0290914D02892B3F
:101A900031F080913102882311F40E94F50AFF9100
:101AA000EF91BF91AF919F918F917F916F915F91D6
:101AB0004F913F912F910F900FBE0F901F9018954F
:101AC00010926F0080911F01882341F080914C0299
:101AD00090914D02892B11F00E94F50A81E08093CC
:101AE0006F0020E080914C0290914D02892B09F00B
:101AF00021E0822F089580933102882311F40E94FF
:101B0000600D08950E947B0D08950E94600D089558
:101B10000895089580E090E00895EF92FF920F936A
:101B20001F936AB157985A98289AE0903802F0901B
:101B3000390200913A0210913B0220E030E041E08E
:101B400050E0CA016F9364E06A95F1F76F910197D5
:101B5000C9F75C9ACA016F9364E06A95F1F76F91D7
:101B60000197C9F789B15C98FA016F9364E06A95AF
:101B7000F1F76F913197C9F75C9AFA016F9364E0BE
:101B80006A95F1F76F913197C9F75C9887FF0BC0A1
:101B90002C5F3F4FC901A0E0B0E08E159F05A00764
:101BA000B10708F4CECF6AB91F910F91FF90EF9063
:101BB000089565B190E0AC0141705070440F551F1D
:101BC0009C012670307053E0220F331F5A95E1F7C5
:101BD000422B6D7C462B45B92BB18870907034E058
:101BE000880F991F3A95E1F72F77282B2BB95C9A2C
:101BF00081E090E0FC016F9364E06A95F1F76F91EA
:101C00003197C9F75C986F9364E06A95F1F76F912B
:101C10000197C9F708958091340290913502009799
:101C200011F00E94921780911D0190E00197209180
:101C30001E0130E0AC01429FC001439F900D529FB6
:101C4000900D11240E94E516909335028093340282
:101C5000009729F160E070E208C0E0913402F09151
:101C60003502E40FF51F70836F5F462F50E08091BF
:101C70001D0190E0019720911E0130E0FC01E29FE0
:101C8000C001E39F900DF29F900D11244817590752
:101C900024F38EE490E16AE87DE00E94EA1708955B
:101CA00080931E0160931D010E940B0E0895809386
:101CB0001E0160931D010E940B0E08950E940B0EE1
:101CC000089580E197E2A0E0B0E08093380290931D
:101CD0003902A0933A02B0933B02529A209A549A46
:101CE0008EE190E00E947E1583E00E94941186E0D0
:101CF00090E00E947E1583E00E94941182E090E0C3
:101D00000E947E1583E00E94941182E090E00E9480
:101D10007E1582E00E94941182E090E00E947E1580
:101D200088E20E94DE0E88E00E94DE0E81E00E94C2
:101D3000DE0E86E00E94DE0E8CE00E94DE0E08952C
:101D400080913C02882329F481E080933C020E9428
:101D5000610E0895BF92CF92DF92EF92FF920F93A0
:101D60001F93082F162FF42E0E94A00E0E948D0D97
:101D7000B4B0C5B0DAB0EBB02898112311F05A9A7C
:101D800001C05A9884B1826384B9579A81E0F816E9
:101D900029F0802F82958F700E94D90D802F8F702F
:101DA0000E94D90DDAB8EBB8B4B8C5B81F910F913D
:101DB000FF90EF90DF90CF90BF90089560E042E0F9
:101DC0000E94AA0E08950F931F93082F162F08C084
:101DD000002311F480E101C084E10E94DE0E115065
:101DE0001123B1F71F910F9108950E94E30E0895FA
:101DF0008CE00E94DE0E08950E94F80E0895813056
:101E000011F48FE001C08EE00E94DE0E08950E9462
:101E1000FF0E0895A4E0B0E0E0E1FFE00C94B616F8
:101E2000182F062F80E8898380EC8A8384E98B83CE
:101E300084ED8C83FE01E60FF11D8181810F0E94EC
:101E4000DE0E10933702009336022496E4E00C94E1
:101E5000D2160E940A0F089581E00E94DE0E809142
:101E6000340290913502892B19F160E070E208C0CC
:101E7000E0913402F0913502E40FF51F70836F5F3B
:101E8000462F50E080911D0190E0019720911E01A6
:101E900030E0FC01E29FC001E39F900DF29F900DA6
:101EA00011244817590724F3109237021092360272
:101EB00008950E942C0F089561E042E00E94AA0E4E
:101EC00008950F931F93CF93DF9300E010E8C82F7E
:101ED000D0E0812F90E08C239D23892B11F081E3AA
:101EE00001C080E30E945C0F0F5F083011F016956F
:101EF000F0CFDF91CF911F910F9108950E94610F54
:101F000008958A3010F4805D01C0895C0E945C0FE6
:101F100008951F93182F82958F700E94810F812F33
:101F20008F700E94810F1F9108951F93182F892F82
:101F30000E94890F812F0E94890F1F9108950E948E
:101F4000950F08950E94890F08956F927F928F9246
:101F50009F92AF92BF92CF92DF92FF920F93DF9347
:101F6000CF93CDB7DEB72A970FB6F894DEBF0FBE7A
:101F7000CDBF5B016C010AE03E010894611C711C3D
:101F8000FA2CC601B5012AE030E040E050E00E94A2
:101F90006B16C901DA015C016D0101504301800E2D
:101FA000911C80E3F80EC601B5012AE030E040E064
:101FB00050E00E941916F61AF401F082A114B1043F
:101FC000C104D104E9F608C0F601E00FF11D8081DB
:101FD0000E945C0F0F5F04C06E010894C11CD11CED
:101FE0000A3090F32A960FB6F894DEBF0FBECDBF2D
:101FF000CF91DF910F91FF90DF90CF90BF90AF9086
:102000009F908F907F906F9008950E94A50F0895E4
:10201000EF92FF920F931F937B018C0197FF0BC0F0
:1020200010950095F094E094E11CF11C011D111D28
:102030008DE20E945C0FC801B7010E94A50F1F919D
:102040000F91FF90EF9008950E9408100895CF938C
:10205000DF93EC0103C00E945C0F2196FE01849186
:102060008823C9F7DF91CF9108950E942710089522
:10207000CF93DF93EC0103C021960E945C0F88810F
:102080008823D1F7DF91CF9108950E9438100895E9
:102090000E945C0F08950E945C0F0895A0E0B0E0DC
:1020A000E4E5F0E10C94B216E82E809134029091B0
:1020B0003502892B09F405C12AE0E21609F446C06D
:1020C00038E0E316C9F480913702815080933702DB
:1020D0008F3F51F480913602815080933602809177
:1020E0001E01815080933702809136028F3F09F0A4
:1020F000E2C010923602DDC08E2D0E945C0F20914E
:1021000036022223C9F030E02150304080911E0178
:1021100090E0AC01249FC001259F900D349F900D4D
:10212000112420913702E0913402F0913502E80F3A
:10213000F91FE20FF11DE082809137028F5F8093DB
:10214000370290911E01891709F0BBC040913602F9
:10215000242F30E080911D0190E001972817390766
:1021600009F0A4C0C0E0D0E044C080E06C2F0E9421
:102170000A0FFF246E010894C11CD11C35C00F2D1D
:1021800010E090E09C01C29FC001C39F900DD29FC0
:10219000900D1124E0913402F0913502E00FF11F0F
:1021A000E80FF91F80810E945C0FE0913402F091EA
:1021B000350280911E0190E0C89FD001C99FB00DEB
:1021C000D89FB00D1124E00FF11FAE0FBF1FAC015F
:1021D000C49EC001C59E900DD49E900D1124E80FA1
:1021E000F91F80818C93F39480911E01F81638F2C8
:1021F000E60160911D01862F90E00297C817D9076C
:102200000CF4B3CF623008F440C0625080E00E940A
:102210000A0FFF24E0E2DE2E34C00F2D10E0809183
:102220001D0190E0029730E0AC01429FC001439F46
:10223000900D529F900D1124E0913402F0913502DF
:10224000E00FF11FE80FF91F80810E945C0F2091C1
:102250001D0130E02250304080911E0190E0AC0121
:10226000249FC001259F900D349F900D1124E09173
:102270003402F0913502E00FF11FE80FF91FD08210
:10228000F39420911E01F21640F260911D016150FD
:1022900080E00E940A0F00E004C080E20E945C0F10
:1022A0000F5F80911E010817C0F303C04F5F40937A
:1022B00036021092370280913702609136020E94F6
:1022C0000A0F2E2D332727FD3095C901CDB7DEB774
:1022D000E8E00C94CE16EF92FF920F931F93CF93EA
:1022E000DF937C01062F10E0F3E0000F111FFA9539
:1022F000E1F7C0E0D0E09E01200F822F80640E94B1
:10230000DE0EF701EC0FFD1FE4918E2F0E945C0F93
:102310002196C830D10579F7CDB7DEB7E6E00C9449
:10232000D0160E946B11089560E041E00E94AA0E51
:1023300008950F931F93CF93DF93082F162FEA0171
:102340000BC0002311F488E101C08CE10E94DE0E75
:10235000CE010E947E151150112399F7DF91CF9184
:102360001F910F9108950E9499110895282F883088
:1023700068F481E090E002C0880F991F2A95E2F787
:10238000282FAAE2B0E0EBE2F0E029C08E3080F422
:1023900030E02850304081E090E002C0880F991F63
:1023A0002A95E2F7282FA4E2B0E0E5E2F0E017C0BA
:1023B000853130F020E0A0E0B0E0E0E0F0E00FC0D8
:1023C00030E02E50304081E090E002C0880F991F2D
:1023D0002A95E2F7282FA7E2B0E0E8E2F0E06F3FAD
:1023E00019F48081822709C0662319F08081822B2D
:1023F00004C09081822F8095892380838C91822BC9
:102400008C93089508950895E0EBF0E083EF8083C6
:10241000808184BDE1EBF0E082E08083808185BD36
:10242000E4EBF0E010828081E3EBF0E080838081D8
:1024300088BD88B587BD86E060E00E94B61185E062
:1024400060E00E94B6118BE060E00E94B61183E06C
:1024500060E00E94B611089580913D02882329F41E
:1024600081E080933D020E9404120895CF93DF9390
:10247000EC010E942C12D7FD02C020E004C0D095D0
:10248000C195DF4F21E0CE01CF3FD10519F014F007
:102490008FEF90E0222319F018BC87BD02C088BDE1
:1024A00017BCDF91CF9108950E9436120895CF9303
:1024B000DF93EC010E942C12D7FD02C020E004C083
:1024C000D095C195DF4F21E0CE01CF3FD10519F066
:1024D00014F08FEF90E0222329F01092B400809343
:1024E000B30004C08093B4001092B300DF91CF9189
:1024F00008950E94571208950F931F938B010E9415
:102500003612C8010E9457121F910F9108950E9420
:102510007C12089508950895282F80913E02882303
:1025200091F481E080933E0284B18D7C84B985B1C1
:10253000826385B985E090E06F9364E06A95F1F776
:102540006F910197C9F783B1809582230895809197
:102550003E02882391F481E080933E0284B18D7C19
:1025600084B985B1826385B985E090E06F9364E0BA
:102570006A95F1F76F910197C9F7089584B18D7C41
:1025800084B985B1826385B985E090E06F9364E09A
:102590006A95F1F76F910197C9F70895282F8091F7
:1025A0003E02882391F481E080933E0284B18D7CC9
:1025B00084B985B1826385B985E090E06F9364E06A
:1025C0006A95F1F76F910197C9F783B180958223DE
:1025D00008950F931F93082F13B10E94AF15AB01FD
:1025E000BC0180913E02882391F481E080933E02F9
:1025F00084B18D7C84B985B1826385B985E090E032
:102600006F9364E06A95F1F76F910197C9F7809134
:102610004402813011F1813038F0823009F443C036
:10262000833009F089C065C0202F30E0812F90E011
:102630008095909528233923232B09F47DC010958C
:10264000102310933F024093400250934102609345
:1026500042027093430281E06DC0809140029091EC
:102660004102A0914202B0914302481B590B6A0BF0
:102670007B0B4F3051056105710508F45DC0409139
:102680003F02812F90E080959095242F30E08223A7
:102690009323892B59F182E08093440210951423EF
:1026A00010933F0249C0E0913F02AE2FB0E0212FCE
:1026B00030E0CD0182239323892B79F083E080934E
:1026C0004402E123E0933F024093400250934102D1
:1026D00060934202709343022FC0802F90E02095B8
:1026E000309582239323A817B90731F11092440241
:1026F00023C08091400290914102A0914202B0918A
:102700004302481B590B6A0B7B0B4F305105610587
:10271000710590F040913F02842F90E0212F30E02E
:1027200082239323892B29F010924402842F812342
:1027300004C082E08093440280E01F910F910895CD
:102740000E94E91208950F931F93082F13B110955B
:102750000E94AF15AB01BC0180913E02882391F429
:1027600081E080933E0284B18D7C84B985B182631F
:1027700085B985E090E06F9364E06A95F1F76F9119
:102780000197C9F780914A02813011F1813038F008
:10279000823009F443C0833009F089C065C0202F1E
:1027A00030E0812F90E08095909528233923232BCA
:1027B00009F47DC010951023109345024093460202
:1027C00050934702609348027093490281E06DC0C4
:1027D0008091460290914702A0914802B09149022F
:1027E000481B590B6A0B7B0B4F3051056105710576
:1027F00008F45DC040914502812F90E0809590954E
:10280000242F30E082239323892B59F182E0809397
:102810004A02109514231093450249C0A091450225
:10282000212F30E0EA2FF0E0C9018E239F23892B6E
:1028300079F083E080934A021A2310934502409373
:1028400046025093470260934802709349022FC09A
:10285000802F90E02095309582239323E817F90785
:1028600031F110924A0223C08091460290914702B2
:10287000A0914802B0914902481B590B6A0B7B0B8F
:102880004F3051056105710590F040914502812F4F
:1028900090E0242F30E082239323892B29F010929B
:1028A0004A02812F842304C082E080934A0280E0A0
:1028B0001F910F9108950E94A31308951F93CF9322
:1028C000DF93182F80913E02882391F481E080935A
:1028D0003E0284B18D7C84B985B1826385B985E07F
:1028E00090E06F9364E06A95F1F76F910197C9F7F3
:1028F000C12FD0E083B190E08C239D23892BD1F3AD
:102900008AE090E00E947E1583B190E08C239D23A5
:10291000892B81F383B18123DF91CF911F9108959A
:102920000E945E1408951F93CF93DF93182F809118
:102930003E02882391F481E080933E0284B18D7C35
:1029400084B985B1826385B985E090E06F9364E0D6
:102950006A95F1F76F910197C9F7C12FD0E083B164
:1029600090E0809590958C239D23892BC1F38AE07C
:1029700090E00E947E1583B190E0809590958C2325
:102980009D23892B61F383B180958123DF91CF91C2
:102990001F9108951F930E949314182F0E945E1494
:1029A000812F1F9108950E94CA1408950E949314C4
:1029B0000895A2E0B0E0EFEDF4E10C94B816209198
:1029C000590230915A02CE0101962115310519F4B0
:1029D0008356924002C0821B930B9A83898389811C
:1029E0009A812296E2E00C94D41608950895A2E00C
:1029F000B0E0EDEFF4E10C94B8162091590230915B
:102A00005A02CE0101962115310519F483569240E0
:102A100002C0821B930B9A83898389819A812296B3
:102A2000E2E00C94D4162F928F939F932FB680914F
:102A30004F0290915002019680934F029093500262
:102A400090E080915102891F80935102909157022A
:102A50009C5F909357028091560280519742C0F03C
:102A600090935702809356028091520290915302A4
:102A70000196809352029093530290E08091540209
:102A8000891F8093540280915502891F80935502BB
:102A90002FBE9F918F912F9018956F5F7F4F8F4F13
:102AA0009F4F660F771F881F991F25E030E040E099
:102AB00050E00E946B16CA01B901089528EE33E078
:102AC00009C0F9016F9364E06A95F1F76F9131974E
:102AD000C9F701970097A9F708956F5F7F4F8F4F50
:102AE0009F4F660F771F881F991F25E030E040E059
:102AF00050E00E946B16CA01B901089528EE33E038
:102B000009C0F9016F9364E06A95F1F76F9131970D
:102B1000C9F701970097A9F70895A0E7B0E08C9155
:102B20008E7F8C93E0EBF0E0808183608083E1EB2B
:102B3000F0E08081807F8083808182608083B89A8A
:102B40008C9181608C9378940895809158028823A9
:102B500029F481E0809358020E948D1508950E9407
:102B6000A515E0E7F0E080818E7F808320915202FE
:102B700030915302409154025091550280818160FE
:102B80008083B901CA0108950E94AF1508950E947B
:102B9000A515809170008E7F809370006091B200C7
:102BA00080914E0290914F02A0915002B09151023B
:102BB000B89905C0262F30E040E050E011C0809168
:102BC000B20020914E0230914F024091500250913C
:102BD000510220503F4F4F4F5F4F90E0A0E0B0E0D8
:102BE000282B392B4A2B5B2B8091700081608093BE
:102BF0007000B901CA0108950E94C71508950E9486
:102C0000A515E0E7F0E080818E7F8083109252026C
:102C100010925302109254021092550210925702D1
:102C20001092560280818160808308950E94FF1572
:102C30000895629FD001739FF001829FE00DF11D06
:102C4000649FE00DF11D929FF00D839FF00D749F26
:102C5000F00D659FF00D9927729FB00DE11DF91FD2
:102C6000639FB00DE11DF91FBD01CF01112408952F
:102C7000991B79E004C0991F961708F0961B881FCE
:102C80007A95C9F780950895AA1BBB1B51E107C02F
:102C9000AA1FBB1FA617B70710F0A61BB70B881FEC
:102CA000991F5A95A9F780959095BC01CD0108957B
:102CB00097FB092E07260AD077FD04D0E5DF06D062
:102CC00000201AF4709561957F4F0895F6F790955E
:102CD00081959F4F0895A1E21A2EAA1BBB1BFD01EF
:102CE0000DC0AA1FBB1FEE1FFF1FA217B307E407EB
:102CF000F50720F0A21BB30BE40BF50B661F771F43
:102D0000881F991F1A9469F7609570958095909522
:102D10009B01AC01BD01CF01089597FB092E05264B
:102D20000ED057FD04D0D7DF0AD0001C38F45095E0
:102D30004095309521953F4F4F4F5F4F0895F6F7DF
:102D400090958095709561957F4F8F4F9F4F089517
:102D50002F923F924F925F926F927F928F929F92AB
:102D6000AF92BF92CF92DF92EF92FF920F931F9399
:102D7000CF93DF93CDB7DEB7CA1BDB0B0FB6F8944A
:102D8000DEBF0FBECDBF09942A88398848885F848A
:102D90006E847D848C849B84AA84B984C884DF80FB
:102DA000EE80FD800C811B81AA81B981CE0FD11DDF
:102DB0000FB6F894DEBF0FBECDBFED010895EE0F44
:102DC000FF1F0590F491E02D0994CF93DF93BC0190
:102DD0008230910510F462E070E0A0915B02B09146
:102DE0005C02ED01E0E0F0E040E050E021C08881CD
:102DF00099818617970769F48A819B81309719F02A
:102E00009383828304C090935C0280935B02FE01F3
:102E100034C06817790738F44115510519F0841743
:102E2000950708F4AC01FE018A819B819C01E901B0
:102E30002097E9F641155105A9F1CA01861B970BA8
:102E4000049708F4BA01E0E0F0E02AC08D919C916B
:102E5000119784179507F9F46417750781F4129692
:102E60008D919C911397309719F09383828304C0BE
:102E700090935C0280935B02FD0132964FC0CA01C1
:102E8000861B970BFD01E80FF91F61937193029761
:102E90008D939C9343C0FD01828193819C01D90154
:102EA0001097A1F68091590290915A02892B41F412
:102EB00080912A0290912B0290935A02809359029A
:102EC00040912C0250912D024115510541F44DB70E
:102ED0005EB78091280290912902481B590B2091DE
:102EE000590230915A0224173507B0F4CA01821BE7
:102EF000930B8617970780F0AB014E5F5F4F8417E7
:102F0000950750F0420F531F50935A0240935902B5
:102F1000F9016193719302C0E0E0F0E0CF01DF912D
:102F2000CF910895CF93DF93009709F450C0EC013F
:102F300022971B821A82A0915B02B0915C021097CB
:102F400009F140E050E0AC17BD0708F1BB83AA834C
:102F5000FE0121913191E20FF31FAE17BF0779F403
:102F60008D919C911197280F391F2E5F3F4F398308
:102F7000288312968D919C9113979B838A83411588
:102F8000510571F4D0935C02C0935B0220C012968D
:102F90008D919C911397AD01009711F0DC01D3CF77
:102FA000FA01D383C28321913191E20FF31FCE172F
:102FB000DF0769F488819981280F391F2E5F3F4F01
:102FC000FA01318320838A819B8193838283DF91FD
:102FD000CF9108950F931F93CF93DF938C01EB0153
:102FE000009731F46115710519F420E030E038C024
:102FF00081E090E06EE070E00E943618FC019C01D8
:10300000009771F180E88383209771F0D387C2879E
:1030100081E8838380915D0290915E02892B21F487
:10302000F0935E02E0935D0201151105C9F011876E
:10303000008783818260838380915F029091600228
:10304000892B71F4F0936002E0935F02809161023A
:1030500090916202892B21F4F0936202E093610265
:10306000C901DF91CF911F910F9108950F931F9385
:10307000CF93DF93689F8001699F100D789F100D9B
:103080001124C8010E94E516EC01009729F060E0C8
:1030900070E0A8010E945218CE01DF91CF911F91DC
:1030A0000F910895DC0101C06D9341505040E0F74D
:0630B0000895F894FFCF23
:1030B6003D3F0021633332002165333200216733FF
:1030C60032008813040400D007F4010F000208013F
:1030D60000000000000000000001020203030303D9
:1030E6000404040404040404050505050505050592
:1030F6000505050505050505060606060606060672
:103106000606060606060606060606060606060659
:103116000606060606060606070707070707070741
:103126000707070707070707070707070707070729
:103136000707070707070707070707070707070719
:103146000707070707070707070707070707070709
:1031560007070707070707070808080808080808F1
:1031660008080808080808080808080808080808D9
:1031760008080808080808080808080808080808C9
:1031860008080808080808080808080808080808B9
:1031960008080808080808080808080808080808A9
:1031A6000808080808080808080808080808080899
:1031B6000808080808080808080808080808080889
:1031C6000808080808080808080808080808080879
:0E31D600080808080808080820006302000026
:00000001FF
