:100000000C9440000C945D000C945D000C945D0019
:100010000C945D000C945D000C945D000C945D00EC
:100020000C945D000C94DB160C945D000C945D0048
:100030000C945D000C94580F0C945D000C945D00C2
:100040000C945D000C945D000C945D000C945D00BC
:100050000C945D000C945D000C945D000C945D00AC
:100060000C945D000C945D00780C7E0C810C840C6B
:10007000870C8A0C8D0C900C930C960C990C9C0C94
:1000800011241FBECFEFD4E0DEBFCDBF12E0A0E051
:10009000B1E0EAE2F4E302C005900D92AA38B1079C
:1000A000D9F712E0AAE8B2E001C01D92AF3BB10758
:1000B000E1F70E94CD020C94131A0C940000ECE7B7
:1000C000F0E08081806280833D98459808958EECB1
:1000D0009FEF62E370E00E94CE14089582E390E007
:1000E0006EEC7FEF0E94CE14089586EA9FEF6EECCF
:1000F0007FEF0E94CE1408958EEC9FEF66EA7FEFAB
:100100000E94CE140895AF92BF92CF92DF92EF92E9
:10011000FF920F931F935C017B0166277727681B73
:10012000790B0E94CE140027F7FC0095102FC80110
:10013000B7010E94260728E431EE4AE553E40E9405
:1001400080057B018C01CC24B7FCC094DC2CC6015B
:10015000B5010E9426079B01AC01C801B7010E94AE
:100160007A060E948407DC01CB010E94151780E00B
:1001700090E060E070E00E94CE141F910F91FF901C
:10018000EF90DF90CF90BF90AF900895AF92BF9265
:10019000CF92DF92EF92FF920F931F935C017B014E
:1001A000882799278A199B09B5010E94CE14002738
:1001B000F7FC0095102FC801B7010E94260728E41C
:1001C00031EE4AE553E40E9480057B018C01CC248A
:1001D000B7FCC094DC2CC601B5010E9426079B0128
:1001E000AC01C801B7010E947A060E948407DC01B5
:1001F000CB010E94151780E090E060E070E00E9463
:10020000CE141F910F91FF90EF90DF90CF90BF9091
:10021000AF9008950F931F939C018B01B9010E9429
:10022000CE14C8010E94151780E090E060E070E0F5
:100230000E94CE141F910F91089580E090E060E03D
:1002400070E00E94CE1408950F931F93CF93DF9315
:10025000182F062FEA01232B11F00E94A011812FE5
:10026000602F0E947011CE010E948C12DF91CF91FD
:100270001F910F910895AF92BF92CF92DF92EF92AC
:10028000FF920F931F93B82EA62E69017A01012BBE
:1002900011F00E94A0118B2D6A2D0E947011C701D0
:1002A000B6010E946B121F910F91FF90EF90DF90AB
:1002B000CF90BF90AF900895EF92FF920F931F934E
:1002C000CF93DF93EC010E94A011EE24FF2487015D
:1002D0000EC080E060E00E947011C801B7010E946A
:1002E0006B1288EE93E00E9415170E94A0110894EB
:1002F000E11CF11C011D111DCE15DF0554F7DF9126
:10030000CF911F910F91FF90EF90089585E00E948B
:10031000CD09089587E00E94CD09089586E00E94E6
:10032000CD0908950E94CD090895EF92FF920F9391
:100330001F93DF93CF93CDB7DEB7E2970FB6F89454
:10034000DEBF0FBECDBF8E010F5F1F4F83E3E82ED0
:10035000F12CEC0EFD1E88ED9FEF68E270E00E942C
:10036000CE1482E590E00E94151780E090E060E0F6
:1003700070E00E94CE1486E00E94CD09F8018193BE
:1003800091938F01EE15FF0531F7CE010196E296AC
:100390000FB6F894DEBF0FBECDBFCF91DF911F9196
:1003A0000F91FF90EF900895EF92FF920F931F939C
:1003B0002CC00E947E1724EF31E040E050E00E9404
:1003C00025186115710581059105F9F40E94A011A8
:1003D00080E090E060E070E040E051E00E942401A5
:1003E00080E061E00E94701185E00E94CD097C01EF
:1003F00086E00E94CD09E81AF90A0027F7FC00956B
:10040000102FC801B7010E946B1280E10E940315F2
:10041000882379F285E00E94CD098C0186E00E9454
:10042000CD097C0189E091E00E94550F0E191F094A
:10043000C8011F910F91FF90EF900895CF92DF9226
:10044000EF92FF920F931F93CF93DF937C018A016A
:10045000EB01C12C9DE7D92E0E94A01180E060E045
:100460000E947011C7010E948C1283E191E00E94EA
:100470008C1280E061E00E947011BE01882777FD38
:100480008095982F0E946B1281E00E944E1182E3AA
:100490000E9403158823D9F782E30E94B71681FFD3
:1004A00007C086E191E00E94550FC01BD10B20C010
:1004B00084FF16C00E9443110E94A0118BE191E0BD
:1004C0000E94550F84E690E00E941517CE01DF913F
:1004D000CF911F910F91FF90EF90DF90CF900895F3
:1004E00085FF06C080E291E00E94550FC00FD11F2A
:1004F00083E8C030D8074CF480E09DE7B8010E9443
:100500001218EC01C050DD47A7CF8DE7C130D807E6
:100510000CF4A2CF80E09DE7B8010E941218E6011A
:10052000C81BD90B99CF0F931F938C0188EC90E0D7
:1005300062E370E04EE00E94470C8BE490E00E9482
:1005400015178CE291E062E370E04EE00E94470CE8
:1005500088EC90E062E370E04EE00E94470C8BE490
:1005600090E00E9415178CE291E062E370E04EE0AB
:100570000E94470C80E060E00E947011C8010E9458
:100580008C1280E10E9403158823D9F384EF91E057
:100590000E9415171F910F9108952F923F924F922D
:1005A0005F926F927F928F929F92AF92BF92CF9203
:1005B000DF92EF92FF920F931F93DF93CF9300D0C0
:1005C000CDB7DEB70E945F0085E291E00E94930202
:1005D0008EE291E061E070E041E050E00E941E0296
:1005E0005C0187E391E061E070E041E050E00E944F
:1005F0001E027C0180E491E061E070E041E050E0A7
:100600000E941E026C0189E491E061E070E041E02B
:1006100050E00E941E028C01C501B7010E94121811
:10062000882777FD8095982F0E9426071B012C01B3
:10063000C601B8010E941218882777FD8095982F6F
:100640000E9426073B014C010E94D4019A838983B2
:1006500089E093E00E941517CC24DD2485E00E94F8
:10066000CD098C0186E00E94CD097C015801A81AB1
:10067000B90A0E947E172AEF30E040E050E00E9465
:1006800025186115710581059105D1F4980144275C
:1006900037FD4095542F80E090E060E070E001E08D
:1006A00010E00E943B019701442737FD4095542FED
:1006B00080E090E061E070E000E010E00E943B012B
:1006C00088EDA8168FEFB8061CF50E94A01182E5F0
:1006D00091E00E948C1289E091E00E94550F80E029
:1006E00090E060E070E00E94CE1482E390E06BED59
:1006F00071E00E940A0182E390E060E570E00E94F0
:10070000C60082E390E06BE673E00E940A01A4CF8A
:1007100087E00E94CD0985369105BCF00E94A011AA
:100720008AE591E00E948C1283E691E00E94550FC9
:1007300080E090E060E070E00E94CE1482E390E000
:100740006AE570E00E94830087CFB501E981FA81F4
:100750006E1B7F0B882777FD8095982F0E942607B8
:10076000A20191010E9480057B018C01B5016C19E9
:100770007D09882777FD8095982F0E942607A40180
:1007800093010E9480059B01AC01C801B7010E9442
:1007900053050E948407DC01CB0162E370E0681B13
:1007A000790BC2960E94CE14650158CFA0E0B0E04C
:1007B000ECEDF3E00C946218DC012B01FA019C9142
:1007C000923008F439C1EB018881823008F433C1DA
:1007D000943069F4843009F02FC111969C911197DF
:1007E0008981981709F428C1ABE7B1E025C18430AD
:1007F00009F421C18230A9F4923009F01DC19A0197
:10080000AD0188E0EA010990AE01E90109929E017B
:100810008150C1F7E201898111969C9189238183DE
:1008200008C1923009F407C112962D903C9013979D
:10083000EB018A819B811496AD90BD90CD90DC90A8
:100840001797EC80FD800E811F819101281B390BC9
:10085000B90137FF04C066277727621B730B60322C
:1008600071050CF061C0121613066CF537014801D2
:10087000062E04C096948794779467940A94D2F7CE
:1008800021E030E040E050E004C0220F331F441F5D
:10089000551F6A95D2F721503040404050402E21DC
:1008A0003F2140235123211531054105510521F0F8
:1008B00021E030E040E050E079018A01E628F728A5
:1008C000082919293CC0232BD1F1260E371E3501EA
:1008D0004601062E04C096948794779467940A94F0
:1008E000D2F721E030E040E050E004C0220F331F97
:1008F000441F551F6A95D2F7215030404040504068
:100900002A213B214C215D2121153105410551054D
:1009100021F021E030E040E050E059016A01A628D2
:10092000B728C828D9280BC0821593052CF01C01C4
:10093000AA24BB24650103C0EE24FF24870111967D
:100940009C91D20111968C91981709F445C0992376
:1009500039F0A80197012A193B094C095D0906C025
:10096000A60195012E193F09400B510B57FD08C0F8
:1009700011823382228224833583468357831DC0AC
:1009800081E081833382228288279927DC01821BC0
:10099000930BA40BB50B84839583A683B7830DC0FB
:1009A000220F331F441F551F2483358346835783EB
:1009B000828193810197938382832481358146814B
:1009C0005781DA01C9010197A109B1098F5F9F4FD2
:1009D000AF4FBF4328F30BC0918333822282EA0CCE
:1009E000FB1C0C1D1D1DE482F5820683178383E02A
:1009F0008083248135814681578157FF1AC0C90100
:100A0000AA2797FDA095BA2F81709070A070B07042
:100A10005695479537952795822B932BA42BB52B6D
:100A200084839583A683B783828193810196938380
:100A30008283DF0101C0D201CD01CDB7DEB7E2E193
:100A40000C947E18A0E2B0E0E8E2F5E00C946E1899
:100A500069837A838B839C832D833E834F8358875E
:100A6000E9E0EE2EF12CEC0EFD1ECE010196B70151
:100A70000E94FC088E010F5E1F4FCE010596B80143
:100A80000E94FC088A8991E089278A8BC701B801F6
:100A9000AE01475E5F4F0E94D6030E942708A096D2
:100AA000E6E00C948A18A0E2B0E0E9E5F5E00C94E9
:100AB0006E1869837A838B839C832D833E834F8357
:100AC0005887F9E0EF2EF12CEC0EFD1ECE010196B9
:100AD000B7010E94FC088E010F5E1F4FCE010596E4
:100AE000B8010E94FC08C701B801AE01475E5F4F24
:100AF0000E94D6030E942708A096E6E00C948A186C
:100B0000A0E2B0E0E6E8F5E00C94621869837A832D
:100B10008B839C832D833E834F835887CE01019620
:100B2000BE01675F7F4F0E94FC08CE010596BE01A3
:100B30006F5E7F4F0E94FC089985923088F089890A
:100B40008230C8F0943019F4823051F404C08430FB
:100B500029F4923081F48BE791E0C6C0923049F4D9
:100B600020E09A858A89981321E02A87CE01099688
:100B7000BBC0823049F420E09A858A89981321E02D
:100B80002A8BCE014196B0C02D843E844F84588874
:100B90006D887E888F88988CEE24FF248701AA2494
:100BA000BB24650140E050E060E070E0E0E0F0E090
:100BB000C10181709070892BE9F0E60CF71C081DCB
:100BC000191D9A01AB012A0D3B1D4C1D5D1D80E0D6
:100BD00090E0A0E0B0E0E614F7040805190520F461
:100BE00081E090E0A0E0B0E0BA01A901480F591FF0
:100BF0006A1F7B1FAA0CBB1CCC1CDD1C97FE08C007
:100C000081E090E0A0E0B0E0A82AB92ACA2ADB2A55
:100C10003196E032F10549F0660C771C881C991C6E
:100C20005694479437942794C3CFFA85EA892B8941
:100C30003C898B859C85280F391F2E5F3F4F17C03D
:100C4000CA0181709070892B61F016950795F79411
:100C5000E79480E090E0A0E0B0E8E82AF92A0A2BC7
:100C60001B2B76956795579547952F5F3F4F77FDDF
:100C7000E7CF0CC0440F551F661F771F17FD41605B
:100C8000EE0CFF1C001F111F21503040403090E03F
:100C9000590790E0690790E4790760F32B8F3C8F48
:100CA000DB01CA018F779070A070B070803491051D
:100CB000A105B10561F447FD0AC0E114F104010585
:100CC000110529F0405C5F4F6F4F7F4F40781A8EBF
:100CD000FE1711F081E08A8F4D8F5E8F6F8F78A3A2
:100CE00083E0898FCE0149960E942708A096E2E111
:100CF0000C947E18A8E1B0E0E0E8F6E00C946A18E5
:100D000069837A838B839C832D833E834F835887AB
:100D1000B9E0EB2EF12CEC0EFD1ECE010196B701D1
:100D20000E94FC088E010F5E1F4FCE010596B80190
:100D30000E94FC082985223008F47EC039893230AF
:100D400010F4B8017CC08A859A8989278A87243063
:100D500011F0223031F4231709F06EC06BE771E017
:100D60006EC0343039F41D861E861F86188A1C8694
:100D70001B8604C0323021F484E08987B7015FC04C
:100D80002B853C858B899C89281B390B3C872B87BD
:100D9000ED84FE840F851889AD88BE88CF88D88CF5
:100DA000EA14FB040C051D0540F4EE0CFF1C001FAB
:100DB000111F215030403C872B8720E030E040E07D
:100DC00050E080E090E0A0E0B0E460E070E0EA1481
:100DD000FB040C051D0540F0282B392B4A2B5B2BFF
:100DE000EA18FB080C091D09B695A79597958795F4
:100DF000EE0CFF1C001F111F6F5F7F4F6F317105DD
:100E000031F7DA01C9018F779070A070B07080342B
:100E10009105A105B10561F427FD0AC0E114F104B3
:100E20000105110529F0205C3F4F4F4F5F4F20789F
:100E30002D873E874F87588BBE01675F7F4FCB0161
:100E40000E9427086896EAE00C948618A8E0B0E0B3
:100E5000ECE2F7E00C946B189B01AC0183E0898312
:100E6000DA01C9018827B7FD83959927AA27BB27EF
:100E7000B82E211531054105510519F482E0898309
:100E80003AC08823A9F0203080E0380780E0480786
:100E900080E8580729F460E070E080E09FEC30C003
:100EA000EE24FF248701E21AF30A040B150B02C09B
:100EB00079018A018EE1C82ED12CDC82CB82ED82B1
:100EC000FE820F831887C801B7010E94D8070197D7
:100ED0001816190684F4082E04C0EE0CFF1C001F1F
:100EE000111F0A94D2F7ED82FE820F831887C81A69
:100EF000D90ADC82CB82BA82CE0101960E942708F1
:100F00002896E9E00C948718ACE0B0E0EAE8F7E056
:100F10000C94721869837A838B839C83CE0101962B
:100F2000BE016B5F7F4F0E94FC088D81823061F1B2
:100F3000823050F1843021F48E81882351F12EC00B
:100F40002F81388537FD20C06E812F3131051CF08F
:100F50006623F9F023C08EE190E0821B930B298574
:100F60003A854B855C8504C05695479537952795FE
:100F70008A95D2F76623B1F050954095309521952A
:100F80003F4F4F4F5F4F0EC020E030E040E050E059
:100F900009C02FEF3FEF4FEF5FE704C020E030E0E4
:100FA00040E050E8B901CA012C96E2E00C948E189A
:100FB000EF92FF920F931F937B018C0180E0E81664
:100FC00080E0F80681E0080780E0180788F48FEFDA
:100FD000E816F1040105110531F028F088E090E0F1
:100FE000A0E0B0E017C080E090E0A0E0B0E012C068
:100FF00080E0E81680E0F80680E0080781E0180746
:1010000028F088E190E0A0E0B0E004C080E190E04A
:10101000A0E0B0E020E230E040E050E0281B390BD7
:101020004A0B5B0B04C016950795F794E7948A95D5
:10103000D2F7F701ED57FE4F8081281B3109410996
:101040005109C9011F910F91FF90EF900895DF9210
:10105000EF92FF920F931F93FC01E480F5800681CD
:101060001781D1808081823048F480E090E0A0E157
:10107000B0E0E82AF92A0A2B1B2BA5C0843009F41A
:101080009FC0823021F4EE24FF24870105C0E114C3
:10109000F1040105110519F4E0E0F0E096C0628169
:1010A00073819FEF623879070CF05BC022E83FEF55
:1010B000261B370B2A3131052CF020E030E040E0D0
:1010C00050E02AC0B801A701022E04C076956795AA
:1010D000579547950A94D2F781E090E0A0E0B0E000
:1010E00004C0880F991FAA1FBB1F2A95D2F701972A
:1010F000A109B1098E219F21A023B1230097A10549
:10110000B10521F081E090E0A0E0B0E09A01AB01F0
:10111000282B392B4A2B5B2BDA01C9018F77907072
:10112000A070B07080349105A105B10539F427FF96
:1011300009C0205C3F4F4F4F5F4F04C0215C3F4FC1
:101140004F4F5F4FE0E0F0E02030A0E03A07A0E032
:101150004A07A0E45A0710F0E1E0F0E079018A01C3
:1011600027C06038710564F5FB01E158FF4FD801D5
:10117000C7018F779070A070B07080349105A10581
:10118000B10539F4E7FE0DC080E490E0A0E0B0E0E6
:1011900004C08FE390E0A0E0B0E0E80EF91E0A1F63
:1011A0001B1F17FF05C016950795F794E794319616
:1011B00087E016950795F794E7948A95D1F705C0CF
:1011C000EE24FF248701EFEFF0E06E2F679566278E
:1011D0006795902F9F77D794DD24D7948E2F86958F
:1011E000492F462B582F5D29B701CA011F910F9136
:1011F000FF90EF90DF900895FC01DB014081518169
:101200002281622F6F7770E0221F2227221F938195
:10121000892F880F822B282F30E0991F9927991F3B
:1012200011969C93119721153105A9F5411551058A
:101230006105710511F482E037C082E89FEF1396D3
:101240009C938E9312979A01AB0167E0220F331F94
:10125000441F551F6A95D1F783E08C930DC0220F70
:10126000331F441F551F12968D919C911397019720
:1012700013969C938E931297203080E0380780E07D
:10128000480780E4580758F314962D933D934D93E7
:101290005C93179708952F3F310579F44115510557
:1012A0006105710519F484E08C93089564FF03C00F
:1012B00081E08C9312C01C9210C02F5730401396BF
:1012C0003C932E93129783E08C9387E0440F551F35
:1012D000661F771F8A95D1F7706414964D935D93BE
:1012E0006D937C931797089580917C0085FF05C0CE
:1012F00080917900282F30E004C02091780030914F
:101300007900C901089590936E0180936D0108954D
:101310000895089580917C0085FF05C08091790033
:10132000282F30E004C02091780030917900C90165
:101330000895282F8032B0F487E880937A00809156
:101340007C00982F9064662311F0806C02C0892F76
:101350008F77807E822B80937C0080917A008064DE
:1013600080937A00089560E00E949909089560E0F2
:101370000E94990980917A0086FDFCCF80917C00C3
:1013800085FF05C080917900282F30E004C02091AE
:10139000780030917900C90108950E94B709089535
:1013A000EF92FF920F931F93CF93DF93EB0160E0D7
:1013B0000E94990980917A0086FDFCCF9E01EE245F
:1013C000FF24870180917A00806480937A00809165
:1013D0007A0086FDFCCF80917C0085FF04C080915F
:1013E000790090E004C08091780090917900A0E0AD
:1013F000B0E0E80EF91E0A1F1B1F2150304011F704
:10140000CE0196958795C034D10540F48E0D9F1D71
:101410006C2F70E00E94FE179B010DC0A0E0B0E0B1
:10142000E80EF91E0A1F1B1F9E0140E050E0C80194
:10143000B7010E942518C901CDB7DEB7E6E00C94CC
:101440008A1887E064E170E00E94D00908950E9444
:10145000D009089590936E0180936D0108951F93B4
:1014600010917C0080917C008F7D80937C008EE1C8
:1014700064E170E00E94D0098EE164E170E00E94B6
:10148000D0099C0115FD04C080917C008F7D03C0B4
:1014900080917C00806280937C00B901769567958D
:1014A00080E090E06C54744D8E4E9F4F40E050E0D1
:1014B0000E942518C9011F9108950E942F0A0895BE
:1014C000A0E0B0E020916D0130916E0140E050E06D
:1014D000BC01CD010E94D3179B01AC0180917C001F
:1014E00085FF0BC0B901CA0161587F4F8F4F9F4FD5
:1014F0002FEF30E040E050E00AC0B901CA0161506E
:101500007E4F8F4F9F4F2FEF33E040E050E00E941F
:101510002518C90108950E94D0090E94600A089503
:101520000E948B0A089580917C0085FF06C08091FF
:10153000790090E00E94600A08958091780090916F
:1015400079000E94600A089560E00E9499098091E4
:101550007A0086FDFCCF0E94930A08950E94A40A97
:1015600008950E94930A089587E064E170E00E9464
:10157000D0090E94600A08950E94600A08951F938E
:1015800010917C0080917C008F7D80937C0086E0B0
:1015900064E170E00E948B0A9C0115FD04C08091FB
:1015A0007C008F7D03C080917C00806280937C00F2
:1015B000C901880F991F820F931F880F991F880FE9
:1015C000991F8A5792406DE070E00E941218CB017B
:1015D0001F9108950E94BF0A08951F9310917C00E7
:1015E00080917C008F7D80937C0086E064E170E0D8
:1015F0000E948B0A9C0115FD04C080917C008F7DA8
:1016000003C080917C00806280937C0084E190E044
:10161000AC01249FC001259F900D349F900D112493
:101620008E529F4167E270E00E941218CB011F9119
:1016300008950E94ED0A08951F9310917C008091F7
:101640007C008F7D80937C0086E06AE070E00E94E1
:101650008B0AAC0115FD04C080917C008F7D03C016
:1016600080917C00806280937C009A01220F331F5E
:10167000240F351F2F5F3F4F36952795C9011F91C6
:1016800008950E941C0B08951F9310917C00809177
:101690007C008F7D80937C0086E06AE070E00E9491
:1016A0008B0AAC0115FD04C080917C008F7D03C0C6
:1016B00080917C00806280937C009A01220F331F0E
:1016C000240F351FC9011F9108950E94440B0895EE
:1016D0000E94440B08950895089580917A0188230B
:1016E00039F020E08091A8029091A902892B09F09D
:1016F00021E0822F089510926F0083E28093800092
:1017000081E1809381001092820080E197E29093C2
:1017100089008093880010928B0010928A00229A90
:1017200078940895A0E0B0E0E8E9FBE00C946A1832
:101730008C015B01C42E8091A702882329F481E0EB
:101740008093A7020E947B0B10927A0117FD03C0C1
:10175000DD24D39403C01F772AE0D22E809181002C
:10176000E82EFF2488EFE822FF2488ECD89EC001F1
:10177000112480179107C8F4E80197E20131190795
:1017800010F0C0E1D7E2BE017695679580E090E069
:101790006058794687469F4F9E0140E050E00E9486
:1017A0002518890181E090E025C088E2D89E802D2F
:1017B0001124C82FD0E0C017D10708F4E801BE01FA
:1017C000769567959E0140E050E09AE0D91639F48D
:1017D00080E090E0605E734481449F4F06C080E0EB
:1017E00090E060537D4E8C4E9F4F0E9425188901DA
:1017F00082E090E0E82AF92A9AE0D91639F4CE017D
:1018000005966AE070E00E94FE17EB0183E0C83E97
:10181000D80711F4B5010FC0BE0180E090E095013A
:1018200040E050E00E94D31728EE33E040E050E063
:101830000E944718B90110926F00E0928100109346
:10184000890000938800E0918800F0918900AC2D18
:10185000A03108F0AFE080E190E08A1B910902C05E
:10186000F695E7958A95E2F7F0938B00E0938A006E
:1018700070938F0260938E0286B38FEF86BB81E0F8
:1018800080936F00CDB7DEB7EAE00C9486180E9413
:10189000920B0895CF93DF93EB018F3F11F0442318
:1018A00029F488EE93E0BE0140E067C0813110F476
:1018B00020E005C0282F2051203608F02FE5822F88
:1018C0006CE00E94F217382F682F70E084EF9FEFD2
:1018D000689FF001699FF00D789FF00D1124E20FD1
:1018E000F11DEC30F10538F4EC5CFF4F0C949918C5
:1018F0008CE991E023C080E090E020C085EB91E08E
:101900001DC08FEC91E01AC08AEE91E017C087E00D
:1019100092E014C086E292E011C087E492E00EC02B
:1019200089E692E00BC08EE892E008C085EB92E079
:1019300005C08EED92E002C08AE093E0373071F08E
:1019400002C0880F991F6A95E2F7323020F00596A1
:101950006AE070E00BC0805090480BC036E0880F02
:10196000991F3A95E1F7029665E070E00E94FE1734
:10197000CB01403108F04FE0BE010E94920BDF9195
:10198000CF9108950E944A0C089580917A0188238E
:1019900039F020E08091A8029091A902892B09F0EA
:1019A00021E0822F089510926F00E1E8F0E080813D
:1019B000887F8160808380E197E2909389008093A3
:1019C000880010928B0010928A0081E080937A0147
:1019D0001092A9021092A80208950E94D30C0895B3
:1019E00030918C02E091A802F091A902332311F00A
:1019F000249101C02081822F81548A3108F4205E15
:101A0000203259F48091A8029091A90201969093F6
:101A1000A9028093A802019729F7822F0895CF93F6
:101A2000DF930E94F00C282FC0E0D0E01DC0CE0153
:101A300053E0880F991F5A95E1F7CC0FDD1FC80FAF
:101A4000D91F822F992787FD9095C80FD91FE0973E
:101A50008091A8029091A90201969093A902809387
:101A6000A8020E94F00C282F822F80538A30F8F2AF
:101A7000CE01DF91CF910895A0E0B0E0E2E4FDE077
:101A80000C94681880906F01B0908A02BB2021F0FE
:101A900060918B02662399F4A0908B0200917401EF
:101AA00010917501E0907001F0907101C091720188
:101AB000D0917301C0907601D090770108C18FEF6B
:101AC00070E040E00E944A0C10928B02CBC194E07F
:101AD000892EBB2404EF11E084E0E82EF12CC0ED48
:101AE000D7E0B4E09B2EAFE0CA2ED12C0E94F00CC0
:101AF000282F8091A8029091A90201969093A902A3
:101B00008093A802263609F498C02736CCF42236F2
:101B1000A1F1233674F42E3361F12F3334F42132E2
:101B2000B1F22C3309F00BC126C0213609F007C1F0
:101B300021C1243609F451C025360CF066C035C0E9
:101B40002F3609F4C1C0203754F42C3609F4A5C04F
:101B50002D3609F4A6C0273609F0F1C086C0243717
:101B600009F4D1C0263709F4E6C0223709F0E7C0EE
:101B7000B0C08394BBCF8A94B9CFA0928B02B092AD
:101B80008A021093750100937401F0927101E09242
:101B90007001D0937301C093720190926F01D09243
:101BA0007701C09276012BE0FCC0A0928B02B0922C
:101BB0008A021093750100937401F0927101E09212
:101BC0007001D0937301C093720190926F01D09213
:101BD0007701C092760120E0E4C0A0928B02B0921F
:101BE0008A021093750100937401F0927101E092E2
:101BF0007001D0937301C093720190926F01D092E3
:101C00007701C092760122E0CCC0A0928B02B09204
:101C10008A021093750100937401F0927101E092B1
:101C20007001D0937301C093720190926F01D092B2
:101C30007701C092760124E0B4C0A0928B02B092EA
:101C40008A021093750100937401F0927101E09281
:101C50007001D0937301C093720190926F01D09282
:101C60007701C092760125E09CC0A0928B02B092D1
:101C70008A021093750100937401F0927101E09251
:101C80007001D0937301C093720190926F01D09252
:101C90007701C092760127E084C00E940F0D7C017D
:101CA00044C00E94F00C8C3611F4BB2403C0AA245B
:101CB000BB24B3948091A8029091A90201969093BD
:101CC000A9028093A80212CF0E940F0D882E982C93
:101CD0000DCFA0928B02B0928A02109375010093EF
:101CE0007401F0927101E0927001D0937301C0937E
:101CF000720190926F01D0927701C092760120E03C
:101D0000FF24F3944FC00E940F0DBC0180EC9DE5B1
:101D10000E94FE17CB01EB01F3E0CC0FDD1FFA951B
:101D2000E1F7880F991FC80FD91FCE01B7010E9494
:101D3000FE178B01DBCE0E940F0D6C01D7CEA09257
:101D40008B02B0928A021093750100937401F09295
:101D50007101E0927001D0937301C093720190926F
:101D60006F01D0927701C09276011092A902109271
:101D7000A80278C0A0928B02B0928A0210937501DB
:101D800000937401F0927101E0927001D09373019D
:101D9000C093720190926F01D0927701C092760148
:101DA00029E0FF248CE0889EC0011124E22EE80E79
:101DB0000AC08091A8029091A90201969093A9026D
:101DC0008093A802E3940E94F00C8B3291F383324B
:101DD00081F30CC08091A8029091A9020196909382
:101DE000A9028093A802EA940E94F00C8D3291F32C
:101DF000C0917401D09175018153883058F40091DD
:101E00007201109173010E940F0DBC01C8010E9464
:101E1000FE17EB018E010BC08091A8029091A902E0
:101E200001969093A9028093A802C00FD11F169526
:101E300007950E94F00C8E3279F380918A028823F4
:101E400039F0CE019695879580938B02C81BD109F6
:101E5000FF2011F0EE24EA948E2DBE014091760110
:101E60000E944A0CCDB7DEB7ECE00C9484181092B7
:101E70006F009093A9028093A80281E080938C0266
:101E800010928B020E943C0D08950E94370F089516
:101E900010926F009093A9028093A80210928C0276
:101EA00010928B020E943C0D08950E94480F0895E5
:101EB0001F920F920FB60F9211242F933F934F93BF
:101EC0005F936F937F938F939F93AF93BF93EF93A2
:101ED000FF9380918E0290918F02019790938F02D1
:101EE00080938E02019611F510926F007894809184
:101EF0008100887F81608093810080E197E29093E8
:101F000089008093880010928B0010928A0081E0F3
:101F100080937A018091A8029091A902892B31F0D7
:101F200080918D02882311F40E943C0DFF91EF9166
:101F3000BF91AF919F918F917F916F915F914F91E1
:101F40003F912F910F900FBE0F901F9018951092F8
:101F50006F0080917A01882341F08091A8029091CE
:101F6000A902892B11F00E943C0D81E080936F0043
:101F700020E08091A8029091A902892B09F021E02C
:101F8000822F089580938D02882311F40E94A70F59
:101F900008950E94C20F08950E94A70F0895089502
:101FA000089580E090E00895EF92FF920F931F93C1
:101FB0006AB157985A98289AE0909402F090950246
:101FC000009196021091970220E030E041E050E04D
:101FD000CA016F9364E06A95F1F76F910197C9F7B1
:101FE0005C9ACA016F9364E06A95F1F76F9101976B
:101FF000C9F789B15C98FA016F9364E06A95F1F7CB
:102000006F913197C9F75C9AFA016F9364E06A9512
:10201000F1F76F913197C9F75C9887FF0BC02C5F80
:102020003F4FC901A0E0B0E08E159F05A007B107A2
:1020300008F4CECF6AB91F910F91FF90EF900895E9
:1020400065B190E0AC0141705070440F551F9C0188
:102050002670307053E0220F331F5A95E1F7422B60
:102060006D7C462B45B92BB18870907034E0880F99
:10207000991F3A95E1F72F77282B2BB95C9A81E0CD
:1020800090E0FC016F9364E06A95F1F76F913197EE
:10209000C9F75C986F9364E06A95F1F76F910197C7
:1020A000C9F708958091900290919102009711F0E4
:1020B0000E944C198091780190E00197209179015C
:1020C00030E0AC01429FC001439F900D529F900DA4
:1020D00011240E949F189093910280939002009780
:1020E00029F160E070E208C0E0919002F091910265
:1020F000E40FF51F70836F5F462F50E080917801E9
:1021000090E001972091790130E0FC01E29FC0014D
:10211000E39F900DF29F900D11244817590724F367
:1021200085E992E161ED7FE00E94A4190895809312
:102130007901609378010E9452100895809379018B
:10214000609378010E94521008950E9452100895E1
:1021500080E197E2A0E0B0E0809394029093950232
:10216000A0939602B0939702529A209A549A8EE1C5
:1021700090E00E94381783E00E94DB1386E090E035
:102180000E94381783E00E94DB1382E090E00E94F7
:10219000381783E00E94DB1382E090E00E9438173A
:1021A00082E00E94DB1382E090E00E94381788E210
:1021B0000E94251188E00E94251181E00E942511CE
:1021C00086E00E9425118CE00E94251108958091DF
:1021D0009802882329F481E0809398020E94A81035
:1021E0000895BF92CF92DF92EF92FF920F931F93C9
:1021F000082F162FF42E0E94E7100E94D40FB4B0BF
:10220000C5B0DAB0EBB02898112311F05A9A01C08A
:102210005A9884B1826384B9579A81E0F81629F0FC
:10222000802F82958F700E942010802F8F700E94C7
:102230002010DAB8EBB8B4B8C5B81F910F91FF9071
:10224000EF90DF90CF90BF90089560E042E00E9451
:10225000F11008950F931F93082F162F08C0002325
:1022600011F480E101C084E10E9425111150112375
:10227000B1F71F910F9108950E942A1108958CE0E3
:102280000E94251108950E943F110895813011F494
:102290008FE001C08EE00E94251108950E94461132
:1022A0000895A4E0B0E0E7E5F1E10C947018182F70
:1022B000062F80E8898380EC8A8384E98B8384ED10
:1022C0008C83FE01E60FF11D8181810F0E94251193
:1022D00010939302009392022496E4E00C948C18DD
:1022E0000E945111089581E00E9425118091900271
:1022F00090919102892B19F160E070E208C0E091A1
:102300009002F0919102E40FF51F70836F5F462FEA
:1023100050E08091780190E001972091790130E0C0
:10232000FC01E29FC001E39F900DF29F900D1124EC
:102330004817590724F310929302109292020895BD
:102340000E947311089561E042E00E94F110089527
:102350000F931F93CF93DF9300E010E8C82FD0E0D6
:10236000812F90E08C239D23892B11F081E301C004
:1023700080E30E94A3110F5F083011F01695F0CF93
:10238000DF91CF911F910F9108950E94A811089598
:102390008A3010F4805D01C0895C0E94A311089509
:1023A0001F93182F82958F700E94C811812F8F70F4
:1023B0000E94C8111F9108951F93182F892F0E9402
:1023C000D011812F0E94D0111F9108950E94DC111D
:1023D00008950E94D01108956F927F928F929F92DC
:1023E000AF92BF92CF92DF92FF920F93DF93CF9382
:1023F000CDB7DEB72A970FB6F894DEBF0FBECDBFBC
:102400005B016C010AE03E010894611C711CFA2C0E
:10241000C601B5012AE030E040E050E00E942518F6
:10242000C901DA015C016D0101504301800E911C6C
:1024300080E3F80EC601B5012AE030E040E050E04C
:102440000E94D317F61AF401F082A114B104C1045A
:10245000D104E9F608C0F601E00FF11D80810E9469
:10246000A3110F5F04C06E010894C11CD11C0A3077
:1024700090F32A960FB6F894DEBF0FBECDBFCF9172
:10248000DF910F91FF90DF90CF90BF90AF909F9022
:102490008F907F906F9008950E94EC110895EF92B5
:1024A000FF920F931F937B018C0197FF0BC0109538
:1024B0000095F094E094E11CF11C011D111D8DE2CA
:1024C0000E94A311C801B7010E94EC111F910F9146
:1024D000FF90EF9008950E944F120895CF93DF93DD
:1024E000EC0103C00E94A3112196FE018491882370
:1024F000C9F7DF91CF9108950E946E120895CF938E
:10250000DF93EC0103C021960E94A31188818823E8
:10251000D1F7DF91CF9108950E947F1208950E9414
:10252000A31108950E94A3110895A0E0B0E0EBE983
:10253000F2E10C946C18E82E809190029091910237
:10254000892B09F405C12AE0E21609F446C038E0F7
:10255000E316C9F4809193028150809393028F3FD8
:1025600051F480919202815080939202809179017E
:10257000815080939302809192028F3F09F0E2C0D4
:1025800010929202DDC08E2D0E94A3112091920222
:102590002223C9F030E0215030408091790190E051
:1025A000AC01249FC001259F900D349F900D1124F4
:1025B00020919302E0919002F0919102E80FF91FAF
:1025C000E20FF11DE082809193028F5F809393026E
:1025D00090917901891709F0BBC040919202242F94
:1025E00030E08091780190E001972817390709F0D1
:1025F000A4C0C0E0D0E044C080E06C2F0E94511124
:10260000FF246E010894C11CD11C35C00F2D10E0B1
:1026100090E09C01C29FC001C39F900DD29F900D7E
:102620001124E0919002F0919102E00FF11FE80F68
:10263000F91F80810E94A311E0919002F091910214
:102640008091790190E0C89FD001C99FB00DD89FBB
:10265000B00D1124E00FF11FAE0FBF1FAC01C49EDF
:10266000C001C59E900DD49E900D1124E80FF91F56
:1026700080818C93F39480917901F81638F2E60109
:1026800060917801862F90E00297C817D9070CF463
:10269000B3CF623008F440C0625080E00E94511114
:1026A000FF24E0E2DE2E34C00F2D10E0809178018F
:1026B00090E0029730E0AC01429FC001439F900D33
:1026C000529F900D1124E0919002F0919102E00F41
:1026D000F11FE80FF91F80810E94A311209178015A
:1026E00030E0225030408091790190E0AC01249F8D
:1026F000C001259F900D349F900D1124E091900210
:10270000F0919102E00FF11FE80FF91FD082F394CE
:1027100020917901F21640F260917801615080E0D9
:102720000E94511100E004C080E20E94A3110F5FDB
:10273000809179010817C0F303C04F5F4093920264
:102740001092930280919302609192020E94511123
:102750002E2D332727FD3095C901CDB7DEB7E8E030
:102760000C948818EF92FF920F931F93CF93DF93EF
:102770007C01062F10E0F3E0000F111FFA95E1F73E
:10278000C0E0D0E09E01200F822F80640E942511BE
:10279000F701EC0FFD1FE4918E2F0E94A3112196EB
:1027A000C830D10579F7CDB7DEB7E6E00C948A18CA
:1027B0000E94B213089560E041E00E94F110089574
:1027C0000F931F93CF93DF93082F162FEA010BC0AF
:1027D000002311F488E101C08CE10E942511CE0193
:1027E0000E9438171150112399F7DF91CF911F9153
:1027F0000F9108950E94E0130895282F883068F4FF
:1028000081E090E002C0880F991F2A95E2F7282FF7
:10281000AAE2B0E0EBE2F0E029C08E3080F430E0D4
:102820002850304081E090E002C0880F991F2A951F
:10283000E2F7282FA4E2B0E0E5E2F0E017C085312E
:1028400030F020E0A0E0B0E0E0E0F0E00FC030E0E9
:102850002E50304081E090E002C0880F991F2A95E9
:10286000E2F7282FA7E2B0E0E8E2F0E06F3F19F4CA
:102870008081822709C0662319F08081822B04C0E1
:102880009081822F8095892380838C91822B8C93D9
:10289000089508950895E0EBF0E083EF8083808150
:1028A00084BDE1EBF0E082E08083808185BDE4EBD4
:1028B000F0E010828081E3EBF0E08083808188BDCE
:1028C00088B587BD86E060E00E94FD1385E060E08A
:1028D0000E94FD138BE060E00E94FD1383E060E046
:1028E0000E94FD13089580919902882329F481E0C4
:1028F000809399020E944B140895CF93DF93EC01CB
:102900000E947314D7FD02C020E004C0D095C19589
:10291000DF4F21E0CE01CF3FD10519F014F08FEF4A
:1029200090E0222319F018BC87BD02C088BD17BCF7
:10293000DF91CF9108950E947D140895CF93DF9386
:10294000EC010E947314D7FD02C020E004C0D095B2
:10295000C195DF4F21E0CE01CF3FD10519F014F032
:102960008FEF90E0222329F01092B4008093B300FF
:1029700004C08093B4001092B300DF91CF9108950A
:102980000E949E1408950F931F938B010E947D1443
:10299000C8010E949E141F910F9108950E94C314B4
:1029A00008950895089580919A02882391F481E012
:1029B00080939A0284B18D7C84B985B1826385B994
:1029C00085E090E06F9364E06A95F1F76F9101976D
:1029D000C9F7089584B18D7C84B985B1826385B9C6
:1029E00085E090E06F9364E06A95F1F76F9101974D
:1029F000C9F708951F93182F0E94D31483B18095AF
:102A000081231F9108950E94FA140895CF92DF92B6
:102A1000EF92FF920F931F93C82ED3B00E946917B5
:102A20007B018C010E94D3148091A002813011F1AE
:102A3000813038F0823009F444C0833009F08BC013
:102A400066C02C2D30E08D2D90E080959095282348
:102A50003923232B09F47FC0D094DC20D0929B0231
:102A6000E0929C02F0929D0200939E0210939F02BE
:102A700081E06FC080919C0290919D02A0919E0286
:102A8000B0919F02E81AF90A0A0B1B0B8FE0E816B7
:102A9000F1040105110508F45EC040919B028D2DE3
:102AA00090E080959095242F30E082239323892B0A
:102AB00059F182E08093A002D094D422D0929B025C
:102AC0004AC040919B02642F70E02D2D30E0CB0175
:102AD00082239323892B79F083E08093A0024D21F8
:102AE00040939B02E0929C02F0929D0200939E0212
:102AF00010939F0230C08C2D90E02095309582235A
:102B000093236817790739F11092A00224C08091AD
:102B10009C0290919D02A0919E02B0919F02E81AA2
:102B2000F90A0A0B1B0B8FE0E816F10401051105E9
:102B300090F040919B02842F90E02D2D30E0822375
:102B40009323892B29F01092A002842F8D2104C099
:102B500082E08093A00280E01F910F91FF90EF90A0
:102B6000DF90CF9008950E9406150895CF92DF92CE
:102B7000EF92FF920F931F93C82ED3B0D0940E9470
:102B800069177B018C010E94D3148091A6028130C9
:102B900011F1813038F0823009F444C0833009F0FB
:102BA0008BC066C02C2D30E08D2D90E080959095E7
:102BB00028233923232B09F47FC0D094DC20D09222
:102BC000A102E092A202F092A3020093A402109349
:102BD000A50281E06FC08091A2029091A302A09112
:102BE000A402B091A502E81AF90A0A0B1B0B8FE0A8
:102BF000E816F1040105110508F45EC04091A10238
:102C00008D2D90E080959095242F30E082239323A2
:102C1000892B59F182E08093A602D094D422D092DD
:102C2000A1024AC06091A1022D2D30E0462F50E054
:102C3000C90184239523892B79F083E08093A60230
:102C4000D622D092A102E092A202F092A3020093B7
:102C5000A4021093A50230C08C2D90E020953095F1
:102C6000822393234817590739F11092A60224C0F2
:102C70008091A2029091A302A091A402B091A5021A
:102C8000E81AF90A0A0B1B0B8FE0E816F10401059C
:102C9000110590F04091A1028D2D90E0242F30E09D
:102CA00082239323892B29F01092A6028D2D842351
:102CB00004C082E08093A60280E01F910F91FF90F4
:102CC000EF90DF90CF9008950E94B61508951F935E
:102CD000CF93DF93182F0E94D314C12FD0E083B17C
:102CE00090E08C239D23892BD1F38AE090E00E9411
:102CF000381783B190E08C239D23892B81F383B116
:102D00008123DF91CF911F9108950E946716089546
:102D10001F93CF93DF93182F0E94D314C12FD0E0BD
:102D200083B190E0809590958C239D23892BC1F3EE
:102D30008AE090E00E94381783B190E080959095EA
:102D40008C239D23892B61F383B180958123DF91AF
:102D5000CF911F9108951F930E948816182F0E94EB
:102D60006716812F1F9108950E94AB1608950E9447
:102D70008816089508950895A2E0B0E0E2ECF6E127
:102D80000C9472182091B5023091B602CE010196D2
:102D90002115310519F48F5B924002C0821B930B01
:102DA0009A83898389819A812296E2E00C948E1815
:102DB0000E94BC1608952F928F939F932FB68091F7
:102DC000AB029091AC0201968093AB029093AC025F
:102DD00090E08091AD02891F8093AD029091B30283
:102DE0009C5F9093B3028091B20280519742C0F0F1
:102DF0009093B3028093B2028091AE029091AF02A1
:102E000001968093AE029093AF0290E08091B00261
:102E1000891F8093B0028091B102891F8093B10213
:102E20002FBE9F918F912F90189528EE33E009C007
:102E3000F9016F9364E06A95F1F76F913197C9F7E3
:102E400001970097A9F708956F5F7F4F8F4F9F4FAE
:102E5000660F771F881F991F25E030E040E050E0A3
:102E60000E942518CA01B90108950E9424170895E7
:102E700028EE33E009C0F9016F9364E06A95F1F739
:102E80006F913197C9F701970097A9F70895A0E7C7
:102E9000B0E08C918E7F8C93E0EBF0E080818360DA
:102EA0008083E1EBF0E08081807F8083808182609D
:102EB0008083B89A8C9181608C93789408958091E6
:102EC000B402882329F481E08093B4020E9447175A
:102ED00008950E945F17E0E7F0E080818E7F808395
:102EE0002091AE023091AF024091B0025091B102F8
:102EF000808181608083B901CA0108950E946917A9
:102F000008950E945F17809170008E7F80937000FB
:102F10006091B2008091AA029091AB02A091AC02A4
:102F2000B091AD02B89905C0262F30E040E050E0E6
:102F300011C08091B2002091AA023091AB02409161
:102F4000AC025091AD0220503F4F4F4F5F4F90E089
:102F5000A0E0B0E0282B392B4A2B5B2B809170002E
:102F6000816080937000B901CA0108950E948117A1
:102F700008950E945F17E0E7F0E080818E7F8083F4
:102F80001092AE021092AF021092B0021092B102F3
:102F90001092B3021092B202808181608083089502
:102FA0000E94B9170895629FD001739FF001829F1C
:102FB000E00DF11D649FE00DF11D929FF00D839FC8
:102FC000F00D749FF00D659FF00D9927729FB00D65
:102FD000E11DF91F639FB00DE11DF91FBD01CF0178
:102FE00011240895991B79E004C0991F961708F0E1
:102FF000961B881F7A95C9F780950895AA1BBB1B5D
:1030000051E107C0AA1FBB1FA617B70710F0A61BE8
:10301000B70B881F991F5A95A9F780959095BC0109
:10302000CD01089597FB092E07260AD077FD04D01D
:10303000E5DF06D000201AF4709561957F4F089562
:10304000F6F7909581959F4F0895A1E21A2EAA1B3D
:10305000BB1BFD010DC0AA1FBB1FEE1FFF1FA21748
:10306000B307E407F50720F0A21BB30BE40BF50B45
:10307000661F771F881F991F1A9469F760957095CE
:10308000809590959B01AC01BD01CF01089597FB00
:10309000092E05260ED057FD04D0D7DF0AD0001C1C
:1030A00038F450954095309521953F4F4F4F5F4FE5
:1030B0000895F6F790958095709561957F4F8F4FA5
:1030C0009F4F08952F923F924F925F926F927F92FF
:1030D0008F929F92AF92BF92CF92DF92EF92FF9228
:1030E0000F931F93CF93DF93CDB7DEB7CA1BDB0BD4
:1030F0000FB6F894DEBF0FBECDBF09942A88398879
:1031000048885F846E847D848C849B84AA84B9847F
:10311000C884DF80EE80FD800C811B81AA81B9818B
:10312000CE0FD11D0FB6F894DEBF0FBECDBFED019F
:103130000895EE0FFF1F0590F491E02D0994CF93B1
:10314000DF93BC018230910510F462E070E0A09141
:10315000B702B091B802ED01E0E0F0E040E050E0ED
:1031600021C0888199818617970769F48A819B819C
:10317000309719F09383828304C09093B8028093B0
:10318000B702FE0134C06817790738F441155105BC
:1031900019F08417950708F4AC01FE018A819B8120
:1031A0009C01E9012097E9F641155105A9F1CA01F1
:1031B000861B970B049708F4BA01E0E0F0E02AC000
:1031C0008D919C91119784179507F9F464177507F1
:1031D00081F412968D919C911397309719F09383F7
:1031E000828304C09093B8028093B702FD013296A7
:1031F0004FC0CA01861B970BFD01E80FF91F6193B1
:10320000719302978D939C9343C0FD0182819381BA
:103210009C01D9011097A1F68091B5029091B60258
:10322000892B41F480918502909186029093B60299
:103230008093B50240918702509188024115510553
:1032400041F44DB75EB78091830290918402481B90
:10325000590B2091B5023091B60224173507B0F40E
:10326000CA01821B930B8617970780F0AB014E5F54
:103270005F4F8417950750F0420F531F5093B602CB
:103280004093B502F9016193719302C0E0E0F0E070
:10329000CF01DF91CF910895CF93DF93009709F489
:1032A00050C0EC0122971B821A82A091B702B09104
:1032B000B802109709F140E050E0AC17BD0708F1E3
:1032C000BB83AA83FE0121913191E20FF31FAE1758
:1032D000BF0779F48D919C911197280F391F2E5FAC
:1032E0003F4F3983288312968D919C9113979B832E
:1032F0008A834115510571F4D093B802C093B70287
:1033000020C012968D919C911397AD01009711F0FA
:10331000DC01D3CFFA01D383C28321913191E20F33
:10332000F31FCE17DF0769F488819981280F391FB1
:103330002E5F3F4FFA01318320838A819B819383E3
:103340008283DF91CF9108950F931F93CF93DF93E3
:103350008C01EB01009731F46115710519F420E03F
:1033600030E038C081E090E06EE070E00E94F0193B
:10337000FC019C01009771F180E88383209771F034
:10338000D387C28781E883838091B9029091BA0282
:10339000892B21F4F093BA02E093B90201151105CB
:1033A000C9F0118700878381826083838091BB028B
:1033B0009091BC02892B71F4F093BC02E093BB02A4
:1033C0008091BD029091BE02892B21F4F093BE0240
:1033D000E093BD02C901DF91CF911F910F91089534
:1033E0000F931F93CF93DF93689F8001699F100D08
:1033F000789F100D1124C8010E949F18EC010097BE
:1034000029F060E070E0A8010E940C1ACE01DF9163
:10341000CF911F910F910895DC0101C06D93415030
:0A3420005040E0F70895F894FFCF44
:10342A00416C69676E426F74003E6733323E3E6399
:10343A003332003D3F0021633332002165333200CD
:10344A0021673332004D617A6520332E34005020D3
:10345A006E756D3D3F20005064656E6F6D3D3F0097
:10346A0044206E756D3D3F20004464656E6F6D3D6E
:10347A003F00476F204C65667400476F20526967AA
:10348A006874003E6333323E3E6733320088130469
:10349A000400D007F4010F00020801000000000038
:1034AA0000000000010202030303030404040404ED
:1034BA0004040405050505050505050505050505B5
:1034CA000505050606060606060606060606060695
:1034DA000606060606060606060606060606060682
:1034EA000606060707070707070707070707070765
:1034FA000707070707070707070707070707070752
:10350A000707070707070707070707070707070741
:10351A000707070707070707070707070707070731
:10352A000707070808080808080808080808080814
:10353A000808080808080808080808080808080801
:10354A0008080808080808080808080808080808F1
:10355A0008080808080808080808080808080808E1
:10356A0008080808080808080808080808080808D1
:10357A0008080808080808080808080808080808C1
:10358A0008080808080808080808080808080808B1
:10359A0008080808080808080808080808080808A1
:0A35AA000808082000BF020000001E
:00000001FF
