:100000000C9452000C946F000C946F000C946F00D1
:100010000C946F000C946F000C946F000C946F00A4
:100020000C946F000C940D190C946F000C946F00DD
:100030000C946F000C940B110C946F000C946F00D7
:100040000C946F000C946F000C946F000C946F0074
:100050000C946F000C946F000C946F000C946F0064
:100060000C946F000C946F002E0E340E370E3A0E67
:100070003D0E400E430E460E490E4C0E4F0E520ED4
:10008000763132204C3136206F34206366613E6316
:1000900072613E633400763132204C3136206F3449
:1000A0002066000011241FBECFEFD4E0DEBFCDBF1D
:1000B00012E0A0E0B1E0EAEAF8E302C005900D9298
:1000C000A435B107D9F712E0A4E5B2E001C01D9252
:1000D000A938B107E1F70E94E4020C94531C0C9478
:1000E0000000ECE7F0E08081806280833D984598D5
:1000F00008950F931F93CF93DF93182F062FEA01D4
:10010000232B11F00E945313812F602F0E94231381
:10011000CE010E943F14DF91CF911F910F9108955E
:10012000AF92BF92CF92DF92EF92FF920F931F9305
:10013000B82EA62E69017A01012B11F00E945313EB
:100140008B2D6A2D0E942313C701B6010E941E1435
:100150001F910F91FF90EF90DF90CF90BF90AF90E5
:100160000895AF92BF92CF92DF92EF92FF920F93DA
:100170001F93CF93DF93EC0158016901CA01DB01A2
:100180007C018D010E94531380E060E00E942313E4
:10019000CE010E943F1480E091E00E943F1480E075
:1001A00061E00E942313C801B701A60195010E94D6
:1001B00017070E9481080E941E1483E091E00E94AC
:1001C0003F1481E00E94011382E30E948616882377
:1001D000D9F782E30E94D01881FF0BC088E091E03C
:1001E0000E940811C801B701A60195010E94BF0530
:1001F00027C084FF19C00E94F6120E9453138DE09D
:1002000091E00E94081184E690E00E945819B7011D
:10021000C801DF91CF911F910F91FF90EF90DF9078
:10022000CF90BF90AF90089585FF0CC082E191E020
:100230000E940811C801B701A60195010E94F005AE
:100240007B018C01C801B70120E030E04AEF56EC99
:100250000E94F3078823BCF4C601B5010E948108FF
:100260009B01AC0180E09DE7B9010E94521A8050C9
:100270009D47AA2797FDA095BA2FBC01CD010E94EA
:1002800023087B018C01C801B70120E030E04AEF70
:1002900056E40E94C30718160CF074CFC601B501CE
:1002A0000E948108AB01BC0100E01DE780E09DE7F2
:1002B000BA010E94521A081B190B222717FD20951C
:1002C000322FC901B8010E9423087B018C015ACF4B
:1002D000AF92BF92CF92DF92EF92FF920F931F9354
:1002E000CF93DF93EC010E945313EE24FF24870188
:1002F0005E01CC24B7FCC094DC2C17C080E060E029
:100300000E942313C801B7016A0D7B1D8C1D9D1D22
:100310000E941E1488EE93E00E9458190E94531305
:100320000894E108F10801091109CE018E0D9F1D05
:10033000181619061CF3DF91CF911F910F91FF90B2
:10034000EF90DF90CF90BF90AF900895CF92DF9263
:10035000EF92FF920F931F93CF93DF937C018A015B
:10036000EB01C12C8DE7D82E0E94531380E060E092
:100370000E942313C7010E943F1480E091E00E9475
:100380003F1480E061E00E942313BE01882777FDBF
:100390008095982F0E941E1481E00E94011382E331
:1003A0000E9486168823D9F782E30E94D01881FF25
:1003B00007C088E091E00E940811C01BD10B20C04B
:1003C00084FF16C00E94F6120E9453138DE091E044
:1003D0000E94081184E690E00E945819CE01DF9136
:1003E000CF911F910F91FF90EF90DF90CF900895E4
:1003F00085FF06C082E191E00E940811C00FD11F65
:1004000083E8C030D8074CF480E09DE7B8010E9433
:10041000521AEC01C050DD47A7CF8DE7C130D80795
:100420000CF4A2CF80E09DE7B8010E94521AE601C9
:10043000C81BD90B99CF8EEC9FEF62E370E00E944E
:100440008116089582E390E06EEC7FEF0E948116A2
:10045000089586EA9FEF6EEC7FEF0E948116089563
:100460008EEC9FEF66EA7FEF0E9481160895AF92AF
:10047000BF92CF92DF92EF92FF920F931F935C0196
:100480007B0166277727681B790B0E94811600275E
:10049000F7FC0095102FC801B7010E94230828E43B
:1004A00031EE4AE553E40E941D067B018C01CC2409
:1004B000B7FCC094DC2CC601B5010E9423089B0147
:1004C000AC01C801B7010E9417070E948108DC0136
:1004D000CB010E94581980E090E060E070E00E943B
:1004E00081161F910F91FF90EF90DF90CF90BF90FA
:1004F000AF900895AF92BF92CF92DF92EF92FF92AA
:100500000F931F935C017B01882799278A199B0908
:10051000B5010E9481160027F7FC0095102FC80135
:10052000B7010E94230828E431EE4AE553E40E9413
:100530001D067B018C01CC24B7FCC094DC2CC601C9
:10054000B5010E9423089B01AC01C801B7010E94BC
:1005500017070E948108DC01CB010E94581980E036
:1005600090E060E070E00E9481161F910F91FF9073
:10057000EF90DF90CF90BF90AF9008950F931F93AF
:100580009C018B01B9010E948116C8010E94581973
:1005900080E090E060E070E00E9481161F910F9172
:1005A000089580E090E060E070E00E948116089578
:1005B00085E00E94410B089586E00E94410B08955A
:1005C00087E00E94410B08952F923F924F925F92D5
:1005D0006F927F928F929F92AF92BF92CF92DF9253
:1005E000EF92FF920F931F93DF93CF9300D000D031
:1005F000CDB7DEB70E94710086E990E00E94F81046
:100600000E94FA0C8823E1F787E191E067E370E04C
:1006100045E050E00E94A6019A8389830E9453130B
:1006200080E060E00E94231380E291E00E943F148A
:1006300080E061E00E94231387E291E00E943F1472
:1006400082E30E94D018282F30E045E036952795A8
:100650004A95E1F720953095217030703C832B83CB
:100660000E948A180E94531380E060E00E942313C6
:100670008FE291E00E943F1480E10E948616882359
:10068000D9F388EE93E00E9458198B819C81892BC5
:1006900011F086E001C085E00E94410B2C01882406
:1006A00099246624772494E6292E312CEB81FC8151
:1006B000EF2B11F086E001C085E00E94410B6C0138
:1006C00087E00E94410B5C010E94BE192CE231E0E0
:1006D00040E050E00E94651A6115710581059105A1
:1006E000C1F40E94531380E060E00E942313B5011F
:1006F000882777FD8095982F0E941E1485E060E082
:100700000E942313B601882777FD8095982F0E94B9
:100710001E14B60164197509860E971E882777FD89
:100720008095982F0E94230823E333E343E35FE39C
:100730000E941D067B018C01B401882777FD8095FE
:10074000982F0E94230820E030E040E050E00E9413
:100750001D069B01AC01C801B7010E94F0057B0199
:100760008C01B60166197709882777FD8095982F47
:100770000E94230826E636E646E65FE30E941D0651
:100780009B01AC01C801B7010E94F0050E948108DD
:100790009B012C593F4F8B819C81892B31F0C901E2
:1007A000F101E61BF70BBF0104C0C101861B970BCB
:1007B000B9010E94811613C02B813C81232B29F0A3
:1007C0006CE97FEF84E690E004C064E670E08CE9B9
:1007D0009FEF0E94811687E00E94410B5C01360169
:1007E00089819A818A159B050CF060CFE5CF0E9424
:1007F000410B0895EF92FF920F931F93DF93CF93D6
:10080000CDB7DEB7E2970FB6F894DEBF0FBECDBF0F
:100810008E010F5F1F4F53E3E52EF12CEC0EFD1EF2
:1008200088ED9FEF68E270E00E94811682E590E01B
:100830000E94581980E090E060E070E00E9481160C
:1008400087E00E94410BF801819391938F01EE158F
:10085000FF0531F7CE010196E2960FB6F894DEBFA0
:100860000FBECDBFCF91DF911F910F91FF90EF9001
:1008700008950F931F938C0188EC90E062E370E081
:100880004EE00E94FD0D8BE490E00E9458198CE22E
:1008900091E062E370E04EE00E94FD0D88EC90E094
:1008A00062E370E04EE00E94FD0D8BE490E00E9458
:1008B00058198CE291E062E370E04EE00E94FD0D79
:1008C00080E060E00E942313C8010E943F1480E191
:1008D0000E9486168823D9F384EF91E00E9458196C
:1008E0001F910F910895A0E0B0E0E9E7F4E00C94C7
:1008F000A21ADC012B01FA019C91923008F439C153
:10090000EB018881823008F433C1943069F484307B
:1009100009F02FC111969C9111978981981709F4BC
:1009200028C1A5E4B1E025C1843009F421C1823099
:10093000A9F4923009F01DC19A01AD0188E0EA01E5
:100940000990AE01E90109929E018150C1F7E201CF
:10095000898111969C918923818308C1923009F481
:1009600007C112962D903C901397EB018A819B81D1
:100970001496AD90BD90CD90DC901797EC80FD80E3
:100980000E811F819101281B390BB90137FF04C06B
:1009900066277727621B730B603271050CF061C00C
:1009A000121613066CF537014801062E04C0969402
:1009B0008794779467940A94D2F721E030E040E07E
:1009C00050E004C0220F331F441F551F6A95D2F711
:1009D00021503040404050402E213F2140235123A0
:1009E000211531054105510521F021E030E040E0BD
:1009F00050E079018A01E628F728082919293CC026
:100A0000232BD1F1260E371E35014601062E04C0D8
:100A100096948794779467940A94D2F721E030E013
:100A200040E050E004C0220F331F441F551F6A9559
:100A3000D2F721503040404050402A213B214C21E8
:100A40005D21211531054105510521F021E030E0FE
:100A500040E050E059016A01A628B728C828D928E3
:100A60000BC0821593052CF01C01AA24BB24650140
:100A700003C0EE24FF24870111969C91D2011196A8
:100A80008C91981709F445C0992339F0A801970172
:100A90002A193B094C095D0906C0A60195012E19CA
:100AA0003F09400B510B57FD08C01182338222824F
:100AB00024833583468357831DC081E0818333823D
:100AC000228288279927DC01821B930BA40BB50B8C
:100AD00084839583A683B7830DC0220F331F441FE1
:100AE000551F2483358346835783828193810197E1
:100AF000938382832481358146815781DA01C9013C
:100B00000197A109B1098F5F9F4FAF4FBF4328F3F2
:100B10000BC0918333822282EA0CFB1C0C1D1D1D2D
:100B2000E482F5820683178383E080832481358104
:100B30004681578157FF1AC0C901AA2797FDA09582
:100B4000BA2F81709070A070B07056954795379508
:100B50002795822B932BA42BB52B84839583A68377
:100B6000B78382819381019693838283DF0101C0E1
:100B7000D201CD01CDB7DEB7E2E10C94BE1AA0E2FE
:100B8000B0E0E5ECF5E00C94AE1A69837A838B83D0
:100B90009C832D833E834F835887E9E0EE2EF12C12
:100BA000EC0EFD1ECE010196B7010E94F9098E01DF
:100BB0000F5E1F4FCE010596B8010E94F9098A8980
:100BC00091E089278A8BC701B801AE01475E5F4F6C
:100BD0000E9473040E942409A096E6E00C94CA1AAD
:100BE000A0E2B0E0E6EFF5E00C94AE1A69837A83F8
:100BF0008B839C832D833E834F835887F9E0EF2EB0
:100C0000F12CEC0EFD1ECE010196B7010E94F909F0
:100C10008E010F5E1F4FCE010596B8010E94F909A3
:100C2000C701B801AE01475E5F4F0E9473040E9486
:100C30002409A096E6E00C94CA1AA0E2B0E0E3E230
:100C4000F6E00C94A21A69837A838B839C832D83AC
:100C50003E834F835887CE010196BE01675F7F4F69
:100C60000E94F909CE010596BE016F5E7F4F0E947A
:100C7000F9099985923088F089898230C8F09430DA
:100C800019F4823051F404C0843029F4923081F494
:100C900085E491E0C6C0923049F420E09A858A89C3
:100CA000981321E02A87CE010996BBC0823049F40F
:100CB00020E09A858A89981321E02A8BCE014196FB
:100CC000B0C02D843E844F8458886D887E888F887C
:100CD000988CEE24FF248701AA24BB24650140E000
:100CE00050E060E070E0E0E0F0E0C1018170907001
:100CF000892BE9F0E60CF71C081D191D9A01AB01C0
:100D00002A0D3B1D4C1D5D1D80E090E0A0E0B0E091
:100D1000E614F7040805190520F481E090E0A0E04E
:100D2000B0E0BA01A901480F591F6A1F7B1FAA0C26
:100D3000BB1CCC1CDD1C97FE08C081E090E0A0E04D
:100D4000B0E0A82AB92ACA2ADB2A3196E032F10596
:100D500049F0660C771C881C991C5694479437946C
:100D60002794C3CFFA85EA892B893C898B859C859A
:100D7000280F391F2E5F3F4F17C0CA018170907036
:100D8000892B61F016950795F794E79480E090E041
:100D9000A0E0B0E8E82AF92A0A2B1B2B7695679584
:100DA000579547952F5F3F4F77FDE7CF0CC0440F16
:100DB000551F661F771F17FD4160EE0CFF1C001FBB
:100DC000111F21503040403090E0590790E06907F2
:100DD00090E4790760F32B8F3C8FDB01CA018F779A
:100DE0009070A070B07080349105A105B10561F4D8
:100DF00047FD0AC0E114F1040105110529F0405C2A
:100E00005F4F6F4F7F4F40781A8EFE1711F081E0D1
:100E10008A8F4D8F5E8F6F8F78A383E0898FCE018D
:100E200049960E942409A096E2E10C94BE1AA8E11A
:100E3000B0E0EDE1F7E00C94AA1A69837A838B8322
:100E40009C832D833E834F835887B9E0EB2EF12C92
:100E5000EC0EFD1ECE010196B7010E94F9098E012C
:100E60000F5E1F4FCE010596B8010E94F909298532
:100E7000223008F47EC03989323010F4B8017CC0C9
:100E80008A859A8989278A87243011F0223031F4A3
:100E9000231709F06EC065E471E06EC0343039F498
:100EA0001D861E861F86188A1C861B8604C032304B
:100EB00021F484E08987B7015FC02B853C858B894D
:100EC0009C89281B390B3C872B87ED84FE840F857A
:100ED0001889AD88BE88CF88D88CEA14FB040C052D
:100EE0001D0540F4EE0CFF1C001F111F2150304067
:100EF0003C872B8720E030E040E050E080E090E04D
:100F0000A0E0B0E460E070E0EA14FB040C051D050D
:100F100040F0282B392B4A2B5B2BEA18FB080C09D5
:100F20001D09B695A79597958795EE0CFF1C001F98
:100F3000111F6F5F7F4F6F31710531F7DA01C90102
:100F40008F779070A070B07080349105A105B105C5
:100F500061F427FD0AC0E114F1040105110529F02F
:100F6000205C3F4F4F4F5F4F20782D873E874F8744
:100F7000588BBE01675F7F4FCB010E9424096896A2
:100F8000EAE00C94C61AA8E1B0E0E9ECF7E00C94B2
:100F9000AE1A69837A838B839C832D833E834F8330
:100FA000588789E0E82EF12CEC0EFD1ECE0101964B
:100FB000B7010E94F9098E010F5E1F4FCE01059601
:100FC000B8010E94F9098985823040F08989823010
:100FD00028F0C701B8010E94710A01C08FEF68961E
:100FE000E6E00C94CA1AA8E1B0E0E9EFF7E00C944F
:100FF000AE1A69837A838B839C832D833E834F83D0
:10100000588789E0E82EF12CEC0EFD1ECE010196EA
:10101000B7010E94F9098E010F5E1F4FCE010596A0
:10102000B8010E94F9098985823040F089898230AF
:1010300028F0C701B8010E94710A01C081E06896DA
:10104000E6E00C94CA1AA8E0B0E0E9E2F8E00C94FB
:10105000AB1A9B01AC0183E08983DA01C9018827BF
:10106000B7FD83959927AA27BB27B82E21153105EF
:101070004105510519F482E089833AC08823A9F01B
:10108000203080E0380780E0480780E8580729F4DE
:1010900060E070E080E09FEC30C0EE24FF24870128
:1010A000E21AF30A040B150B02C079018A018EE1E2
:1010B000C82ED12CDC82CB82ED82FE820F83188772
:1010C000C801B7010E94D50801971816190684F4C3
:1010D000082E04C0EE0CFF1C001F111F0A94D2F74B
:1010E000ED82FE820F831887C81AD90ADC82CB8270
:1010F000BA82CE0101960E9424092896E9E00C9458
:10110000C71AACE0B0E0E7E8F8E00C94B21A6983E3
:101110007A838B839C83CE010196BE016B5F7F4FE8
:101120000E94F9098D81823061F1823050F1843062
:1011300021F48E81882351F12EC02F81388537FD0F
:1011400020C06E812F3131051CF06623F9F023C0D9
:101150008EE190E0821B930B29853A854B855C8557
:1011600004C056954795379527958A95D2F76623FB
:10117000B1F050954095309521953F4F4F4F5F4FBF
:101180000EC020E030E040E050E009C02FEF3FEF1C
:101190004FEF5FE704C020E030E040E050E8B901E5
:1011A000CA012C96E2E00C94CE1AEF92FF920F93B4
:1011B0001F937B018C0180E0E81680E0F80681E057
:1011C000080780E0180788F48FEFE816F10401059E
:1011D000110531F028F088E090E0A0E0B0E017C001
:1011E00080E090E0A0E0B0E012C080E0E81680E08F
:1011F000F80680E0080781E0180728F088E190E011
:10120000A0E0B0E004C080E190E0A0E0B0E020E227
:1012100030E040E050E0281B390B4A0B5B0B04C068
:1012200016950795F794E7948A95D2F7F701E35B53
:10123000FE4F8081281B310941095109C9011F91C5
:101240000F91FF90EF900895DF92EF92FF920F932E
:101250001F93FC01E480F58006811781D180808195
:10126000823048F480E090E0A0E1B0E0E82AF92A7A
:101270000A2B1B2BA5C0843009F49FC0823021F4B7
:10128000EE24FF24870105C0E114F10401051105D6
:1012900019F4E0E0F0E096C0628173819FEF62385C
:1012A00079070CF05BC022E83FEF261B370B2A3191
:1012B00031052CF020E030E040E050E02AC0B801D9
:1012C000A701022E04C076956795579547950A9415
:1012D000D2F781E090E0A0E0B0E004C0880F991F51
:1012E000AA1FBB1F2A95D2F70197A109B1098E2128
:1012F0009F21A023B1230097A105B10521F081E032
:1013000090E0A0E0B0E09A01AB01282B392B4A2BEA
:101310005B2BDA01C9018F779070A070B0708034B8
:101320009105A105B10539F427FF09C0205C3F4FA5
:101330004F4F5F4F04C0215C3F4F4F4F5F4FE0E086
:10134000F0E02030A0E03A07A0E04A07A0E45A0706
:1013500010F0E1E0F0E079018A0127C06038710502
:1013600064F5FB01E158FF4FD801C7018F779070FA
:10137000A070B07080349105A105B10539F4E7FE85
:101380000DC080E490E0A0E0B0E004C08FE390E006
:10139000A0E0B0E0E80EF91E0A1F1B1F17FF05C0F2
:1013A00016950795F794E794319687E0169507957B
:1013B000F794E7948A95D1F705C0EE24FF248701BE
:1013C000EFEFF0E06E2F679566276795902F9F7778
:1013D000D794DD24D7948E2F8695492F462B582FEE
:1013E0005D29B701CA011F910F91FF90EF90DF9027
:1013F0000895FC01DB01408151812281622F6F77CA
:1014000070E0221F2227221F9381892F880F822BB1
:10141000282F30E0991F9927991F11969C931197B7
:1014200021153105A9F5411551056105710511F425
:1014300082E037C082E89FEF13969C938E931297B9
:101440009A01AB0167E0220F331F441F551F6A95B5
:10145000D1F783E08C930DC0220F331F441F551F1B
:1014600012968D919C911397019713969C938E934E
:101470001297203080E0380780E0480780E4580762
:1014800058F314962D933D934D935C9317970895BD
:101490002F3F310579F4411551056105710519F4A6
:1014A00084E08C93089564FF03C081E08C9312C0A4
:1014B0001C9210C02F57304013963C932E931297D6
:1014C00083E08C9387E0440F551F661F771F8A9532
:1014D000D1F7706414964D935D936D937C93179739
:1014E00008951F93DC01FB019C91923008F447C0E2
:1014F0008081823008F443C0943051F411961C91DD
:10150000843099F58181682F70E0611B71093FC0BB
:10151000843021F0923031F48230B9F18181882316
:1015200089F12DC011961C9111978230F1F08181C3
:101530001817D9F412962D913C91139782819381BB
:101540008217930794F028173907BCF014968D91F1
:101550009D910D90BC91A02D2481358146815781AC
:10156000281739074A075B0718F4112341F00AC00E
:1015700082179307A407B50740F4112319F061E01F
:1015800070E005C06FEF7FEF02C060E070E0CB015C
:101590001F910895982F803278F487E880937A001D
:1015A00080917C0080648076892B80937C00809180
:1015B0007A00806480937A00089580917C0085FF92
:1015C00005C080917900282F30E004C02091780078
:1015D00030917900C90108959093380180933701C3
:1015E00008950895089580917C0085FF05C080913D
:1015F0007900282F30E004C02091780030917900E4
:10160000C9010895282F8032B0F487E880937A00CA
:1016100080917C00982F9064662311F0806C02C04A
:10162000892F8F77807E822B80937C0080917A0037
:10163000806480937A000895982F803278F487E848
:1016400080937A0080917C0080648076892B8093DF
:101650007C0080917A00806480937A0080917A0087
:1016600086FDFCCF80917C0085FF05C080917900CC
:10167000282F30E004C02091780030917900C90112
:1016800008950E941C0B0895EF92FF920F931F93F1
:10169000982F803278F487E880937A0080917C00DC
:1016A00080648076892B80937C0080917A008064AE
:1016B00080937A0080917A0086FDFCCFFB01EE24B6
:1016C000FF24870180917A00806480937A00809162
:1016D0007A0086FDFCCF80917C0085FF04C080915C
:1016E000790090E004C08091780090917900A0E0AA
:1016F000B0E0E80EF91E0A1F1B1F319719F7CB0146
:10170000969587956034710538F48E0D9F1D70E0B5
:101710000E943E1A9B010DC0A0E0B0E0E80EF91E49
:101720000A1F1B1F9B0140E050E0C801B7010E9447
:10173000651AC9011F910F91FF90EF90089587E0FE
:1017400064E170E00E94440B08950E94440B0895E8
:10175000909338018093370108951F9310917C0076
:1017600080917C008F7D80937C008EE164E170E04D
:101770000E94440B8EE164E170E00E94440B9C01E6
:1017800015FD04C080917C008F7D03C080917C009A
:10179000806280937C00B9017695679580E090E047
:1017A0006C54744D8E4E9F4F40E050E00E94651A7D
:1017B000C9011F9108950E94AD0B0895A0E0B0E00B
:1017C000209137013091380140E050E0BC01CD015B
:1017D0000E94131A9B01AC0180917C0085FF0BC015
:1017E000B901CA0161587F4F8F4F9F4F2FEF30E0F3
:1017F00040E050E00AC0B901CA0161507E4F8F4FEE
:101800009F4F2FEF33E040E050E00E94651AC9017E
:1018100008950E94440B0E94DE0B08950E94090C5B
:10182000089580917C0085FF06C08091790090E04A
:101830000E94DE0B089580917800909179000E94BB
:10184000DE0B0895982F803278F487E880937A0031
:1018500080917C0080648076892B80937C008091CD
:101860007A00806480937A0080917A0086FDFCCFB4
:101870000E94110C08950E94220C08950E94110CE0
:10188000089587E064E170E00E94440B0E94DE0B43
:1018900008950E94DE0B08951F9310917C008091A3
:1018A0007C008F7D80937C0086E064E170E00E9484
:1018B000090C9C0115FD04C080917C008F7D03C044
:1018C00080917C00806280937C00C901880F991F01
:1018D000820F931F880F991F880F991F8A57924074
:1018E0006DE070E00E94521ACB011F9108950E9492
:1018F0004C0C08951F9310917C0080917C008F7D8B
:1019000080937C0086E064E170E00E94090C9C01F9
:1019100015FD04C080917C008F7D03C080917C0008
:10192000806280937C0084E190E0AC01249FC00140
:10193000259F900D349F900D11248E529F4167E298
:1019400070E00E94521ACB011F9108950E947A0CF8
:1019500008951F9310917C0080917C008F7D80936F
:101960007C0086E06AE070E00E94090CAC0115FD85
:1019700004C080917C008F7D03C080917C008062D8
:1019800080937C009A01220F331F240F351F2F5F95
:101990003F4F36952795C9011F9108950E94A90CC4
:1019A00008951F9310917C0080917C008F7D80931F
:1019B0007C0086E06AE070E00E94090CAC0115FD35
:1019C00004C080917C008F7D03C080917C00806288
:1019D00080937C009A01220F331F240F351FC90109
:1019E0001F9108950E94D10C08950E94D10C089572
:1019F0000895089580914401882339F020E0809172
:101A0000720290917302892B09F021E0822F0895D0
:101A100010926F00E1E8F0E08081887F8160808330
:101A200080E197E2909389008093880010928B0068
:101A300010928A0081E08093440110927302109208
:101A40007202089510926F0083E28093800081E11A
:101A5000809381001092820080E197E29093890048
:101A60008093880010928B0010928A00229A7894BA
:101A70000895A0E0B0E0EFE3FDE00C94AA1AFC01A9
:101A80005B01C42E809171028823C9F481E08093A8
:101A9000710210926F0083E28093800081E1809355
:101AA00081001092820080E197E2909389008093F8
:101AB000880010928B0010928A00229A78941092DB
:101AC0004401F7FD03C0DD24D39403C0FF772AE06F
:101AD000D22E80918100082F10E0087F107088ECD2
:101AE000D89EC00111248E179F07C0F4EF0187E232
:101AF000E131F80710F0C0E1D7E2BE0176956795B5
:101B000080E090E06058794687469F4F9E0140E014
:101B100050E00E94651A7901016024C088E2D89ED5
:101B2000802D1124C82FD0E0CE17DF0708F4EF0175
:101B3000BE01769567959E0140E050E08AE0D81698
:101B400039F480E090E0605E734481449F4F06C0AA
:101B500080E090E060537D4E8C4E9F4F0E94651A4E
:101B6000790102608AE0D81639F4CE0105966AE060
:101B700070E00E943E1AEB0183E0C83ED80711F4E2
:101B8000B5010FC0BE0180E090E0950140E050E05B
:101B90000E94131A28EE33E040E050E00E94871ABA
:101BA000B90110926F0000938100F0928900E092D9
:101BB0008800E0918800F0918900AC2DA03108F0F8
:101BC000AFE080E190E08A1B910902C0F695E795AD
:101BD0008A95E2F7F0938B00E0938A0070935902A4
:101BE0006093580286B38FEF86BB81E080936F00CD
:101BF000CDB7DEB7EAE00C94C61A0E94390D0895FD
:101C0000CF93DF93EB018F3F11F0442329F488EE4B
:101C100093E0BE0140E067C0813110F420E005C0D0
:101C2000282F2051203608F02FE5822F6CE00E94EB
:101C3000321A382F682F70E084EF9FEF689FF00111
:101C4000699FF00D789FF00D1124E20FF11DEC302B
:101C5000F10538F4EC5CFF4F0C94D91A8CE991E053
:101C600023C080E090E020C085EB91E01DC08FECA8
:101C700091E01AC08AEE91E017C087E092E014C0AC
:101C800086E292E011C087E492E00EC089E692E01D
:101C90000BC08EE892E008C085EB92E005C08EEDA7
:101CA00092E002C08AE093E0373071F002C0880F02
:101CB000991F6A95E2F7323020F005966AE070E0ED
:101CC0000BC0805090480BC036E0880F991F3A95A2
:101CD000E1F7029665E070E00E943E1ACB014031C8
:101CE00008F04FE0BE010E94390DDF91CF910895B9
:101CF0000E94000E089580914401882339F020E06D
:101D00008091720290917302892B09F021E0822F59
:101D1000089510926F00E1E8F0E08081887F816093
:101D2000808380E197E290938900809388001092ED
:101D30008B0010928A0081E080934401109273021C
:101D400010927202089530915602E0917202F09161
:101D50007302332311F0249101C02081822F81541A
:101D60008A3108F4205E203259F4809172029091F9
:101D7000730201969093730280937202019729F780
:101D8000822F0895CF93DF930E94A30E282FC0E0E7
:101D9000D0E01DC0CE0153E0880F991F5A95E1F79E
:101DA000CC0FDD1FC80FD91F822F992787FD909573
:101DB000C80FD91FE097809172029091730201962B
:101DC00090937302809372020E94A30E282F822F99
:101DD00080538A30F8F2CE01DF91CF910895A0E0D0
:101DE000B0E0E5EFFEE00C94A81A80903901B090C5
:101DF0005402BB2021F060915502662399F4A09013
:101E0000550200913E0110913F01E0903A01F0909F
:101E10003B01C0913C01D0913D01C0904001D09068
:101E2000410108C18FEF70E040E00E94000E109267
:101E30005502CBC194E0892EBB2404EF11E084E06D
:101E4000E82EF12CC0EDD7E0B4E09B2EAFE0CA2E17
:101E5000D12C0E94A30E282F8091720290917302C0
:101E600001969093730280937202263609F498C00B
:101E70002736CCF42236A1F1233674F42E3361F1E7
:101E80002F3334F42132B1F22C3309F00BC126C0C8
:101E9000213609F007C121C1243609F451C0253685
:101EA0000CF066C035C02F3609F4C1C0203754F499
:101EB0002C3609F4A5C02D3609F4A6C0273609F042
:101EC000F1C086C0243709F4D1C0263709F4E6C032
:101ED000223709F0E7C0B0C08394BBCF8A94B9CF52
:101EE000A0925502B092540210933F0100933E011C
:101EF000F0923B01E0923A01D0933D01C0933C0146
:101F000090923901D0924101C09240012BE0FCC077
:101F1000A0925502B092540210933F0100933E01EB
:101F2000F0923B01E0923A01D0933D01C0933C0115
:101F300090923901D0924101C092400120E0E4C06A
:101F4000A0925502B092540210933F0100933E01BB
:101F5000F0923B01E0923A01D0933D01C0933C01E5
:101F600090923901D0924101C092400122E0CCC050
:101F7000A0925502B092540210933F0100933E018B
:101F8000F0923B01E0923A01D0933D01C0933C01B5
:101F900090923901D0924101C092400124E0B4C036
:101FA000A0925502B092540210933F0100933E015B
:101FB000F0923B01E0923A01D0933D01C0933C0185
:101FC00090923901D0924101C092400125E09CC01D
:101FD000A0925502B092540210933F0100933E012B
:101FE000F0923B01E0923A01D0933D01C0933C0155
:101FF00090923901D0924101C092400127E084C003
:102000000E94C20E7C0144C00E94A30E8C3611F4C3
:10201000BB2403C0AA24BB24B39480917202909184
:1020200073020196909373028093720212CF0E9402
:10203000C20E882E982C0DCFA0925502B092540259
:1020400010933F0100933E01F0923B01E0923A0170
:10205000D0933D01C0933C0190923901D09241014F
:10206000C092400120E0FF24F3944FC00E94C20EB2
:10207000BC0180EC9DE50E943E1ACB01EB01F3E030
:10208000CC0FDD1FFA95E1F7880F991FC80FD91FF4
:10209000CE01B7010E943E1A8B01DBCE0E94C20E18
:1020A0006C01D7CEA0925502B092540210933F011A
:1020B00000933E01F0923B01E0923A01D0933D0142
:1020C000C0933C0190923901D0924101C0924001ED
:1020D000109273021092720278C0A0925502B092D0
:1020E000540210933F0100933E01F0923B01E092B5
:1020F0003A01D0933D01C0933C0190923901D092B6
:102100004101C092400129E0FF248CE0889EC0017B
:102110001124E22EE80E0AC080917202909173029F
:1021200001969093730280937202E3940E94A30E2F
:102130008B3291F3833281F30CC0809172029091C3
:10214000730201969093730280937202EA940E9444
:10215000A30E8D3291F3C0913E01D0913F01815386
:10216000883058F400913C0110913D010E94C20E4C
:10217000BC01C8010E943E1AEB018E010BC0809188
:10218000720290917302019690937302809372028F
:10219000C00FD11F169507950E94A30E8E3279F3BA
:1021A00080915402882339F0CE01969587958093CB
:1021B0005502C81BD109FF2011F0EE24EA948E2DA0
:1021C000BE01409140010E94000ECDB7DEB7ECE0A9
:1021D0000C94C41A10926F00909373028093720251
:1021E00081E080935602109255020E94EF0E0895EE
:1021F0000E94EA10089510926F00909373028093EA
:10220000720210925602109255020E94EF0E08952B
:102210000E94FB1008951F920F920FB60F92112487
:102220002F933F934F935F936F937F938F939F93DE
:10223000AF93BF93EF93FF9380915802909159020F
:1022400001979093590280935802019611F51092CC
:102250006F00789480918100887F816080938100F5
:1022600080E197E2909389008093880010928B0020
:1022700010928A0081E080934401809172029091D3
:102280007302892B31F080915702882311F40E9448
:10229000EF0EFF91EF91BF91AF919F918F917F9141
:1022A0006F915F914F913F912F910F900FBE0F90C3
:1022B0001F90189510926F0080914401882341F07F
:1022C0008091720290917302892B11F00E94EF0E9F
:1022D00081E080936F0020E0809172029091730200
:1022E000892B09F021E0822F0895809357028823DB
:1022F00011F40E945A1108950E94751108950E94C8
:102300005A1108950895089580E090E00895EF929D
:10231000FF920F931F936AB157985A98289AE090AA
:102320005E02F0905F02009160021091610220E075
:1023300030E041E050E0CA016F9364E06A95F1F744
:102340006F910197C9F75C9ACA016F9364E06A952F
:10235000F1F76F910197C9F789B15C98FA016F9312
:1023600064E06A95F1F76F913197C9F75C9AFA01C9
:102370006F9364E06A95F1F76F913197C9F75C98B4
:1023800087FF0BC02C5F3F4FC901A0E0B0E08E1566
:102390009F05A007B10708F4CECF6AB91F910F912E
:1023A000FF90EF90089565B190E0AC0141705070DE
:1023B000440F551F9C012670307053E0220F331FCD
:1023C0005A95E1F7422B6D7C462B45B92BB18870AD
:1023D000907034E0880F991F3A95E1F72F77282BFA
:1023E0002BB95C9A81E090E0FC016F9364E06A9500
:1023F000F1F76F913197C9F75C986F9364E06A9534
:10240000F1F76F910197C9F7089580915A02909161
:102410005B02009711F00E948C1B8091420190E0BA
:1024200001972091430130E0AC01429FC001439FDE
:10243000900D529F900D11240E94DF1A90935B0221
:1024400080935A02009729F160E070E208C0E091A1
:102450005A02F0915B02E40FF51F70836F5F462F05
:1024600050E08091420190E001972091430130E0DB
:10247000FC01E29FC001E39F900DF29F900D11249B
:102480004817590724F388E494E164E871E10E9455
:10249000E41B089580934301609342010E9405125A
:1024A000089580934301609342010E9405120895AC
:1024B0000E940512089580E197E2A0E0B0E08093C9
:1024C0005E0290935F02A0936002B0936102529A01
:1024D000209A549A8EE190E00E94781983E00E943D
:1024E0008E1586E090E00E94781983E00E948E1598
:1024F00082E090E00E94781983E00E948E1582E0CD
:1025000090E00E94781982E00E948E1582E090E0AF
:102510000E94781988E20E94D81288E00E94D8129E
:1025200081E00E94D81286E00E94D8128CE00E94BE
:10253000D812089580916202882329F481E0809363
:1025400062020E945B120895BF92CF92DF92EF92D7
:10255000FF920F931F93082F162FF42E0E949A12AA
:102560000E948711B4B0C5B0DAB0EBB0289811233F
:1025700011F05A9A01C05A9884B1826384B9579A6B
:1025800081E0F81629F0802F82958F700E94D31178
:10259000802F8F700E94D311DAB8EBB8B4B8C5B8E9
:1025A0001F910F91FF90EF90DF90CF90BF90089513
:1025B00060E042E00E94A41208950F931F93082F39
:1025C000162F08C0002311F480E101C084E10E94AD
:1025D000D81211501123B1F71F910F9108950E9445
:1025E000DD1208958CE00E94D81208950E94F21224
:1025F0000895813011F48FE001C08EE00E94D8125E
:1026000008950E94F9120895A4E0B0E0EAE0F3E131
:102610000C94B01A182F062F80E8898380EC8A83E7
:1026200084E98B8384ED8C83FE01E60FF11D8181AB
:10263000810F0E94D81210935D0200935C022496D1
:10264000E4E00C94CC1A0E940413089581E00E94E7
:10265000D81280915A0290915B02892B19F160E0A7
:1026600070E208C0E0915A02F0915B02E40FF51F9E
:1026700070836F5F462F50E08091420190E0019798
:102680002091430130E0FC01E29FC001E39F900DE7
:10269000F29F900D11244817590724F310925D0200
:1026A00010925C0208950E942613089561E042E0B2
:1026B0000E94A41208950F931F93CF93DF9300E01D
:1026C00010E8C82FD0E0812F90E08C239D23892B28
:1026D00011F081E301C080E30E9456130F5F0830C0
:1026E00011F01695F0CFDF91CF911F910F910895C2
:1026F0000E945B1308958A3010F4805D01C0895CEC
:102700000E94561308951F93182F82958F700E9470
:102710007B13812F8F700E947B131F9108951F934D
:10272000182F892F0E948313812F0E9483131F91DA
:1027300008950E948F1308950E94831308956F9245
:102740007F928F929F92AF92BF92CF92DF92FF9231
:102750000F93DF93CF93CDB7DEB72A970FB6F894D8
:10276000DEBF0FBECDBF5B016C010AE03E010894E5
:10277000611C711CFA2CC601B5012AE030E040E072
:1027800050E00E94651AC901DA015C016D01015037
:102790004301800E911C80E3F80EC601B5012AE0CA
:1027A00030E040E050E00E94131AF61AF401F08283
:1027B000A114B104C104D104E9F608C0F601E00F88
:1027C000F11D80810E9456130F5F04C06E010894B2
:1027D000C11CD11C0A3090F32A960FB6F894DEBFC4
:1027E0000FBECDBFCF91DF910F91FF90DF90CF90C3
:1027F000BF90AF909F908F907F906F9008950E94B0
:102800009F130895EF92FF920F931F937B018C010A
:1028100097FF0BC010950095F094E094E11CF11C1B
:10282000011D111D8DE20E945613C801B7010E94BF
:102830009F131F910F91FF90EF9008950E94021433
:102840000895CF93DF93EC0103C00E9456132196A5
:10285000FE0184918823C9F7DF91CF9108950E94EA
:1028600021140895CF93DF93EC0103C021960E94B9
:10287000561388818823D1F7DF91CF9108950E9464
:10288000321408950E94561308950E945613089515
:10289000A0E0B0E0EEE4F4E10C94AC1AE82E8091F4
:1028A0005A0290915B02892B09F405C12AE0E216D5
:1028B00009F446C038E0E316C9F480915D02815006
:1028C00080935D028F3F51F480915C028150809330
:1028D0005C0280914301815080935D0280915C0293
:1028E0008F3F09F0E2C010925C02DDC08E2D0E9485
:1028F000561320915C022223C9F030E02150304071
:102900008091430190E0AC01249FC001259F900D70
:10291000349F900D112420915D02E0915A02F091B4
:102920005B02E80FF91FE20FF11DE08280915D026A
:102930008F5F80935D0290914301891709F0BBC0BE
:1029400040915C02242F30E08091420190E0019799
:102950002817390709F0A4C0C0E0D0E044C080E0E7
:102960006C2F0E940413FF246E010894C11CD11C1B
:1029700035C00F2D10E090E09C01C29FC001C39FA5
:10298000900DD29F900D1124E0915A02F0915B02BC
:10299000E00FF11FE80FF91F80810E945613E091AC
:1029A0005A02F0915B028091430190E0C89FD001F0
:1029B000C99FB00DD89FB00D1124E00FF11FAE0FCD
:1029C000BF1FAC01C49EC001C59E900DD49E900D4A
:1029D0001124E80FF91F80818C93F39480914301B7
:1029E000F81638F2E60160914201862F90E00297D6
:1029F000C817D9070CF4B3CF623008F440C0625056
:102A000080E00E940413FF24E0E2DE2E34C00F2D8C
:102A100010E08091420190E0029730E0AC01429FCB
:102A2000C001439F900D529F900D1124E0915A02D6
:102A3000F0915B02E00FF11FE80FF91F80810E9407
:102A400056132091420130E02250304080914301E2
:102A500090E0AC01249FC001259F900D349F900D04
:102A60001124E0915A02F0915B02E00FF11FE80F90
:102A7000F91FD082F39420914301F21640F2609145
:102A80004201615080E00E94041300E004C080E233
:102A90000E9456130F5F809143010817C0F303C0D3
:102AA0004F5F40935C0210925D0280915D026091E5
:102AB0005C020E9404132E2D332727FD3095C90197
:102AC000CDB7DEB7E8E00C94C81AEF92FF920F93EF
:102AD0001F93CF93DF937C01062F10E0F3E0000FEC
:102AE000111FFA95E1F7C0E0D0E09E01200F822F80
:102AF00080640E94D812F701EC0FFD1FE4918E2F25
:102B00000E9456132196C830D10579F7CDB7DEB7AC
:102B1000E6E00C94CA1A0E946515089560E041E051
:102B20000E94A41208950F931F93CF93DF93082F51
:102B3000162FEA010BC0002311F488E101C08CE1DB
:102B40000E94D812CE010E9478191150112399F7D2
:102B5000DF91CF911F910F9108950E9493150895D1
:102B6000282F883068F481E090E002C0880F991F18
:102B70002A95E2F7282FAAE2B0E0EBE2F0E029C0C4
:102B80008E3080F430E02850304081E090E002C088
:102B9000880F991F2A95E2F7282FA4E2B0E0E5E21A
:102BA000F0E017C0853130F020E0A0E0B0E0E0E0D8
:102BB000F0E00FC030E02E50304081E090E002C0E5
:102BC000880F991F2A95E2F7282FA7E2B0E0E8E2E4
:102BD000F0E06F3F19F48081822709C0662319F065
:102BE0008081822B04C09081822F809589238083ED
:102BF0008C91822B8C93089508950895E0EBF0E07A
:102C000083EF8083808184BDE1EBF0E082E080830C
:102C1000808185BDE4EBF0E010828081E3EBF0E0A1
:102C20008083808188BD88B587BD86E060E00E9492
:102C3000B01585E060E00E94B0158BE060E00E9476
:102C4000B01583E060E00E94B015089580916302A2
:102C5000882329F481E0809363020E94FE15089581
:102C6000CF93DF93EC010E942616D7FD02C020E02F
:102C700004C0D095C195DF4F21E0CE01CF3FD105F3
:102C800019F014F08FEF90E0222319F018BC87BDE3
:102C900002C088BD17BCDF91CF9108950E94301605
:102CA0000895CF93DF93EC010E942616D7FD02C052
:102CB00020E004C0D095C195DF4F21E0CE01CF3F89
:102CC000D10519F014F08FEF90E0222329F0109233
:102CD000B4008093B30004C08093B4001092B3009A
:102CE000DF91CF9108950E94511608950F931F937D
:102CF0008B010E943016C8010E9451161F910F913E
:102D000008950E947616089508950895282F8091B9
:102D10006402882391F481E08093640284B18D7C05
:102D200084B985B1826385B985E090E06F9364E0F2
:102D30006A95F1F76F910197C9F783B18095822366
:102D4000089580916402882391F481E08093640265
:102D500084B18D7C84B985B1826385B985E090E0CA
:102D60006F9364E06A95F1F76F910197C9F7089541
:102D700084B18D7C84B985B1826385B985E090E0AA
:102D80006F9364E06A95F1F76F910197C9F7089521
:102D9000282F80916402882391F481E0809364025B
:102DA00084B18D7C84B985B1826385B985E090E07A
:102DB0006F9364E06A95F1F76F910197C9F783B15A
:102DC0008095822308950F931F93082F13B10E94BB
:102DD000A919AB01BC0180916402882391F481E0C0
:102DE0008093640284B18D7C84B985B1826385B996
:102DF00085E090E06F9364E06A95F1F76F91019739
:102E0000C9F780916A02813011F1813038F0823047
:102E100009F443C0833009F089C065C0202F30E039
:102E2000812F90E08095909528233923232B09F456
:102E30007DC0109510231093650240936602509355
:102E40006702609368027093690281E06DC08091AF
:102E5000660290916702A0916802B0916902481BD6
:102E6000590B6A0B7B0B4F3051056105710508F456
:102E70005DC040916502812F90E080959095242F50
:102E800030E082239323892B59F182E080936A02F8
:102E9000109514231093650249C0E0916502AE2F8E
:102EA000B0E0212F30E0CD0182239323892B79F0EC
:102EB00083E080936A02E123E09365024093660217
:102EC0005093670260936802709369022FC0802F4D
:102ED00090E02095309582239323A817B90731F10C
:102EE00010926A0223C08091660290916702A091BD
:102EF0006802B0916902481B590B6A0B7B0B4F307B
:102F000051056105710590F040916502842F90E0B4
:102F1000212F30E082239323892B29F010926A021B
:102F2000842F812304C082E080936A0280E01F9195
:102F30000F9108950E94E31608950F931F93082F91
:102F400013B110950E94A919AB01BC0180916402D4
:102F5000882391F481E08093640284B18D7C84B9EC
:102F600085B1826385B985E090E06F9364E06A95EE
:102F7000F1F76F910197C9F780917002813011F1DB
:102F8000813038F0823009F443C0833009F089C0C1
:102F900065C0202F30E0812F90E080959095282308
:102FA0003923232B09F47DC01095102310936B0255
:102FB00040936C0250936D0260936E0270936F02A7
:102FC00081E06DC080916C0290916D02A0916E02C3
:102FD000B0916F02481B590B6A0B7B0B4F305105A8
:102FE0006105710508F45DC040916B02812F90E08E
:102FF00080959095242F30E082239323892B59F1DB
:1030000082E0809370021095142310936B0249C0E4
:10301000A0916B02212F30E0EA2FF0E0C9018E234E
:103020009F23892B79F083E0809370021A231093F9
:103030006B0240936C0250936D0260936E0270932A
:103040006F022FC0802F90E020953095822393232C
:10305000E817F90731F11092700223C080916C02D9
:1030600090916D02A0916E02B0916F02481B590BB6
:103070006A0B7B0B4F3051056105710590F0409153
:103080006B02812F90E0242F30E082239323892B41
:1030900029F010927002812F842304C082E0809373
:1030A000700280E01F910F9108950E949D1708956E
:1030B0001F93CF93DF93182F80916402882391F49C
:1030C00081E08093640284B18D7C84B985B1826390
:1030D00085B985E090E06F9364E06A95F1F76F91B0
:1030E0000197C9F7C12FD0E083B190E08C239D23D5
:1030F000892BD1F38AE090E00E94781983B190E0A7
:103100008C239D23892B81F383B18123DF91CF9180
:103110001F9108950E94581808951F93CF93DF932D
:10312000182F80916402882391F481E080936402D7
:1031300084B18D7C84B985B1826385B985E090E0E6
:103140006F9364E06A95F1F76F910197C9F7C12F0A
:10315000D0E083B190E0809590958C239D23892BBE
:10316000C1F38AE090E00E94781983B190E08095E5
:1031700090958C239D23892B61F383B180958123C6
:10318000DF91CF911F9108951F930E948D18182FE2
:103190000E945818812F1F9108950E94C418089505
:1031A0000E948D180895A2E0B0E0E9EDF8E10C94DA
:1031B000B21A20917F0230918002CE010196211532
:1031C000310519F48958924002C0821B930B9A83EF
:1031D000898389819A812296E2E00C94CE1A08951F
:1031E0000895A2E0B0E0E7EFF8E10C94B21A209164
:1031F0007F0230918002CE0101962115310519F42C
:103200008958924002C0821B930B9A8389838981DB
:103210009A812296E2E00C94CE1A2F928F939F937C
:103220002FB6809175029091760201968093750277
:103230009093760290E080917702891F80937702C5
:1032400090917D029C5F90937D0280917C028051E1
:103250009742C0F090937D0280937C028091780227
:10326000909179020196809378029093790290E090
:1032700080917A02891F80937A0280917B02891F54
:1032800080937B022FBE9F918F912F9018956F5F37
:103290007F4F8F4F9F4F660F771F881F991F25E025
:1032A00030E040E050E00E94651ACA01B90108957B
:1032B00028EE33E009C0F9016F9364E06A95F1F7F5
:1032C0006F913197C9F701970097A9F708956F5F3C
:1032D0007F4F8F4F9F4F660F771F881F991F25E0E5
:1032E00030E040E050E00E94651ACA01B90108953B
:1032F00028EE33E009C0F9016F9364E06A95F1F7B5
:103300006F913197C9F701970097A9F70895A0E742
:10331000B0E08C918E7F8C93E0EBF0E08081836055
:103320008083E1EBF0E08081807F80838081826018
:103330008083B89A8C9181608C9378940895809161
:103340007E02882329F481E080937E020E948719FF
:1033500008950E949F19E0E7F0E080818E7F8083CE
:10336000209178023091790240917A0250917B024B
:10337000808181608083B901CA0108950E94A919E2
:1033800008950E949F19809170008E7F8093700035
:103390006091B2008091740290917502A0917602C2
:1033A000B0917702B89905C0262F30E040E050E098
:1033B00011C08091B2002091740230917502409149
:1033C00076025091770220503F4F4F4F5F4F90E071
:1033D000A0E0B0E0282B392B4A2B5B2B80917000AA
:1033E000816080937000B901CA0108950E94C119DB
:1033F00008950E949F19E0E7F0E080818E7F80832E
:10340000109278021092790210927A0210927B0246
:1034100010927D0210927C028081816080830895E9
:103420000E94F9190895629FD001739FF001829F55
:10343000E00DF11D649FE00DF11D929FF00D839F43
:10344000F00D749FF00D659FF00D9927729FB00DE0
:10345000E11DF91F639FB00DE11DF91FBD01CF01F3
:1034600011240895991B79E004C0991F961708F05C
:10347000961B881F7A95C9F780950895AA1BBB1BD8
:1034800051E107C0AA1FBB1FA617B70710F0A61B64
:10349000B70B881F991F5A95A9F780959095BC0185
:1034A000CD01089597FB092E07260AD077FD04D099
:1034B000E5DF06D000201AF4709561957F4F0895DE
:1034C000F6F7909581959F4F0895A1E21A2EAA1BB9
:1034D000BB1BFD010DC0AA1FBB1FEE1FFF1FA217C4
:1034E000B307E407F50720F0A21BB30BE40BF50BC1
:1034F000661F771F881F991F1A9469F7609570954A
:10350000809590959B01AC01BD01CF01089597FB7B
:10351000092E05260ED057FD04D0D7DF0AD0001C97
:1035200038F450954095309521953F4F4F4F5F4F60
:103530000895F6F790958095709561957F4F8F4F20
:103540009F4F08952F923F924F925F926F927F927A
:103550008F929F92AF92BF92CF92DF92EF92FF92A3
:103560000F931F93CF93DF93CDB7DEB7CA1BDB0B4F
:103570000FB6F894DEBF0FBECDBF09942A883988F4
:1035800048885F846E847D848C849B84AA84B984FB
:10359000C884DF80EE80FD800C811B81AA81B98107
:1035A000CE0FD11D0FB6F894DEBF0FBECDBFED011B
:1035B0000895EE0FFF1F0590F491E02D0994CF932D
:1035C000DF93BC018230910510F462E070E0A091BD
:1035D0008102B0918202ED01E0E0F0E040E050E0D5
:1035E00021C0888199818617970769F48A819B8118
:1035F000309719F09383828304C090938202809362
:103600008102FE0134C06817790738F4411551056D
:1036100019F08417950708F4AC01FE018A819B819B
:103620009C01E9012097E9F641155105A9F1CA016C
:10363000861B970B049708F4BA01E0E0F0E02AC07B
:103640008D919C91119784179507F9F4641775076C
:1036500081F412968D919C911397309719F0938372
:10366000828304C09093820280938102FD0132968E
:103670004FC0CA01861B970BFD01E80FF91F61932C
:10368000719302978D939C9343C0FD018281938136
:103690009C01D9011097A1F680917F029091800240
:1036A000892B41F480914F029091500290938002B7
:1036B00080937F0240915102509152024115510571
:1036C00041F44DB75EB780914D0290914E02481B78
:1036D000590B20917F023091800224173507B0F4F6
:1036E000CA01821B930B8617970780F0AB014E5FD0
:1036F0005F4F8417950750F0420F531F509380027D
:1037000040937F02F9016193719302C0E0E0F0E021
:10371000CF01DF91CF910895CF93DF93009709F404
:1037200050C0EC0122971B821A82A0918102B091B5
:103730008202109709F140E050E0AC17BD0708F194
:10374000BB83AA83FE0121913191E20FF31FAE17D3
:10375000BF0779F48D919C911197280F391F2E5F27
:103760003F4F3983288312968D919C9113979B83A9
:103770008A834115510571F4D0938202C09381026E
:1037800020C012968D919C911397AD01009711F076
:10379000DC01D3CFFA01D383C28321913191E20FAF
:1037A000F31FCE17DF0769F488819981280F391F2D
:1037B0002E5F3F4FFA01318320838A819B8193835F
:1037C0008283DF91CF9108950F931F93CF93DF935F
:1037D0008C01EB01009731F46115710519F420E0BB
:1037E00030E038C081E090E06EE070E00E94301C74
:1037F000FC019C01009771F180E88383209771F0B0
:10380000D387C28781E88383809183029091840269
:10381000892B21F4F0938402E093830201151105B2
:10382000C9F011870087838182608383809185023C
:1038300090918602892B71F4F0938602E0938502C1
:103840008091870290918802892B21F4F09388025D
:10385000E0938702C901DF91CF911F910F910895E5
:103860000F931F93CF93DF93689F8001699F100D83
:10387000789F100D1124C8010E94DF1AEC010097F7
:1038800029F060E070E0A8010E944C1CCE01DF919D
:10389000CF911F910F910895DC0101C06D934150AC
:0A38A0005040E0F70895F894FFCFC0
:1038AA003D3F002F31303000216333320021653330
:1038BA003200216733320046726F6E743D3F20003A
:1038CA00413D6C65667400433D72696768740050D7
:1038DA00726573732042008813040400D007F40150
:1038EA000F000208010000000000000000000102B1
:1038FA000203030303040404040404040405050581
:10390A00050505050505050505050505050606065A
:10391A00060606060606060606060606060606063D
:10392A00060606060606060606060606060707072A
:10393A00070707070707070707070707070707070D
:10394A0007070707070707070707070707070707FD
:10395A0007070707070707070707070707070707ED
:10396A0007070707070707070707070707080808DA
:10397A0008080808080808080808080808080808BD
:10398A0008080808080808080808080808080808AD
:10399A00080808080808080808080808080808089D
:1039AA00080808080808080808080808080808088D
:1039BA00080808080808080808080808080808087D
:1039CA00080808080808080808080808080808086D
:1039DA00080808080808080808080808080808085D
:1039EA0008080808080808080808080808200089BC
:0439FA0002000000C7
:00000001FF
