:100000000C9440000C945D000C945D000C945D0019
:100010000C945D000C945D000C945D000C945D00EC
:100020000C945D000C9476140C945D000C945D00AF
:100030000C945D000C94F30C0C945D000C945D002A
:100040000C945D000C945D000C945D000C945D00BC
:100050000C945D000C945D000C945D000C945D00AC
:100060000C945D000C945D00130A190A1C0A1F0A07
:10007000220A250A280A2B0A2E0A310A340A370ACC
:1000800011241FBECFEFD4E0DEBFCDBF12E0A0E051
:10009000B1E0E0E6FFE202C005900D92AE34B10798
:1000A000D9F712E0AEE4B2E001C01D92A338B10767
:1000B000E1F70E94CD020C94AE170C940000ECE71F
:1000C000F0E08081806280833D984598089585E0C6
:1000D0000E946807089587E00E946807089586E0F7
:1000E0000E94680708950E9468070895AF92BF9222
:1000F000CF92DF92EF92FF920F931F93B82EA62E0E
:1001000069017A01012B11F00E943B0F8B2D6A2DA2
:100110000E940B0FC701B6010E9406101F910F919C
:10012000FF90EF90DF90CF90BF90AF9008950F9326
:100130001F93CF93DF93182F062FEA01232B11F083
:100140000E943B0F812F602F0E940B0FCE010E9457
:100150002710DF91CF911F910F9108958EEC9FEFA3
:1001600062E370E00E946912089582E390E06EEC11
:100170007FEF0E946912089586EA9FEF6EEC7FEF91
:100180000E94691208958EEC9FEF66EA7FEF0E944D
:100190006912089580E090E060E070E00E946912CA
:1001A0000895EF92FF920F931F93CF93DF93EC018B
:1001B0000E943B0FEE24FF2487010EC080E060E028
:1001C0000E940B0FC801B7010E94061088EE93E051
:1001D0000E94B0140E943B0F0894E11CF11C011D09
:1001E000111DCE15DF0554F7DF91CF911F910F91AF
:1001F000FF90EF900895EF92FF920F931F93DF937C
:10020000CF93CDB7DEB7E2970FB6F894DEBF0FBE3F
:10021000CDBF8E010F5F1F4F83E3E82EF12CEC0E54
:10022000FD1E88ED9FEF68E270E00E94691282E592
:1002300090E00E94B01480E090E060E070E00E94E6
:10024000691286E00E946807F801819391938F01FB
:10025000EE15FF0531F7CE010196E2960FB6F89440
:10026000DEBF0FBECDBFCF91DF911F910F91FF90E9
:10027000EF900895AF92BF92CF92DF92EF92FF92EC
:100280000F931F935C017B0166277727681B790B0F
:100290000E9469120027F7FC0095102FC801B701D2
:1002A0000E94C10428E431EE4AE553E40E941B0396
:1002B0007B018C01CC24B7FCC094DC2CC601B501B9
:1002C0000E94C1049B01AC01C801B7010E94150442
:1002D0000E941F05DC01CB010E94B01480E090E079
:1002E00060E070E00E9469121F910F91FF90EF9003
:1002F000DF90CF90BF90AF900895AF92BF92CF9212
:10030000DF92EF92FF920F931F935C017B0188278E
:1003100099278A199B09B5010E9469120027F7FCE9
:100320000095102FC801B7010E94C10428E431EEE6
:100330004AE553E40E941B037B018C01CC24B7FCEB
:10034000C094DC2CC601B5010E94C1049B01AC0124
:10035000C801B7010E9415040E941F05DC01CB01F2
:100360000E94B01480E090E060E070E00E946912AA
:100370001F910F91FF90EF90DF90CF90BF90AF90C3
:1003800008950F931F939C018B01B9010E9469127C
:10039000C8010E94B01480E090E060E070E00E942C
:1003A00069121F910F910895EF92FF920F931F937F
:1003B0002CC00E94191524EF31E040E050E00E946B
:1003C000C0156115710581059105F9F40E943B0F77
:1003D00080E090E060E070E040E051E00E94970033
:1003E00080E061E00E940B0F85E00E9468077C01BD
:1003F00086E00E946807E81AF90A0027F7FC0095D2
:10040000102FC801B7010E94061080E10E949E12C1
:10041000882379F285E00E9468078C0186E00E94BB
:1004200068077C0189E091E00E94F00C0E191F0919
:10043000C8011F910F91FF90EF900895CF92DF9226
:10044000EF92FF920F931F93CF93DF937C018A016A
:10045000EB01C12C9DE7D92E0E943B0F80E060E0AC
:100460000E940B0FC7010E94271083E191E00E94B8
:10047000271080E061E00E940B0FBE01882777FD06
:100480008095982F0E94061081E00E94E90E82E379
:100490000E949E128823D9F782E30E94521481FFA2
:1004A00007C086E191E00E94F00CC01BD10B20C078
:1004B00084FF16C00E94DE0E0E943B0F8BE191E08C
:1004C0000E94F00C84E690E00E94B014CE01DF910F
:1004D000CF911F910F91FF90EF90DF90CF900895F3
:1004E00085FF06C080E291E00E94F00CC00FD11F92
:1004F00083E8C030D8074CF480E09DE7B8010E9443
:10050000AD15EC01C050DD47A7CF8DE7C130D8074E
:100510000CF4A2CF80E09DE7B8010E94AD15E60182
:10052000C81BD90B99CF0F931F938C0188EC90E0D7
:1005300062E370E04EE00E94E2098BE490E00E94EA
:10054000B0148CE291E062E370E04EE00E94E209B8
:1005500088EC90E062E370E04EE00E94E2098BE4F8
:1005600090E00E94B0148CE291E062E370E04EE013
:100570000E94E20980E060E00E940B0FC8010E9427
:10058000271080E10E949E128823D9F384EF91E026
:100590000E94B0141F910F910895EF92FF920F9354
:1005A0001F93CF93DF930E945F0085E291E00E944A
:1005B000930287E00E9468078C0186E00E9468072A
:1005C0007C0185E00E946807E801CE19DF09081B5D
:1005D000190B0E9419152CE231E040E050E00E9416
:1005E000C015611571058105910501F50E943B0F4C
:1005F00080E060E00E940B0FBE01882777FD8095A8
:10060000982F0E94061084E060E00E940B0FB80152
:10061000882777FD8095982F0E94061080E061E082
:100620000E940B0F8BE291E00E942710CE01B801CF
:100630000E946912BECFA0E2B0E0E1E2F3E00C94C8
:10064000FD1569837A838B839C832D833E834F833F
:100650005887CE010196BE01675F7F4F0E949706C3
:10066000CE010596BE016F5E7F4F0E949706998569
:10067000923088F089898230C8F0943019F4823041
:1006800051F404C0843029F4923081F48FE391E076
:10069000C6C0923049F420E09A858A89981321E0F7
:1006A0002A87CE010996BBC0823049F420E09A85A2
:1006B0008A89981321E02A8BCE014196B0C02D84FF
:1006C0003E844F8458886D887E888F88988CEE246D
:1006D000FF248701AA24BB24650140E050E060E0CC
:1006E00070E0E0E0F0E0C10181709070892BE9F0EA
:1006F000E60CF71C081D191D9A01AB012A0D3B1DC4
:100700004C1D5D1D80E090E0A0E0B0E0E614F70431
:100710000805190520F481E090E0A0E0B0E0BA01FE
:10072000A901480F591F6A1F7B1FAA0CBB1CCC1CB8
:10073000DD1C97FE08C081E090E0A0E0B0E0A82AB0
:10074000B92ACA2ADB2A3196E032F10549F0660C53
:10075000771C881C991C5694479437942794C3CFD0
:10076000FA85EA892B893C898B859C85280F391F5E
:100770002E5F3F4F17C0CA0181709070892B61F0C6
:1007800016950795F794E79480E090E0A0E0B0E834
:10079000E82AF92A0A2B1B2B7695679557954795DA
:1007A0002F5F3F4F77FDE7CF0CC0440F551F661FEB
:1007B000771F17FD4160EE0CFF1C001F111F215019
:1007C0003040403090E0590790E0690790E47907A5
:1007D00060F32B8F3C8FDB01CA018F779070A07084
:1007E000B07080349105A105B10561F447FD0AC0E0
:1007F000E114F1040105110529F0405C5F4F6F4FD2
:100800007F4F40781A8EFE1711F081E08A8F4D8F4E
:100810005E8F6F8F78A383E0898FCE0149960E9407
:10082000C205A096E2E10C941916A8E1B0E0EBE154
:10083000F4E00C94051669837A838B839C832D8363
:100840003E834F835887B9E0EB2EF12CEC0EFD1E52
:10085000CE010196B7010E9497068E010F5E1F4FD1
:10086000CE010596B8010E9497062985223008F42A
:100870007EC03989323010F4B8017CC08A859A89EB
:1008800089278A87243011F0223031F4231709F0A8
:100890006EC06FE371E06EC0343039F41D861E8681
:1008A0001F86188A1C861B8604C0323021F484E01F
:1008B0008987B7015FC02B853C858B899C89281B64
:1008C000390B3C872B87ED84FE840F851889AD8812
:1008D000BE88CF88D88CEA14FB040C051D0540F4B3
:1008E000EE0CFF1C001F111F215030403C872B874E
:1008F00020E030E040E050E080E090E0A0E0B0E4B4
:1009000060E070E0EA14FB040C051D0540F0282BA4
:10091000392B4A2B5B2BEA18FB080C091D09B695ED
:10092000A79597958795EE0CFF1C001F111F6F5F11
:100930007F4F6F31710531F7DA01C9018F77907000
:10094000A070B07080349105A105B10561F427FD58
:100950000AC0E114F1040105110529F0205C3F4FA4
:100960004F4F5F4F20782D873E874F87588BBE01B2
:10097000675F7F4FCB010E94C2056896EAE00C9446
:100980002116A8E0B0E0E7ECF4E00C9406169B0119
:10099000AC0183E08983DA01C9018827B7FD83951B
:1009A0009927AA27BB27B82E2115310541055105E6
:1009B00019F482E089833AC08823A9F0203080E0CE
:1009C000380780E0480780E8580729F460E070E0C5
:1009D00080E09FEC30C0EE24FF248701E21AF30A86
:1009E000040B150B02C079018A018EE1C82ED12CAF
:1009F000DC82CB82ED82FE820F831887C801B701AB
:100A00000E94730501971816190684F4082E04C075
:100A1000EE0CFF1C001F111F0A94D2F7ED82FE821C
:100A20000F831887C81AD90ADC82CB82BA82CE011A
:100A300001960E94C2052896E9E00C942216ACE0CB
:100A4000B0E0E5E2F5E00C940D1669837A838B83C0
:100A50009C83CE010196BE016B5F7F4F0E9497067B
:100A60008D81823061F1823050F1843021F48E81A9
:100A7000882351F12EC02F81388537FD20C06E812B
:100A80002F3131051CF06623F9F023C08EE190E090
:100A9000821B930B29853A854B855C8504C056954E
:100AA0004795379527958A95D2F76623B1F05095EB
:100AB0004095309521953F4F4F4F5F4F0EC020E03E
:100AC00030E040E050E009C02FEF3FEF4FEF5FE72D
:100AD00004C020E030E040E050E8B901CA012C96A3
:100AE000E2E00C942916EF92FF920F931F937B0183
:100AF0008C0180E0E81680E0F80681E0080780E0DD
:100B0000180788F48FEFE816F1040105110531F09C
:100B100028F088E090E0A0E0B0E017C080E090E02E
:100B2000A0E0B0E012C080E0E81680E0F80680E0C7
:100B3000080781E0180728F088E190E0A0E0B0E025
:100B400004C080E190E0A0E0B0E020E230E040E0CE
:100B500050E0281B390B4A0B5B0B04C01695079518
:100B6000F794E7948A95D2F7F701E95BFE4F80810D
:100B7000281B310941095109C9011F910F91FF90AB
:100B8000EF900895DF92EF92FF920F931F93FC0175
:100B9000E480F58006811781D1808081823048F41D
:100BA00080E090E0A0E1B0E0E82AF92A0A2B1B2BB4
:100BB000A5C0843009F49FC0823021F4EE24FF24C4
:100BC000870105C0E114F1040105110519F4E0E005
:100BD000F0E096C0628173819FEF623879070CF074
:100BE0005BC022E83FEF261B370B2A3131052CF082
:100BF00020E030E040E050E02AC0B801A701022E1A
:100C000004C076956795579547950A94D2F781E089
:100C100090E0A0E0B0E004C0880F991FAA1FBB1F9E
:100C20002A95D2F70197A109B1098E219F21A0230E
:100C3000B1230097A105B10521F081E090E0A0E08B
:100C4000B0E09A01AB01282B392B4A2B5B2BDA0140
:100C5000C9018F779070A070B07080349105A105A4
:100C6000B10539F427FF09C0205C3F4F4F4F5F4F5C
:100C700004C0215C3F4F4F4F5F4FE0E0F0E0203079
:100C8000A0E03A07A0E04A07A0E45A0710F0E1E02C
:100C9000F0E079018A0127C06038710564F5FB0135
:100CA000E158FF4FD801C7018F779070A070B070E6
:100CB00080349105A105B10539F4E7FE0DC080E44B
:100CC00090E0A0E0B0E004C08FE390E0A0E0B0E0EE
:100CD000E80EF91E0A1F1B1F17FF05C01695079582
:100CE000F794E794319687E016950795F794E79483
:100CF0008A95D1F705C0EE24FF248701EFEFF0E0DD
:100D00006E2F679566276795902F9F77D794DD2480
:100D1000D7948E2F8695492F462B582F5D29B701E2
:100D2000CA011F910F91FF90EF90DF900895FC0191
:100D3000DB01408151812281622F6F7770E0221F99
:100D40002227221F9381892F880F822B282F30E0A2
:100D5000991F9927991F11969C9311972115310579
:100D6000A9F5411551056105710511F482E037C0FF
:100D700082E89FEF13969C938E9312979A01AB0192
:100D800067E0220F331F441F551F6A95D1F783E098
:100D90008C930DC0220F331F441F551F12968D9147
:100DA0009C911397019713969C938E9312972030E2
:100DB00080E0380780E0480780E4580758F314962D
:100DC0002D933D934D935C93179708952F3F3105D5
:100DD00079F4411551056105710519F484E08C938E
:100DE000089564FF03C081E08C9312C01C9210C070
:100DF0002F57304013963C932E93129783E08C9399
:100E000087E0440F551F661F771F8A95D1F77064DE
:100E100014964D935D936D937C93179708958091ED
:100E20007C0085FF05C080917900282F30E004C048
:100E30002091780030917900C90108959093320192
:100E40008093310108950895089580917C0085FF75
:100E500005C080917900282F30E004C020917800EF
:100E600030917900C9010895282F8032B0F487E8C5
:100E700080937A0080917C00982F9064662311F013
:100E8000806C02C0892F8F77807E822B80937C00BC
:100E900080917A00806480937A00089560E00E94D7
:100EA0003407089560E00E94340780917A0086FD3F
:100EB000FCCF80917C0085FF05C080917900282FB0
:100EC00030E004C02091780030917900C901089584
:100ED0000E9452070895EF92FF920F931F93CF93B2
:100EE000DF93EB0160E00E94340780917A0086FD79
:100EF000FCCF9E01EE24FF24870180917A0080645C
:100F000080937A0080917A0086FDFCCF80917C00EE
:100F100085FF04C08091790090E004C08091780042
:100F200090917900A0E0B0E0E80EF91E0A1F1B1FA7
:100F30002150304011F7CE0196958795C034D105E8
:100F400040F48E0D9F1D6C2F70E00E9499159B013F
:100F50000DC0A0E0B0E0E80EF91E0A1F1B1F9E01A5
:100F600040E050E0C801B7010E94C015C901CDB7EB
:100F7000DEB7E6E00C94251687E064E170E00E949D
:100F80006B0708950E946B07089590933201809338
:100F9000310108951F9310917C0080917C008F7D1A
:100FA00080937C008EE164E170E00E946B078EE12B
:100FB00064E170E00E946B079C0115FD04C0809104
:100FC0007C008F7D03C080917C00806280937C00D8
:100FD000B9017695679580E090E06C54744D8E4E23
:100FE0009F4F40E050E00E94C015C9011F91089535
:100FF0000E94CA070895A0E0B0E02091310130912D
:10100000320140E050E0BC01CD010E946E159B0111
:10101000AC0180917C0085FF0BC0B901CA01615809
:101020007F4F8F4F9F4F2FEF30E040E050E00AC0DE
:10103000B901CA0161507E4F8F4F9F4F2FEF33E0B0
:1010400040E050E00E94C015C90108950E946B075E
:101050000E94FB0708950E942608089580917C0055
:1010600085FF06C08091790090E00E94FB070895FB
:1010700080917800909179000E94FB07089560E0CC
:101080000E94340780917A0086FDFCCF0E942E08D2
:1010900008950E943F0808950E942E08089587E051
:1010A00064E170E00E946B070E94FB0708950E94B4
:1010B000FB0708951F9310917C0080917C008F7D29
:1010C00080937C0086E064E170E00E9426089C0129
:1010D00015FD04C080917C008F7D03C080917C0051
:1010E000806280937C00C901880F991F820F931F33
:1010F000880F991F880F991F8A5792406DE070E002
:101100000E94AD15CB011F9108950E945A080895C1
:101110001F9310917C0080917C008F7D80937C00D8
:1011200086E064E170E00E9426089C0115FD04C081
:1011300080917C008F7D03C080917C0080628093D1
:101140007C0084E190E0AC01249FC001259F900DBC
:10115000349F900D11248E529F4167E270E00E94EF
:10116000AD15CB011F9108950E94880808951F9323
:1011700010917C0080917C008F7D80937C0086E0C4
:101180006AE070E00E942608AC0115FD04C0809161
:101190007C008F7D03C080917C00806280937C0006
:1011A0009A01220F331F240F351F2F5F3F4F3695B3
:1011B0002795C9011F9108950E94B70808951F93AC
:1011C00010917C0080917C008F7D80937C0086E074
:1011D0006AE070E00E942608AC0115FD04C0809111
:1011E0007C008F7D03C080917C00806280937C00B6
:1011F0009A01220F331F240F351FC9011F91089533
:101200000E94DF0808950E94DF0808950895089558
:1012100080913E01882339F020E080916C0290910A
:101220006D02892B09F021E0822F089510926F0042
:1012300083E28093800081E180938100109282009C
:1012400080E197E2909389008093880010928B0050
:1012500010928A00229A78940895A0E0B0E0E3E327
:10126000F9E00C9405168C015B01C42E80916B0291
:10127000882329F481E080936B020E941609109262
:101280003E0117FD03C0DD24D39403C01F772AE07D
:10129000D22E80918100E82EFF2488EFE822FF24DF
:1012A00088ECD89EC001112480179107C8F4E8018A
:1012B00097E20131190710F0C0E1D7E2BE0176953F
:1012C000679580E090E06058794687469F4F9E0181
:1012D00040E050E00E94C015890181E090E025C007
:1012E00088E2D89E802D1124C82FD0E0C017D107E6
:1012F00008F4E801BE01769567959E0140E050E054
:101300009AE0D91639F480E090E0605E734481443D
:101310009F4F06C080E090E060537D4E8C4E9F4F03
:101320000E94C015890182E090E0E82AF92A9AE03B
:10133000D91639F4CE0105966AE070E00E9499153D
:10134000EB0183E0C83ED80711F4B5010FC0BE0120
:1013500080E090E0950140E050E00E946E1528EE9C
:1013600033E040E050E00E94E215B90110926F00B6
:10137000E09281001093890000938800E09188003A
:10138000F0918900AC2DA03108F0AFE080E190E051
:101390008A1B910902C0F695E7958A95E2F7F093CA
:1013A0008B00E0938A00709353026093520286B3DD
:1013B0008FEF86BB81E080936F00CDB7DEB7EAE0A8
:1013C0000C9421160E942D090895CF93DF93EB0111
:1013D0008F3F11F0442329F488EE93E0BE0140E0F2
:1013E00067C0813110F420E005C0282F205120363D
:1013F00008F02FE5822F6CE00E948D15382F682FA2
:1014000070E084EF9FEF689FF001699FF00D789F77
:10141000F00D1124E20FF11DEC30F10538F4EC5C15
:10142000FF4F0C9434168CE991E023C080E090E0EB
:1014300020C085EB91E01DC08FEC91E01AC08AEED0
:1014400091E017C087E092E014C086E292E011C0FC
:1014500087E492E00EC089E692E00BC08EE892E04D
:1014600008C085EB92E005C08EED92E002C08AE0F4
:1014700093E0373071F002C0880F991F6A95E2F748
:10148000323020F005966AE070E00BC08050904842
:101490000BC036E0880F991F3A95E1F7029665E098
:1014A00070E00E949915CB01403108F04FE0BE0179
:1014B0000E942D09DF91CF9108950E94E5090895BA
:1014C00080913E01882339F020E080916C02909158
:1014D0006D02892B09F021E0822F089510926F0090
:1014E000E1E8F0E08081887F8160808380E197E29D
:1014F000909389008093880010928B0010928A004C
:1015000081E080933E0110926D0210926C0208956A
:101510000E946E0A089530915002E0916C02F091A1
:101520006D02332311F0249101C02081822F815458
:101530008A3108F4205E203259F480916C02909137
:101540006D02019690936D0280936C02019729F7CA
:10155000822F0895CF93DF930E948B0A282FC0E03B
:10156000D0E01DC0CE0153E0880F991F5A95E1F7D6
:10157000CC0FDD1FC80FD91F822F992787FD9095AB
:10158000C80FD91FE09780916C0290916D0201966F
:1015900090936D0280936C020E948B0A282F822FF9
:1015A00080538A30F8F2CE01DF91CF910895A0E008
:1015B000B0E0EDEDFAE00C94031680903301B090AA
:1015C0004E02BB2021F060914F02662399F4A09057
:1015D0004F020091380110913901E0903401F090F0
:1015E0003501C0913601D0913701C0903A01D090B9
:1015F0003B0108C18FEF70E040E00E94E5091092C6
:101600004F02CBC194E0892EBB2404EF11E084E0AB
:10161000E82EF12CC0EDD7E0B4E09B2EAFE0CA2E4F
:10162000D12C0E948B0A282F80916C0290916D0220
:10163000019690936D0280936C02263609F498C04F
:101640002736CCF42236A1F1233674F42E3361F11F
:101650002F3334F42132B1F22C3309F00BC126C000
:10166000213609F007C121C1243609F451C02536BD
:101670000CF066C035C02F3609F4C1C0203754F4D1
:101680002C3609F4A5C02D3609F4A6C0273609F07A
:10169000F1C086C0243709F4D1C0263709F4E6C06A
:1016A000223709F0E7C0B0C08394BBCF8A94B9CF8A
:1016B000A0924F02B0924E0210933901009338016C
:1016C000F0923501E0923401D0933701C093360196
:1016D00090923301D0923B01C0923A012BE0FCC0C2
:1016E000A0924F02B0924E0210933901009338013C
:1016F000F0923501E0923401D0933701C093360166
:1017000090923301D0923B01C0923A0120E0E4C0B4
:10171000A0924F02B0924E0210933901009338010B
:10172000F0923501E0923401D0933701C093360135
:1017300090923301D0923B01C0923A0122E0CCC09A
:10174000A0924F02B0924E021093390100933801DB
:10175000F0923501E0923401D0933701C093360105
:1017600090923301D0923B01C0923A0124E0B4C080
:10177000A0924F02B0924E021093390100933801AB
:10178000F0923501E0923401D0933701C0933601D5
:1017900090923301D0923B01C0923A0125E09CC067
:1017A000A0924F02B0924E0210933901009338017B
:1017B000F0923501E0923401D0933701C0933601A5
:1017C00090923301D0923B01C0923A0127E084C04D
:1017D0000E94AA0A7C0144C00E948B0A8C3611F434
:1017E000BB2403C0AA24BB24B39480916C029091C3
:1017F0006D02019690936D0280936C0212CF0E944D
:10180000AA0A882E982C0DCFA0924F02B0924E02B9
:101810001093390100933801F0923501E0923401C0
:10182000D0933701C093360190923301D0923B019F
:10183000C0923A0120E0FF24F3944FC00E94AA0A0C
:10184000BC0180EC9DE50E949915CB01EB01F3E012
:10185000CC0FDD1FFA95E1F7880F991FC80FD91F2C
:10186000CE01B7010E9499158B01DBCE0E94AA0A16
:101870006C01D7CEA0924F02B0924E021093390164
:1018800000933801F0923501E0923401D093370192
:10189000C093360190923301D0923B01C0923A013D
:1018A00010926D0210926C0278C0A0924F02B0921A
:1018B0004E021093390100933801F0923501E09205
:1018C0003401D0933701C093360190923301D09206
:1018D0003B01C0923A0129E0FF248CE0889EC001C0
:1018E0001124E22EE80E0AC080916C0290916D02E4
:1018F000019690936D0280936C02E3940E948B0A90
:101900008B3291F3833281F30CC080916C02909101
:101910006D02019690936D0280936C02EA940E948E
:101920008B0A8D3291F3C0913801D09139018153E6
:10193000883058F400913601109137010E94AA0AAC
:10194000BC01C8010E949915EB018E010BC080916A
:101950006C0290916D02019690936D0280936C02DF
:10196000C00FD11F169507950E948B0A8E3279F30E
:1019700080914E02882339F0CE0196958795809309
:101980004F02C81BD109FF2011F0EE24EA948E2DDE
:10199000BE0140913A010E94E509CDB7DEB7ECE007
:1019A0000C941F1610926F0090936D0280936C023E
:1019B00081E08093500210924F020E94D70A08954E
:1019C0000E94D20C089510926F0090936D02809344
:1019D0006C021092500210924F020E94D70A089592
:1019E0000E94E30C08951F920F920FB60F921124DC
:1019F0002F933F934F935F936F937F938F939F9317
:101A0000AF93BF93EF93FF93809152029091530253
:101A100001979093530280935202019611F5109210
:101A20006F00789480918100887F8160809381002D
:101A300080E197E2909389008093880010928B0058
:101A400010928A0081E080933E0180916C02909117
:101A50006D02892B31F080915102882311F40E948C
:101A6000D70AFF91EF91BF91AF919F918F917F9195
:101A70006F915F914F913F912F910F900FBE0F90FB
:101A80001F90189510926F0080913E01882341F0BD
:101A900080916C0290916D02892B11F00E94D70AFF
:101AA00081E080936F0020E080916C0290916D0244
:101AB000892B09F021E0822F089580935102882319
:101AC00011F40E94420D08950E945D0D08950E9438
:101AD000420D08950895089580E090E00895EF92F2
:101AE000FF920F931F936AB157985A98289AE090E3
:101AF0005802F090590200915A0210915B0220E0C6
:101B000030E041E050E0CA016F9364E06A95F1F77C
:101B10006F910197C9F75C9ACA016F9364E06A9567
:101B2000F1F76F910197C9F789B15C98FA016F934A
:101B300064E06A95F1F76F913197C9F75C9AFA0101
:101B40006F9364E06A95F1F76F913197C9F75C98EC
:101B500087FF0BC02C5F3F4FC901A0E0B0E08E159E
:101B60009F05A007B10708F4CECF6AB91F910F9166
:101B7000FF90EF90089565B190E0AC014170507016
:101B8000440F551F9C012670307053E0220F331F05
:101B90005A95E1F7422B6D7C462B45B92BB18870E5
:101BA000907034E0880F991F3A95E1F72F77282B32
:101BB0002BB95C9A81E090E0FC016F9364E06A9538
:101BC000F1F76F913197C9F75C986F9364E06A956C
:101BD000F1F76F910197C9F70895809154029091A0
:101BE0005502009711F00E94E71680913C0190E0A9
:101BF000019720913D0130E0AC01429FC001439F1D
:101C0000900D529F900D11240E943A169093550208
:101C100080935402009729F160E070E208C0E091DF
:101C20005402F0915502E40FF51F70836F5F462F49
:101C300050E080913C0190E0019720913D0130E01F
:101C4000FC01E29FC001E39F900DF29F900D1124D3
:101C50004817590724F380E390E16CE67DE00E9489
:101C60003F17089580933D0160933C010E94ED0D64
:101C7000089580933D0160933C010E94ED0D08950D
:101C80000E94ED0D089580E197E2A0E0B0E080931E
:101C9000580290935902A0935A02B0935B02529A51
:101CA000209A549A8EE190E00E94D31483E00E941F
:101CB000761186E090E00E94D31483E00E947611B2
:101CC00082E090E00E94D31483E00E94761182E0CB
:101CD00090E00E94D31482E00E94761182E090E0AE
:101CE0000E94D31488E20E94C00E88E00E94C00EB9
:101CF00081E00E94C00E86E00E94C00E8CE00E942F
:101D0000C00E089580915C02882329F481E08093BD
:101D10005C020E94430E0895BF92CF92DF92EF9231
:101D2000FF920F931F93082F162FF42E0E94820EFE
:101D30000E946F0DB4B0C5B0DAB0EBB02898112393
:101D400011F05A9A01C05A9884B1826384B9579AA3
:101D500081E0F81629F0802F82958F700E94BB0DCC
:101D6000802F8F700E94BB0DDAB8EBB8B4B8C5B83D
:101D70001F910F91FF90EF90DF90CF90BF9008954B
:101D800060E042E00E948C0E08950F931F93082F8D
:101D9000162F08C0002311F480E101C084E10E94E5
:101DA000C00E11501123B1F71F910F9108950E9499
:101DB000C50E08958CE00E94C00E08950E94DA0EB0
:101DC0000895813011F48FE001C08EE00E94C00EB2
:101DD00008950E94E10E0895A4E0B0E0E2EFFEE075
:101DE0000C940B16182F062F80E8898380EC8A83C9
:101DF00084E98B8384ED8C83FE01E60FF11D8181E4
:101E0000810F0E94C00E1093570200935602249631
:101E1000E4E00C9427160E94EC0E089581E00E94E5
:101E2000C00E8091540290915502892B19F160E007
:101E300070E208C0E0915402F0915502E40FF51FE2
:101E400070836F5F462F50E080913C0190E00197D6
:101E500020913D0130E0FC01E29FC001E39F900D25
:101E6000F29F900D11244817590724F3109257023E
:101E70001092560208950E940E0F089561E042E00C
:101E80000E948C0E08950F931F93CF93DF9300E071
:101E900010E8C82FD0E0812F90E08C239D23892B60
:101EA00011F081E301C080E30E943E0F0F5F083014
:101EB00011F01695F0CFDF91CF911F910F910895FA
:101EC0000E94430F08958A3010F4805D01C0895C40
:101ED0000E943E0F08951F93182F82958F700E94C5
:101EE000630F812F8F700E94630F1F9108951F93BE
:101EF000182F892F0E946B0F812F0E946B0F1F914B
:101F000008950E94770F08950E946B0F08956F92B5
:101F10007F928F929F92AF92BF92CF92DF92FF9269
:101F20000F93DF93CF93CDB7DEB72A970FB6F89410
:101F3000DEBF0FBECDBF5B016C010AE03E0108941D
:101F4000611C711CFA2CC601B5012AE030E040E0AA
:101F500050E00E94C015C901DA015C016D01015019
:101F60004301800E911C80E3F80EC601B5012AE002
:101F700030E040E050E00E946E15F61AF401F08265
:101F8000A114B104C104D104E9F608C0F601E00FC0
:101F9000F11D80810E943E0F0F5F04C06E01089406
:101FA000C11CD11C0A3090F32A960FB6F894DEBFFC
:101FB0000FBECDBFCF91DF910F91FF90DF90CF90FB
:101FC000BF90AF909F908F907F906F9008950E94E8
:101FD000870F0895EF92FF920F931F937B018C015F
:101FE00097FF0BC010950095F094E094E11CF11C54
:101FF000011D111D8DE20E943E0FC801B7010E9414
:10200000870F1F910F91FF90EF9008950E94EA0FA4
:102010000895CF93DF93EC0103C00E943E0F2196F9
:10202000FE0184918823C9F7DF91CF9108950E9422
:1020300009100895CF93DF93EC0103C021960E940D
:102040003E0F88818823D1F7DF91CF9108950E94B8
:102050001A1008950E943E0F08950E943E0F0895A1
:10206000A0E0B0E0E6E3F0E10C940716E82E8091E2
:10207000540290915502892B09F405C12AE0E21619
:1020800009F446C038E0E316C9F480915702815044
:10209000809357028F3F51F4809156028150809374
:1020A000560280913D0181508093570280915602E3
:1020B0008F3F09F0E2C010925602DDC08E2D0E94C3
:1020C0003E0F209156022223C9F030E021503040CB
:1020D00080913D0190E0AC01249FC001259F900DAF
:1020E000349F900D112420915702E0915402F091F9
:1020F0005502E80FF91FE20FF11DE08280915702AF
:102100008F5F8093570290913D01891709F0BBC002
:1021100040915602242F30E080913C0190E00197DD
:102120002817390709F0A4C0C0E0D0E044C080E01F
:102130006C2F0E94EC0EFF246E010894C11CD11C70
:1021400035C00F2D10E090E09C01C29FC001C39FDD
:10215000900DD29F900D1124E0915402F091550200
:10216000E00FF11FE80FF91F80810E943E0FE09100
:102170005402F091550280913D0190E0C89FD0013A
:10218000C99FB00DD89FB00D1124E00FF11FAE0F05
:10219000BF1FAC01C49EC001C59E900DD49E900D82
:1021A0001124E80FF91F80818C93F39480913D01F5
:1021B000F81638F2E60160913C01862F90E0029714
:1021C000C817D9070CF4B3CF623008F440C062508E
:1021D00080E00E94EC0EFF24E0E2DE2E34C00F2DE2
:1021E00010E080913C0190E0029730E0AC01429F0A
:1021F000C001439F900D529F900D1124E091540215
:10220000F0915502E00FF11FE80FF91F80810E9445
:102210003E0F20913C0130E02250304080913D0142
:1022200090E0AC01249FC001259F900D349F900D3C
:102230001124E0915402F0915502E00FF11FE80FD4
:10224000F91FD082F39420913D01F21640F2609183
:102250003C01615080E00E94EC0E00E004C080E28E
:102260000E943E0F0F5F80913D010817C0F303C02D
:102270004F5F40935602109257028091570260912F
:1022800056020E94EC0E2E2D332727FD3095C901F2
:10229000CDB7DEB7E8E00C942316EF92FF920F93D0
:1022A0001F93CF93DF937C01062F10E0F3E0000F24
:1022B000111FFA95E1F7C0E0D0E09E01200F822FB8
:1022C00080640E94C00EF701EC0FFD1FE4918E2F79
:1022D0000E943E0F2196C830D10579F7CDB7DEB701
:1022E000E6E00C9425160E944D11089560E041E04F
:1022F0000E948C0E08950F931F93CF93DF93082FA6
:10230000162FEA010BC0002311F488E101C08CE113
:102310000E94C00ECE010E94D3141150112399F7D0
:10232000DF91CF911F910F9108950E947B11089525
:10233000282F883068F481E090E002C0880F991F50
:102340002A95E2F7282FAAE2B0E0EBE2F0E029C0FC
:102350008E3080F430E02850304081E090E002C0C0
:10236000880F991F2A95E2F7282FA4E2B0E0E5E252
:10237000F0E017C0853130F020E0A0E0B0E0E0E010
:10238000F0E00FC030E02E50304081E090E002C01D
:10239000880F991F2A95E2F7282FA7E2B0E0E8E21C
:1023A000F0E06F3F19F48081822709C0662319F09D
:1023B0008081822B04C09081822F80958923808325
:1023C0008C91822B8C93089508950895E0EBF0E0B2
:1023D00083EF8083808184BDE1EBF0E082E0808345
:1023E000808185BDE4EBF0E010828081E3EBF0E0DA
:1023F0008083808188BD88B587BD86E060E00E94CB
:10240000981185E060E00E9498118BE060E00E94E6
:10241000981183E060E00E949811089580915D0218
:10242000882329F481E080935D020E94E6110895DB
:10243000CF93DF93EC010E940E12D7FD02C020E083
:1024400004C0D095C195DF4F21E0CE01CF3FD1052B
:1024500019F014F08FEF90E0222319F018BC87BD1B
:1024600002C088BD17BCDF91CF9108950E94181259
:102470000895CF93DF93EC010E940E12D7FD02C0A6
:1024800020E004C0D095C195DF4F21E0CE01CF3FC1
:10249000D10519F014F08FEF90E0222329F010926B
:1024A000B4008093B30004C08093B4001092B300D2
:1024B000DF91CF9108950E94391208950F931F93D1
:1024C0008B010E941812C8010E9439121F910F91AE
:1024D00008950E945E1208950895089580915E0205
:1024E000882391F481E080935E0284B18D7C84B96D
:1024F00085B1826385B985E090E06F9364E06A9569
:10250000F1F76F910197C9F7089584B18D7C84B973
:1025100085B1826385B985E090E06F9364E06A9548
:10252000F1F76F910197C9F708951F93182F0E9433
:102530006E1283B1809581231F9108950E94951298
:102540000895CF92DF92EF92FF920F931F93C82EC0
:10255000D3B00E9404157B018C010E946E12809101
:102560006402813011F1813038F0823009F444C0C6
:10257000833009F08BC066C02C2D30E08D2D90E0AB
:102580008095909528233923232B09F47FC0D0947C
:10259000DC20D0925F02E0926002F0926102009330
:1025A00062021093630281E06FC08091600290919B
:1025B0006102A0916202B0916302E81AF90A0A0B63
:1025C0001B0B8FE0E816F1040105110508F45EC04D
:1025D00040915F028D2D90E080959095242F30E002
:1025E00082239323892B59F182E080936402D09453
:1025F000D422D0925F024AC040915F02642F70E003
:102600002D2D30E0CB0182239323892B79F083E0B9
:10261000809364024D2140935F02E0926002F09249
:102620006102009362021093630230C08C2D90E02F
:1026300020953095822393236817790739F11092FA
:10264000640224C08091600290916102A0916202B4
:10265000B0916302E81AF90A0A0B1B0B8FE0E81627
:10266000F1040105110590F040915F02842F90E084
:102670002D2D30E082239323892B29F010926402C0
:10268000842F8D2104C082E08093640280E01F913A
:102690000F91FF90EF90DF90CF9008950E94A112CC
:1026A0000895CF92DF92EF92FF920F931F93C82E5F
:1026B000D3B0D0940E9404157B018C010E946E124D
:1026C00080916A02813011F1813038F0823009F452
:1026D00044C0833009F08BC066C02C2D30E08D2DB6
:1026E00090E08095909528233923232B09F47FC00F
:1026F000D094DC20D0926502E0926602F0926702EC
:10270000009368021093690281E06FC080916602B5
:1027100090916702A0916802B0916902E81AF90AE3
:102720000A0B1B0B8FE0E816F1040105110508F4F4
:102730005EC0409165028D2D90E080959095242F8C
:1027400030E082239323892B59F182E080936A023F
:10275000D094D422D09265024AC0609165022D2D9A
:1027600030E0462F50E0C90184239523892B79F06E
:1027700083E080936A02D622D0926502E0926602DC
:10278000F0926702009368021093690230C08C2DAA
:1027900090E020953095822393234817590739F10B
:1027A00010926A0224C08091660290916702A09103
:1027B0006802B0916902E81AF90A0A0B1B0B8FE054
:1027C000E816F1040105110590F0409165028D2D88
:1027D00090E0242F30E082239323892B29F010925C
:1027E0006A028D2D842304C082E080936A0280E017
:1027F0001F910F91FF90EF90DF90CF9008950E946E
:10280000511308951F93CF93DF93182F0E946E12D8
:10281000C12FD0E083B190E08C239D23892BD1F38D
:102820008AE090E00E94D31483B190E08C239D2332
:10283000892B81F383B18123DF91CF911F9108957B
:102840000E94021408951F93CF93DF93182F0E94C4
:102850006E12C12FD0E083B190E0809590958C23CB
:102860009D23892BC1F38AE090E00E94D31483B1A9
:1028700090E0809590958C239D23892B61F383B103
:1028800080958123DF91CF911F9108951F930E941E
:102890002314182F0E940214812F1F9108950E9463
:1028A000461408950E942314089508950895A2E0FF
:1028B000B0E0EDE5F4E10C940D1620917902309131
:1028C0007A02CE0101962115310519F48358924000
:1028D00002C0821B930B9A83898389819A812296F5
:1028E000E2E00C9429160E94571408952F928F93BA
:1028F0009F932FB680916F02909170020196809302
:102900006F029093700290E080917102891F809312
:102910007102909177029C5F90937702809176028A
:1029200080519742C0F09093770280937602809115
:1029300072029091730201968093720290937302D7
:1029400090E080917402891F8093740280917502D7
:10295000891F809375022FBE9F918F912F9018959C
:1029600028EE33E009C0F9016F9364E06A95F1F74E
:102970006F913197C9F701970097A9F708956F5F95
:102980007F4F8F4F9F4F660F771F881F991F25E03E
:1029900030E040E050E00E94C015CA01B90108953E
:1029A0000E94BF14089528EE33E009C0F9016F9327
:1029B00064E06A95F1F76F913197C9F70197009735
:1029C000A9F70895A0E7B0E08C918E7F8C93E0EB9F
:1029D000F0E0808183608083E1EBF0E08081807FA4
:1029E0008083808182608083B89A8C9181608C938F
:1029F0007894089580917802882329F481E0809367
:102A000078020E94E21408950E94FA14E0E7F0E0D0
:102A100080818E7F80832091720230917302409179
:102A2000740250917502808181608083B901CA016E
:102A300008950E94041508950E94FA148091700070
:102A40008E7F809370006091B20080916E029091B1
:102A50006F02A0917002B0917102B89905C0262F43
:102A600030E040E050E011C08091B20020916E0251
:102A700030916F02409170025091710220503F4F8F
:102A80004F4F5F4F90E0A0E0B0E0282B392B4A2B4E
:102A90005B2B80917000816080937000B901CA0146
:102AA00008950E941C1508950E94FA14E0E7F0E0D2
:102AB00080818E7F80831092720210927302109236
:102AC0007402109275021092770210927602808141
:102AD0008160808308950E9454150895629FD001FB
:102AE000739FF001829FE00DF11D649FE00DF11DC9
:102AF000929FF00D839FF00D749FF00D659FF00D78
:102B00009927729FB00DE11DF91F639FB00DE11D64
:102B1000F91FBD01CF0111240895991B79E004C06C
:102B2000991F961708F0961B881F7A95C9F780950C
:102B30000895AA1BBB1B51E107C0AA1FBB1FA61704
:102B4000B70710F0A61BB70B881F991F5A95A9F756
:102B500080959095BC01CD01089597FB092E07261D
:102B60000AD077FD04D0E5DF06D000201AF4709576
:102B700061957F4F0895F6F7909581959F4F089541
:102B8000A1E21A2EAA1BBB1BFD010DC0AA1FBB1F71
:102B9000EE1FFF1FA217B307E407F50720F0A21BE3
:102BA000B30BE40BF50B661F771F881F991F1A9450
:102BB00069F760957095809590959B01AC01BD017A
:102BC000CF01089597FB092E05260ED057FD04D09E
:102BD000D7DF0AD0001C38F45095409530952195E8
:102BE0003F4F4F4F5F4F0895F6F790958095709542
:102BF00061957F4F8F4F9F4F08952F923F924F9235
:102C00005F926F927F928F929F92AF92BF92CF927C
:102C1000DF92EF92FF920F931F93CF93DF93CDB785
:102C2000DEB7CA1BDB0B0FB6F894DEBF0FBECDBFFD
:102C300009942A88398848885F846E847D848C84CE
:102C40009B84AA84B984C884DF80EE80FD800C81D7
:102C50001B81AA81B981CE0FD11D0FB6F894DEBFBA
:102C60000FBECDBFED010895EE0FFF1F0590F4914B
:102C7000E02D0994CF93DF93BC018230910510F4CD
:102C800062E070E0A0917B02B0917C02ED01E0E097
:102C9000F0E040E050E021C08881998186179707D5
:102CA00069F48A819B81309719F09383828304C0F1
:102CB00090937C0280937B02FE0134C068177907F1
:102CC00038F44115510519F08417950708F4AC0143
:102CD000FE018A819B819C01E9012097E9F641155B
:102CE0005105A9F1CA01861B970B049708F4BA0194
:102CF000E0E0F0E02AC08D919C9111978417950730
:102D0000F9F46417750781F412968D919C911397CD
:102D1000309719F09383828304C090937C02809350
:102D20007B02FD0132964FC0CA01861B970BFD0145
:102D3000E80FF91F6193719302978D939C9343C0A1
:102D4000FD01828193819C01D9011097A1F68091A8
:102D5000790290917A02892B41F4809149029091F5
:102D60004A0290937A028093790240914B025091EB
:102D70004C024115510541F44DB75EB780914702B1
:102D800090914802481B590B2091790230917A02A8
:102D900024173507B0F4CA01821B930B86179707D7
:102DA00080F0AB014E5F5F4F8417950750F0420FE4
:102DB000531F50937A0240937902F9016193719302
:102DC00002C0E0E0F0E0CF01DF91CF910895CF9312
:102DD000DF93009709F450C0EC0122971B821A82FE
:102DE000A0917B02B0917C02109709F140E050E085
:102DF000AC17BD0708F1BB83AA83FE012191319175
:102E0000E20FF31FAE17BF0779F48D919C911197D4
:102E1000280F391F2E5F3F4F3983288312968D91DB
:102E20009C9113979B838A834115510571F4D0932C
:102E30007C02C0937B0220C012968D919C911397C7
:102E4000AD01009711F0DC01D3CFFA01D383C28327
:102E500021913191E20FF31FCE17DF0769F48881CA
:102E60009981280F391F2E5F3F4FFA01318320834C
:102E70008A819B8193838283DF91CF9108950F9301
:102E80001F93CF93DF938C01EB01009731F4611511
:102E9000710519F420E030E038C081E090E06EE088
:102EA00070E00E948B17FC019C01009771F180E893
:102EB0008383209771F0D387C28781E883838091D1
:102EC0007D0290917E02892B21F4F0937E02E093A3
:102ED0007D0201151105C9F0118700878381826089
:102EE000838380917F0290918002892B71F4F0930B
:102EF0008002E0937F028091810290918202892B6F
:102F000021F4F0938202E0938102C901DF91CF9115
:102F10001F910F9108950F931F93CF93DF93689F95
:102F20008001699F100D789F100D1124C8010E9427
:102F30003A16EC01009729F060E070E0A8010E94C9
:102F4000A717CE01DF91CF911F910F910895DC015A
:102F500001C06D9341505040E0F70895F894FFCFC1
:102F6000416C69676E426F74003E6733323E3E6368
:102F70003332003D3F00216333320021653332009C
:102F80002167333200547261636B00706F77657232
:102F9000008813040400D007F4010F0002080100A8
:102FA000000000000000000001020203030303040C
:102FB00004040404040404050505050505050505C8
:102FC00005050505050505060606060606060606A8
:102FD0000606060606060606060606060606060691
:102FE0000606060606060607070707070707070778
:102FF0000707070707070707070707070707070761
:103000000707070707070707070707070707070750
:103010000707070707070707070707070707070740
:103020000707070707070708080808080808080827
:103030000808080808080808080808080808080810
:103040000808080808080808080808080808080800
:1030500008080808080808080808080808080808F0
:1030600008080808080808080808080808080808E0
:1030700008080808080808080808080808080808D0
:1030800008080808080808080808080808080808C0
:1030900008080808080808080808080808080808B0
:0E30A000080808080808082000830200000045
:00000001FF
